{
  "contractName": "AdminFeeWallet",
  "abi": [
    {
      "inputs": [],
      "stateMutability": "nonpayable",
      "type": "constructor"
    },
    {
      "anonymous": false,
      "inputs": [
        {
          "indexed": true,
          "internalType": "address",
          "name": "sender",
          "type": "address"
        },
        {
          "indexed": true,
          "internalType": "uint256",
          "name": "transactionId",
          "type": "uint256"
        }
      ],
      "name": "Confirmation",
      "type": "event"
    },
    {
      "anonymous": false,
      "inputs": [
        {
          "indexed": true,
          "internalType": "address",
          "name": "sender",
          "type": "address"
        },
        {
          "indexed": false,
          "internalType": "uint256",
          "name": "value",
          "type": "uint256"
        }
      ],
      "name": "Deposit",
      "type": "event"
    },
    {
      "anonymous": false,
      "inputs": [
        {
          "indexed": false,
          "internalType": "string",
          "name": "",
          "type": "string"
        }
      ],
      "name": "Event",
      "type": "event"
    },
    {
      "anonymous": false,
      "inputs": [
        {
          "indexed": true,
          "internalType": "uint256",
          "name": "transactionId",
          "type": "uint256"
        }
      ],
      "name": "Execution",
      "type": "event"
    },
    {
      "anonymous": false,
      "inputs": [
        {
          "indexed": true,
          "internalType": "uint256",
          "name": "transactionId",
          "type": "uint256"
        }
      ],
      "name": "ExecutionFailure",
      "type": "event"
    },
    {
      "anonymous": false,
      "inputs": [
        {
          "indexed": true,
          "internalType": "address",
          "name": "owner",
          "type": "address"
        }
      ],
      "name": "OwnerAdded",
      "type": "event"
    },
    {
      "anonymous": false,
      "inputs": [
        {
          "indexed": true,
          "internalType": "address",
          "name": "owner",
          "type": "address"
        }
      ],
      "name": "OwnerRemoved",
      "type": "event"
    },
    {
      "anonymous": false,
      "inputs": [
        {
          "indexed": true,
          "internalType": "address",
          "name": "previousOwner",
          "type": "address"
        },
        {
          "indexed": true,
          "internalType": "address",
          "name": "newOwner",
          "type": "address"
        }
      ],
      "name": "OwnershipTransferred",
      "type": "event"
    },
    {
      "anonymous": false,
      "inputs": [
        {
          "indexed": true,
          "internalType": "address",
          "name": "reader",
          "type": "address"
        }
      ],
      "name": "ReaderAdded",
      "type": "event"
    },
    {
      "anonymous": false,
      "inputs": [
        {
          "indexed": true,
          "internalType": "address",
          "name": "reader",
          "type": "address"
        }
      ],
      "name": "ReaderRemoved",
      "type": "event"
    },
    {
      "anonymous": false,
      "inputs": [
        {
          "indexed": true,
          "internalType": "address",
          "name": "sender",
          "type": "address"
        },
        {
          "indexed": true,
          "internalType": "uint256",
          "name": "transactionId",
          "type": "uint256"
        }
      ],
      "name": "Rejection",
      "type": "event"
    },
    {
      "anonymous": false,
      "inputs": [
        {
          "indexed": false,
          "internalType": "uint256",
          "name": "required",
          "type": "uint256"
        }
      ],
      "name": "RequirementChange",
      "type": "event"
    },
    {
      "anonymous": false,
      "inputs": [
        {
          "indexed": true,
          "internalType": "address",
          "name": "sender",
          "type": "address"
        },
        {
          "indexed": true,
          "internalType": "uint256",
          "name": "transactionId",
          "type": "uint256"
        }
      ],
      "name": "Revocation",
      "type": "event"
    },
    {
      "anonymous": false,
      "inputs": [
        {
          "indexed": true,
          "internalType": "uint256",
          "name": "transactionId",
          "type": "uint256"
        }
      ],
      "name": "Submission",
      "type": "event"
    },
    {
      "anonymous": false,
      "inputs": [
        {
          "indexed": true,
          "internalType": "address",
          "name": "writer",
          "type": "address"
        }
      ],
      "name": "WriterAdded",
      "type": "event"
    },
    {
      "anonymous": false,
      "inputs": [
        {
          "indexed": true,
          "internalType": "address",
          "name": "writer",
          "type": "address"
        }
      ],
      "name": "WriterRemoved",
      "type": "event"
    },
    {
      "inputs": [],
      "name": "MAX_OWNER_COUNT",
      "outputs": [
        {
          "internalType": "uint256",
          "name": "",
          "type": "uint256"
        }
      ],
      "stateMutability": "view",
      "type": "function"
    },
    {
      "inputs": [
        {
          "internalType": "address",
          "name": "newOwner",
          "type": "address"
        }
      ],
      "name": "addOwner",
      "outputs": [],
      "stateMutability": "nonpayable",
      "type": "function"
    },
    {
      "inputs": [
        {
          "internalType": "address",
          "name": "newReader",
          "type": "address"
        }
      ],
      "name": "addReader",
      "outputs": [],
      "stateMutability": "nonpayable",
      "type": "function"
    },
    {
      "inputs": [
        {
          "internalType": "address",
          "name": "operatorAddr",
          "type": "address"
        }
      ],
      "name": "addWalletOperator",
      "outputs": [],
      "stateMutability": "nonpayable",
      "type": "function"
    },
    {
      "inputs": [
        {
          "internalType": "address",
          "name": "newWriter",
          "type": "address"
        }
      ],
      "name": "addWriter",
      "outputs": [],
      "stateMutability": "nonpayable",
      "type": "function"
    },
    {
      "inputs": [
        {
          "internalType": "uint256",
          "name": "_required",
          "type": "uint256"
        }
      ],
      "name": "changeRequirement",
      "outputs": [],
      "stateMutability": "nonpayable",
      "type": "function"
    },
    {
      "inputs": [
        {
          "internalType": "uint256",
          "name": "transactionId",
          "type": "uint256"
        }
      ],
      "name": "confirmTransaction",
      "outputs": [],
      "stateMutability": "nonpayable",
      "type": "function"
    },
    {
      "inputs": [
        {
          "internalType": "uint256",
          "name": "",
          "type": "uint256"
        },
        {
          "internalType": "address",
          "name": "",
          "type": "address"
        }
      ],
      "name": "confirmations",
      "outputs": [
        {
          "internalType": "bool",
          "name": "",
          "type": "bool"
        }
      ],
      "stateMutability": "view",
      "type": "function"
    },
    {
      "inputs": [
        {
          "internalType": "uint256",
          "name": "transactionId",
          "type": "uint256"
        }
      ],
      "name": "getConfirmationCount",
      "outputs": [
        {
          "internalType": "uint256",
          "name": "count",
          "type": "uint256"
        }
      ],
      "stateMutability": "view",
      "type": "function"
    },
    {
      "inputs": [
        {
          "internalType": "uint256",
          "name": "transactionId",
          "type": "uint256"
        }
      ],
      "name": "getConfirmations",
      "outputs": [
        {
          "internalType": "address[]",
          "name": "_confirmations",
          "type": "address[]"
        }
      ],
      "stateMutability": "view",
      "type": "function"
    },
    {
      "inputs": [],
      "name": "getOwnerCount",
      "outputs": [
        {
          "internalType": "uint256",
          "name": "",
          "type": "uint256"
        }
      ],
      "stateMutability": "view",
      "type": "function"
    },
    {
      "inputs": [],
      "name": "getOwners",
      "outputs": [
        {
          "internalType": "address[]",
          "name": "",
          "type": "address[]"
        }
      ],
      "stateMutability": "view",
      "type": "function"
    },
    {
      "inputs": [],
      "name": "getReaderList",
      "outputs": [
        {
          "internalType": "address[]",
          "name": "",
          "type": "address[]"
        }
      ],
      "stateMutability": "view",
      "type": "function"
    },
    {
      "inputs": [
        {
          "internalType": "bool",
          "name": "pending",
          "type": "bool"
        },
        {
          "internalType": "bool",
          "name": "executed",
          "type": "bool"
        }
      ],
      "name": "getTransactionCount",
      "outputs": [
        {
          "internalType": "uint256",
          "name": "count",
          "type": "uint256"
        }
      ],
      "stateMutability": "view",
      "type": "function"
    },
    {
      "inputs": [
        {
          "internalType": "uint256",
          "name": "from",
          "type": "uint256"
        },
        {
          "internalType": "uint256",
          "name": "to",
          "type": "uint256"
        },
        {
          "internalType": "bool",
          "name": "pending",
          "type": "bool"
        },
        {
          "internalType": "bool",
          "name": "executed",
          "type": "bool"
        }
      ],
      "name": "getTransactionIds",
      "outputs": [
        {
          "internalType": "uint256[]",
          "name": "_transactionIds",
          "type": "uint256[]"
        }
      ],
      "stateMutability": "view",
      "type": "function"
    },
    {
      "inputs": [],
      "name": "getWalletOperatorList",
      "outputs": [
        {
          "internalType": "address[]",
          "name": "",
          "type": "address[]"
        }
      ],
      "stateMutability": "view",
      "type": "function"
    },
    {
      "inputs": [],
      "name": "getWalletOwner",
      "outputs": [
        {
          "internalType": "address",
          "name": "",
          "type": "address"
        }
      ],
      "stateMutability": "view",
      "type": "function"
    },
    {
      "inputs": [],
      "name": "getWriterList",
      "outputs": [
        {
          "internalType": "address[]",
          "name": "",
          "type": "address[]"
        }
      ],
      "stateMutability": "view",
      "type": "function"
    },
    {
      "inputs": [
        {
          "internalType": "uint256",
          "name": "transactionId",
          "type": "uint256"
        }
      ],
      "name": "isConfirmed",
      "outputs": [
        {
          "internalType": "bool",
          "name": "",
          "type": "bool"
        }
      ],
      "stateMutability": "view",
      "type": "function"
    },
    {
      "inputs": [
        {
          "internalType": "address",
          "name": "addr",
          "type": "address"
        }
      ],
      "name": "isOwner",
      "outputs": [
        {
          "internalType": "bool",
          "name": "",
          "type": "bool"
        }
      ],
      "stateMutability": "view",
      "type": "function"
    },
    {
      "inputs": [
        {
          "internalType": "uint256",
          "name": "transId",
          "type": "uint256"
        }
      ],
      "name": "isRejected",
      "outputs": [
        {
          "internalType": "bool",
          "name": "",
          "type": "bool"
        }
      ],
      "stateMutability": "view",
      "type": "function"
    },
    {
      "inputs": [
        {
          "internalType": "address",
          "name": "addr",
          "type": "address"
        }
      ],
      "name": "isWriter",
      "outputs": [
        {
          "internalType": "bool",
          "name": "",
          "type": "bool"
        }
      ],
      "stateMutability": "view",
      "type": "function"
    },
    {
      "inputs": [
        {
          "internalType": "uint256",
          "name": "",
          "type": "uint256"
        },
        {
          "internalType": "string",
          "name": "",
          "type": "string"
        }
      ],
      "name": "miscellaneousData",
      "outputs": [
        {
          "internalType": "string",
          "name": "",
          "type": "string"
        }
      ],
      "stateMutability": "view",
      "type": "function"
    },
    {
      "inputs": [
        {
          "internalType": "uint256",
          "name": "transId",
          "type": "uint256"
        }
      ],
      "name": "rejectTransaction",
      "outputs": [],
      "stateMutability": "nonpayable",
      "type": "function"
    },
    {
      "inputs": [
        {
          "internalType": "address",
          "name": "owner",
          "type": "address"
        }
      ],
      "name": "removeOwner",
      "outputs": [],
      "stateMutability": "nonpayable",
      "type": "function"
    },
    {
      "inputs": [
        {
          "internalType": "address",
          "name": "operatorAddr",
          "type": "address"
        }
      ],
      "name": "removeWalletOperator",
      "outputs": [],
      "stateMutability": "nonpayable",
      "type": "function"
    },
    {
      "inputs": [
        {
          "internalType": "address",
          "name": "existingReader",
          "type": "address"
        }
      ],
      "name": "removerReader",
      "outputs": [],
      "stateMutability": "nonpayable",
      "type": "function"
    },
    {
      "inputs": [
        {
          "internalType": "address",
          "name": "existingWriter",
          "type": "address"
        }
      ],
      "name": "removerWriter",
      "outputs": [],
      "stateMutability": "nonpayable",
      "type": "function"
    },
    {
      "inputs": [],
      "name": "renounceOwnership",
      "outputs": [],
      "stateMutability": "nonpayable",
      "type": "function"
    },
    {
      "inputs": [],
      "name": "required",
      "outputs": [
        {
          "internalType": "uint256",
          "name": "",
          "type": "uint256"
        }
      ],
      "stateMutability": "view",
      "type": "function"
    },
    {
      "inputs": [
        {
          "internalType": "uint256",
          "name": "transactionId",
          "type": "uint256"
        }
      ],
      "name": "revokeConfirmation",
      "outputs": [],
      "stateMutability": "nonpayable",
      "type": "function"
    },
    {
      "inputs": [
        {
          "internalType": "address",
          "name": "addr",
          "type": "address"
        }
      ],
      "name": "setWalletOwner",
      "outputs": [],
      "stateMutability": "nonpayable",
      "type": "function"
    },
    {
      "inputs": [
        {
          "internalType": "address",
          "name": "a",
          "type": "address"
        }
      ],
      "name": "toBytes",
      "outputs": [
        {
          "internalType": "bytes",
          "name": "",
          "type": "bytes"
        }
      ],
      "stateMutability": "pure",
      "type": "function"
    },
    {
      "inputs": [],
      "name": "transactionCount",
      "outputs": [
        {
          "internalType": "uint256",
          "name": "",
          "type": "uint256"
        }
      ],
      "stateMutability": "view",
      "type": "function"
    },
    {
      "inputs": [
        {
          "internalType": "uint256",
          "name": "",
          "type": "uint256"
        }
      ],
      "name": "transactions",
      "outputs": [
        {
          "internalType": "uint256",
          "name": "transId",
          "type": "uint256"
        },
        {
          "internalType": "bool",
          "name": "isDirectInvokeData",
          "type": "bool"
        },
        {
          "internalType": "address",
          "name": "destination",
          "type": "address"
        },
        {
          "internalType": "uint256",
          "name": "value",
          "type": "uint256"
        },
        {
          "internalType": "bytes",
          "name": "data",
          "type": "bytes"
        },
        {
          "internalType": "uint256",
          "name": "timestamp",
          "type": "uint256"
        },
        {
          "internalType": "uint256",
          "name": "blockNumber",
          "type": "uint256"
        },
        {
          "internalType": "bool",
          "name": "executed",
          "type": "bool"
        },
        {
          "internalType": "bool",
          "name": "rejected",
          "type": "bool"
        }
      ],
      "stateMutability": "view",
      "type": "function"
    },
    {
      "inputs": [
        {
          "internalType": "uint256",
          "name": "",
          "type": "uint256"
        }
      ],
      "name": "walletOperatorList",
      "outputs": [
        {
          "internalType": "address",
          "name": "",
          "type": "address"
        }
      ],
      "stateMutability": "view",
      "type": "function"
    },
    {
      "inputs": [],
      "name": "walletOwner",
      "outputs": [
        {
          "internalType": "address",
          "name": "",
          "type": "address"
        }
      ],
      "stateMutability": "view",
      "type": "function"
    },
    {
      "stateMutability": "payable",
      "type": "receive"
    },
    {
      "inputs": [
        {
          "internalType": "address",
          "name": "addr",
          "type": "address"
        }
      ],
      "name": "setInternalSmartContractConfig",
      "outputs": [],
      "stateMutability": "nonpayable",
      "type": "function"
    },
    {
      "inputs": [],
      "name": "getInternalSmartContractConfig",
      "outputs": [
        {
          "internalType": "address",
          "name": "",
          "type": "address"
        }
      ],
      "stateMutability": "view",
      "type": "function"
    },
    {
      "inputs": [
        {
          "internalType": "address payable",
          "name": "dest",
          "type": "address"
        },
        {
          "internalType": "uint256",
          "name": "amount",
          "type": "uint256"
        }
      ],
      "name": "transferETH",
      "outputs": [],
      "stateMutability": "payable",
      "type": "function"
    }
  ],
  "bytecode": "0x60806040523480156200001157600080fd5b5060026000620000296001600160e01b03620000ce16565b6001600160a01b0381166000818152600160208190526040808320805460ff191683179055825491820183558280527f290decd9548b62a8d60345a988386fc84ba6bc95484008f6362f93160ef3e56390910180546001600160a01b031916841790555192935090917f8be0079c531659141344cd1fd0a4f28419497f9722a3daafe3b4186f6b6457e0908290a3508080620000c457600080fd5b50600955620000d2565b3390565b612f5780620000e26000396000f3fe60806040526004361061023f5760003560e01c80638145d1261161012e578063ba51a6df116100ab578063da2824a81161006f578063da2824a814610a6d578063dc8452cd14610aa0578063ddc6f5f614610ab5578063ef18374a14610ae8578063fba8b1e314610afd57610283565b8063ba51a6df1461099e578063bb7d9fa6146109c8578063c01a8c84146109fb578063ca2760f414610a25578063d74f8edd14610a5857610283565b8063a0e67e2b116100f2578063a0e67e2b146108d7578063a8abe69a146108ec578063afd8b1d11461092c578063b5dc40c31461095f578063b77bf6001461098957610283565b80638145d1261461075857806385aaed4e1461078b5780638b51d13f146107a05780639ace38c2146107ca578063a01013f8146108c257610283565b80633411c81c116101bc5780637065cb48116101805780637065cb48146106a5578063715018a6146106d8578063755765ab146106ed578063784547a7146107025780637b1a49091461072c57610283565b80633411c81c1461055b5780633a1abfe71461059457806354741525146105f9578063593b79fe1461063f5780635ce4e93d1461067257610283565b80631c95b98c116102035780631c95b98c146103695780631e556d901461049857806320ea8d86146104cb5780632b29ba23146104f55780632f54bf6e1461052857610283565b8063020bec221461028857806305bf37aa146102b9578063098f076e146102e3578063173825d9146103215780631ae879e81461035457610283565b366102835734156102815760408051348152905133917fe1fffcc4923d04b559f4d29a8bfc6cda04eb5b0d3c460751c2402c5c5cc9109c919081900360200190a25b005b600080fd5b34801561029457600080fd5b5061029d610b27565b604080516001600160a01b039092168252519081900360200190f35b3480156102c557600080fd5b50610281600480360360208110156102dc57600080fd5b5035610ba5565b3480156102ef57600080fd5b5061030d6004803603602081101561030657600080fd5b5035610d71565b604080519115158252519081900360200190f35b34801561032d57600080fd5b506102816004803603602081101561034457600080fd5b50356001600160a01b0316610d92565b34801561036057600080fd5b5061029d610f5a565b34801561037557600080fd5b506104236004803603604081101561038c57600080fd5b813591908101906040810160208201356401000000008111156103ae57600080fd5b8201836020820111156103c057600080fd5b803590602001918460018302840111640100000000831117156103e257600080fd5b91908080601f016020809104026020016040519081016040528093929190818152602001838380828437600092019190915250929550610f69945050505050565b6040805160208082528351818301528351919283929083019185019080838360005b8381101561045d578181015183820152602001610445565b50505050905090810190601f16801561048a5780820380516001836020036101000a031916815260200191505b509250505060405180910390f35b3480156104a457600080fd5b50610281600480360360208110156104bb57600080fd5b50356001600160a01b031661101b565b3480156104d757600080fd5b50610281600480360360208110156104ee57600080fd5b5035611240565b34801561050157600080fd5b5061030d6004803603602081101561051857600080fd5b50356001600160a01b0316611400565b34801561053457600080fd5b5061030d6004803603602081101561054b57600080fd5b50356001600160a01b031661141e565b34801561056757600080fd5b5061030d6004803603604081101561057e57600080fd5b50803590602001356001600160a01b031661143c565b3480156105a057600080fd5b506105a961145c565b60408051602080825283518183015283519192839290830191858101910280838360005b838110156105e55781810151838201526020016105cd565b505050509050019250505060405180910390f35b34801561060557600080fd5b5061062d6004803603604081101561061c57600080fd5b5080351515906020013515156114be565b60408051918252519081900360200190f35b34801561064b57600080fd5b506104236004803603602081101561066257600080fd5b50356001600160a01b031661152c565b34801561067e57600080fd5b506102816004803603602081101561069557600080fd5b50356001600160a01b031661155e565b3480156106b157600080fd5b50610281600480360360208110156106c857600080fd5b50356001600160a01b0316611691565b3480156106e457600080fd5b50610281611802565b3480156106f957600080fd5b5061029d61197f565b34801561070e57600080fd5b5061030d6004803603602081101561072557600080fd5b503561198e565b6102816004803603604081101561074257600080fd5b506001600160a01b038135169060200135611a17565b34801561076457600080fd5b506102816004803603602081101561077b57600080fd5b50356001600160a01b0316611aca565b34801561079757600080fd5b506105a9611cd0565b3480156107ac57600080fd5b5061062d600480360360208110156107c357600080fd5b5035611d30565b3480156107d657600080fd5b506107f4600480360360208110156107ed57600080fd5b5035611d9f565b604051808a815260200189151515158152602001886001600160a01b03166001600160a01b03168152602001878152602001806020018681526020018581526020018415151515815260200183151515158152602001828103825287818151815260200191508051906020019080838360005b8381101561087f578181015183820152602001610867565b50505050905090810190601f1680156108ac5780820380516001836020036101000a031916815260200191505b509a505050505050505050505060405180910390f35b3480156108ce57600080fd5b506105a9611e86565b3480156108e357600080fd5b506105a9611ee6565b3480156108f857600080fd5b506105a96004803603608081101561090f57600080fd5b508035906020810135906040810135151590606001351515611f46565b34801561093857600080fd5b506102816004803603602081101561094f57600080fd5b50356001600160a01b0316612073565b34801561096b57600080fd5b506105a96004803603602081101561098257600080fd5b50356121d5565b34801561099557600080fd5b5061062d61234c565b3480156109aa57600080fd5b50610281600480360360208110156109c157600080fd5b5035612352565b3480156109d457600080fd5b50610281600480360360208110156109eb57600080fd5b50356001600160a01b0316612406565b348015610a0757600080fd5b5061028160048036036020811015610a1e57600080fd5b5035612495565b348015610a3157600080fd5b5061028160048036036020811015610a4857600080fd5b50356001600160a01b031661266b565b348015610a6457600080fd5b5061062d612787565b348015610a7957600080fd5b5061028160048036036020811015610a9057600080fd5b50356001600160a01b031661278c565b348015610aac57600080fd5b5061062d6128ee565b348015610ac157600080fd5b5061028160048036036020811015610ad857600080fd5b50356001600160a01b03166128f4565b348015610af457600080fd5b5061062d612afa565b348015610b0957600080fd5b5061029d60048036036020811015610b2057600080fd5b5035612b00565b600080610b32612b27565b6001600160a01b03811660009081526001602081905260409091205491925060ff909116151514610b945760405162461bcd60e51b8152600401808060200182810382526027815260200180612d906027913960400191505060405180910390fd5b5050600e546001600160a01b031690565b336000908152600d602052604090205460ff16151560011480610bd25750600b546001600160a01b031633145b610c0d5760405162461bcd60e51b8152600401808060200182810382526038815260200180612d586038913960400191505060405180910390fd5b600081815260066020526040902060010154819061010090046001600160a01b0316610c6a5760405162461bcd60e51b8152600401808060200182810382526025815260200180612e3f6025913960400191505060405180910390fd5b60008281526007602090815260408083203380855292529091205483919060ff1615610cc75760405162461bcd60e51b8152600401808060200182810382526030815260200180612e0f6030913960400191505060405180910390fd5b600084815260066020819052604090912001548490610100900460ff1615610d205760405162461bcd60e51b815260040180806020018281038252602c815260200180612ef6602c913960400191505060405180910390fd5b6000858152600660208190526040808320909101805461ff00191661010017905551869133917f310fda14a1b3763badba87b2ca73948d00cc14d8fa2d6ee19a67ac90fa9afa679190a35050505050565b60008181526006602081905260409091200154610100900460ff165b919050565b6000610d9c612b27565b6001600160a01b03811660009081526001602081905260409091205491925060ff909116151514610dfe5760405162461bcd60e51b8152600401808060200182810382526027815260200180612d906027913960400191505060405180910390fd5b6001600160a01b038216600090815260016020526040902054829060ff16610e2557600080fd5b6001600160a01b0383166000908152600160205260408120805460ff191690558054905b81811015610ef257846001600160a01b031660008281548110610e6857fe5b6000918252602090912001546001600160a01b03161415610eea5760006001830381548110610e9357fe5b600091825260208220015481546001600160a01b03909116919083908110610eb757fe5b9060005260206000200160006101000a8154816001600160a01b0302191690836001600160a01b03160217905550610ef2565b600101610e49565b506000805480610efe57fe5b600082815260208120820160001990810180546001600160a01b03191690559091019091556040516001600160a01b038616917f58619076adf5bb0943d100ef88d52d7c3fd691b19d3a9071b555b651fbf418da91a250505050565b600b546001600160a01b031681565b60086020908152600092835260409283902082518084018301805192815290830193830193909320925281548351601f60026000196101006001861615020190931692909204918201839004830281018301909452808452908301828280156110135780601f10610fe857610100808354040283529160200191611013565b820191906000526020600020905b815481529060010190602001808311610ff657829003601f168201915b505050505081565b6000611025612b27565b6001600160a01b03811660009081526001602081905260409091205491925060ff9091161515146110875760405162461bcd60e51b8152600401808060200182810382526027815260200180612d906027913960400191505060405180910390fd5b600b5482906001600160a01b03808316911614156110d65760405162461bcd60e51b8152600401808060200182810382526026815260200180612e8f6026913960400191505060405180910390fd5b600b546001600160a01b0384811691161415611139576040805162461bcd60e51b815260206004820152601a60248201527f43616e6e6f742072656d6f76652077616c6c6574206f776e6572000000000000604482015290519081900360640190fd5b6001600160a01b0383166000908152600d60205260408120805460ff19169055600c54905b6001820381101561120c57846001600160a01b0316600c828154811061118057fe5b6000918252602090912001546001600160a01b0316141561120457600c60018303815481106111ab57fe5b600091825260209091200154600c80546001600160a01b0390921691839081106111d157fe5b9060005260206000200160006101000a8154816001600160a01b0302191690836001600160a01b0316021790555061120c565b60010161115e565b50600c80548061121857fe5b600082815260209020810160001990810180546001600160a01b031916905501905550505050565b336000908152600d602052604090205460ff1615156001148061126d5750600b546001600160a01b031633145b6112a85760405162461bcd60e51b8152600401808060200182810382526038815260200180612d586038913960400191505060405180910390fd5b60008181526007602090815260408083203380855292529091205482919060ff166113045760405162461bcd60e51b815260040180806020018281038252602c815260200180612db7602c913960400191505060405180910390fd5b60008381526006602081905260409091200154839060ff16156113585760405162461bcd60e51b815260040180806020018281038252602c815260200180612de3602c913960400191505060405180910390fd5b600084815260066020819052604090912001548490610100900460ff16156113b15760405162461bcd60e51b815260040180806020018281038252602c815260200180612ef6602c913960400191505060405180910390fd5b6000858152600760209081526040808320338085529252808320805460ff191690555187927ff6a317157440607f36269043eb55f1287a5a19ba2216afeab88cd46cbcfb88e991a35050505050565b6001600160a01b031660009081526005602052604090205460ff1690565b6001600160a01b031660009081526001602052604090205460ff1690565b600760209081526000928352604080842090915290825290205460ff1681565b606060048054806020026020016040519081016040528092919081815260200182805480156114b457602002820191906000526020600020905b81546001600160a01b03168152600190910190602001808311611496575b5050505050905090565b6000805b600a54811015611525578380156114ec57506000818152600660208190526040909120015460ff16155b80611511575082801561151157506000818152600660208190526040909120015460ff165b1561151d576001820191505b6001016114c2565b5092915050565b6040805160609290921b6bffffffffffffffffffffffff19166020830152805160148184030181526034909201905290565b6000611568612b27565b6001600160a01b03811660009081526001602081905260409091205491925060ff9091161515146115ca5760405162461bcd60e51b8152600401808060200182810382526027815260200180612d906027913960400191505060405180910390fd5b6001600160a01b0382166000908152600d6020526040902054829060ff161515600114156116295760405162461bcd60e51b815260040180806020018281038252602b815260200180612e64602b913960400191505060405180910390fd5b50506001600160a01b03166000818152600d60205260408120805460ff19166001908117909155600c805491820181559091527fdf6966c971051c3d54ec59162606531493a51404a002842f56009d7e5cf4a8c70180546001600160a01b0319169091179055565b600061169b612b27565b6001600160a01b03811660009081526001602081905260409091205491925060ff9091161515146116fd5760405162461bcd60e51b8152600401808060200182810382526027815260200180612d906027913960400191505060405180910390fd5b6001600160a01b038216600090815260016020819052604090912054839160ff90911615151415611775576040805162461bcd60e51b815260206004820152601b60248201527f4164647265737320616c726561647920697320616e206f776e65720000000000604482015290519081900360640190fd5b6001600160a01b0383166000818152600160208190526040808320805460ff191683179055825491820183558280527f290decd9548b62a8d60345a988386fc84ba6bc95484008f6362f93160ef3e56390910180546001600160a01b03191684179055517f994a936646fe87ffe4f1e469d3d6aa417d6b855598397f323de5b449f765f0c39190a2505050565b600061180c612b27565b6001600160a01b03811660009081526001602081905260409091205491925060ff90911615151461186e5760405162461bcd60e51b8152600401808060200182810382526027815260200180612d906027913960400191505060405180910390fd5b6000611878612b27565b6001600160a01b0381166000908152600160205260408120805460ff191690559091505b6000546000190181101561194d57816001600160a01b0316600082815481106118c157fe5b6000918252602090912001546001600160a01b03161415611945576000805460001981019081106118ee57fe5b600091825260208220015481546001600160a01b0390911691908390811061191257fe5b9060005260206000200160006101000a8154816001600160a01b0302191690836001600160a01b0316021790555061194d565b60010161189c565b50600080548061195957fe5b600082815260209020810160001990810180546001600160a01b03191690550190555050565b600b546001600160a01b031690565b600080805b600c54811015611a0d576000848152600760205260408120600c8054919291849081106119bc57fe5b60009182526020808320909101546001600160a01b0316835282019290925260400190205460ff16156119f0576001820191505b600954821415611a0557600192505050610d8d565b600101611993565b5060009392505050565b611a203361141e565b80611a3f5750336000908152600d602052604090205460ff1615156001145b80611a545750600b546001600160a01b031633145b611a8f5760405162461bcd60e51b8152600401808060200182810382526041815260200180612eb56041913960600191505060405180910390fd5b6040516001600160a01b0383169082156108fc029083906000818181858888f19350505050158015611ac5573d6000803e3d6000fd5b505050565b6000611ad4612b27565b6001600160a01b03811660009081526001602081905260409091205491925060ff909116151514611b365760405162461bcd60e51b8152600401808060200182810382526027815260200180612d906027913960400191505060405180910390fd5b6001600160a01b038216600090815260056020526040902054829060ff16611b98576040805162461bcd60e51b815260206004820152601060248201526f15dc9a5d195c881b9bdd08195e1a5cdd60821b604482015290519081900360640190fd5b6001600160a01b0383166000908152600560205260408120805460ff19169055600454905b81811015611c6857846001600160a01b031660048281548110611bdc57fe5b6000918252602090912001546001600160a01b03161415611c605760046001830381548110611c0757fe5b600091825260209091200154600480546001600160a01b039092169183908110611c2d57fe5b9060005260206000200160006101000a8154816001600160a01b0302191690836001600160a01b03160217905550611c68565b600101611bbd565b506004805480611c7457fe5b600082815260208120820160001990810180546001600160a01b03191690559091019091556040516001600160a01b038616917f86e5bbceda94081c32220d685f37cc4e3ea7bb0be2dfbf0cb703579505a5390e91a250505050565b606060028054806020026020016040519081016040528092919081815260200182805480156114b4576020028201919060005260206000209081546001600160a01b03168152600190910190602001808311611496575050505050905090565b6000805b600c54811015611d99576000838152600760205260408120600c805491929184908110611d5d57fe5b60009182526020808320909101546001600160a01b0316835282019290925260400190205460ff1615611d91576001820191505b600101611d34565b50919050565b600660209081526000918252604091829020805460018083015460028085015460038601805489516101009682161587026000190190911693909304601f8101899004890284018901909952888352949760ff841697949093046001600160a01b0316959094909391929091830182828015611e5c5780601f10611e3157610100808354040283529160200191611e5c565b820191906000526020600020905b815481529060010190602001808311611e3f57829003601f168201915b50505050600483015460058401546006909401549293909290915060ff8082169161010090041689565b6060600c8054806020026020016040519081016040528092919081815260200182805480156114b4576020028201919060005260206000209081546001600160a01b03168152600190910190602001808311611496575050505050905090565b606060008054806020026020016040519081016040528092919081815260200182805480156114b4576020028201919060005260206000209081546001600160a01b03168152600190910190602001808311611496575050505050905090565b606080600a54604051908082528060200260200182016040528015611f75578160200160208202803883390190505b5090506000805b600a54811015611ff857858015611fa657506000818152600660208190526040909120015460ff16155b80611fcb5750848015611fcb57506000818152600660208190526040909120015460ff165b15611ff05780838381518110611fdd57fe5b6020026020010181815250506001820191505b600101611f7c565b878703604051908082528060200260200182016040528015612024578160200160208202803883390190505b5093508790505b868110156120685782818151811061203f57fe5b6020026020010151848983038151811061205557fe5b602090810291909101015260010161202b565b505050949350505050565b600061207d612b27565b6001600160a01b03811660009081526001602081905260409091205491925060ff9091161515146120df5760405162461bcd60e51b8152600401808060200182810382526027815260200180612d906027913960400191505060405180910390fd5b6001600160a01b038216600090815260036020526040902054829060ff1615612147576040805162461bcd60e51b815260206004820152601560248201527452656164657220616c72656164792065786973747360581b604482015290519081900360640190fd5b6001600160a01b038316600081815260036020526040808220805460ff1916600190811790915560028054918201815583527f405787fa12a823e0f2b7631cc41b3ba8828b3321ca811111fa75cd3aa3bb5ace0180546001600160a01b03191684179055517fb7724d890d2888af5a3fc456edb667e2c82c4441449ebcac301c618759e4f86d9190a2505050565b606080600c80549050604051908082528060200260200182016040528015612207578160200160208202803883390190505b5090506000805b600c548110156122ca576000858152600760205260408120600c80549192918490811061223757fe5b60009182526020808320909101546001600160a01b0316835282019290925260400190205460ff16156122c257600c818154811061227157fe5b9060005260206000200160009054906101000a90046001600160a01b031683838151811061229b57fe5b60200260200101906001600160a01b031690816001600160a01b0316815250506001820191505b60010161220e565b816040519080825280602002602001820160405280156122f4578160200160208202803883390190505b509350600090505b818110156123445782818151811061231057fe5b602002602001015184828151811061232457fe5b6001600160a01b03909216602092830291909101909101526001016122fc565b505050919050565b600a5481565b600061235c612b27565b6001600160a01b03811660009081526001602081905260409091205491925060ff9091161515146123be5760405162461bcd60e51b8152600401808060200182810382526027815260200180612d906027913960400191505060405180910390fd5b81806123c957600080fd5b60098390556040805184815290517fa3f1ee9126a074d9326c682f561767f710e927faa811f7a99829d49dc421797a9181900360200190a1505050565b6000612410612b27565b6001600160a01b03811660009081526001602081905260409091205491925060ff9091161515146124725760405162461bcd60e51b8152600401808060200182810382526027815260200180612d906027913960400191505060405180910390fd5b50600e80546001600160a01b0319166001600160a01b0392909216919091179055565b336000908152600d602052604090205460ff161515600114806124c25750600b546001600160a01b031633145b6124fd5760405162461bcd60e51b8152600401808060200182810382526038815260200180612d586038913960400191505060405180910390fd5b600081815260066020526040902060010154819061010090046001600160a01b031661255a5760405162461bcd60e51b8152600401808060200182810382526025815260200180612e3f6025913960400191505060405180910390fd5b60008281526007602090815260408083203380855292529091205483919060ff16156125b75760405162461bcd60e51b8152600401808060200182810382526030815260200180612e0f6030913960400191505060405180910390fd5b600084815260066020819052604090912001548490610100900460ff16156126105760405162461bcd60e51b815260040180806020018281038252602c815260200180612ef6602c913960400191505060405180910390fd5b6000858152600760209081526040808320338085529252808320805460ff191660011790555187927f4a504a94899432a9846e1aa406dceb1bcfd538bb839071d49d1e5e23f5be30ef91a361266485612b2b565b5050505050565b6000612675612b27565b6001600160a01b03811660009081526001602081905260409091205491925060ff9091161515146126d75760405162461bcd60e51b8152600401808060200182810382526027815260200180612d906027913960400191505060405180910390fd5b600b80546001600160a01b0319166001600160a01b038481169190911791829055166000908152600d602052604090205460ff1661278357600b80546001600160a01b039081166000908152600d60205260408120805460ff191660019081179091559254600c805494850181559091527fdf6966c971051c3d54ec59162606531493a51404a002842f56009d7e5cf4a8c790920180546001600160a01b031916929091169190911790555b5050565b603281565b6000612796612b27565b6001600160a01b03811660009081526001602081905260409091205491925060ff9091161515146127f85760405162461bcd60e51b8152600401808060200182810382526027815260200180612d906027913960400191505060405180910390fd5b6001600160a01b038216600090815260056020526040902054829060ff1615612860576040805162461bcd60e51b815260206004820152601560248201527457726974657220616c72656164792065786973747360581b604482015290519081900360640190fd5b6001600160a01b038316600081815260056020526040808220805460ff1916600190811790915560048054918201815583527f8a35acfbc15ff81a39ae7d344fd709f28e8600b4aa8c65c6b64bfe7fe36bd19b0180546001600160a01b03191684179055517f6ff3aa2ea7b53070f6d9d07a445d338d89e8edef44250ffa8be19f53910d4a2e9190a2505050565b60095481565b60006128fe612b27565b6001600160a01b03811660009081526001602081905260409091205491925060ff9091161515146129605760405162461bcd60e51b8152600401808060200182810382526027815260200180612d906027913960400191505060405180910390fd5b6001600160a01b038216600090815260036020526040902054829060ff166129c2576040805162461bcd60e51b815260206004820152601060248201526f14995859195c881b9bdd08195e1a5cdd60821b604482015290519081900360640190fd5b6001600160a01b0383166000908152600360205260408120805460ff19169055600254905b81811015612a9257846001600160a01b031660028281548110612a0657fe5b6000918252602090912001546001600160a01b03161415612a8a5760026001830381548110612a3157fe5b600091825260209091200154600280546001600160a01b039092169183908110612a5757fe5b9060005260206000200160006101000a8154816001600160a01b0302191690836001600160a01b03160217905550612a92565b6001016129e7565b506002805480612a9e57fe5b600082815260208120820160001990810180546001600160a01b03191690559091019091556040516001600160a01b038616917fe933431644458f1217f9e93d3e000e03c9bbbe55761046d0985c2e4d157bcbaa91a250505050565b60005490565b600c8181548110612b0d57fe5b6000918252602090912001546001600160a01b0316905081565b3390565b60008181526007602090815260408083203380855292529091205482919060ff16612b875760405162461bcd60e51b815260040180806020018281038252602c815260200180612db7602c913960400191505060405180910390fd5b60008381526006602081905260409091200154839060ff1615612bdb5760405162461bcd60e51b815260040180806020018281038252602c815260200180612de3602c913960400191505060405180910390fd5b612be48461198e565b15612d38576000848152600660205260409020600181015460ff1615612d3657600681018054600160ff199091168117909155808201546002808401546003850180546040805160206101009884161589026000190190931695909504601f8101839004830286018301909152808552612cc4969095046001600160a01b03169492939290830182828015612cba5780601f10612c8f57610100808354040283529160200191612cba565b820191906000526020600020905b815481529060010190602001808311612c9d57829003601f168201915b5050505050612d3e565b15612cf95760405185907f33e13ecb54c3076d8e8bb8c2881800a4d972b792045ffae98fdf46df365fed7590600090a2612d31565b60405185907f526441bb6c1aba3c9a4a6ca1d6545da9c2333c8c48343ef398eb858d72b7923690600090a260068101805460ff191690555b612664565bfe5b50505050565b60008060008084516020860187895af19594505050505056fe4d756c746953696757616c6c65743a2063616c6c6572206973206e6f74206f6e65206f66207468652077616c6c6574206f70657261746f724f776e61626c653a2063616c6c6572206973206e6f74206f6e65206f6620746865206f776e65724d756c746953696757616c6c65743a205472616e73616374696f6e206973206e6f7420636f6e6669726d65644d756c746953696757616c6c65743a205472616e73616374696f6e20616c72656164792065786563757465644d756c746953696757616c6c65743a205472616e73616374696f6e20697320616c726561647920636f6e6669726d65644d756c746953696757616c6c65743a205472616e73616374696f6e206e6f7420666f756e644d756c746953696757616c6c65743a2041646472657373206973206f70657261746f7220616c72656164794d756c746953696757616c6c65743a2063616c6c65722069732077616c6c6574206f776e6572506c6174666f726d57616c6c65743a2063616c6c6572206973206e6f74206f6e65206f6620746865206f776e6572206f722077616c6c6574206f70657261746f724d756c746953696757616c6c65743a205472616e73616374696f6e20616c72656164792072656a6563746564a26469706673582212205b4cd9cde30ebf7b98e3667d61343c016ea245d4ffa7dbfe74b4d1b9cc00f1b164736f6c63430006020033",
  "source": "pragma solidity >=0.6.0 <0.8.0;\n\nimport \"./MultiSigWallet.sol\";\nimport \"../config/InternalSmartContractConfig.sol\";\nimport \"../token/ITokenMintable.sol\";\nimport \"../erc20/basic/IERC20.sol\";\n\ncontract AdminFeeWallet is MultiSigWallet{\n    InternalSmartContractConfig internalSmartContractConfig;\n\n    string internal constant mainnetTransHashKeyName = \"mainnetTransHash\";\n    string internal constant transActionKeyName = \"action\";\n    string internal constant transAssetNameKeyName = \"assetName\";\n\n    bytes32 internal constant transActionHash =  keccak256(abi.encodePacked(\"deposit\"));\n    string internal constant transAction = \"deposit\";\n    \n    \n    constructor() MultiSigWallet(2) public {\n    }\n\n    modifier onlyOwnerOrWalletOperator() {\n        require(isOwner(msg.sender) || walletOperatorMap[msg.sender] == true || walletOwner == msg.sender, \n        \"PlatformWallet: caller is not one of the owner or wallet operator\");\n        _;\n    }\n\n\n    function setInternalSmartContractConfig(address addr) public \n    onlyOwner{\n        internalSmartContractConfig = InternalSmartContractConfig(addr);\n    }\n\n    function getInternalSmartContractConfig() public onlyOwner view returns(address){\n        return address(internalSmartContractConfig);\n    }\n\n    function transfer(address dest,string memory assetName, uint256 amount) internal onlyOwnerOrWalletOperator{\n  \n            address erc20Addr = internalSmartContractConfig.getErc20SmartContractAddrByAssetName(assetName);\n            if(erc20Addr!=address(0)){\n                IERC20 erc20 = IERC20(erc20Addr);\n                erc20.transfer(dest, amount);\n            }else{\n                 revert(\"PlatformWallet: Invalid asset\");\n            }\n       \n    }\n\n\n    function transferETH(address payable dest, uint256 amount) public payable onlyOwnerOrWalletOperator {\n        dest.transfer(amount);\n    }\n}",
  "sourcePath": "/Users/duncanto/Documents/WorkingSet2/src/eurus-backend/smartcontract/contracts/wallet/AdminFeeWallet.sol",
  "compiler": {
    "name": "solc",
    "version": "0.6.2+commit.bacdbe57.Emscripten.clang"
  },
  "schemaVersion": "3.4.1",
  "updatedAt": "2021-08-04T10:30:06.287Z",
  "devdoc": {
    "methods": {
      "changeRequirement(uint256)": {
        "details": "Allows to change the number of required confirmations. Transaction has to be sent by wallet.",
        "params": {
          "_required": "Number of required confirmations."
        }
      },
      "confirmTransaction(uint256)": {
        "details": "Allows an owner to confirm a transaction.",
        "params": {
          "transactionId": "Transaction ID."
        }
      },
      "isConfirmed(uint256)": {
        "details": "Returns the confirmation status of a transaction.",
        "params": {
          "transactionId": "Transaction ID."
        },
        "returns": {
          "_0": "Confirmation status."
        }
      },
      "renounceOwnership()": {
        "details": "Leaves the contract without owner. It will not be possible to call `onlyOwner` functions anymore. Can only be called by the current owner.     * NOTE: Renouncing ownership will leave the contract without an owner, thereby removing any functionality that is only available to the owner."
      },
      "revokeConfirmation(uint256)": {
        "details": "Allows an owner to revoke a confirmation for a transaction.",
        "params": {
          "transactionId": "Transaction ID."
        }
      }
    }
  },
  "userdoc": {
    "methods": {}
  }
}