{
  "contractName": "ApprovalWalletReader",
  "abi": [
    {
      "inputs": [],
      "stateMutability": "nonpayable",
      "type": "constructor"
    },
    {
      "anonymous": false,
      "inputs": [
        {
          "indexed": true,
          "internalType": "address",
          "name": "sender",
          "type": "address"
        },
        {
          "indexed": true,
          "internalType": "uint256",
          "name": "transactionId",
          "type": "uint256"
        }
      ],
      "name": "Confirmation",
      "type": "event"
    },
    {
      "anonymous": false,
      "inputs": [
        {
          "indexed": true,
          "internalType": "address",
          "name": "sender",
          "type": "address"
        },
        {
          "indexed": false,
          "internalType": "uint256",
          "name": "value",
          "type": "uint256"
        }
      ],
      "name": "Deposit",
      "type": "event"
    },
    {
      "anonymous": false,
      "inputs": [
        {
          "indexed": false,
          "internalType": "string",
          "name": "",
          "type": "string"
        }
      ],
      "name": "Event",
      "type": "event"
    },
    {
      "anonymous": false,
      "inputs": [
        {
          "indexed": true,
          "internalType": "uint256",
          "name": "transactionId",
          "type": "uint256"
        }
      ],
      "name": "Execution",
      "type": "event"
    },
    {
      "anonymous": false,
      "inputs": [
        {
          "indexed": true,
          "internalType": "uint256",
          "name": "transactionId",
          "type": "uint256"
        }
      ],
      "name": "ExecutionFailure",
      "type": "event"
    },
    {
      "anonymous": false,
      "inputs": [
        {
          "indexed": true,
          "internalType": "address",
          "name": "owner",
          "type": "address"
        }
      ],
      "name": "OwnerAdded",
      "type": "event"
    },
    {
      "anonymous": false,
      "inputs": [
        {
          "indexed": true,
          "internalType": "address",
          "name": "owner",
          "type": "address"
        }
      ],
      "name": "OwnerRemoved",
      "type": "event"
    },
    {
      "anonymous": false,
      "inputs": [
        {
          "indexed": true,
          "internalType": "address",
          "name": "previousOwner",
          "type": "address"
        },
        {
          "indexed": true,
          "internalType": "address",
          "name": "newOwner",
          "type": "address"
        }
      ],
      "name": "OwnershipTransferred",
      "type": "event"
    },
    {
      "anonymous": false,
      "inputs": [
        {
          "indexed": true,
          "internalType": "address",
          "name": "reader",
          "type": "address"
        }
      ],
      "name": "ReaderAdded",
      "type": "event"
    },
    {
      "anonymous": false,
      "inputs": [
        {
          "indexed": true,
          "internalType": "address",
          "name": "reader",
          "type": "address"
        }
      ],
      "name": "ReaderRemoved",
      "type": "event"
    },
    {
      "anonymous": false,
      "inputs": [
        {
          "indexed": true,
          "internalType": "address",
          "name": "sender",
          "type": "address"
        },
        {
          "indexed": true,
          "internalType": "uint256",
          "name": "transactionId",
          "type": "uint256"
        }
      ],
      "name": "Rejection",
      "type": "event"
    },
    {
      "anonymous": false,
      "inputs": [
        {
          "indexed": false,
          "internalType": "uint256",
          "name": "required",
          "type": "uint256"
        }
      ],
      "name": "RequirementChange",
      "type": "event"
    },
    {
      "anonymous": false,
      "inputs": [
        {
          "indexed": true,
          "internalType": "address",
          "name": "sender",
          "type": "address"
        },
        {
          "indexed": true,
          "internalType": "uint256",
          "name": "transactionId",
          "type": "uint256"
        }
      ],
      "name": "Revocation",
      "type": "event"
    },
    {
      "anonymous": false,
      "inputs": [
        {
          "indexed": true,
          "internalType": "uint256",
          "name": "transactionId",
          "type": "uint256"
        }
      ],
      "name": "Submission",
      "type": "event"
    },
    {
      "anonymous": false,
      "inputs": [
        {
          "indexed": true,
          "internalType": "address",
          "name": "writer",
          "type": "address"
        }
      ],
      "name": "WriterAdded",
      "type": "event"
    },
    {
      "anonymous": false,
      "inputs": [
        {
          "indexed": true,
          "internalType": "address",
          "name": "writer",
          "type": "address"
        }
      ],
      "name": "WriterRemoved",
      "type": "event"
    },
    {
      "inputs": [],
      "name": "MAX_OWNER_COUNT",
      "outputs": [
        {
          "internalType": "uint256",
          "name": "",
          "type": "uint256"
        }
      ],
      "stateMutability": "view",
      "type": "function"
    },
    {
      "inputs": [
        {
          "internalType": "address",
          "name": "newOwner",
          "type": "address"
        }
      ],
      "name": "addOwner",
      "outputs": [],
      "stateMutability": "nonpayable",
      "type": "function"
    },
    {
      "inputs": [
        {
          "internalType": "address",
          "name": "newReader",
          "type": "address"
        }
      ],
      "name": "addReader",
      "outputs": [],
      "stateMutability": "nonpayable",
      "type": "function"
    },
    {
      "inputs": [
        {
          "internalType": "address",
          "name": "operatorAddr",
          "type": "address"
        }
      ],
      "name": "addWalletOperator",
      "outputs": [],
      "stateMutability": "nonpayable",
      "type": "function"
    },
    {
      "inputs": [
        {
          "internalType": "address",
          "name": "newWriter",
          "type": "address"
        }
      ],
      "name": "addWriter",
      "outputs": [],
      "stateMutability": "nonpayable",
      "type": "function"
    },
    {
      "inputs": [
        {
          "internalType": "uint256",
          "name": "_required",
          "type": "uint256"
        }
      ],
      "name": "changeRequirement",
      "outputs": [],
      "stateMutability": "nonpayable",
      "type": "function"
    },
    {
      "inputs": [
        {
          "internalType": "uint256",
          "name": "transactionId",
          "type": "uint256"
        }
      ],
      "name": "confirmTransaction",
      "outputs": [],
      "stateMutability": "nonpayable",
      "type": "function"
    },
    {
      "inputs": [
        {
          "internalType": "uint256",
          "name": "",
          "type": "uint256"
        },
        {
          "internalType": "address",
          "name": "",
          "type": "address"
        }
      ],
      "name": "confirmations",
      "outputs": [
        {
          "internalType": "bool",
          "name": "",
          "type": "bool"
        }
      ],
      "stateMutability": "view",
      "type": "function"
    },
    {
      "inputs": [],
      "name": "fallbackAddr",
      "outputs": [
        {
          "internalType": "address",
          "name": "",
          "type": "address"
        }
      ],
      "stateMutability": "view",
      "type": "function"
    },
    {
      "inputs": [
        {
          "internalType": "uint256",
          "name": "transactionId",
          "type": "uint256"
        }
      ],
      "name": "getConfirmationCount",
      "outputs": [
        {
          "internalType": "uint256",
          "name": "count",
          "type": "uint256"
        }
      ],
      "stateMutability": "view",
      "type": "function"
    },
    {
      "inputs": [
        {
          "internalType": "uint256",
          "name": "transactionId",
          "type": "uint256"
        }
      ],
      "name": "getConfirmations",
      "outputs": [
        {
          "internalType": "address[]",
          "name": "_confirmations",
          "type": "address[]"
        }
      ],
      "stateMutability": "view",
      "type": "function"
    },
    {
      "inputs": [],
      "name": "getOwnerCount",
      "outputs": [
        {
          "internalType": "uint256",
          "name": "",
          "type": "uint256"
        }
      ],
      "stateMutability": "view",
      "type": "function"
    },
    {
      "inputs": [],
      "name": "getOwners",
      "outputs": [
        {
          "internalType": "address[]",
          "name": "",
          "type": "address[]"
        }
      ],
      "stateMutability": "view",
      "type": "function"
    },
    {
      "inputs": [],
      "name": "getReaderList",
      "outputs": [
        {
          "internalType": "address[]",
          "name": "",
          "type": "address[]"
        }
      ],
      "stateMutability": "view",
      "type": "function"
    },
    {
      "inputs": [
        {
          "internalType": "bool",
          "name": "pending",
          "type": "bool"
        },
        {
          "internalType": "bool",
          "name": "executed",
          "type": "bool"
        }
      ],
      "name": "getTransactionCount",
      "outputs": [
        {
          "internalType": "uint256",
          "name": "count",
          "type": "uint256"
        }
      ],
      "stateMutability": "view",
      "type": "function"
    },
    {
      "inputs": [
        {
          "internalType": "uint256",
          "name": "from",
          "type": "uint256"
        },
        {
          "internalType": "uint256",
          "name": "to",
          "type": "uint256"
        },
        {
          "internalType": "bool",
          "name": "pending",
          "type": "bool"
        },
        {
          "internalType": "bool",
          "name": "executed",
          "type": "bool"
        }
      ],
      "name": "getTransactionIds",
      "outputs": [
        {
          "internalType": "uint256[]",
          "name": "_transactionIds",
          "type": "uint256[]"
        }
      ],
      "stateMutability": "view",
      "type": "function"
    },
    {
      "inputs": [],
      "name": "getWalletOperatorList",
      "outputs": [
        {
          "internalType": "address[]",
          "name": "",
          "type": "address[]"
        }
      ],
      "stateMutability": "view",
      "type": "function"
    },
    {
      "inputs": [],
      "name": "getWalletOwner",
      "outputs": [
        {
          "internalType": "address",
          "name": "",
          "type": "address"
        }
      ],
      "stateMutability": "view",
      "type": "function"
    },
    {
      "inputs": [],
      "name": "getWriterList",
      "outputs": [
        {
          "internalType": "address[]",
          "name": "",
          "type": "address[]"
        }
      ],
      "stateMutability": "view",
      "type": "function"
    },
    {
      "inputs": [
        {
          "internalType": "uint256",
          "name": "transactionId",
          "type": "uint256"
        }
      ],
      "name": "isConfirmed",
      "outputs": [
        {
          "internalType": "bool",
          "name": "",
          "type": "bool"
        }
      ],
      "stateMutability": "view",
      "type": "function"
    },
    {
      "inputs": [
        {
          "internalType": "address",
          "name": "addr",
          "type": "address"
        }
      ],
      "name": "isOwner",
      "outputs": [
        {
          "internalType": "bool",
          "name": "",
          "type": "bool"
        }
      ],
      "stateMutability": "view",
      "type": "function"
    },
    {
      "inputs": [
        {
          "internalType": "uint256",
          "name": "transId",
          "type": "uint256"
        }
      ],
      "name": "isRejected",
      "outputs": [
        {
          "internalType": "bool",
          "name": "",
          "type": "bool"
        }
      ],
      "stateMutability": "view",
      "type": "function"
    },
    {
      "inputs": [
        {
          "internalType": "address",
          "name": "addr",
          "type": "address"
        }
      ],
      "name": "isWriter",
      "outputs": [
        {
          "internalType": "bool",
          "name": "",
          "type": "bool"
        }
      ],
      "stateMutability": "view",
      "type": "function"
    },
    {
      "inputs": [],
      "name": "merchantId",
      "outputs": [
        {
          "internalType": "uint256",
          "name": "",
          "type": "uint256"
        }
      ],
      "stateMutability": "view",
      "type": "function"
    },
    {
      "inputs": [
        {
          "internalType": "uint256",
          "name": "",
          "type": "uint256"
        },
        {
          "internalType": "string",
          "name": "",
          "type": "string"
        }
      ],
      "name": "miscellaneousData",
      "outputs": [
        {
          "internalType": "string",
          "name": "",
          "type": "string"
        }
      ],
      "stateMutability": "view",
      "type": "function"
    },
    {
      "inputs": [
        {
          "internalType": "uint256",
          "name": "",
          "type": "uint256"
        }
      ],
      "name": "pendingTransList",
      "outputs": [
        {
          "internalType": "uint256",
          "name": "",
          "type": "uint256"
        }
      ],
      "stateMutability": "view",
      "type": "function"
    },
    {
      "inputs": [],
      "name": "queryPendingListCount",
      "outputs": [
        {
          "internalType": "uint8",
          "name": "",
          "type": "uint8"
        }
      ],
      "stateMutability": "view",
      "type": "function"
    },
    {
      "inputs": [
        {
          "internalType": "uint256",
          "name": "transId",
          "type": "uint256"
        }
      ],
      "name": "rejectTransaction",
      "outputs": [],
      "stateMutability": "nonpayable",
      "type": "function"
    },
    {
      "inputs": [
        {
          "internalType": "address",
          "name": "owner",
          "type": "address"
        }
      ],
      "name": "removeOwner",
      "outputs": [],
      "stateMutability": "nonpayable",
      "type": "function"
    },
    {
      "inputs": [
        {
          "internalType": "address",
          "name": "operatorAddr",
          "type": "address"
        }
      ],
      "name": "removeWalletOperator",
      "outputs": [],
      "stateMutability": "nonpayable",
      "type": "function"
    },
    {
      "inputs": [
        {
          "internalType": "address",
          "name": "existingReader",
          "type": "address"
        }
      ],
      "name": "removerReader",
      "outputs": [],
      "stateMutability": "nonpayable",
      "type": "function"
    },
    {
      "inputs": [
        {
          "internalType": "address",
          "name": "existingWriter",
          "type": "address"
        }
      ],
      "name": "removerWriter",
      "outputs": [],
      "stateMutability": "nonpayable",
      "type": "function"
    },
    {
      "inputs": [],
      "name": "renounceOwnership",
      "outputs": [],
      "stateMutability": "nonpayable",
      "type": "function"
    },
    {
      "inputs": [],
      "name": "required",
      "outputs": [
        {
          "internalType": "uint256",
          "name": "",
          "type": "uint256"
        }
      ],
      "stateMutability": "view",
      "type": "function"
    },
    {
      "inputs": [
        {
          "internalType": "uint256",
          "name": "transactionId",
          "type": "uint256"
        }
      ],
      "name": "revokeConfirmation",
      "outputs": [],
      "stateMutability": "nonpayable",
      "type": "function"
    },
    {
      "inputs": [
        {
          "internalType": "address",
          "name": "addr",
          "type": "address"
        }
      ],
      "name": "setWalletOwner",
      "outputs": [],
      "stateMutability": "nonpayable",
      "type": "function"
    },
    {
      "inputs": [
        {
          "internalType": "address",
          "name": "a",
          "type": "address"
        }
      ],
      "name": "toBytes",
      "outputs": [
        {
          "internalType": "bytes",
          "name": "",
          "type": "bytes"
        }
      ],
      "stateMutability": "pure",
      "type": "function"
    },
    {
      "inputs": [],
      "name": "transactionCount",
      "outputs": [
        {
          "internalType": "uint256",
          "name": "",
          "type": "uint256"
        }
      ],
      "stateMutability": "view",
      "type": "function"
    },
    {
      "inputs": [
        {
          "internalType": "uint256",
          "name": "",
          "type": "uint256"
        }
      ],
      "name": "transactions",
      "outputs": [
        {
          "internalType": "uint256",
          "name": "transId",
          "type": "uint256"
        },
        {
          "internalType": "bool",
          "name": "isDirectInvokeData",
          "type": "bool"
        },
        {
          "internalType": "address",
          "name": "destination",
          "type": "address"
        },
        {
          "internalType": "uint256",
          "name": "value",
          "type": "uint256"
        },
        {
          "internalType": "bytes",
          "name": "data",
          "type": "bytes"
        },
        {
          "internalType": "uint256",
          "name": "timestamp",
          "type": "uint256"
        },
        {
          "internalType": "uint256",
          "name": "blockNumber",
          "type": "uint256"
        },
        {
          "internalType": "bool",
          "name": "executed",
          "type": "bool"
        },
        {
          "internalType": "bool",
          "name": "rejected",
          "type": "bool"
        }
      ],
      "stateMutability": "view",
      "type": "function"
    },
    {
      "inputs": [
        {
          "internalType": "uint256",
          "name": "",
          "type": "uint256"
        }
      ],
      "name": "walletOperatorList",
      "outputs": [
        {
          "internalType": "address",
          "name": "",
          "type": "address"
        }
      ],
      "stateMutability": "view",
      "type": "function"
    },
    {
      "inputs": [],
      "name": "walletOwner",
      "outputs": [
        {
          "internalType": "address",
          "name": "",
          "type": "address"
        }
      ],
      "stateMutability": "view",
      "type": "function"
    },
    {
      "stateMutability": "payable",
      "type": "receive"
    },
    {
      "inputs": [],
      "name": "getPendingTransactionList",
      "outputs": [
        {
          "internalType": "bytes",
          "name": "",
          "type": "bytes"
        }
      ],
      "stateMutability": "view",
      "type": "function"
    },
    {
      "inputs": [
        {
          "internalType": "uint256",
          "name": "transId",
          "type": "uint256"
        }
      ],
      "name": "getTransactionDetails",
      "outputs": [
        {
          "internalType": "bytes",
          "name": "",
          "type": "bytes"
        }
      ],
      "stateMutability": "view",
      "type": "function"
    }
  ],
  "bytecode": "0x60806040523480156200001157600080fd5b5060026000620000296001600160e01b03620000e116565b6001600160a01b0381166000818152600160208190526040808320805460ff191683179055825491820183558280527f290decd9548b62a8d60345a988386fc84ba6bc95484008f6362f93160ef3e56390910180546001600160a01b031916841790555192935090917f8be0079c531659141344cd1fd0a4f28419497f9722a3daafe3b4186f6b6457e0908290a3508080620000c457600080fd5b50600955600f805460ff60a01b1916600560a11b179055620000e5565b3390565b61357a80620000f56000396000f3fe6080604052600436106102605760003560e01c8063755765ab11610144578063b77bf600116100b6578063da2824a81161007a578063da2824a814610ac3578063dc8452cd14610af6578063ddc6f5f614610b0b578063e141456f14610b3e578063ef18374a14610b53578063fba8b1e314610b68576102a4565b8063b77bf60014610a12578063ba51a6df14610a27578063c01a8c8414610a51578063ca2760f414610a7b578063d74f8edd14610aae576102a4565b80639ace38c2116101085780639ace38c214610853578063a01013f81461094b578063a0e67e2b14610960578063a8abe69a14610975578063afd8b1d1146109b5578063b5dc40c3146109e8576102a4565b8063755765ab146107a2578063784547a7146107b75780638145d126146107e157806385aaed4e146108145780638b51d13f14610829576102a4565b80632536e3b5116101dd5780634804a83d116101a15780634804a83d146106ab57806354741525146106c0578063593b79fe146106f45780635ce4e93d146107275780637065cb481461075a578063715018a61461078d576102a4565b80632536e3b51461057d5780632b29ba23146105a75780632f54bf6e146105da5780633411c81c1461060d5780633a1abfe714610646576102a4565b8063173825d911610224578063173825d9146104025780631ae879e8146104355780631c95b98c146104665780631e556d901461052057806320ea8d8614610553576102a4565b806301467526146102a957806305bf37aa146102d4578063098f076e146102fe5780630fa683d31461033c57806312f33a40146103db576102a4565b366102a45734156102a25760408051348152905133917fe1fffcc4923d04b559f4d29a8bfc6cda04eb5b0d3c460751c2402c5c5cc9109c919081900360200190a25b005b600080fd5b3480156102b557600080fd5b506102be610b92565b6040805160ff9092168252519081900360200190f35b3480156102e057600080fd5b506102a2600480360360208110156102f757600080fd5b5035610ba2565b34801561030a57600080fd5b506103286004803603602081101561032157600080fd5b5035610d6e565b604080519115158252519081900360200190f35b34801561034857600080fd5b506103666004803603602081101561035f57600080fd5b5035610d8f565b6040805160208082528351818301528351919283929083019185019080838360005b838110156103a0578181015183820152602001610388565b50505050905090810190601f1680156103cd5780820380516001836020036101000a031916815260200191505b509250505060405180910390f35b3480156103e757600080fd5b506103f0610de6565b60408051918252519081900360200190f35b34801561040e57600080fd5b506102a26004803603602081101561042557600080fd5b50356001600160a01b0316610dec565b34801561044157600080fd5b5061044a610fb4565b604080516001600160a01b039092168252519081900360200190f35b34801561047257600080fd5b506103666004803603604081101561048957600080fd5b813591908101906040810160208201356401000000008111156104ab57600080fd5b8201836020820111156104bd57600080fd5b803590602001918460018302840111640100000000831117156104df57600080fd5b91908080601f016020809104026020016040519081016040528093929190818152602001838380828437600092019190915250929550610fc3945050505050565b34801561052c57600080fd5b506102a26004803603602081101561054357600080fd5b50356001600160a01b0316611075565b34801561055f57600080fd5b506102a26004803603602081101561057657600080fd5b503561129a565b34801561058957600080fd5b506103f0600480360360208110156105a057600080fd5b503561145a565b3480156105b357600080fd5b50610328600480360360208110156105ca57600080fd5b50356001600160a01b0316611478565b3480156105e657600080fd5b50610328600480360360208110156105fd57600080fd5b50356001600160a01b0316611496565b34801561061957600080fd5b506103286004803603604081101561063057600080fd5b50803590602001356001600160a01b03166114b4565b34801561065257600080fd5b5061065b6114d4565b60408051602080825283518183015283519192839290830191858101910280838360005b8381101561069757818101518382015260200161067f565b505050509050019250505060405180910390f35b3480156106b757600080fd5b5061044a611536565b3480156106cc57600080fd5b506103f0600480360360408110156106e357600080fd5b508035151590602001351515611545565b34801561070057600080fd5b506103666004803603602081101561071757600080fd5b50356001600160a01b03166115b3565b34801561073357600080fd5b506102a26004803603602081101561074a57600080fd5b50356001600160a01b03166115e5565b34801561076657600080fd5b506102a26004803603602081101561077d57600080fd5b50356001600160a01b0316611718565b34801561079957600080fd5b506102a2611889565b3480156107ae57600080fd5b5061044a611a06565b3480156107c357600080fd5b50610328600480360360208110156107da57600080fd5b5035611a15565b3480156107ed57600080fd5b506102a26004803603602081101561080457600080fd5b50356001600160a01b0316611a9e565b34801561082057600080fd5b5061065b611ca4565b34801561083557600080fd5b506103f06004803603602081101561084c57600080fd5b5035611d04565b34801561085f57600080fd5b5061087d6004803603602081101561087657600080fd5b5035611d73565b604051808a815260200189151515158152602001886001600160a01b03166001600160a01b03168152602001878152602001806020018681526020018581526020018415151515815260200183151515158152602001828103825287818151815260200191508051906020019080838360005b838110156109085781810151838201526020016108f0565b50505050905090810190601f1680156109355780820380516001836020036101000a031916815260200191505b509a505050505050505050505060405180910390f35b34801561095757600080fd5b5061065b611e5a565b34801561096c57600080fd5b5061065b611eba565b34801561098157600080fd5b5061065b6004803603608081101561099857600080fd5b508035906020810135906040810135151590606001351515611f1a565b3480156109c157600080fd5b506102a2600480360360208110156109d857600080fd5b50356001600160a01b0316612047565b3480156109f457600080fd5b5061065b60048036036020811015610a0b57600080fd5b50356121a9565b348015610a1e57600080fd5b506103f0612320565b348015610a3357600080fd5b506102a260048036036020811015610a4a57600080fd5b5035612326565b348015610a5d57600080fd5b506102a260048036036020811015610a7457600080fd5b50356123da565b348015610a8757600080fd5b506102a260048036036020811015610a9e57600080fd5b50356001600160a01b03166125b0565b348015610aba57600080fd5b506103f06126cc565b348015610acf57600080fd5b506102a260048036036020811015610ae657600080fd5b50356001600160a01b03166126d1565b348015610b0257600080fd5b506103f0612833565b348015610b1757600080fd5b506102a260048036036020811015610b2e57600080fd5b50356001600160a01b0316612839565b348015610b4a57600080fd5b50610366612a3f565b348015610b5f57600080fd5b506103f0612b0d565b348015610b7457600080fd5b5061044a60048036036020811015610b8b57600080fd5b5035612b13565b600f54600160a01b900460ff1681565b336000908152600d602052604090205460ff16151560011480610bcf5750600b546001600160a01b031633145b610c0a5760405162461bcd60e51b81526004018080602001828103825260388152602001806133bc6038913960400191505060405180910390fd5b600081815260066020526040902060010154819061010090046001600160a01b0316610c675760405162461bcd60e51b81526004018080602001828103825260258152602001806134a36025913960400191505060405180910390fd5b60008281526007602090815260408083203380855292529091205483919060ff1615610cc45760405162461bcd60e51b81526004018080602001828103825260308152602001806134736030913960400191505060405180910390fd5b600084815260066020819052604090912001548490610100900460ff1615610d1d5760405162461bcd60e51b815260040180806020018281038252602c815260200180613519602c913960400191505060405180910390fd5b6000858152600660208190526040808320909101805461ff00191661010017905551869133917f310fda14a1b3763badba87b2ca73948d00cc14d8fa2d6ee19a67ac90fa9afa679190a35050505050565b60008181526006602081905260409091200154610100900460ff165b919050565b60606000610d9d6001612b3a565b90506060816040519080825280601f01601f191660200182016040528015610dcc576020820181803883390190505b5090506000610ddc858383612b91565b5095945050505050565b60115481565b6000610df6612ec2565b6001600160a01b03811660009081526001602081905260409091205491925060ff909116151514610e585760405162461bcd60e51b81526004018080602001828103825260278152602001806133f46027913960400191505060405180910390fd5b6001600160a01b038216600090815260016020526040902054829060ff16610e7f57600080fd5b6001600160a01b0383166000908152600160205260408120805460ff191690558054905b81811015610f4c57846001600160a01b031660008281548110610ec257fe5b6000918252602090912001546001600160a01b03161415610f445760006001830381548110610eed57fe5b600091825260208220015481546001600160a01b03909116919083908110610f1157fe5b9060005260206000200160006101000a8154816001600160a01b0302191690836001600160a01b03160217905550610f4c565b600101610ea3565b506000805480610f5857fe5b600082815260208120820160001990810180546001600160a01b03191690559091019091556040516001600160a01b038616917f58619076adf5bb0943d100ef88d52d7c3fd691b19d3a9071b555b651fbf418da91a250505050565b600b546001600160a01b031681565b60086020908152600092835260409283902082518084018301805192815290830193830193909320925281548351601f600260001961010060018616150201909316929092049182018390048302810183019094528084529083018282801561106d5780601f106110425761010080835404028352916020019161106d565b820191906000526020600020905b81548152906001019060200180831161105057829003601f168201915b505050505081565b600061107f612ec2565b6001600160a01b03811660009081526001602081905260409091205491925060ff9091161515146110e15760405162461bcd60e51b81526004018080602001828103825260278152602001806133f46027913960400191505060405180910390fd5b600b5482906001600160a01b03808316911614156111305760405162461bcd60e51b81526004018080602001828103825260268152602001806134f36026913960400191505060405180910390fd5b600b546001600160a01b0384811691161415611193576040805162461bcd60e51b815260206004820152601a60248201527f43616e6e6f742072656d6f76652077616c6c6574206f776e6572000000000000604482015290519081900360640190fd5b6001600160a01b0383166000908152600d60205260408120805460ff19169055600c54905b6001820381101561126657846001600160a01b0316600c82815481106111da57fe5b6000918252602090912001546001600160a01b0316141561125e57600c600183038154811061120557fe5b600091825260209091200154600c80546001600160a01b03909216918390811061122b57fe5b9060005260206000200160006101000a8154816001600160a01b0302191690836001600160a01b03160217905550611266565b6001016111b8565b50600c80548061127257fe5b600082815260209020810160001990810180546001600160a01b031916905501905550505050565b336000908152600d602052604090205460ff161515600114806112c75750600b546001600160a01b031633145b6113025760405162461bcd60e51b81526004018080602001828103825260388152602001806133bc6038913960400191505060405180910390fd5b60008181526007602090815260408083203380855292529091205482919060ff1661135e5760405162461bcd60e51b815260040180806020018281038252602c81526020018061341b602c913960400191505060405180910390fd5b60008381526006602081905260409091200154839060ff16156113b25760405162461bcd60e51b815260040180806020018281038252602c815260200180613447602c913960400191505060405180910390fd5b600084815260066020819052604090912001548490610100900460ff161561140b5760405162461bcd60e51b815260040180806020018281038252602c815260200180613519602c913960400191505060405180910390fd5b6000858152600760209081526040808320338085529252808320805460ff191690555187927ff6a317157440607f36269043eb55f1287a5a19ba2216afeab88cd46cbcfb88e991a35050505050565b600e818154811061146757fe5b600091825260209091200154905081565b6001600160a01b031660009081526005602052604090205460ff1690565b6001600160a01b031660009081526001602052604090205460ff1690565b600760209081526000928352604080842090915290825290205460ff1681565b6060600480548060200260200160405190810160405280929190818152602001828054801561152c57602002820191906000526020600020905b81546001600160a01b0316815260019091019060200180831161150e575b5050505050905090565b6010546001600160a01b031681565b6000805b600a548110156115ac5783801561157357506000818152600660208190526040909120015460ff16155b80611598575082801561159857506000818152600660208190526040909120015460ff165b156115a4576001820191505b600101611549565b5092915050565b6040805160609290921b6bffffffffffffffffffffffff19166020830152805160148184030181526034909201905290565b60006115ef612ec2565b6001600160a01b03811660009081526001602081905260409091205491925060ff9091161515146116515760405162461bcd60e51b81526004018080602001828103825260278152602001806133f46027913960400191505060405180910390fd5b6001600160a01b0382166000908152600d6020526040902054829060ff161515600114156116b05760405162461bcd60e51b815260040180806020018281038252602b8152602001806134c8602b913960400191505060405180910390fd5b50506001600160a01b03166000818152600d60205260408120805460ff19166001908117909155600c805491820181559091527fdf6966c971051c3d54ec59162606531493a51404a002842f56009d7e5cf4a8c70180546001600160a01b0319169091179055565b6000611722612ec2565b6001600160a01b03811660009081526001602081905260409091205491925060ff9091161515146117845760405162461bcd60e51b81526004018080602001828103825260278152602001806133f46027913960400191505060405180910390fd5b6001600160a01b038216600090815260016020819052604090912054839160ff909116151514156117fc576040805162461bcd60e51b815260206004820152601b60248201527f4164647265737320616c726561647920697320616e206f776e65720000000000604482015290519081900360640190fd5b6001600160a01b0383166000818152600160208190526040808320805460ff191683179055825491820183558280527f290decd9548b62a8d60345a988386fc84ba6bc95484008f6362f93160ef3e56390910180546001600160a01b03191684179055517f994a936646fe87ffe4f1e469d3d6aa417d6b855598397f323de5b449f765f0c39190a2505050565b6000611893612ec2565b6001600160a01b03811660009081526001602081905260409091205491925060ff9091161515146118f55760405162461bcd60e51b81526004018080602001828103825260278152602001806133f46027913960400191505060405180910390fd5b60006118ff612ec2565b6001600160a01b0381166000908152600160205260408120805460ff191690559091505b600054600019018110156119d457816001600160a01b03166000828154811061194857fe5b6000918252602090912001546001600160a01b031614156119cc5760008054600019810190811061197557fe5b600091825260208220015481546001600160a01b0390911691908390811061199957fe5b9060005260206000200160006101000a8154816001600160a01b0302191690836001600160a01b031602179055506119d4565b600101611923565b5060008054806119e057fe5b600082815260209020810160001990810180546001600160a01b03191690550190555050565b600b546001600160a01b031690565b600080805b600c54811015611a94576000848152600760205260408120600c805491929184908110611a4357fe5b60009182526020808320909101546001600160a01b0316835282019290925260400190205460ff1615611a77576001820191505b600954821415611a8c57600192505050610d8a565b600101611a1a565b5060009392505050565b6000611aa8612ec2565b6001600160a01b03811660009081526001602081905260409091205491925060ff909116151514611b0a5760405162461bcd60e51b81526004018080602001828103825260278152602001806133f46027913960400191505060405180910390fd5b6001600160a01b038216600090815260056020526040902054829060ff16611b6c576040805162461bcd60e51b815260206004820152601060248201526f15dc9a5d195c881b9bdd08195e1a5cdd60821b604482015290519081900360640190fd5b6001600160a01b0383166000908152600560205260408120805460ff19169055600454905b81811015611c3c57846001600160a01b031660048281548110611bb057fe5b6000918252602090912001546001600160a01b03161415611c345760046001830381548110611bdb57fe5b600091825260209091200154600480546001600160a01b039092169183908110611c0157fe5b9060005260206000200160006101000a8154816001600160a01b0302191690836001600160a01b03160217905550611c3c565b600101611b91565b506004805480611c4857fe5b600082815260208120820160001990810180546001600160a01b03191690559091019091556040516001600160a01b038616917f86e5bbceda94081c32220d685f37cc4e3ea7bb0be2dfbf0cb703579505a5390e91a250505050565b6060600280548060200260200160405190810160405280929190818152602001828054801561152c576020028201919060005260206000209081546001600160a01b0316815260019091019060200180831161150e575050505050905090565b6000805b600c54811015611d6d576000838152600760205260408120600c805491929184908110611d3157fe5b60009182526020808320909101546001600160a01b0316835282019290925260400190205460ff1615611d65576001820191505b600101611d08565b50919050565b600660209081526000918252604091829020805460018083015460028085015460038601805489516101009682161587026000190190911693909304601f8101899004890284018901909952888352949760ff841697949093046001600160a01b0316959094909391929091830182828015611e305780601f10611e0557610100808354040283529160200191611e30565b820191906000526020600020905b815481529060010190602001808311611e1357829003601f168201915b50505050600483015460058401546006909401549293909290915060ff8082169161010090041689565b6060600c80548060200260200160405190810160405280929190818152602001828054801561152c576020028201919060005260206000209081546001600160a01b0316815260019091019060200180831161150e575050505050905090565b6060600080548060200260200160405190810160405280929190818152602001828054801561152c576020028201919060005260206000209081546001600160a01b0316815260019091019060200180831161150e575050505050905090565b606080600a54604051908082528060200260200182016040528015611f49578160200160208202803883390190505b5090506000805b600a54811015611fcc57858015611f7a57506000818152600660208190526040909120015460ff16155b80611f9f5750848015611f9f57506000818152600660208190526040909120015460ff165b15611fc45780838381518110611fb157fe5b6020026020010181815250506001820191505b600101611f50565b878703604051908082528060200260200182016040528015611ff8578160200160208202803883390190505b5093508790505b8681101561203c5782818151811061201357fe5b6020026020010151848983038151811061202957fe5b6020908102919091010152600101611fff565b505050949350505050565b6000612051612ec2565b6001600160a01b03811660009081526001602081905260409091205491925060ff9091161515146120b35760405162461bcd60e51b81526004018080602001828103825260278152602001806133f46027913960400191505060405180910390fd5b6001600160a01b038216600090815260036020526040902054829060ff161561211b576040805162461bcd60e51b815260206004820152601560248201527452656164657220616c72656164792065786973747360581b604482015290519081900360640190fd5b6001600160a01b038316600081815260036020526040808220805460ff1916600190811790915560028054918201815583527f405787fa12a823e0f2b7631cc41b3ba8828b3321ca811111fa75cd3aa3bb5ace0180546001600160a01b03191684179055517fb7724d890d2888af5a3fc456edb667e2c82c4441449ebcac301c618759e4f86d9190a2505050565b606080600c805490506040519080825280602002602001820160405280156121db578160200160208202803883390190505b5090506000805b600c5481101561229e576000858152600760205260408120600c80549192918490811061220b57fe5b60009182526020808320909101546001600160a01b0316835282019290925260400190205460ff161561229657600c818154811061224557fe5b9060005260206000200160009054906101000a90046001600160a01b031683838151811061226f57fe5b60200260200101906001600160a01b031690816001600160a01b0316815250506001820191505b6001016121e2565b816040519080825280602002602001820160405280156122c8578160200160208202803883390190505b509350600090505b81811015612318578281815181106122e457fe5b60200260200101518482815181106122f857fe5b6001600160a01b03909216602092830291909101909101526001016122d0565b505050919050565b600a5481565b6000612330612ec2565b6001600160a01b03811660009081526001602081905260409091205491925060ff9091161515146123925760405162461bcd60e51b81526004018080602001828103825260278152602001806133f46027913960400191505060405180910390fd5b818061239d57600080fd5b60098390556040805184815290517fa3f1ee9126a074d9326c682f561767f710e927faa811f7a99829d49dc421797a9181900360200190a1505050565b336000908152600d602052604090205460ff161515600114806124075750600b546001600160a01b031633145b6124425760405162461bcd60e51b81526004018080602001828103825260388152602001806133bc6038913960400191505060405180910390fd5b600081815260066020526040902060010154819061010090046001600160a01b031661249f5760405162461bcd60e51b81526004018080602001828103825260258152602001806134a36025913960400191505060405180910390fd5b60008281526007602090815260408083203380855292529091205483919060ff16156124fc5760405162461bcd60e51b81526004018080602001828103825260308152602001806134736030913960400191505060405180910390fd5b600084815260066020819052604090912001548490610100900460ff16156125555760405162461bcd60e51b815260040180806020018281038252602c815260200180613519602c913960400191505060405180910390fd5b6000858152600760209081526040808320338085529252808320805460ff191660011790555187927f4a504a94899432a9846e1aa406dceb1bcfd538bb839071d49d1e5e23f5be30ef91a36125a985612ec6565b5050505050565b60006125ba612ec2565b6001600160a01b03811660009081526001602081905260409091205491925060ff90911615151461261c5760405162461bcd60e51b81526004018080602001828103825260278152602001806133f46027913960400191505060405180910390fd5b600b80546001600160a01b0319166001600160a01b038481169190911791829055166000908152600d602052604090205460ff166126c857600b80546001600160a01b039081166000908152600d60205260408120805460ff191660019081179091559254600c805494850181559091527fdf6966c971051c3d54ec59162606531493a51404a002842f56009d7e5cf4a8c790920180546001600160a01b031916929091169190911790555b5050565b603281565b60006126db612ec2565b6001600160a01b03811660009081526001602081905260409091205491925060ff90911615151461273d5760405162461bcd60e51b81526004018080602001828103825260278152602001806133f46027913960400191505060405180910390fd5b6001600160a01b038216600090815260056020526040902054829060ff16156127a5576040805162461bcd60e51b815260206004820152601560248201527457726974657220616c72656164792065786973747360581b604482015290519081900360640190fd5b6001600160a01b038316600081815260056020526040808220805460ff1916600190811790915560048054918201815583527f8a35acfbc15ff81a39ae7d344fd709f28e8600b4aa8c65c6b64bfe7fe36bd19b0180546001600160a01b03191684179055517f6ff3aa2ea7b53070f6d9d07a445d338d89e8edef44250ffa8be19f53910d4a2e9190a2505050565b60095481565b6000612843612ec2565b6001600160a01b03811660009081526001602081905260409091205491925060ff9091161515146128a55760405162461bcd60e51b81526004018080602001828103825260278152602001806133f46027913960400191505060405180910390fd5b6001600160a01b038216600090815260036020526040902054829060ff16612907576040805162461bcd60e51b815260206004820152601060248201526f14995859195c881b9bdd08195e1a5cdd60821b604482015290519081900360640190fd5b6001600160a01b0383166000908152600360205260408120805460ff19169055600254905b818110156129d757846001600160a01b03166002828154811061294b57fe5b6000918252602090912001546001600160a01b031614156129cf576002600183038154811061297657fe5b600091825260209091200154600280546001600160a01b03909216918390811061299c57fe5b9060005260206000200160006101000a8154816001600160a01b0302191690836001600160a01b031602179055506129d7565b60010161292c565b5060028054806129e357fe5b600082815260208120820160001990810180546001600160a01b03191690559091019091556040516001600160a01b038616917fe933431644458f1217f9e93d3e000e03c9bbbe55761046d0985c2e4d157bcbaa91a250505050565b600e54600f5460609190600160a01b900460ff16811115612a695750600f54600160a01b900460ff165b6000612a7482612b3a565b905060008190506060826040519080825280601f01601f191660200182016040528015612aa8576020820181803883390190505b509050612ab68285836130d9565b612ac16101006130df565b9091039060005b84811015612b04576000600e8281548110612adf57fe5b90600052602060002001549050612af7818486612b91565b9450925050600101612ac8565b50935050505090565b60005490565b600c8181548110612b2057fe5b6000918252602090912001546001600160a01b0316905081565b600080612b636040518060400160405280600581526020016448454c4c4f60d81b8152506130f0565b612b6b613120565b60020260ff16612b7c6101006130df565b600402010190508260ff168102915050919050565b6000838152600660205260408120606091908390612bb08288886130d9565b612bbb6101006130df565b82039150600060086000898152602001908152602001600020604051806040016040528060098152602001681cdc98d5d85b1b195d60ba1b8152506040518082805190602001908083835b60208310612c255780518252601f199092019160209182019101612c06565b518151600019602094850361010090810a820192831692199390931691909117909252949092019687526040805197889003820188208054601f6002600183161590980290950116959095049283018290048202880182019052818752929450925050830182828015612cd95780601f10612cae57610100808354040283529160200191612cd9565b820191906000526020600020905b815481529060010190602001808311612cbc57829003601f168201915b50505050508060200190516020811015612cf257600080fd5b50519050612d018382896130d9565b612d09613120565b60ff1683039250612d32838360010160019054906101000a90046001600160a01b0316896130d9565b612d3a613120565b60ff16830392506060600860008a81526020019081526020016000206040518060400160405280600981526020016861737365744e616d6560b81b8152506040518082805190602001908083835b60208310612da75780518252601f199092019160209182019101612d88565b518151600019602094850361010090810a820192831692199390931691909117909252949092019687526040805197889003820188208054601f6002600183161590980290950116959095049283018290048202880182019052818752929450925050830182828015612e5b5780601f10612e3057610100808354040283529160200191612e5b565b820191906000526020600020905b815481529060010190602001808311612e3e57829003601f168201915b50505050509050612e6d84828a613125565b612e76816130f0565b84039350612e898484600201548a6130d9565b612e946101006130df565b84039350612ea78484600401548a6130d9565b612eb26101006130df565b9799979093039750505050505050565b3390565b60008181526007602090815260408083203380855292529091205482919060ff16612f225760405162461bcd60e51b815260040180806020018281038252602c81526020018061341b602c913960400191505060405180910390fd5b60008381526006602081905260409091200154839060ff1615612f765760405162461bcd60e51b815260040180806020018281038252602c815260200180613447602c913960400191505060405180910390fd5b612f7f84611a15565b156130d3576000848152600660205260409020600181015460ff16156130d157600681018054600160ff199091168117909155808201546002808401546003850180546040805160206101009884161589026000190190931695909504601f810183900483028601830190915280855261305f969095046001600160a01b031694929392908301828280156130555780601f1061302a57610100808354040283529160200191613055565b820191906000526020600020905b81548152906001019060200180831161303857829003601f168201915b5050505050613175565b156130945760405185907f33e13ecb54c3076d8e8bb8c2881800a4d972b792045ffae98fdf46df365fed7590600090a26130cc565b60405185907f526441bb6c1aba3c9a4a6ca1d6545da9c2333c8c48343ef398eb858d72b7923690600090a260068101805460ff191690555b6125a9565bfe5b50505050565b90910152565b60006130ea8261318e565b92915050565b600060208251816130fd57fe5b049050602082518161310b57fe5b0615613115576001015b600101602002919050565b601490565b6000602083518161313257fe5b0490506000602084518161314257fe5b06111561314d576001015b60010160005b818110156125a9576020810284015183860152601f1990940193600101613153565b60008060008084516020860187895af195945050505050565b6000816008811461329b57601081146132a457601881146132ad57602081146132b657602881146132bf57603081146132c857603881146132d157604081146132da57604881146132e357605081146132ec57605881146132f557606081146132fe5760688114613307576070811461331057607881146133195760808114613322576088811461332b5760908114613334576098811461333d5760a081146133465760a8811461334f5760b081146133585760b881146133615760c0811461336a5760c881146133735760d0811461337c5760d881146133855760e0811461338e5760e881146133975760f081146133a05760f881146133a95761010081146133b25760209150611d6d565b60019150611d6d565b60029150611d6d565b60039150611d6d565b60049150611d6d565b60059150611d6d565b60069150611d6d565b60079150611d6d565b60089150611d6d565b60099150611d6d565b600a9150611d6d565b600b9150611d6d565b600c9150611d6d565b600d9150611d6d565b600e9150611d6d565b600f9150611d6d565b60109150611d6d565b60119150611d6d565b60129150611d6d565b60139150611d6d565b60149150611d6d565b60159150611d6d565b60169150611d6d565b60179150611d6d565b60189150611d6d565b60199150611d6d565b601a9150611d6d565b601b9150611d6d565b601c9150611d6d565b601d9150611d6d565b601e9150611d6d565b601f9150611d6d565b5060209291505056fe4d756c746953696757616c6c65743a2063616c6c6572206973206e6f74206f6e65206f66207468652077616c6c6574206f70657261746f724f776e61626c653a2063616c6c6572206973206e6f74206f6e65206f6620746865206f776e65724d756c746953696757616c6c65743a205472616e73616374696f6e206973206e6f7420636f6e6669726d65644d756c746953696757616c6c65743a205472616e73616374696f6e20616c72656164792065786563757465644d756c746953696757616c6c65743a205472616e73616374696f6e20697320616c726561647920636f6e6669726d65644d756c746953696757616c6c65743a205472616e73616374696f6e206e6f7420666f756e644d756c746953696757616c6c65743a2041646472657373206973206f70657261746f7220616c72656164794d756c746953696757616c6c65743a2063616c6c65722069732077616c6c6574206f776e65724d756c746953696757616c6c65743a205472616e73616374696f6e20616c72656164792072656a6563746564a2646970667358221220e188dcbaeff383f0752b5238db6f96d72cfaa41a65ecbd29b883e7006c2d781a64736f6c63430006020033",
  "source": "pragma solidity >=0.6.0 <0.8.0;\n\nimport \"./MultiSigWallet.sol\";\nimport \"./ApprovalWallet.sol\";\nimport \"../seriality/Seriality.sol\";\n\ncontract ApprovalWalletReader is MultiSigWallet, ApprovalWalletStorage, Seriality{\n\n    constructor() MultiSigWallet(2) public {\n        queryPendingListCount = defaultQueryPendingListCount;\n    }\n    // @return Binary format as following:\n    //         \n    //         Array of TransObject\n    //         \n    //         TransObject:\n    //         transId uint256\n    //         fromAddress address\n    //         toAddress address\n    //         assetName string\n    //         amount uint256\n    //         timestamp uint256\n    //\n    function getPendingTransactionList() public view returns(bytes memory){\n        uint256 count = pendingTransList.length;\n\n        if (count > queryPendingListCount){\n            count = queryPendingListCount;\n        }\n        uint estimatedSize = estimationTransactionSize(uint8(count));\n        uint offset = estimatedSize;\n        bytes memory buffer = new bytes(estimatedSize);\n\n        uintToBytes(offset, count, buffer);\n        offset -=sizeOfUint(256);\n\n        for (uint i = 0; i < count; i++){\n            uint transId = pendingTransList[i];\n            (buffer, offset) = serializeTransaction(transId, buffer, offset);\n        }\n        return buffer;\n    }\n\n    function estimationTransactionSize(uint8 count) internal pure returns(uint256){\n        uint singleTransSize =   sizeOfUint(256) * 4 + sizeOfAddress() * 2 + sizeOfString(\"HELLO\");\n        return singleTransSize * count;\n    }\n\n    function serializeTransaction(uint transId, bytes memory buffer, uint startOffset) internal view returns(bytes memory, uint){\n\n            uint offset = startOffset;\n\n            Transaction storage trans = transactions[transId];\n\n            uintToBytes(offset, transId, buffer);\n            offset -= sizeOfUint(256);\n\n            address strAddr = abi.decode(bytes(miscellaneousData[transId][srcWalletKeyName]), (address));\n            addressToBytes(offset, strAddr, buffer);\n            offset -= sizeOfAddress();\n      \n            addressToBytes(offset, trans.destination, buffer);\n            offset -= sizeOfAddress();\n\n            string memory assetName = miscellaneousData[transId][assetNameKeyName];\n            stringToBytes(offset, bytes(assetName), buffer);\n            offset -= sizeOfString(assetName);\n\n            uintToBytes(offset, trans.value, buffer);\n            offset -= sizeOfUint(256);\n\n            uintToBytes(offset, trans.timestamp, buffer);\n            offset -= sizeOfUint(256);\n\n            return (buffer, offset);\n    }\n\n    function getTransactionDetails(uint transId) public view returns(bytes memory){\n        uint256 estimatedSize = estimationTransactionSize(1);\n        bytes memory buffer = new bytes(estimatedSize);\n        uint offset = 0;\n        (buffer, offset) =  serializeTransaction(transId, buffer, 0);\n        return buffer;\n    }\n}",
  "sourcePath": "/Users/duncanto/Documents/WorkingSet2/src/eurus-backend/smartcontract/contracts/wallet/ApprovalWalletReader.sol",
  "compiler": {
    "name": "solc",
    "version": "0.6.2+commit.bacdbe57.Emscripten.clang"
  },
  "schemaVersion": "3.4.1",
  "updatedAt": "2021-08-04T10:30:06.317Z",
  "devdoc": {
    "methods": {
      "changeRequirement(uint256)": {
        "details": "Allows to change the number of required confirmations. Transaction has to be sent by wallet.",
        "params": {
          "_required": "Number of required confirmations."
        }
      },
      "confirmTransaction(uint256)": {
        "details": "Allows an owner to confirm a transaction.",
        "params": {
          "transactionId": "Transaction ID."
        }
      },
      "isConfirmed(uint256)": {
        "details": "Returns the confirmation status of a transaction.",
        "params": {
          "transactionId": "Transaction ID."
        },
        "returns": {
          "_0": "Confirmation status."
        }
      },
      "renounceOwnership()": {
        "details": "Leaves the contract without owner. It will not be possible to call `onlyOwner` functions anymore. Can only be called by the current owner.     * NOTE: Renouncing ownership will leave the contract without an owner, thereby removing any functionality that is only available to the owner."
      },
      "revokeConfirmation(uint256)": {
        "details": "Allows an owner to revoke a confirmation for a transaction.",
        "params": {
          "transactionId": "Transaction ID."
        }
      }
    }
  },
  "userdoc": {
    "methods": {}
  }
}