{
  "contractName": "ApprovalWalletStorage",
  "abi": [
    {
      "inputs": [],
      "name": "fallbackAddr",
      "outputs": [
        {
          "internalType": "address",
          "name": "",
          "type": "address"
        }
      ],
      "stateMutability": "view",
      "type": "function"
    },
    {
      "inputs": [],
      "name": "merchantId",
      "outputs": [
        {
          "internalType": "uint256",
          "name": "",
          "type": "uint256"
        }
      ],
      "stateMutability": "view",
      "type": "function"
    },
    {
      "inputs": [
        {
          "internalType": "uint256",
          "name": "",
          "type": "uint256"
        }
      ],
      "name": "pendingTransList",
      "outputs": [
        {
          "internalType": "uint256",
          "name": "",
          "type": "uint256"
        }
      ],
      "stateMutability": "view",
      "type": "function"
    },
    {
      "inputs": [],
      "name": "queryPendingListCount",
      "outputs": [
        {
          "internalType": "uint8",
          "name": "",
          "type": "uint8"
        }
      ],
      "stateMutability": "view",
      "type": "function"
    }
  ],
  "bytecode": "0x608060405234801561001057600080fd5b50610133806100206000396000f3fe6080604052348015600f57600080fd5b506004361060465760003560e01c80630146752614604b57806312f33a401460675780632536e3b514607f5780634804a83d146099575b600080fd5b605160bb565b6040805160ff9092168252519081900360200190f35b606d60cb565b60408051918252519081900360200190f35b606d60048036036020811015609357600080fd5b503560d1565b609f60ee565b604080516001600160a01b039092168252519081900360200190f35b600154600160a01b900460ff1681565b60035481565b6000818154811060dd57fe5b600091825260209091200154905081565b6002546001600160a01b03168156fea264697066735822122098553b464540cf61283e6e43ba4557d215d00d51d299d5c42bc90e3cb6578fb764736f6c63430006020033",
  "source": "pragma solidity >=0.6.0 <0.8.0;\n\nimport \"./MultiSigWallet.sol\";\nimport \"../config/InternalSmartContractConfig.sol\";\nimport \"../withdraw/WithdrawSmartContract.sol\";\nimport \"../token/ITokenWithdrawable.sol\";\nimport \"./WalletAddressMap.sol\";\n\ncontract ApprovalWalletStorage {\n\n    uint[] public pendingTransList;\n    InternalSmartContractConfig internalSCConfig;\n    uint8 public queryPendingListCount; \n    address public fallbackAddr;\n    uint public merchantId;\n\n    string constant internal transActionKeyName = \"transAction\";\n    string constant internal srcWalletKeyName = \"srcWallet\";\n    string constant internal assetNameKeyName = \"assetName\";\n\n    bytes32 constant internal transActionWithdrawHash = keccak256(abi.encodePacked(\"withdraw\"));\n    string constant internal transActionWithdraw = \"withdraw\";\n    uint8 constant internal defaultQueryPendingListCount = 10;\n}\n\ncontract ApprovalWallet is MultiSigWallet, ApprovalWalletStorage{\n    \n    event SubmitWithdraw(address indexed srcWallet, address indexed destWallet, address indexed submitterAddress, string assetName, uint transId, uint256 amount, uint256 feeAmount);\n    event ApproveWithdraw(address indexed approverAddress, uint transId);\n\n    constructor() MultiSigWallet(1) public   {\n        queryPendingListCount = defaultQueryPendingListCount;\n    }\n\n    function init(address internalSCConfig, uint8 queryPendingListLimit) public onlyOwner{\n      \n        setInternalSmartContractConfig(internalSCConfig);\n        queryPendingListCount = queryPendingListLimit;\n    }\n\n    function setInternalSmartContractConfig(address addr) public \n    onlyOwner{\n        internalSCConfig = InternalSmartContractConfig(addr);\n    }\n\n    function setQueryPendingListCount(uint8 limitCount) public onlyOwner{\n        queryPendingListCount = limitCount;\n    }\n\n    function setFallbackAddress(address addr) public onlyOwner{\n        fallbackAddr = addr;\n    }\n\n    function getInternalSmartContractConfig() public onlyOwner view returns(address) {\n        return address(internalSCConfig);\n    }\n\n    \n    function submitWithdrawRequest(address srcWallet, address destWallet, uint256 amount, string memory assetName, uint256 feeAmount) public\n        onlyWriter(_msgSender()) returns (uint)\n    {\n\n        uint transId = addTransaction(destWallet, amount, \"\");\n        transactions[transId].isDirectInvokeData = false;\n        miscellaneousData[transId][transActionKeyName] = string(transActionWithdraw);\n        miscellaneousData[transId][srcWalletKeyName]= string(abi.encode(srcWallet));\n        miscellaneousData[transId][assetNameKeyName] = assetName;\n\n\n        submitCustomTransaction(transId);\n        pendingTransList.push(transId);\n\n        emit SubmitWithdraw(srcWallet, destWallet, _msgSender(), assetName, transId, amount, feeAmount);\n        return transId;\n    }\n\n    function executeTransaction(uint transactionId) override internal\n        confirmed(transactionId, msg.sender)\n        notExecuted(transactionId)\n    {\n        if (isConfirmed(transactionId)) {\n            Transaction storage txn = transactions[transactionId];\n\n            if (txn.isDirectInvokeData) {\n               super.executeTransaction(transactionId);\n            }else{\n                string memory action = miscellaneousData[transactionId][transActionKeyName];\n                if (keccak256(abi.encodePacked(action)) == transActionWithdrawHash){\n                    //Withdraw\n                    \n                    WithdrawSmartContract withdrawSC = WithdrawSmartContract(payable(internalSCConfig.getWithdrawSmartContract()));\n                    address srcWallet = abi.decode(bytes(miscellaneousData[transactionId][srcWalletKeyName]), (address));\n                    string memory assetName = miscellaneousData[transactionId][assetNameKeyName];\n                    withdrawSC.addWithdrawRequest(srcWallet, txn.destination, txn.value, assetName, address(this), transactionId);\n\n                    emit ApproveWithdraw(msg.sender, transactionId);\n                }\n            }\n            removePendingTransaction(txn.transId);\n        }\n    }\n\n    function removePendingTransaction(uint transId) internal returns(bool){\n        uint count = pendingTransList.length;\n        for (uint i = 0; i < count; i++){\n            if (pendingTransList[i] == transId){\n                pendingTransList[i] = pendingTransList[count - 1];\n                pendingTransList.pop();\n                return true;\n            }\n        }\n        return false;\n    }\n\n    //For ETH ONLY\n    // function submitWithdraw(address dest, uint256 amount) public override{\n        \n    //     require(amount > 0, \"Amount cannot be 0\");\n\n    //     address walletMapAddr = internalSCConfig.getWalletAddressMap();\n    //     require(walletMapAddr != address(0), \"WalletAddressMap is null\");\n    //     WalletAddressMap walletAddrMap = WalletAddressMap(internalSCConfig.getWalletAddressMap());\n    //     bool isExist = walletAddrMap.isWalletAddressExist(msg.sender);\n    //     require (isExist, \"Wallet is not registered\");\n       \n    //    bool isSenderMerchant = walletAddrMap.isMerchantWallet(msg.sender);\n    //     if (merchantId == 0){\n    //         require(!isSenderMerchant, \"Sender is merchant\");\n    //     }else{\n    //         require(isSenderMerchant, \"Sender is not a merchant wallet\");\n    //         string memory str = walletAddrMap.getWalletInfoValue(msg.sender, \"merchantId\");\n    //         require(bytes(str).length > 0, \"Sender merchant Id not found\");\n    //         uint senderMerchantId = abi.decode(bytes(str), (uint));\n    //         require (senderMerchantId == merchantId, \"Sender is not for this approval wallet\");\n    //     }\n        \n    //     msg.sender.transfer(amount);\n\n    //     submitWithdrawRequest(_msgSender(), dest, amount, \"ETH\");\n    // }\n\n\n\n  /**\n  * @dev Fallback function allowing to perform a delegatecall to the given implementation.\n  * This function will return whatever the implementation call returns\n  */\n  fallback () external payable  {\n\n    require(fallbackAddr != address(0), \"Fallback address is 0\");\n\n    address fAddr = fallbackAddr;\n\n    assembly {\n      let ptr := mload(0x40)\n      calldatacopy(ptr, 0, calldatasize())\n      let result := delegatecall(gas(), fAddr, ptr, calldatasize(), 0, 0)\n      let size := returndatasize()\n      returndatacopy(ptr, 0, size)\n\n      switch result\n      case 0 { revert(ptr, size) }\n      default { return(ptr, size) }\n    }\n  }\n    // @return Binary format as following:\n    //         \n    //         Array of TransObject\n    //         \n    //         TransObject:\n    //         transId uint256\n    //         fromAddress address\n    //         toAddress address\n    //         assetName string\n    //         amount uint256\n    //         timestamp uint256\n    //         \n    // function getPendingTransactionList() public view returns(bytes memory){\n    //     uint256 count = pendingTransList.length;\n\n    //     if (count > queryPendingListCount){\n    //         count = queryPendingListCount;\n    //     }\n    //     uint estimatedSize = estimationTransactionSize(uint8(count));\n    //     uint offset = estimatedSize;\n    //     bytes memory buffer = new bytes(estimatedSize);\n\n    //     uintToBytes(offset, count, buffer);\n    //     offset -=sizeOfUint(256);\n\n    //     for (uint i = 0; i < count; i++){\n    //         uint transId = pendingTransList[i];\n    //         (buffer, offset) = serializeTransaction(transId, buffer, offset);\n    //     }\n    //     return buffer;\n    // }\n\n    // function estimationTransactionSize(uint8 count) internal pure returns(uint256){\n    //     uint singleTransSize =   sizeOfUint(256) * 4 + sizeOfAddress() * 2 + sizeOfString(\"HELLO\");\n    //     return singleTransSize * count;\n    // }\n\n    // function serializeTransaction(uint transId, bytes memory buffer, uint startOffset) internal view returns(bytes memory, uint){\n\n    //         uint offset = startOffset;\n\n    //         Transaction storage trans = transactions[transId];\n\n    //         uintToBytes(offset, transId, buffer);\n    //         offset -= sizeOfUint(256);\n\n    //         address strAddr = abi.decode(bytes(miscellaneousData[transId][srcWalletKeyName]), (address));\n    //         addressToBytes(offset, strAddr, buffer);\n    //         offset -= sizeOfAddress();\n      \n    //         addressToBytes(offset, trans.destination, buffer);\n    //         offset -= sizeOfAddress();\n\n    //         string memory assetName = miscellaneousData[transId][assetNameKeyName];\n    //         stringToBytes(offset, bytes(assetName), buffer);\n    //         offset -= sizeOfString(assetName);\n\n    //         uintToBytes(offset, trans.value, buffer);\n    //         offset -= sizeOfUint(256);\n\n    //         uintToBytes(offset, trans.timestamp, buffer);\n    //         offset -= sizeOfUint(256);\n\n    //         return (buffer, offset);\n    // }\n\n    // function getTransactionDetails(uint transId) public view returns(bytes memory){\n    //     uint256 estimatedSize = estimationTransactionSize(1);\n    //     bytes memory buffer = new bytes(estimatedSize);\n    //     uint offset = 0;\n    //     (buffer, offset) =  serializeTransaction(transId, buffer, 0);\n    //     return buffer;\n    // }\n\n\n    // function mergeBytes(bytes memory a, bytes memory b) public pure returns (bytes memory c) {\n    //     // Store the length of the first array\n    //     uint alen = a.length;\n    //     // Store the length of BOTH arrays\n    //     uint totallen = alen + b.length;\n    //     // Count the loops required for array a (sets of 32 bytes)\n    //     uint loopsa = (a.length + 31) / 32;\n    //     // Count the loops required for array b (sets of 32 bytes)\n    //     uint loopsb = (b.length + 31) / 32;\n    //     assembly {\n    //         let m := mload(0x40)\n    //         // Load the length of both arrays to the head of the new bytes array\n    //         mstore(m, totallen)\n    //         // Add the contents of a to the array\n    //         for {  let i := 0 } lt(i, loopsa) { i := add(1, i) } { mstore(add(m, mul(32, add(1, i))), mload(add(a, mul(32, add(1, i))))) }\n    //         // Add the contents of b to the array\n    //         for {  let i := 0 } lt(i, loopsb) { i := add(1, i) } { mstore(add(m, add(mul(32, add(1, i)), alen)), mload(add(b, mul(32, add(1, i))))) }\n    //         mstore(0x40, add(m, add(32, totallen)))\n    //         c := m\n    //     }\n    // }\n}\n",
  "sourcePath": "/Users/duncanto/Documents/WorkingSet2/src/eurus-backend/smartcontract/contracts/wallet/ApprovalWallet.sol",
  "compiler": {
    "name": "solc",
    "version": "0.6.2+commit.bacdbe57.Emscripten.clang"
  },
  "schemaVersion": "3.4.1",
  "updatedAt": "2021-08-04T10:30:06.304Z",
  "devdoc": {
    "methods": {}
  },
  "userdoc": {
    "methods": {}
  }
}