{
  "contractName": "ApprovalWallet",
  "abi": [
    {
      "inputs": [],
      "stateMutability": "nonpayable",
      "type": "constructor"
    },
    {
      "anonymous": false,
      "inputs": [
        {
          "indexed": true,
          "internalType": "address",
          "name": "approverAddress",
          "type": "address"
        },
        {
          "indexed": false,
          "internalType": "uint256",
          "name": "transId",
          "type": "uint256"
        }
      ],
      "name": "ApproveWithdraw",
      "type": "event"
    },
    {
      "anonymous": false,
      "inputs": [
        {
          "indexed": true,
          "internalType": "address",
          "name": "sender",
          "type": "address"
        },
        {
          "indexed": true,
          "internalType": "uint256",
          "name": "transactionId",
          "type": "uint256"
        }
      ],
      "name": "Confirmation",
      "type": "event"
    },
    {
      "anonymous": false,
      "inputs": [
        {
          "indexed": true,
          "internalType": "address",
          "name": "sender",
          "type": "address"
        },
        {
          "indexed": false,
          "internalType": "uint256",
          "name": "value",
          "type": "uint256"
        }
      ],
      "name": "Deposit",
      "type": "event"
    },
    {
      "anonymous": false,
      "inputs": [
        {
          "indexed": false,
          "internalType": "string",
          "name": "",
          "type": "string"
        }
      ],
      "name": "Event",
      "type": "event"
    },
    {
      "anonymous": false,
      "inputs": [
        {
          "indexed": true,
          "internalType": "uint256",
          "name": "transactionId",
          "type": "uint256"
        }
      ],
      "name": "Execution",
      "type": "event"
    },
    {
      "anonymous": false,
      "inputs": [
        {
          "indexed": true,
          "internalType": "uint256",
          "name": "transactionId",
          "type": "uint256"
        }
      ],
      "name": "ExecutionFailure",
      "type": "event"
    },
    {
      "anonymous": false,
      "inputs": [
        {
          "indexed": true,
          "internalType": "address",
          "name": "owner",
          "type": "address"
        }
      ],
      "name": "OwnerAdded",
      "type": "event"
    },
    {
      "anonymous": false,
      "inputs": [
        {
          "indexed": true,
          "internalType": "address",
          "name": "owner",
          "type": "address"
        }
      ],
      "name": "OwnerRemoved",
      "type": "event"
    },
    {
      "anonymous": false,
      "inputs": [
        {
          "indexed": true,
          "internalType": "address",
          "name": "previousOwner",
          "type": "address"
        },
        {
          "indexed": true,
          "internalType": "address",
          "name": "newOwner",
          "type": "address"
        }
      ],
      "name": "OwnershipTransferred",
      "type": "event"
    },
    {
      "anonymous": false,
      "inputs": [
        {
          "indexed": true,
          "internalType": "address",
          "name": "reader",
          "type": "address"
        }
      ],
      "name": "ReaderAdded",
      "type": "event"
    },
    {
      "anonymous": false,
      "inputs": [
        {
          "indexed": true,
          "internalType": "address",
          "name": "reader",
          "type": "address"
        }
      ],
      "name": "ReaderRemoved",
      "type": "event"
    },
    {
      "anonymous": false,
      "inputs": [
        {
          "indexed": true,
          "internalType": "address",
          "name": "sender",
          "type": "address"
        },
        {
          "indexed": true,
          "internalType": "uint256",
          "name": "transactionId",
          "type": "uint256"
        }
      ],
      "name": "Rejection",
      "type": "event"
    },
    {
      "anonymous": false,
      "inputs": [
        {
          "indexed": false,
          "internalType": "uint256",
          "name": "required",
          "type": "uint256"
        }
      ],
      "name": "RequirementChange",
      "type": "event"
    },
    {
      "anonymous": false,
      "inputs": [
        {
          "indexed": true,
          "internalType": "address",
          "name": "sender",
          "type": "address"
        },
        {
          "indexed": true,
          "internalType": "uint256",
          "name": "transactionId",
          "type": "uint256"
        }
      ],
      "name": "Revocation",
      "type": "event"
    },
    {
      "anonymous": false,
      "inputs": [
        {
          "indexed": true,
          "internalType": "uint256",
          "name": "transactionId",
          "type": "uint256"
        }
      ],
      "name": "Submission",
      "type": "event"
    },
    {
      "anonymous": false,
      "inputs": [
        {
          "indexed": true,
          "internalType": "address",
          "name": "srcWallet",
          "type": "address"
        },
        {
          "indexed": true,
          "internalType": "address",
          "name": "destWallet",
          "type": "address"
        },
        {
          "indexed": true,
          "internalType": "address",
          "name": "submitterAddress",
          "type": "address"
        },
        {
          "indexed": false,
          "internalType": "string",
          "name": "assetName",
          "type": "string"
        },
        {
          "indexed": false,
          "internalType": "uint256",
          "name": "transId",
          "type": "uint256"
        },
        {
          "indexed": false,
          "internalType": "uint256",
          "name": "amount",
          "type": "uint256"
        },
        {
          "indexed": false,
          "internalType": "uint256",
          "name": "feeAmount",
          "type": "uint256"
        }
      ],
      "name": "SubmitWithdraw",
      "type": "event"
    },
    {
      "anonymous": false,
      "inputs": [
        {
          "indexed": true,
          "internalType": "address",
          "name": "writer",
          "type": "address"
        }
      ],
      "name": "WriterAdded",
      "type": "event"
    },
    {
      "anonymous": false,
      "inputs": [
        {
          "indexed": true,
          "internalType": "address",
          "name": "writer",
          "type": "address"
        }
      ],
      "name": "WriterRemoved",
      "type": "event"
    },
    {
      "stateMutability": "payable",
      "type": "fallback"
    },
    {
      "inputs": [],
      "name": "MAX_OWNER_COUNT",
      "outputs": [
        {
          "internalType": "uint256",
          "name": "",
          "type": "uint256"
        }
      ],
      "stateMutability": "view",
      "type": "function"
    },
    {
      "inputs": [
        {
          "internalType": "address",
          "name": "newOwner",
          "type": "address"
        }
      ],
      "name": "addOwner",
      "outputs": [],
      "stateMutability": "nonpayable",
      "type": "function"
    },
    {
      "inputs": [
        {
          "internalType": "address",
          "name": "newReader",
          "type": "address"
        }
      ],
      "name": "addReader",
      "outputs": [],
      "stateMutability": "nonpayable",
      "type": "function"
    },
    {
      "inputs": [
        {
          "internalType": "address",
          "name": "operatorAddr",
          "type": "address"
        }
      ],
      "name": "addWalletOperator",
      "outputs": [],
      "stateMutability": "nonpayable",
      "type": "function"
    },
    {
      "inputs": [
        {
          "internalType": "address",
          "name": "newWriter",
          "type": "address"
        }
      ],
      "name": "addWriter",
      "outputs": [],
      "stateMutability": "nonpayable",
      "type": "function"
    },
    {
      "inputs": [
        {
          "internalType": "uint256",
          "name": "_required",
          "type": "uint256"
        }
      ],
      "name": "changeRequirement",
      "outputs": [],
      "stateMutability": "nonpayable",
      "type": "function"
    },
    {
      "inputs": [
        {
          "internalType": "uint256",
          "name": "transactionId",
          "type": "uint256"
        }
      ],
      "name": "confirmTransaction",
      "outputs": [],
      "stateMutability": "nonpayable",
      "type": "function"
    },
    {
      "inputs": [
        {
          "internalType": "uint256",
          "name": "",
          "type": "uint256"
        },
        {
          "internalType": "address",
          "name": "",
          "type": "address"
        }
      ],
      "name": "confirmations",
      "outputs": [
        {
          "internalType": "bool",
          "name": "",
          "type": "bool"
        }
      ],
      "stateMutability": "view",
      "type": "function"
    },
    {
      "inputs": [],
      "name": "fallbackAddr",
      "outputs": [
        {
          "internalType": "address",
          "name": "",
          "type": "address"
        }
      ],
      "stateMutability": "view",
      "type": "function"
    },
    {
      "inputs": [
        {
          "internalType": "uint256",
          "name": "transactionId",
          "type": "uint256"
        }
      ],
      "name": "getConfirmationCount",
      "outputs": [
        {
          "internalType": "uint256",
          "name": "count",
          "type": "uint256"
        }
      ],
      "stateMutability": "view",
      "type": "function"
    },
    {
      "inputs": [
        {
          "internalType": "uint256",
          "name": "transactionId",
          "type": "uint256"
        }
      ],
      "name": "getConfirmations",
      "outputs": [
        {
          "internalType": "address[]",
          "name": "_confirmations",
          "type": "address[]"
        }
      ],
      "stateMutability": "view",
      "type": "function"
    },
    {
      "inputs": [],
      "name": "getOwnerCount",
      "outputs": [
        {
          "internalType": "uint256",
          "name": "",
          "type": "uint256"
        }
      ],
      "stateMutability": "view",
      "type": "function"
    },
    {
      "inputs": [],
      "name": "getOwners",
      "outputs": [
        {
          "internalType": "address[]",
          "name": "",
          "type": "address[]"
        }
      ],
      "stateMutability": "view",
      "type": "function"
    },
    {
      "inputs": [],
      "name": "getReaderList",
      "outputs": [
        {
          "internalType": "address[]",
          "name": "",
          "type": "address[]"
        }
      ],
      "stateMutability": "view",
      "type": "function"
    },
    {
      "inputs": [
        {
          "internalType": "bool",
          "name": "pending",
          "type": "bool"
        },
        {
          "internalType": "bool",
          "name": "executed",
          "type": "bool"
        }
      ],
      "name": "getTransactionCount",
      "outputs": [
        {
          "internalType": "uint256",
          "name": "count",
          "type": "uint256"
        }
      ],
      "stateMutability": "view",
      "type": "function"
    },
    {
      "inputs": [
        {
          "internalType": "uint256",
          "name": "from",
          "type": "uint256"
        },
        {
          "internalType": "uint256",
          "name": "to",
          "type": "uint256"
        },
        {
          "internalType": "bool",
          "name": "pending",
          "type": "bool"
        },
        {
          "internalType": "bool",
          "name": "executed",
          "type": "bool"
        }
      ],
      "name": "getTransactionIds",
      "outputs": [
        {
          "internalType": "uint256[]",
          "name": "_transactionIds",
          "type": "uint256[]"
        }
      ],
      "stateMutability": "view",
      "type": "function"
    },
    {
      "inputs": [],
      "name": "getWalletOperatorList",
      "outputs": [
        {
          "internalType": "address[]",
          "name": "",
          "type": "address[]"
        }
      ],
      "stateMutability": "view",
      "type": "function"
    },
    {
      "inputs": [],
      "name": "getWalletOwner",
      "outputs": [
        {
          "internalType": "address",
          "name": "",
          "type": "address"
        }
      ],
      "stateMutability": "view",
      "type": "function"
    },
    {
      "inputs": [],
      "name": "getWriterList",
      "outputs": [
        {
          "internalType": "address[]",
          "name": "",
          "type": "address[]"
        }
      ],
      "stateMutability": "view",
      "type": "function"
    },
    {
      "inputs": [
        {
          "internalType": "uint256",
          "name": "transactionId",
          "type": "uint256"
        }
      ],
      "name": "isConfirmed",
      "outputs": [
        {
          "internalType": "bool",
          "name": "",
          "type": "bool"
        }
      ],
      "stateMutability": "view",
      "type": "function"
    },
    {
      "inputs": [
        {
          "internalType": "address",
          "name": "addr",
          "type": "address"
        }
      ],
      "name": "isOwner",
      "outputs": [
        {
          "internalType": "bool",
          "name": "",
          "type": "bool"
        }
      ],
      "stateMutability": "view",
      "type": "function"
    },
    {
      "inputs": [
        {
          "internalType": "uint256",
          "name": "transId",
          "type": "uint256"
        }
      ],
      "name": "isRejected",
      "outputs": [
        {
          "internalType": "bool",
          "name": "",
          "type": "bool"
        }
      ],
      "stateMutability": "view",
      "type": "function"
    },
    {
      "inputs": [
        {
          "internalType": "address",
          "name": "addr",
          "type": "address"
        }
      ],
      "name": "isWriter",
      "outputs": [
        {
          "internalType": "bool",
          "name": "",
          "type": "bool"
        }
      ],
      "stateMutability": "view",
      "type": "function"
    },
    {
      "inputs": [],
      "name": "merchantId",
      "outputs": [
        {
          "internalType": "uint256",
          "name": "",
          "type": "uint256"
        }
      ],
      "stateMutability": "view",
      "type": "function"
    },
    {
      "inputs": [
        {
          "internalType": "uint256",
          "name": "",
          "type": "uint256"
        },
        {
          "internalType": "string",
          "name": "",
          "type": "string"
        }
      ],
      "name": "miscellaneousData",
      "outputs": [
        {
          "internalType": "string",
          "name": "",
          "type": "string"
        }
      ],
      "stateMutability": "view",
      "type": "function"
    },
    {
      "inputs": [
        {
          "internalType": "uint256",
          "name": "",
          "type": "uint256"
        }
      ],
      "name": "pendingTransList",
      "outputs": [
        {
          "internalType": "uint256",
          "name": "",
          "type": "uint256"
        }
      ],
      "stateMutability": "view",
      "type": "function"
    },
    {
      "inputs": [],
      "name": "queryPendingListCount",
      "outputs": [
        {
          "internalType": "uint8",
          "name": "",
          "type": "uint8"
        }
      ],
      "stateMutability": "view",
      "type": "function"
    },
    {
      "inputs": [
        {
          "internalType": "uint256",
          "name": "transId",
          "type": "uint256"
        }
      ],
      "name": "rejectTransaction",
      "outputs": [],
      "stateMutability": "nonpayable",
      "type": "function"
    },
    {
      "inputs": [
        {
          "internalType": "address",
          "name": "owner",
          "type": "address"
        }
      ],
      "name": "removeOwner",
      "outputs": [],
      "stateMutability": "nonpayable",
      "type": "function"
    },
    {
      "inputs": [
        {
          "internalType": "address",
          "name": "operatorAddr",
          "type": "address"
        }
      ],
      "name": "removeWalletOperator",
      "outputs": [],
      "stateMutability": "nonpayable",
      "type": "function"
    },
    {
      "inputs": [
        {
          "internalType": "address",
          "name": "existingReader",
          "type": "address"
        }
      ],
      "name": "removerReader",
      "outputs": [],
      "stateMutability": "nonpayable",
      "type": "function"
    },
    {
      "inputs": [
        {
          "internalType": "address",
          "name": "existingWriter",
          "type": "address"
        }
      ],
      "name": "removerWriter",
      "outputs": [],
      "stateMutability": "nonpayable",
      "type": "function"
    },
    {
      "inputs": [],
      "name": "renounceOwnership",
      "outputs": [],
      "stateMutability": "nonpayable",
      "type": "function"
    },
    {
      "inputs": [],
      "name": "required",
      "outputs": [
        {
          "internalType": "uint256",
          "name": "",
          "type": "uint256"
        }
      ],
      "stateMutability": "view",
      "type": "function"
    },
    {
      "inputs": [
        {
          "internalType": "uint256",
          "name": "transactionId",
          "type": "uint256"
        }
      ],
      "name": "revokeConfirmation",
      "outputs": [],
      "stateMutability": "nonpayable",
      "type": "function"
    },
    {
      "inputs": [
        {
          "internalType": "address",
          "name": "addr",
          "type": "address"
        }
      ],
      "name": "setWalletOwner",
      "outputs": [],
      "stateMutability": "nonpayable",
      "type": "function"
    },
    {
      "inputs": [
        {
          "internalType": "address",
          "name": "a",
          "type": "address"
        }
      ],
      "name": "toBytes",
      "outputs": [
        {
          "internalType": "bytes",
          "name": "",
          "type": "bytes"
        }
      ],
      "stateMutability": "pure",
      "type": "function"
    },
    {
      "inputs": [],
      "name": "transactionCount",
      "outputs": [
        {
          "internalType": "uint256",
          "name": "",
          "type": "uint256"
        }
      ],
      "stateMutability": "view",
      "type": "function"
    },
    {
      "inputs": [
        {
          "internalType": "uint256",
          "name": "",
          "type": "uint256"
        }
      ],
      "name": "transactions",
      "outputs": [
        {
          "internalType": "uint256",
          "name": "transId",
          "type": "uint256"
        },
        {
          "internalType": "bool",
          "name": "isDirectInvokeData",
          "type": "bool"
        },
        {
          "internalType": "address",
          "name": "destination",
          "type": "address"
        },
        {
          "internalType": "uint256",
          "name": "value",
          "type": "uint256"
        },
        {
          "internalType": "bytes",
          "name": "data",
          "type": "bytes"
        },
        {
          "internalType": "uint256",
          "name": "timestamp",
          "type": "uint256"
        },
        {
          "internalType": "uint256",
          "name": "blockNumber",
          "type": "uint256"
        },
        {
          "internalType": "bool",
          "name": "executed",
          "type": "bool"
        },
        {
          "internalType": "bool",
          "name": "rejected",
          "type": "bool"
        }
      ],
      "stateMutability": "view",
      "type": "function"
    },
    {
      "inputs": [
        {
          "internalType": "uint256",
          "name": "",
          "type": "uint256"
        }
      ],
      "name": "walletOperatorList",
      "outputs": [
        {
          "internalType": "address",
          "name": "",
          "type": "address"
        }
      ],
      "stateMutability": "view",
      "type": "function"
    },
    {
      "inputs": [],
      "name": "walletOwner",
      "outputs": [
        {
          "internalType": "address",
          "name": "",
          "type": "address"
        }
      ],
      "stateMutability": "view",
      "type": "function"
    },
    {
      "stateMutability": "payable",
      "type": "receive"
    },
    {
      "inputs": [
        {
          "internalType": "address",
          "name": "internalSCConfig",
          "type": "address"
        },
        {
          "internalType": "uint8",
          "name": "queryPendingListLimit",
          "type": "uint8"
        }
      ],
      "name": "init",
      "outputs": [],
      "stateMutability": "nonpayable",
      "type": "function"
    },
    {
      "inputs": [
        {
          "internalType": "address",
          "name": "addr",
          "type": "address"
        }
      ],
      "name": "setInternalSmartContractConfig",
      "outputs": [],
      "stateMutability": "nonpayable",
      "type": "function"
    },
    {
      "inputs": [
        {
          "internalType": "uint8",
          "name": "limitCount",
          "type": "uint8"
        }
      ],
      "name": "setQueryPendingListCount",
      "outputs": [],
      "stateMutability": "nonpayable",
      "type": "function"
    },
    {
      "inputs": [
        {
          "internalType": "address",
          "name": "addr",
          "type": "address"
        }
      ],
      "name": "setFallbackAddress",
      "outputs": [],
      "stateMutability": "nonpayable",
      "type": "function"
    },
    {
      "inputs": [],
      "name": "getInternalSmartContractConfig",
      "outputs": [
        {
          "internalType": "address",
          "name": "",
          "type": "address"
        }
      ],
      "stateMutability": "view",
      "type": "function"
    },
    {
      "inputs": [
        {
          "internalType": "address",
          "name": "srcWallet",
          "type": "address"
        },
        {
          "internalType": "address",
          "name": "destWallet",
          "type": "address"
        },
        {
          "internalType": "uint256",
          "name": "amount",
          "type": "uint256"
        },
        {
          "internalType": "string",
          "name": "assetName",
          "type": "string"
        },
        {
          "internalType": "uint256",
          "name": "feeAmount",
          "type": "uint256"
        }
      ],
      "name": "submitWithdrawRequest",
      "outputs": [
        {
          "internalType": "uint256",
          "name": "",
          "type": "uint256"
        }
      ],
      "stateMutability": "nonpayable",
      "type": "function"
    }
  ],
  "bytecode": "0x60806040523480156200001157600080fd5b5060016000620000296001600160e01b03620000e116565b6001600160a01b0381166000818152600160208190526040808320805460ff191683179055825491820183558280527f290decd9548b62a8d60345a988386fc84ba6bc95484008f6362f93160ef3e56390910180546001600160a01b031916841790555192935090917f8be0079c531659141344cd1fd0a4f28419497f9722a3daafe3b4186f6b6457e0908290a3508080620000c457600080fd5b50600955600f805460ff60a01b1916600560a11b179055620000e5565b3390565b6140d880620000f56000396000f3fe60806040526004361061028c5760003560e01c8063755765ab1161015a578063b77bf600116100c1578063da2824a81161007a578063da2824a814610c2d578063dc8452cd14610c60578063ddc6f5f614610c75578063ed0736cc14610ca8578063ef18374a14610d7d578063fba8b1e314610d92576102d0565b8063b77bf60014610b49578063ba51a6df14610b5e578063bb7d9fa614610b88578063c01a8c8414610bbb578063ca2760f414610be5578063d74f8edd14610c18576102d0565b80639ace38c2116101135780639ace38c21461098a578063a01013f814610a82578063a0e67e2b14610a97578063a8abe69a14610aac578063afd8b1d114610aec578063b5dc40c314610b1f576102d0565b8063755765ab146108a6578063784547a7146108bb5780638145d126146108e557806385aaed4e146109185780638b51d13f1461092d5780639142376514610957576102d0565b80632b29ba23116101fe57806354741525116101b75780635474152514610797578063593b79fe146107cb5780635ce4e93d146107fe5780637065cb4814610831578063715018a6146108645780637424fe7c14610879576102d0565b80632b29ba23146106425780632f54bf6e146106755780633411c81c146106a85780633a1abfe7146106e15780634804a83d146107465780634d9431ea1461075b576102d0565b8063173825d911610250578063173825d9146104445780631ae879e8146104775780631c95b98c1461048c5780631e556d90146105bb57806320ea8d86146105ee5780632536e3b514610618576102d0565b80630146752614610359578063020bec221461038457806305bf37aa146103b5578063098f076e146103df57806312f33a401461041d576102d0565b366102d05734156102ce5760408051348152905133917fe1fffcc4923d04b559f4d29a8bfc6cda04eb5b0d3c460751c2402c5c5cc9109c919081900360200190a25b005b6010546001600160a01b0316610325576040805162461bcd60e51b8152602060048201526015602482015274046616c6c6261636b2061646472657373206973203605c1b604482015290519081900360640190fd5b6010546040516001600160a01b039091169036600082376000803683855af43d806000843e818015610355578184f35b8184fd5b34801561036557600080fd5b5061036e610dbc565b6040805160ff9092168252519081900360200190f35b34801561039057600080fd5b50610399610dcc565b604080516001600160a01b039092168252519081900360200190f35b3480156103c157600080fd5b506102ce600480360360208110156103d857600080fd5b5035610e4c565b3480156103eb57600080fd5b506104096004803603602081101561040257600080fd5b5035611018565b604080519115158252519081900360200190f35b34801561042957600080fd5b50610432611039565b60408051918252519081900360200190f35b34801561045057600080fd5b506102ce6004803603602081101561046757600080fd5b50356001600160a01b031661103f565b34801561048357600080fd5b50610399611207565b34801561049857600080fd5b50610546600480360360408110156104af57600080fd5b813591908101906040810160208201356401000000008111156104d157600080fd5b8201836020820111156104e357600080fd5b8035906020019184600183028401116401000000008311171561050557600080fd5b91908080601f016020809104026020016040519081016040528093929190818152602001838380828437600092019190915250929550611216945050505050565b6040805160208082528351818301528351919283929083019185019080838360005b83811015610580578181015183820152602001610568565b50505050905090810190601f1680156105ad5780820380516001836020036101000a031916815260200191505b509250505060405180910390f35b3480156105c757600080fd5b506102ce600480360360208110156105de57600080fd5b50356001600160a01b03166112c8565b3480156105fa57600080fd5b506102ce6004803603602081101561061157600080fd5b50356114ed565b34801561062457600080fd5b506104326004803603602081101561063b57600080fd5b50356116ad565b34801561064e57600080fd5b506104096004803603602081101561066557600080fd5b50356001600160a01b03166116cb565b34801561068157600080fd5b506104096004803603602081101561069857600080fd5b50356001600160a01b03166116e9565b3480156106b457600080fd5b50610409600480360360408110156106cb57600080fd5b50803590602001356001600160a01b0316611707565b3480156106ed57600080fd5b506106f6611727565b60408051602080825283518183015283519192839290830191858101910280838360005b8381101561073257818101518382015260200161071a565b505050509050019250505060405180910390f35b34801561075257600080fd5b5061039961178a565b34801561076757600080fd5b506102ce6004803603604081101561077e57600080fd5b5080356001600160a01b0316906020013560ff16611799565b3480156107a357600080fd5b50610432600480360360408110156107ba57600080fd5b508035151590602001351515611830565b3480156107d757600080fd5b50610546600480360360208110156107ee57600080fd5b50356001600160a01b031661189e565b34801561080a57600080fd5b506102ce6004803603602081101561082157600080fd5b50356001600160a01b03166118d0565b34801561083d57600080fd5b506102ce6004803603602081101561085457600080fd5b50356001600160a01b0316611a03565b34801561087057600080fd5b506102ce611b74565b34801561088557600080fd5b506102ce6004803603602081101561089c57600080fd5b503560ff16611cf1565b3480156108b257600080fd5b50610399611d7e565b3480156108c757600080fd5b50610409600480360360208110156108de57600080fd5b5035611d8d565b3480156108f157600080fd5b506102ce6004803603602081101561090857600080fd5b50356001600160a01b0316611e16565b34801561092457600080fd5b506106f661201c565b34801561093957600080fd5b506104326004803603602081101561095057600080fd5b503561207c565b34801561096357600080fd5b506102ce6004803603602081101561097a57600080fd5b50356001600160a01b03166120eb565b34801561099657600080fd5b506109b4600480360360208110156109ad57600080fd5b503561217a565b604051808a815260200189151515158152602001886001600160a01b03166001600160a01b03168152602001878152602001806020018681526020018581526020018415151515815260200183151515158152602001828103825287818151815260200191508051906020019080838360005b83811015610a3f578181015183820152602001610a27565b50505050905090810190601f168015610a6c5780820380516001836020036101000a031916815260200191505b509a505050505050505050505060405180910390f35b348015610a8e57600080fd5b506106f6612261565b348015610aa357600080fd5b506106f66122c1565b348015610ab857600080fd5b506106f660048036036080811015610acf57600080fd5b508035906020810135906040810135151590606001351515612321565b348015610af857600080fd5b506102ce60048036036020811015610b0f57600080fd5b50356001600160a01b031661244e565b348015610b2b57600080fd5b506106f660048036036020811015610b4257600080fd5b50356125b0565b348015610b5557600080fd5b50610432612727565b348015610b6a57600080fd5b506102ce60048036036020811015610b8157600080fd5b503561272d565b348015610b9457600080fd5b506102ce60048036036020811015610bab57600080fd5b50356001600160a01b03166127e1565b348015610bc757600080fd5b506102ce60048036036020811015610bde57600080fd5b5035612870565b348015610bf157600080fd5b506102ce60048036036020811015610c0857600080fd5b50356001600160a01b0316612a46565b348015610c2457600080fd5b50610432612b62565b348015610c3957600080fd5b506102ce60048036036020811015610c5057600080fd5b50356001600160a01b0316612b67565b348015610c6c57600080fd5b50610432612cc9565b348015610c8157600080fd5b506102ce60048036036020811015610c9857600080fd5b50356001600160a01b0316612ccf565b348015610cb457600080fd5b50610432600480360360a0811015610ccb57600080fd5b6001600160a01b03823581169260208101359091169160408201359190810190608081016060820135640100000000811115610d0657600080fd5b820183602082011115610d1857600080fd5b80359060200191846001830284011164010000000083111715610d3a57600080fd5b91908080601f0160208091040260200160405190810160405280939291908181526020018383808284376000920191909152509295505091359250612ed5915050565b348015610d8957600080fd5b506104326132b3565b348015610d9e57600080fd5b5061039960048036036020811015610db557600080fd5b50356132b9565b600f54600160a01b900460ff1681565b600080610dd76132e0565b6001600160a01b03811660009081526001602081905260409091205491925060ff909116151514610e395760405162461bcd60e51b8152600401808060200182810382526027815260200180613f526027913960400191505060405180910390fd5b600f546001600160a01b031691505b5090565b336000908152600d602052604090205460ff16151560011480610e795750600b546001600160a01b031633145b610eb45760405162461bcd60e51b8152600401808060200182810382526038815260200180613f1a6038913960400191505060405180910390fd5b600081815260066020526040902060010154819061010090046001600160a01b0316610f115760405162461bcd60e51b81526004018080602001828103825260258152602001806140016025913960400191505060405180910390fd5b60008281526007602090815260408083203380855292529091205483919060ff1615610f6e5760405162461bcd60e51b8152600401808060200182810382526030815260200180613fd16030913960400191505060405180910390fd5b600084815260066020819052604090912001548490610100900460ff1615610fc75760405162461bcd60e51b815260040180806020018281038252602c815260200180614077602c913960400191505060405180910390fd5b6000858152600660208190526040808320909101805461ff00191661010017905551869133917f310fda14a1b3763badba87b2ca73948d00cc14d8fa2d6ee19a67ac90fa9afa679190a35050505050565b60008181526006602081905260409091200154610100900460ff165b919050565b60115481565b60006110496132e0565b6001600160a01b03811660009081526001602081905260409091205491925060ff9091161515146110ab5760405162461bcd60e51b8152600401808060200182810382526027815260200180613f526027913960400191505060405180910390fd5b6001600160a01b038216600090815260016020526040902054829060ff166110d257600080fd5b6001600160a01b0383166000908152600160205260408120805460ff191690558054905b8181101561119f57846001600160a01b03166000828154811061111557fe5b6000918252602090912001546001600160a01b03161415611197576000600183038154811061114057fe5b600091825260208220015481546001600160a01b0390911691908390811061116457fe5b9060005260206000200160006101000a8154816001600160a01b0302191690836001600160a01b0316021790555061119f565b6001016110f6565b5060008054806111ab57fe5b600082815260208120820160001990810180546001600160a01b03191690559091019091556040516001600160a01b038616917f58619076adf5bb0943d100ef88d52d7c3fd691b19d3a9071b555b651fbf418da91a250505050565b600b546001600160a01b031681565b60086020908152600092835260409283902082518084018301805192815290830193830193909320925281548351601f60026000196101006001861615020190931692909204918201839004830281018301909452808452908301828280156112c05780601f10611295576101008083540402835291602001916112c0565b820191906000526020600020905b8154815290600101906020018083116112a357829003601f168201915b505050505081565b60006112d26132e0565b6001600160a01b03811660009081526001602081905260409091205491925060ff9091161515146113345760405162461bcd60e51b8152600401808060200182810382526027815260200180613f526027913960400191505060405180910390fd5b600b5482906001600160a01b03808316911614156113835760405162461bcd60e51b81526004018080602001828103825260268152602001806140516026913960400191505060405180910390fd5b600b546001600160a01b03848116911614156113e6576040805162461bcd60e51b815260206004820152601a60248201527f43616e6e6f742072656d6f76652077616c6c6574206f776e6572000000000000604482015290519081900360640190fd5b6001600160a01b0383166000908152600d60205260408120805460ff19169055600c54905b600182038110156114b957846001600160a01b0316600c828154811061142d57fe5b6000918252602090912001546001600160a01b031614156114b157600c600183038154811061145857fe5b600091825260209091200154600c80546001600160a01b03909216918390811061147e57fe5b9060005260206000200160006101000a8154816001600160a01b0302191690836001600160a01b031602179055506114b9565b60010161140b565b50600c8054806114c557fe5b600082815260209020810160001990810180546001600160a01b031916905501905550505050565b336000908152600d602052604090205460ff1615156001148061151a5750600b546001600160a01b031633145b6115555760405162461bcd60e51b8152600401808060200182810382526038815260200180613f1a6038913960400191505060405180910390fd5b60008181526007602090815260408083203380855292529091205482919060ff166115b15760405162461bcd60e51b815260040180806020018281038252602c815260200180613f79602c913960400191505060405180910390fd5b60008381526006602081905260409091200154839060ff16156116055760405162461bcd60e51b815260040180806020018281038252602c815260200180613fa5602c913960400191505060405180910390fd5b600084815260066020819052604090912001548490610100900460ff161561165e5760405162461bcd60e51b815260040180806020018281038252602c815260200180614077602c913960400191505060405180910390fd5b6000858152600760209081526040808320338085529252808320805460ff191690555187927ff6a317157440607f36269043eb55f1287a5a19ba2216afeab88cd46cbcfb88e991a35050505050565b600e81815481106116ba57fe5b600091825260209091200154905081565b6001600160a01b031660009081526005602052604090205460ff1690565b6001600160a01b031660009081526001602052604090205460ff1690565b600760209081526000928352604080842090915290825290205460ff1681565b6060600480548060200260200160405190810160405280929190818152602001828054801561177f57602002820191906000526020600020905b81546001600160a01b03168152600190910190602001808311611761575b505050505090505b90565b6010546001600160a01b031681565b60006117a36132e0565b6001600160a01b03811660009081526001602081905260409091205491925060ff9091161515146118055760405162461bcd60e51b8152600401808060200182810382526027815260200180613f526027913960400191505060405180910390fd5b61180e836127e1565b50600f805460ff909216600160a01b0260ff60a01b1990921691909117905550565b6000805b600a548110156118975783801561185e57506000818152600660208190526040909120015460ff16155b80611883575082801561188357506000818152600660208190526040909120015460ff165b1561188f576001820191505b600101611834565b5092915050565b6040805160609290921b6bffffffffffffffffffffffff19166020830152805160148184030181526034909201905290565b60006118da6132e0565b6001600160a01b03811660009081526001602081905260409091205491925060ff90911615151461193c5760405162461bcd60e51b8152600401808060200182810382526027815260200180613f526027913960400191505060405180910390fd5b6001600160a01b0382166000908152600d6020526040902054829060ff1615156001141561199b5760405162461bcd60e51b815260040180806020018281038252602b815260200180614026602b913960400191505060405180910390fd5b50506001600160a01b03166000818152600d60205260408120805460ff19166001908117909155600c805491820181559091527fdf6966c971051c3d54ec59162606531493a51404a002842f56009d7e5cf4a8c70180546001600160a01b0319169091179055565b6000611a0d6132e0565b6001600160a01b03811660009081526001602081905260409091205491925060ff909116151514611a6f5760405162461bcd60e51b8152600401808060200182810382526027815260200180613f526027913960400191505060405180910390fd5b6001600160a01b038216600090815260016020819052604090912054839160ff90911615151415611ae7576040805162461bcd60e51b815260206004820152601b60248201527f4164647265737320616c726561647920697320616e206f776e65720000000000604482015290519081900360640190fd5b6001600160a01b0383166000818152600160208190526040808320805460ff191683179055825491820183558280527f290decd9548b62a8d60345a988386fc84ba6bc95484008f6362f93160ef3e56390910180546001600160a01b03191684179055517f994a936646fe87ffe4f1e469d3d6aa417d6b855598397f323de5b449f765f0c39190a2505050565b6000611b7e6132e0565b6001600160a01b03811660009081526001602081905260409091205491925060ff909116151514611be05760405162461bcd60e51b8152600401808060200182810382526027815260200180613f526027913960400191505060405180910390fd5b6000611bea6132e0565b6001600160a01b0381166000908152600160205260408120805460ff191690559091505b60005460001901811015611cbf57816001600160a01b031660008281548110611c3357fe5b6000918252602090912001546001600160a01b03161415611cb757600080546000198101908110611c6057fe5b600091825260208220015481546001600160a01b03909116919083908110611c8457fe5b9060005260206000200160006101000a8154816001600160a01b0302191690836001600160a01b03160217905550611cbf565b600101611c0e565b506000805480611ccb57fe5b600082815260209020810160001990810180546001600160a01b03191690550190555050565b6000611cfb6132e0565b6001600160a01b03811660009081526001602081905260409091205491925060ff909116151514611d5d5760405162461bcd60e51b8152600401808060200182810382526027815260200180613f526027913960400191505060405180910390fd5b50600f805460ff909216600160a01b0260ff60a01b19909216919091179055565b600b546001600160a01b031690565b600080805b600c54811015611e0c576000848152600760205260408120600c805491929184908110611dbb57fe5b60009182526020808320909101546001600160a01b0316835282019290925260400190205460ff1615611def576001820191505b600954821415611e0457600192505050611034565b600101611d92565b5060009392505050565b6000611e206132e0565b6001600160a01b03811660009081526001602081905260409091205491925060ff909116151514611e825760405162461bcd60e51b8152600401808060200182810382526027815260200180613f526027913960400191505060405180910390fd5b6001600160a01b038216600090815260056020526040902054829060ff16611ee4576040805162461bcd60e51b815260206004820152601060248201526f15dc9a5d195c881b9bdd08195e1a5cdd60821b604482015290519081900360640190fd5b6001600160a01b0383166000908152600560205260408120805460ff19169055600454905b81811015611fb457846001600160a01b031660048281548110611f2857fe5b6000918252602090912001546001600160a01b03161415611fac5760046001830381548110611f5357fe5b600091825260209091200154600480546001600160a01b039092169183908110611f7957fe5b9060005260206000200160006101000a8154816001600160a01b0302191690836001600160a01b03160217905550611fb4565b600101611f09565b506004805480611fc057fe5b600082815260208120820160001990810180546001600160a01b03191690559091019091556040516001600160a01b038616917f86e5bbceda94081c32220d685f37cc4e3ea7bb0be2dfbf0cb703579505a5390e91a250505050565b6060600280548060200260200160405190810160405280929190818152602001828054801561177f576020028201919060005260206000209081546001600160a01b03168152600190910190602001808311611761575050505050905090565b6000805b600c548110156120e5576000838152600760205260408120600c8054919291849081106120a957fe5b60009182526020808320909101546001600160a01b0316835282019290925260400190205460ff16156120dd576001820191505b600101612080565b50919050565b60006120f56132e0565b6001600160a01b03811660009081526001602081905260409091205491925060ff9091161515146121575760405162461bcd60e51b8152600401808060200182810382526027815260200180613f526027913960400191505060405180910390fd5b50601080546001600160a01b0319166001600160a01b0392909216919091179055565b600660209081526000918252604091829020805460018083015460028085015460038601805489516101009682161587026000190190911693909304601f8101899004890284018901909952888352949760ff841697949093046001600160a01b03169590949093919290918301828280156122375780601f1061220c57610100808354040283529160200191612237565b820191906000526020600020905b81548152906001019060200180831161221a57829003601f168201915b50505050600483015460058401546006909401549293909290915060ff8082169161010090041689565b6060600c80548060200260200160405190810160405280929190818152602001828054801561177f576020028201919060005260206000209081546001600160a01b03168152600190910190602001808311611761575050505050905090565b6060600080548060200260200160405190810160405280929190818152602001828054801561177f576020028201919060005260206000209081546001600160a01b03168152600190910190602001808311611761575050505050905090565b606080600a54604051908082528060200260200182016040528015612350578160200160208202803883390190505b5090506000805b600a548110156123d35785801561238157506000818152600660208190526040909120015460ff16155b806123a657508480156123a657506000818152600660208190526040909120015460ff165b156123cb57808383815181106123b857fe5b6020026020010181815250506001820191505b600101612357565b8787036040519080825280602002602001820160405280156123ff578160200160208202803883390190505b5093508790505b868110156124435782818151811061241a57fe5b6020026020010151848983038151811061243057fe5b6020908102919091010152600101612406565b505050949350505050565b60006124586132e0565b6001600160a01b03811660009081526001602081905260409091205491925060ff9091161515146124ba5760405162461bcd60e51b8152600401808060200182810382526027815260200180613f526027913960400191505060405180910390fd5b6001600160a01b038216600090815260036020526040902054829060ff1615612522576040805162461bcd60e51b815260206004820152601560248201527452656164657220616c72656164792065786973747360581b604482015290519081900360640190fd5b6001600160a01b038316600081815260036020526040808220805460ff1916600190811790915560028054918201815583527f405787fa12a823e0f2b7631cc41b3ba8828b3321ca811111fa75cd3aa3bb5ace0180546001600160a01b03191684179055517fb7724d890d2888af5a3fc456edb667e2c82c4441449ebcac301c618759e4f86d9190a2505050565b606080600c805490506040519080825280602002602001820160405280156125e2578160200160208202803883390190505b5090506000805b600c548110156126a5576000858152600760205260408120600c80549192918490811061261257fe5b60009182526020808320909101546001600160a01b0316835282019290925260400190205460ff161561269d57600c818154811061264c57fe5b9060005260206000200160009054906101000a90046001600160a01b031683838151811061267657fe5b60200260200101906001600160a01b031690816001600160a01b0316815250506001820191505b6001016125e9565b816040519080825280602002602001820160405280156126cf578160200160208202803883390190505b509350600090505b8181101561271f578281815181106126eb57fe5b60200260200101518482815181106126ff57fe5b6001600160a01b03909216602092830291909101909101526001016126d7565b505050919050565b600a5481565b60006127376132e0565b6001600160a01b03811660009081526001602081905260409091205491925060ff9091161515146127995760405162461bcd60e51b8152600401808060200182810382526027815260200180613f526027913960400191505060405180910390fd5b81806127a457600080fd5b60098390556040805184815290517fa3f1ee9126a074d9326c682f561767f710e927faa811f7a99829d49dc421797a9181900360200190a1505050565b60006127eb6132e0565b6001600160a01b03811660009081526001602081905260409091205491925060ff90911615151461284d5760405162461bcd60e51b8152600401808060200182810382526027815260200180613f526027913960400191505060405180910390fd5b50600f80546001600160a01b0319166001600160a01b0392909216919091179055565b336000908152600d602052604090205460ff1615156001148061289d5750600b546001600160a01b031633145b6128d85760405162461bcd60e51b8152600401808060200182810382526038815260200180613f1a6038913960400191505060405180910390fd5b600081815260066020526040902060010154819061010090046001600160a01b03166129355760405162461bcd60e51b81526004018080602001828103825260258152602001806140016025913960400191505060405180910390fd5b60008281526007602090815260408083203380855292529091205483919060ff16156129925760405162461bcd60e51b8152600401808060200182810382526030815260200180613fd16030913960400191505060405180910390fd5b600084815260066020819052604090912001548490610100900460ff16156129eb5760405162461bcd60e51b815260040180806020018281038252602c815260200180614077602c913960400191505060405180910390fd5b6000858152600760209081526040808320338085529252808320805460ff191660011790555187927f4a504a94899432a9846e1aa406dceb1bcfd538bb839071d49d1e5e23f5be30ef91a3612a3f856132e4565b5050505050565b6000612a506132e0565b6001600160a01b03811660009081526001602081905260409091205491925060ff909116151514612ab25760405162461bcd60e51b8152600401808060200182810382526027815260200180613f526027913960400191505060405180910390fd5b600b80546001600160a01b0319166001600160a01b038481169190911791829055166000908152600d602052604090205460ff16612b5e57600b80546001600160a01b039081166000908152600d60205260408120805460ff191660019081179091559254600c805494850181559091527fdf6966c971051c3d54ec59162606531493a51404a002842f56009d7e5cf4a8c790920180546001600160a01b031916929091169190911790555b5050565b603281565b6000612b716132e0565b6001600160a01b03811660009081526001602081905260409091205491925060ff909116151514612bd35760405162461bcd60e51b8152600401808060200182810382526027815260200180613f526027913960400191505060405180910390fd5b6001600160a01b038216600090815260056020526040902054829060ff1615612c3b576040805162461bcd60e51b815260206004820152601560248201527457726974657220616c72656164792065786973747360581b604482015290519081900360640190fd5b6001600160a01b038316600081815260056020526040808220805460ff1916600190811790915560048054918201815583527f8a35acfbc15ff81a39ae7d344fd709f28e8600b4aa8c65c6b64bfe7fe36bd19b0180546001600160a01b03191684179055517f6ff3aa2ea7b53070f6d9d07a445d338d89e8edef44250ffa8be19f53910d4a2e9190a2505050565b60095481565b6000612cd96132e0565b6001600160a01b03811660009081526001602081905260409091205491925060ff909116151514612d3b5760405162461bcd60e51b8152600401808060200182810382526027815260200180613f526027913960400191505060405180910390fd5b6001600160a01b038216600090815260036020526040902054829060ff16612d9d576040805162461bcd60e51b815260206004820152601060248201526f14995859195c881b9bdd08195e1a5cdd60821b604482015290519081900360640190fd5b6001600160a01b0383166000908152600360205260408120805460ff19169055600254905b81811015612e6d57846001600160a01b031660028281548110612de157fe5b6000918252602090912001546001600160a01b03161415612e655760026001830381548110612e0c57fe5b600091825260209091200154600280546001600160a01b039092169183908110612e3257fe5b9060005260206000200160006101000a8154816001600160a01b0302191690836001600160a01b03160217905550612e6d565b600101612dc2565b506002805480612e7957fe5b600082815260208120820160001990810180546001600160a01b03191690559091019091556040516001600160a01b038616917fe933431644458f1217f9e93d3e000e03c9bbbe55761046d0985c2e4d157bcbaa91a250505050565b6000612edf6132e0565b6001600160a01b03811660009081526005602052604090205460ff16612f3a576040805162461bcd60e51b815260206004820152600b60248201526a577269746572206f6e6c7960a81b604482015290519081900360640190fd5b6000612f568787604051806020016040528060008152506139dc565b6000818152600660209081526040808320600101805460ff1916905580518082018252600880825267776974686472617760c01b8285015285855283529281902081518083018352600b8082526a3a3930b739a0b1ba34b7b760a91b9482019485529251959650939490939290918291908083835b60208310612fea5780518252601f199092019160209182019101612fcb565b51815160209384036101000a6000190180199092169116179052920194855250604051938490038101909320845161302b9591949190910192509050613e8b565b50604080516001600160a01b038a1660208083019190915282518083038201815260008581526008909252908390206080830184526009838501818152681cdc98d5d85b1b195d60ba1b606090950194855294519294919391929182918083835b602083106130ab5780518252601f19909201916020918201910161308c565b51815160209384036101000a600019018019909216911617905292019485525060405193849003810190932084516130ec9591949190910192509050613e8b565b5084600860008381526020019081526020016000206040518060400160405280600981526020016861737365744e616d6560b81b8152506040518082805190602001908083835b602083106131525780518252601f199092019160209182019101613133565b51815160209384036101000a600019018019909216911617905292019485525060405193849003810190932084516131939591949190910192509050613e8b565b5061319d81613b6c565b600e80546001810182556000919091527fbb7b4a454dc3493923482f07822329ed19e8244eff582cc204f8554c3620c3fd018190556131da6132e0565b6001600160a01b0316876001600160a01b0316896001600160a01b03167f831cc6702dce942a6fa4214b9e94528305f6250738b119a44a23af7ec2a6127888858b8a6040518080602001858152602001848152602001838152602001828103825286818151815260200191508051906020019080838360005b8381101561326b578181015183820152602001613253565b50505050905090810190601f1680156132985780820380516001836020036101000a031916815260200191505b509550505050505060405180910390a4979650505050505050565b60005490565b600c81815481106132c657fe5b6000918252602090912001546001600160a01b0316905081565b3390565b60008181526007602090815260408083203380855292529091205482919060ff166133405760405162461bcd60e51b815260040180806020018281038252602c815260200180613f79602c913960400191505060405180910390fd5b60008381526006602081905260409091200154839060ff16156133945760405162461bcd60e51b815260040180806020018281038252602c815260200180613fa5602c913960400191505060405180910390fd5b61339d84611d8d565b156139d6576000848152600660205260409020600181015460ff16156133cb576133c685613bce565b6139c8565b6060600860008781526020019081526020016000206040518060400160405280600b81526020016a3a3930b739a0b1ba34b7b760a91b8152506040518082805190602001908083835b602083106134335780518252601f199092019160209182019101613414565b518151600019602094850361010090810a820192831692199390931691909117909252949092019687526040805197889003820188208054601f60026001831615909802909501169590950492830182900482028801820190528187529294509250508301828280156134e75780601f106134bc576101008083540402835291602001916134e7565b820191906000526020600020905b8154815290600101906020018083116134ca57829003601f168201915b50505050509050604051602001808067776974686472617760c01b815250600801905060405160208183030381529060405280519060200120816040516020018082805190602001908083835b602083106135535780518252601f199092019160209182019101613534565b6001836020036101000a0380198251168184511680821785525050505050509050019150506040516020818303038152906040528051906020012014156139c657600f5460408051631f97902160e11b815290516000926001600160a01b031691633f2f2042916004808301926020929190829003018186803b1580156135d957600080fd5b505afa1580156135ed573d6000803e3d6000fd5b505050506040513d602081101561360357600080fd5b50516000888152600860209081526040808320815180830183526009808252681cdc98d5d85b1b195d60ba1b9482019485529251959650939490939290918291908083835b602083106136675780518252601f199092019160209182019101613648565b518151600019602094850361010090810a820192831692199390931691909117909252949092019687526040805197889003820188208054601f600260018316159098029095011695909504928301829004820288018201905281875292945092505083018282801561371b5780601f106136f05761010080835404028352916020019161371b565b820191906000526020600020905b8154815290600101906020018083116136fe57829003601f168201915b5050505050806020019051602081101561373457600080fd5b50516000898152600860209081526040918290208251808401845260098082526861737365744e616d6560b81b93820193845293519495506060949193909282918083835b602083106137985780518252601f199092019160209182019101613779565b518151600019602094850361010090810a820192831692199390931691909117909252949092019687526040805197889003820188208054601f600260018316159098029095011695909504928301829004820288018201905281875292945092505083018282801561384c5780601f106138215761010080835404028352916020019161384c565b820191906000526020600020905b81548152906001019060200180831161382f57829003601f168201915b50505050509050826001600160a01b0316632f8fdb92838760010160019054906101000a90046001600160a01b0316886002015485308f6040518763ffffffff1660e01b815260040180876001600160a01b03166001600160a01b03168152602001866001600160a01b03166001600160a01b0316815260200185815260200180602001846001600160a01b03166001600160a01b03168152602001838152602001828103825285818151815260200191508051906020019080838360005b8381101561392357818101518382015260200161390b565b50505050905090810190601f1680156139505780820380516001836020036101000a031916815260200191505b50975050505050505050600060405180830381600087803b15801561397457600080fd5b505af1158015613988573d6000803e3d6000fd5b5050604080518c815290513393507f17e14f2febd0a9c704cca6e9015a82e0627dce98dc6a3af33d0164a70556897b92509081900360200190a25050505b505b80546139d390613ddb565b50505b50505050565b6000836001600160a01b038116613a3a576040805162461bcd60e51b815260206004820152601f60248201527f4d756c746953696757616c6c65743a2041646472657373206973206e756c6c00604482015290519081900360640190fd5b600a546040805161012081018252828152600160208083018281526001600160a01b038b8116858701908152606086018c8152608087018c81524260a08901524360c0890152600060e08901819052610100808a018290528b8252600688529990208851815594519685018054935160ff199490941697151597909717610100600160a81b031916929093169097021790935593516002850155905180519496509193613aed9260038501920190613e8b565b5060a0820151600482015560c0820151600582015560e0820151600690910180546101009384015160ff199091169215159290921761ff001916911515909202179055600a8054600101905560405182907fc0ba8fe4b176c1714197d43b9cc6bcf797a4a7461c5fe8d0ef6e184ae7601e5190600090a2509392505050565b6000818152600760209081526040808320338085529252808320805460ff191660011790555183927f4a504a94899432a9846e1aa406dceb1bcfd538bb839071d49d1e5e23f5be30ef91a360095460011415613bcb57613bcb816132e4565b50565b60008181526007602090815260408083203380855292529091205482919060ff16613c2a5760405162461bcd60e51b815260040180806020018281038252602c815260200180613f79602c913960400191505060405180910390fd5b60008381526006602081905260409091200154839060ff1615613c7e5760405162461bcd60e51b815260040180806020018281038252602c815260200180613fa5602c913960400191505060405180910390fd5b613c8784611d8d565b156139d6576000848152600660205260409020600181015460ff1615613dd957600681018054600160ff199091168117909155808201546002808401546003850180546040805160206101009884161589026000190190931695909504601f8101839004830286018301909152808552613d67969095046001600160a01b03169492939290830182828015613d5d5780601f10613d3257610100808354040283529160200191613d5d565b820191906000526020600020905b815481529060010190602001808311613d4057829003601f168201915b5050505050613e72565b15613d9c5760405185907f33e13ecb54c3076d8e8bb8c2881800a4d972b792045ffae98fdf46df365fed7590600090a2613dd4565b60405185907f526441bb6c1aba3c9a4a6ca1d6545da9c2333c8c48343ef398eb858d72b7923690600090a260068101805460ff191690555b612a3f565bfe5b600e54600090815b81811015611e0c5783600e8281548110613df957fe5b90600052602060002001541415613e6a57600e6001830381548110613e1a57fe5b9060005260206000200154600e8281548110613e3257fe5b600091825260209091200155600e805480613e4957fe5b60019003818190600052602060002001600090559055600192505050611034565b600101613de3565b60008060008084516020860187895af195945050505050565b828054600181600116156101000203166002900490600052602060002090601f016020900481019282601f10613ecc57805160ff1916838001178555613ef9565b82800160010185558215613ef9579182015b82811115613ef9578251825591602001919060010190613ede565b50610e48926117879250905b80821115610e485760008155600101613f0556fe4d756c746953696757616c6c65743a2063616c6c6572206973206e6f74206f6e65206f66207468652077616c6c6574206f70657261746f724f776e61626c653a2063616c6c6572206973206e6f74206f6e65206f6620746865206f776e65724d756c746953696757616c6c65743a205472616e73616374696f6e206973206e6f7420636f6e6669726d65644d756c746953696757616c6c65743a205472616e73616374696f6e20616c72656164792065786563757465644d756c746953696757616c6c65743a205472616e73616374696f6e20697320616c726561647920636f6e6669726d65644d756c746953696757616c6c65743a205472616e73616374696f6e206e6f7420666f756e644d756c746953696757616c6c65743a2041646472657373206973206f70657261746f7220616c72656164794d756c746953696757616c6c65743a2063616c6c65722069732077616c6c6574206f776e65724d756c746953696757616c6c65743a205472616e73616374696f6e20616c72656164792072656a6563746564a264697066735822122034577fc7effd46d0e7bf08fee7ad110e67fe5487b361dbe9ca3adad7f8a1f0a464736f6c63430006020033",
  "source": "pragma solidity >=0.6.0 <0.8.0;\n\nimport \"./MultiSigWallet.sol\";\nimport \"../config/InternalSmartContractConfig.sol\";\nimport \"../withdraw/WithdrawSmartContract.sol\";\nimport \"../token/ITokenWithdrawable.sol\";\nimport \"./WalletAddressMap.sol\";\n\ncontract ApprovalWalletStorage {\n\n    uint[] public pendingTransList;\n    InternalSmartContractConfig internalSCConfig;\n    uint8 public queryPendingListCount; \n    address public fallbackAddr;\n    uint public merchantId;\n\n    string constant internal transActionKeyName = \"transAction\";\n    string constant internal srcWalletKeyName = \"srcWallet\";\n    string constant internal assetNameKeyName = \"assetName\";\n\n    bytes32 constant internal transActionWithdrawHash = keccak256(abi.encodePacked(\"withdraw\"));\n    string constant internal transActionWithdraw = \"withdraw\";\n    uint8 constant internal defaultQueryPendingListCount = 10;\n}\n\ncontract ApprovalWallet is MultiSigWallet, ApprovalWalletStorage{\n    \n    event SubmitWithdraw(address indexed srcWallet, address indexed destWallet, address indexed submitterAddress, string assetName, uint transId, uint256 amount, uint256 feeAmount);\n    event ApproveWithdraw(address indexed approverAddress, uint transId);\n\n    constructor() MultiSigWallet(1) public   {\n        queryPendingListCount = defaultQueryPendingListCount;\n    }\n\n    function init(address internalSCConfig, uint8 queryPendingListLimit) public onlyOwner{\n      \n        setInternalSmartContractConfig(internalSCConfig);\n        queryPendingListCount = queryPendingListLimit;\n    }\n\n    function setInternalSmartContractConfig(address addr) public \n    onlyOwner{\n        internalSCConfig = InternalSmartContractConfig(addr);\n    }\n\n    function setQueryPendingListCount(uint8 limitCount) public onlyOwner{\n        queryPendingListCount = limitCount;\n    }\n\n    function setFallbackAddress(address addr) public onlyOwner{\n        fallbackAddr = addr;\n    }\n\n    function getInternalSmartContractConfig() public onlyOwner view returns(address) {\n        return address(internalSCConfig);\n    }\n\n    \n    function submitWithdrawRequest(address srcWallet, address destWallet, uint256 amount, string memory assetName, uint256 feeAmount) public\n        onlyWriter(_msgSender()) returns (uint)\n    {\n\n        uint transId = addTransaction(destWallet, amount, \"\");\n        transactions[transId].isDirectInvokeData = false;\n        miscellaneousData[transId][transActionKeyName] = string(transActionWithdraw);\n        miscellaneousData[transId][srcWalletKeyName]= string(abi.encode(srcWallet));\n        miscellaneousData[transId][assetNameKeyName] = assetName;\n\n\n        submitCustomTransaction(transId);\n        pendingTransList.push(transId);\n\n        emit SubmitWithdraw(srcWallet, destWallet, _msgSender(), assetName, transId, amount, feeAmount);\n        return transId;\n    }\n\n    function executeTransaction(uint transactionId) override internal\n        confirmed(transactionId, msg.sender)\n        notExecuted(transactionId)\n    {\n        if (isConfirmed(transactionId)) {\n            Transaction storage txn = transactions[transactionId];\n\n            if (txn.isDirectInvokeData) {\n               super.executeTransaction(transactionId);\n            }else{\n                string memory action = miscellaneousData[transactionId][transActionKeyName];\n                if (keccak256(abi.encodePacked(action)) == transActionWithdrawHash){\n                    //Withdraw\n                    \n                    WithdrawSmartContract withdrawSC = WithdrawSmartContract(payable(internalSCConfig.getWithdrawSmartContract()));\n                    address srcWallet = abi.decode(bytes(miscellaneousData[transactionId][srcWalletKeyName]), (address));\n                    string memory assetName = miscellaneousData[transactionId][assetNameKeyName];\n                    withdrawSC.addWithdrawRequest(srcWallet, txn.destination, txn.value, assetName, address(this), transactionId);\n\n                    emit ApproveWithdraw(msg.sender, transactionId);\n                }\n            }\n            removePendingTransaction(txn.transId);\n        }\n    }\n\n    function removePendingTransaction(uint transId) internal returns(bool){\n        uint count = pendingTransList.length;\n        for (uint i = 0; i < count; i++){\n            if (pendingTransList[i] == transId){\n                pendingTransList[i] = pendingTransList[count - 1];\n                pendingTransList.pop();\n                return true;\n            }\n        }\n        return false;\n    }\n\n    //For ETH ONLY\n    // function submitWithdraw(address dest, uint256 amount) public override{\n        \n    //     require(amount > 0, \"Amount cannot be 0\");\n\n    //     address walletMapAddr = internalSCConfig.getWalletAddressMap();\n    //     require(walletMapAddr != address(0), \"WalletAddressMap is null\");\n    //     WalletAddressMap walletAddrMap = WalletAddressMap(internalSCConfig.getWalletAddressMap());\n    //     bool isExist = walletAddrMap.isWalletAddressExist(msg.sender);\n    //     require (isExist, \"Wallet is not registered\");\n       \n    //    bool isSenderMerchant = walletAddrMap.isMerchantWallet(msg.sender);\n    //     if (merchantId == 0){\n    //         require(!isSenderMerchant, \"Sender is merchant\");\n    //     }else{\n    //         require(isSenderMerchant, \"Sender is not a merchant wallet\");\n    //         string memory str = walletAddrMap.getWalletInfoValue(msg.sender, \"merchantId\");\n    //         require(bytes(str).length > 0, \"Sender merchant Id not found\");\n    //         uint senderMerchantId = abi.decode(bytes(str), (uint));\n    //         require (senderMerchantId == merchantId, \"Sender is not for this approval wallet\");\n    //     }\n        \n    //     msg.sender.transfer(amount);\n\n    //     submitWithdrawRequest(_msgSender(), dest, amount, \"ETH\");\n    // }\n\n\n\n  /**\n  * @dev Fallback function allowing to perform a delegatecall to the given implementation.\n  * This function will return whatever the implementation call returns\n  */\n  fallback () external payable  {\n\n    require(fallbackAddr != address(0), \"Fallback address is 0\");\n\n    address fAddr = fallbackAddr;\n\n    assembly {\n      let ptr := mload(0x40)\n      calldatacopy(ptr, 0, calldatasize())\n      let result := delegatecall(gas(), fAddr, ptr, calldatasize(), 0, 0)\n      let size := returndatasize()\n      returndatacopy(ptr, 0, size)\n\n      switch result\n      case 0 { revert(ptr, size) }\n      default { return(ptr, size) }\n    }\n  }\n    // @return Binary format as following:\n    //         \n    //         Array of TransObject\n    //         \n    //         TransObject:\n    //         transId uint256\n    //         fromAddress address\n    //         toAddress address\n    //         assetName string\n    //         amount uint256\n    //         timestamp uint256\n    //         \n    // function getPendingTransactionList() public view returns(bytes memory){\n    //     uint256 count = pendingTransList.length;\n\n    //     if (count > queryPendingListCount){\n    //         count = queryPendingListCount;\n    //     }\n    //     uint estimatedSize = estimationTransactionSize(uint8(count));\n    //     uint offset = estimatedSize;\n    //     bytes memory buffer = new bytes(estimatedSize);\n\n    //     uintToBytes(offset, count, buffer);\n    //     offset -=sizeOfUint(256);\n\n    //     for (uint i = 0; i < count; i++){\n    //         uint transId = pendingTransList[i];\n    //         (buffer, offset) = serializeTransaction(transId, buffer, offset);\n    //     }\n    //     return buffer;\n    // }\n\n    // function estimationTransactionSize(uint8 count) internal pure returns(uint256){\n    //     uint singleTransSize =   sizeOfUint(256) * 4 + sizeOfAddress() * 2 + sizeOfString(\"HELLO\");\n    //     return singleTransSize * count;\n    // }\n\n    // function serializeTransaction(uint transId, bytes memory buffer, uint startOffset) internal view returns(bytes memory, uint){\n\n    //         uint offset = startOffset;\n\n    //         Transaction storage trans = transactions[transId];\n\n    //         uintToBytes(offset, transId, buffer);\n    //         offset -= sizeOfUint(256);\n\n    //         address strAddr = abi.decode(bytes(miscellaneousData[transId][srcWalletKeyName]), (address));\n    //         addressToBytes(offset, strAddr, buffer);\n    //         offset -= sizeOfAddress();\n      \n    //         addressToBytes(offset, trans.destination, buffer);\n    //         offset -= sizeOfAddress();\n\n    //         string memory assetName = miscellaneousData[transId][assetNameKeyName];\n    //         stringToBytes(offset, bytes(assetName), buffer);\n    //         offset -= sizeOfString(assetName);\n\n    //         uintToBytes(offset, trans.value, buffer);\n    //         offset -= sizeOfUint(256);\n\n    //         uintToBytes(offset, trans.timestamp, buffer);\n    //         offset -= sizeOfUint(256);\n\n    //         return (buffer, offset);\n    // }\n\n    // function getTransactionDetails(uint transId) public view returns(bytes memory){\n    //     uint256 estimatedSize = estimationTransactionSize(1);\n    //     bytes memory buffer = new bytes(estimatedSize);\n    //     uint offset = 0;\n    //     (buffer, offset) =  serializeTransaction(transId, buffer, 0);\n    //     return buffer;\n    // }\n\n\n    // function mergeBytes(bytes memory a, bytes memory b) public pure returns (bytes memory c) {\n    //     // Store the length of the first array\n    //     uint alen = a.length;\n    //     // Store the length of BOTH arrays\n    //     uint totallen = alen + b.length;\n    //     // Count the loops required for array a (sets of 32 bytes)\n    //     uint loopsa = (a.length + 31) / 32;\n    //     // Count the loops required for array b (sets of 32 bytes)\n    //     uint loopsb = (b.length + 31) / 32;\n    //     assembly {\n    //         let m := mload(0x40)\n    //         // Load the length of both arrays to the head of the new bytes array\n    //         mstore(m, totallen)\n    //         // Add the contents of a to the array\n    //         for {  let i := 0 } lt(i, loopsa) { i := add(1, i) } { mstore(add(m, mul(32, add(1, i))), mload(add(a, mul(32, add(1, i))))) }\n    //         // Add the contents of b to the array\n    //         for {  let i := 0 } lt(i, loopsb) { i := add(1, i) } { mstore(add(m, add(mul(32, add(1, i)), alen)), mload(add(b, mul(32, add(1, i))))) }\n    //         mstore(0x40, add(m, add(32, totallen)))\n    //         c := m\n    //     }\n    // }\n}\n",
  "sourcePath": "/Users/duncanto/Documents/WorkingSet2/src/eurus-backend/smartcontract/contracts/wallet/ApprovalWallet.sol",
  "compiler": {
    "name": "solc",
    "version": "0.6.2+commit.bacdbe57.Emscripten.clang"
  },
  "schemaVersion": "3.4.1",
  "updatedAt": "2021-08-04T10:30:06.294Z",
  "devdoc": {
    "methods": {
      "changeRequirement(uint256)": {
        "details": "Allows to change the number of required confirmations. Transaction has to be sent by wallet.",
        "params": {
          "_required": "Number of required confirmations."
        }
      },
      "confirmTransaction(uint256)": {
        "details": "Allows an owner to confirm a transaction.",
        "params": {
          "transactionId": "Transaction ID."
        }
      },
      "isConfirmed(uint256)": {
        "details": "Returns the confirmation status of a transaction.",
        "params": {
          "transactionId": "Transaction ID."
        },
        "returns": {
          "_0": "Confirmation status."
        }
      },
      "renounceOwnership()": {
        "details": "Leaves the contract without owner. It will not be possible to call `onlyOwner` functions anymore. Can only be called by the current owner.     * NOTE: Renouncing ownership will leave the contract without an owner, thereby removing any functionality that is only available to the owner."
      },
      "revokeConfirmation(uint256)": {
        "details": "Allows an owner to revoke a confirmation for a transaction.",
        "params": {
          "transactionId": "Transaction ID."
        }
      }
    }
  },
  "userdoc": {
    "methods": {}
  }
}