{
  "contractName": "DAppSample",
  "abi": [
    {
      "anonymous": false,
      "inputs": [
        {
          "indexed": true,
          "internalType": "address",
          "name": "owner",
          "type": "address"
        },
        {
          "indexed": true,
          "internalType": "address",
          "name": "spender",
          "type": "address"
        },
        {
          "indexed": false,
          "internalType": "uint256",
          "name": "value",
          "type": "uint256"
        }
      ],
      "name": "Approval",
      "type": "event"
    },
    {
      "anonymous": false,
      "inputs": [
        {
          "indexed": false,
          "internalType": "string",
          "name": "",
          "type": "string"
        }
      ],
      "name": "Event",
      "type": "event"
    },
    {
      "anonymous": false,
      "inputs": [
        {
          "indexed": true,
          "internalType": "address",
          "name": "owner",
          "type": "address"
        }
      ],
      "name": "OwnerAdded",
      "type": "event"
    },
    {
      "anonymous": false,
      "inputs": [
        {
          "indexed": true,
          "internalType": "address",
          "name": "owner",
          "type": "address"
        }
      ],
      "name": "OwnerRemoved",
      "type": "event"
    },
    {
      "anonymous": false,
      "inputs": [
        {
          "indexed": true,
          "internalType": "address",
          "name": "previousOwner",
          "type": "address"
        },
        {
          "indexed": true,
          "internalType": "address",
          "name": "newOwner",
          "type": "address"
        }
      ],
      "name": "OwnershipTransferred",
      "type": "event"
    },
    {
      "anonymous": false,
      "inputs": [
        {
          "indexed": true,
          "internalType": "address",
          "name": "reader",
          "type": "address"
        }
      ],
      "name": "ReaderAdded",
      "type": "event"
    },
    {
      "anonymous": false,
      "inputs": [
        {
          "indexed": true,
          "internalType": "address",
          "name": "reader",
          "type": "address"
        }
      ],
      "name": "ReaderRemoved",
      "type": "event"
    },
    {
      "anonymous": false,
      "inputs": [
        {
          "indexed": true,
          "internalType": "address",
          "name": "from",
          "type": "address"
        },
        {
          "indexed": true,
          "internalType": "address",
          "name": "to",
          "type": "address"
        },
        {
          "indexed": false,
          "internalType": "uint256",
          "name": "value",
          "type": "uint256"
        }
      ],
      "name": "Transfer",
      "type": "event"
    },
    {
      "anonymous": false,
      "inputs": [
        {
          "indexed": true,
          "internalType": "address",
          "name": "writer",
          "type": "address"
        }
      ],
      "name": "WriterAdded",
      "type": "event"
    },
    {
      "anonymous": false,
      "inputs": [
        {
          "indexed": true,
          "internalType": "address",
          "name": "writer",
          "type": "address"
        }
      ],
      "name": "WriterRemoved",
      "type": "event"
    },
    {
      "inputs": [
        {
          "internalType": "address",
          "name": "newOwner",
          "type": "address"
        }
      ],
      "name": "addOwner",
      "outputs": [],
      "stateMutability": "nonpayable",
      "type": "function"
    },
    {
      "inputs": [
        {
          "internalType": "address",
          "name": "newReader",
          "type": "address"
        }
      ],
      "name": "addReader",
      "outputs": [],
      "stateMutability": "nonpayable",
      "type": "function"
    },
    {
      "inputs": [
        {
          "internalType": "address",
          "name": "newWriter",
          "type": "address"
        }
      ],
      "name": "addWriter",
      "outputs": [],
      "stateMutability": "nonpayable",
      "type": "function"
    },
    {
      "inputs": [
        {
          "internalType": "address",
          "name": "owner",
          "type": "address"
        },
        {
          "internalType": "address",
          "name": "spender",
          "type": "address"
        }
      ],
      "name": "allowance",
      "outputs": [
        {
          "internalType": "uint256",
          "name": "",
          "type": "uint256"
        }
      ],
      "stateMutability": "view",
      "type": "function",
      "constant": true
    },
    {
      "inputs": [
        {
          "internalType": "address",
          "name": "spender",
          "type": "address"
        },
        {
          "internalType": "uint256",
          "name": "amount",
          "type": "uint256"
        }
      ],
      "name": "approve",
      "outputs": [
        {
          "internalType": "bool",
          "name": "",
          "type": "bool"
        }
      ],
      "stateMutability": "nonpayable",
      "type": "function"
    },
    {
      "inputs": [
        {
          "internalType": "address",
          "name": "account",
          "type": "address"
        }
      ],
      "name": "balanceOf",
      "outputs": [
        {
          "internalType": "uint256",
          "name": "",
          "type": "uint256"
        }
      ],
      "stateMutability": "view",
      "type": "function",
      "constant": true
    },
    {
      "inputs": [],
      "name": "decimals",
      "outputs": [
        {
          "internalType": "uint8",
          "name": "",
          "type": "uint8"
        }
      ],
      "stateMutability": "view",
      "type": "function",
      "constant": true
    },
    {
      "inputs": [
        {
          "internalType": "address",
          "name": "spender",
          "type": "address"
        },
        {
          "internalType": "uint256",
          "name": "subtractedValue",
          "type": "uint256"
        }
      ],
      "name": "decreaseAllowance",
      "outputs": [
        {
          "internalType": "bool",
          "name": "",
          "type": "bool"
        }
      ],
      "stateMutability": "nonpayable",
      "type": "function"
    },
    {
      "inputs": [],
      "name": "getOwnerCount",
      "outputs": [
        {
          "internalType": "uint256",
          "name": "",
          "type": "uint256"
        }
      ],
      "stateMutability": "view",
      "type": "function",
      "constant": true
    },
    {
      "inputs": [],
      "name": "getOwners",
      "outputs": [
        {
          "internalType": "address[]",
          "name": "",
          "type": "address[]"
        }
      ],
      "stateMutability": "view",
      "type": "function",
      "constant": true
    },
    {
      "inputs": [],
      "name": "getReaderList",
      "outputs": [
        {
          "internalType": "address[]",
          "name": "",
          "type": "address[]"
        }
      ],
      "stateMutability": "view",
      "type": "function",
      "constant": true
    },
    {
      "inputs": [],
      "name": "getWriterList",
      "outputs": [
        {
          "internalType": "address[]",
          "name": "",
          "type": "address[]"
        }
      ],
      "stateMutability": "view",
      "type": "function",
      "constant": true
    },
    {
      "inputs": [
        {
          "internalType": "address",
          "name": "spender",
          "type": "address"
        },
        {
          "internalType": "uint256",
          "name": "addedValue",
          "type": "uint256"
        }
      ],
      "name": "increaseAllowance",
      "outputs": [
        {
          "internalType": "bool",
          "name": "",
          "type": "bool"
        }
      ],
      "stateMutability": "nonpayable",
      "type": "function"
    },
    {
      "inputs": [
        {
          "internalType": "string",
          "name": "name_",
          "type": "string"
        },
        {
          "internalType": "string",
          "name": "symbol_",
          "type": "string"
        },
        {
          "internalType": "uint256",
          "name": "totalSupply_",
          "type": "uint256"
        },
        {
          "internalType": "uint8",
          "name": "decimals_",
          "type": "uint8"
        }
      ],
      "name": "init",
      "outputs": [],
      "stateMutability": "nonpayable",
      "type": "function"
    },
    {
      "inputs": [
        {
          "internalType": "address",
          "name": "addr",
          "type": "address"
        }
      ],
      "name": "isOwner",
      "outputs": [
        {
          "internalType": "bool",
          "name": "",
          "type": "bool"
        }
      ],
      "stateMutability": "view",
      "type": "function",
      "constant": true
    },
    {
      "inputs": [
        {
          "internalType": "address",
          "name": "addr",
          "type": "address"
        }
      ],
      "name": "isWriter",
      "outputs": [
        {
          "internalType": "bool",
          "name": "",
          "type": "bool"
        }
      ],
      "stateMutability": "view",
      "type": "function",
      "constant": true
    },
    {
      "inputs": [],
      "name": "name",
      "outputs": [
        {
          "internalType": "string",
          "name": "",
          "type": "string"
        }
      ],
      "stateMutability": "view",
      "type": "function",
      "constant": true
    },
    {
      "inputs": [
        {
          "internalType": "address",
          "name": "owner",
          "type": "address"
        }
      ],
      "name": "removeOwner",
      "outputs": [],
      "stateMutability": "nonpayable",
      "type": "function"
    },
    {
      "inputs": [
        {
          "internalType": "address",
          "name": "existingReader",
          "type": "address"
        }
      ],
      "name": "removerReader",
      "outputs": [],
      "stateMutability": "nonpayable",
      "type": "function"
    },
    {
      "inputs": [
        {
          "internalType": "address",
          "name": "existingWriter",
          "type": "address"
        }
      ],
      "name": "removerWriter",
      "outputs": [],
      "stateMutability": "nonpayable",
      "type": "function"
    },
    {
      "inputs": [],
      "name": "renounceOwnership",
      "outputs": [],
      "stateMutability": "nonpayable",
      "type": "function"
    },
    {
      "inputs": [],
      "name": "symbol",
      "outputs": [
        {
          "internalType": "string",
          "name": "",
          "type": "string"
        }
      ],
      "stateMutability": "view",
      "type": "function",
      "constant": true
    },
    {
      "inputs": [],
      "name": "totalSupply",
      "outputs": [
        {
          "internalType": "uint256",
          "name": "",
          "type": "uint256"
        }
      ],
      "stateMutability": "view",
      "type": "function",
      "constant": true
    },
    {
      "inputs": [
        {
          "internalType": "address",
          "name": "recipient",
          "type": "address"
        },
        {
          "internalType": "uint256",
          "name": "amount",
          "type": "uint256"
        }
      ],
      "name": "transfer",
      "outputs": [
        {
          "internalType": "bool",
          "name": "",
          "type": "bool"
        }
      ],
      "stateMutability": "nonpayable",
      "type": "function"
    },
    {
      "inputs": [
        {
          "internalType": "address",
          "name": "sender",
          "type": "address"
        },
        {
          "internalType": "address",
          "name": "recipient",
          "type": "address"
        },
        {
          "internalType": "uint256",
          "name": "amount",
          "type": "uint256"
        }
      ],
      "name": "transferFrom",
      "outputs": [
        {
          "internalType": "bool",
          "name": "",
          "type": "bool"
        }
      ],
      "stateMutability": "nonpayable",
      "type": "function"
    },
    {
      "inputs": [
        {
          "internalType": "string",
          "name": "receivedTokenSymbol",
          "type": "string"
        },
        {
          "internalType": "uint256",
          "name": "amount",
          "type": "uint256"
        },
        {
          "internalType": "address",
          "name": "dest",
          "type": "address"
        },
        {
          "internalType": "bytes32",
          "name": "extraData",
          "type": "bytes32"
        }
      ],
      "name": "mintCustomToken",
      "outputs": [],
      "stateMutability": "nonpayable",
      "type": "function"
    }
  ],
  "bytecode": "0x608060405260006100176001600160e01b036100ab16565b6001600160a01b0381166000818152600160208190526040808320805460ff191683179055825491820183558280527f290decd9548b62a8d60345a988386fc84ba6bc95484008f6362f93160ef3e56390910180546001600160a01b031916841790555192935090917f8be0079c531659141344cd1fd0a4f28419497f9722a3daafe3b4186f6b6457e0908290a3506100af565b3390565b611e68806100be6000396000f3fe608060405234801561001057600080fd5b506004361061018e5760003560e01c8063715018a6116100de578063a457c2d711610097578063da2824a811610071578063da2824a8146106b5578063dd62ed3e146106db578063ddc6f5f614610709578063ef18374a1461072f5761018e565b8063a457c2d714610637578063a9059cbb14610663578063afd8b1d11461068f5761018e565b8063715018a6146105375780638145d1261461053f57806385aaed4e146105655780638f64690a1461056d57806395d89b4114610627578063a0e67e2b1461062f5761018e565b80632f54bf6e1161014b5780633a1abfe7116101255780633a1abfe71461035e5780634f5b9e85146103b65780637065cb48146104eb57806370a08231146105115761018e565b80632f54bf6e146102ee578063313ce5671461031457806339509351146103325761018e565b806306fdde0314610193578063095ea7b314610210578063173825d91461025057806318160ddd1461027857806323b872dd146102925780632b29ba23146102c8575b600080fd5b61019b610737565b6040805160208082528351818301528351919283929083019185019080838360005b838110156101d55781810151838201526020016101bd565b50505050905090810190601f1680156102025780820380516001836020036101000a031916815260200191505b509250505060405180910390f35b61023c6004803603604081101561022657600080fd5b506001600160a01b0381351690602001356107ce565b604080519115158252519081900360200190f35b6102766004803603602081101561026657600080fd5b50356001600160a01b03166107eb565b005b6102806109b3565b60408051918252519081900360200190f35b61023c600480360360608110156102a857600080fd5b506001600160a01b038135811691602081013590911690604001356109b9565b61023c600480360360208110156102de57600080fd5b50356001600160a01b0316610a46565b61023c6004803603602081101561030457600080fd5b50356001600160a01b0316610a64565b61031c610a82565b6040805160ff9092168252519081900360200190f35b61023c6004803603604081101561034857600080fd5b506001600160a01b038135169060200135610a8b565b610366610adf565b60408051602080825283518183015283519192839290830191858101910280838360005b838110156103a257818101518382015260200161038a565b505050509050019250505060405180910390f35b610276600480360360808110156103cc57600080fd5b8101906020810181356401000000008111156103e757600080fd5b8201836020820111156103f957600080fd5b8035906020019184600183028401116401000000008311171561041b57600080fd5b91908080601f016020809104026020016040519081016040528093929190818152602001838380828437600092019190915250929594936020810193503591505064010000000081111561046e57600080fd5b82018360208201111561048057600080fd5b803590602001918460018302840111640100000000831117156104a257600080fd5b91908080601f016020809104026020016040519081016040528093929190818152602001838380828437600092019190915250929550508235935050506020013560ff16610b40565b6102766004803603602081101561050157600080fd5b50356001600160a01b0316610bf2565b6102806004803603602081101561052757600080fd5b50356001600160a01b0316610d63565b610276610d7e565b6102766004803603602081101561055557600080fd5b50356001600160a01b0316610efb565b610366611101565b6102766004803603608081101561058357600080fd5b81019060208101813564010000000081111561059e57600080fd5b8201836020820111156105b057600080fd5b803590602001918460018302840111640100000000831117156105d257600080fd5b91908080601f0160208091040260200160405190810160405280939291908181526020018383808284376000920191909152509295505082359350505060208101356001600160a01b03169060400135611161565b61019b6111e0565b610366611241565b61023c6004803603604081101561064d57600080fd5b506001600160a01b0381351690602001356112a1565b61023c6004803603604081101561067957600080fd5b506001600160a01b03813516906020013561130f565b610276600480360360208110156106a557600080fd5b50356001600160a01b0316611323565b610276600480360360208110156106cb57600080fd5b50356001600160a01b0316611485565b610280600480360360408110156106f157600080fd5b506001600160a01b03813581169160200135166115e7565b6102766004803603602081101561071f57600080fd5b50356001600160a01b0316611612565b610280611818565b60098054604080516020601f60026000196101006001881615020190951694909404938401819004810282018101909252828152606093909290918301828280156107c35780601f10610798576101008083540402835291602001916107c3565b820191906000526020600020905b8154815290600101906020018083116107a657829003601f168201915b505050505090505b90565b60006107e26107db61181e565b8484611822565b50600192915050565b60006107f561181e565b6001600160a01b03811660009081526001602081905260409091205491925060ff9091161515146108575760405162461bcd60e51b8152600401808060200182810382526027815260200180611d506027913960400191505060405180910390fd5b6001600160a01b038216600090815260016020526040902054829060ff1661087e57600080fd5b6001600160a01b0383166000908152600160205260408120805460ff191690558054905b8181101561094b57846001600160a01b0316600082815481106108c157fe5b6000918252602090912001546001600160a01b0316141561094357600060018303815481106108ec57fe5b600091825260208220015481546001600160a01b0390911691908390811061091057fe5b9060005260206000200160006101000a8154816001600160a01b0302191690836001600160a01b0316021790555061094b565b6001016108a2565b50600080548061095757fe5b600082815260208120820160001990810180546001600160a01b03191690559091019091556040516001600160a01b038616917f58619076adf5bb0943d100ef88d52d7c3fd691b19d3a9071b555b651fbf418da91a250505050565b60085490565b60006109c684848461190e565b610a3c846109d261181e565b610a3785604051806060016040528060288152602001611d9d602891396001600160a01b038a16600090815260076020526040812090610a1061181e565b6001600160a01b03168152602081019190915260400160002054919063ffffffff611a7716565b611822565b5060019392505050565b6001600160a01b031660009081526005602052604090205460ff1690565b6001600160a01b031660009081526001602052604090205460ff1690565b600b5460ff1690565b60006107e2610a9861181e565b84610a378560076000610aa961181e565b6001600160a01b03908116825260208083019390935260409182016000908120918c16815292529020549063ffffffff611b0e16565b606060048054806020026020016040519081016040528092919081815260200182805480156107c357602002820191906000526020600020905b81546001600160a01b03168152600190910190602001808311610b19575050505050905090565b6000610b4a61181e565b6001600160a01b03811660009081526001602081905260409091205491925060ff909116151514610bac5760405162461bcd60e51b8152600401808060200182810382526027815260200180611d506027913960400191505060405180910390fd5b8451610bbf906009906020880190611c72565b508351610bd390600a906020870190611c72565b5050600891909155600b805460ff191660ff9092169190911790555050565b6000610bfc61181e565b6001600160a01b03811660009081526001602081905260409091205491925060ff909116151514610c5e5760405162461bcd60e51b8152600401808060200182810382526027815260200180611d506027913960400191505060405180910390fd5b6001600160a01b038216600090815260016020819052604090912054839160ff90911615151415610cd6576040805162461bcd60e51b815260206004820152601b60248201527f4164647265737320616c726561647920697320616e206f776e65720000000000604482015290519081900360640190fd5b6001600160a01b0383166000818152600160208190526040808320805460ff191683179055825491820183558280527f290decd9548b62a8d60345a988386fc84ba6bc95484008f6362f93160ef3e56390910180546001600160a01b03191684179055517f994a936646fe87ffe4f1e469d3d6aa417d6b855598397f323de5b449f765f0c39190a2505050565b6001600160a01b031660009081526006602052604090205490565b6000610d8861181e565b6001600160a01b03811660009081526001602081905260409091205491925060ff909116151514610dea5760405162461bcd60e51b8152600401808060200182810382526027815260200180611d506027913960400191505060405180910390fd5b6000610df461181e565b6001600160a01b0381166000908152600160205260408120805460ff191690559091505b60005460001901811015610ec957816001600160a01b031660008281548110610e3d57fe5b6000918252602090912001546001600160a01b03161415610ec157600080546000198101908110610e6a57fe5b600091825260208220015481546001600160a01b03909116919083908110610e8e57fe5b9060005260206000200160006101000a8154816001600160a01b0302191690836001600160a01b03160217905550610ec9565b600101610e18565b506000805480610ed557fe5b600082815260209020810160001990810180546001600160a01b03191690550190555050565b6000610f0561181e565b6001600160a01b03811660009081526001602081905260409091205491925060ff909116151514610f675760405162461bcd60e51b8152600401808060200182810382526027815260200180611d506027913960400191505060405180910390fd5b6001600160a01b038216600090815260056020526040902054829060ff16610fc9576040805162461bcd60e51b815260206004820152601060248201526f15dc9a5d195c881b9bdd08195e1a5cdd60821b604482015290519081900360640190fd5b6001600160a01b0383166000908152600560205260408120805460ff19169055600454905b8181101561109957846001600160a01b03166004828154811061100d57fe5b6000918252602090912001546001600160a01b03161415611091576004600183038154811061103857fe5b600091825260209091200154600480546001600160a01b03909216918390811061105e57fe5b9060005260206000200160006101000a8154816001600160a01b0302191690836001600160a01b03160217905550611099565b600101610fee565b5060048054806110a557fe5b600082815260208120820160001990810180546001600160a01b03191690559091019091556040516001600160a01b038616917f86e5bbceda94081c32220d685f37cc4e3ea7bb0be2dfbf0cb703579505a5390e91a250505050565b606060028054806020026020016040519081016040528092919081815260200182805480156107c3576020028201919060005260206000209081546001600160a01b03168152600190910190602001808311610b19575050505050905090565b61116a33610a64565b15801561118757503360009081526005602052604090205460ff16155b156111d0576040805162461bcd60e51b81526020600482015260146024820152734f776e6572206f7220777269746572206f6e6c7960601b604482015290519081900360640190fd5b6111da8284611b6f565b50505050565b600a8054604080516020601f60026000196101006001881615020190951694909404938401819004810282018101909252828152606093909290918301828280156107c35780601f10610798576101008083540402835291602001916107c3565b606060008054806020026020016040519081016040528092919081815260200182805480156107c3576020028201919060005260206000209081546001600160a01b03168152600190910190602001808311610b19575050505050905090565b60006107e26112ae61181e565b84610a3785604051806060016040528060258152602001611e0e60259139600760006112d861181e565b6001600160a01b03908116825260208083019390935260409182016000908120918d1681529252902054919063ffffffff611a7716565b60006107e261131c61181e565b848461190e565b600061132d61181e565b6001600160a01b03811660009081526001602081905260409091205491925060ff90911615151461138f5760405162461bcd60e51b8152600401808060200182810382526027815260200180611d506027913960400191505060405180910390fd5b6001600160a01b038216600090815260036020526040902054829060ff16156113f7576040805162461bcd60e51b815260206004820152601560248201527452656164657220616c72656164792065786973747360581b604482015290519081900360640190fd5b6001600160a01b038316600081815260036020526040808220805460ff1916600190811790915560028054918201815583527f405787fa12a823e0f2b7631cc41b3ba8828b3321ca811111fa75cd3aa3bb5ace0180546001600160a01b03191684179055517fb7724d890d2888af5a3fc456edb667e2c82c4441449ebcac301c618759e4f86d9190a2505050565b600061148f61181e565b6001600160a01b03811660009081526001602081905260409091205491925060ff9091161515146114f15760405162461bcd60e51b8152600401808060200182810382526027815260200180611d506027913960400191505060405180910390fd5b6001600160a01b038216600090815260056020526040902054829060ff1615611559576040805162461bcd60e51b815260206004820152601560248201527457726974657220616c72656164792065786973747360581b604482015290519081900360640190fd5b6001600160a01b038316600081815260056020526040808220805460ff1916600190811790915560048054918201815583527f8a35acfbc15ff81a39ae7d344fd709f28e8600b4aa8c65c6b64bfe7fe36bd19b0180546001600160a01b03191684179055517f6ff3aa2ea7b53070f6d9d07a445d338d89e8edef44250ffa8be19f53910d4a2e9190a2505050565b6001600160a01b03918216600090815260076020908152604080832093909416825291909152205490565b600061161c61181e565b6001600160a01b03811660009081526001602081905260409091205491925060ff90911615151461167e5760405162461bcd60e51b8152600401808060200182810382526027815260200180611d506027913960400191505060405180910390fd5b6001600160a01b038216600090815260036020526040902054829060ff166116e0576040805162461bcd60e51b815260206004820152601060248201526f14995859195c881b9bdd08195e1a5cdd60821b604482015290519081900360640190fd5b6001600160a01b0383166000908152600360205260408120805460ff19169055600254905b818110156117b057846001600160a01b03166002828154811061172457fe5b6000918252602090912001546001600160a01b031614156117a8576002600183038154811061174f57fe5b600091825260209091200154600280546001600160a01b03909216918390811061177557fe5b9060005260206000200160006101000a8154816001600160a01b0302191690836001600160a01b031602179055506117b0565b600101611705565b5060028054806117bc57fe5b600082815260208120820160001990810180546001600160a01b03191690559091019091556040516001600160a01b038616917fe933431644458f1217f9e93d3e000e03c9bbbe55761046d0985c2e4d157bcbaa91a250505050565b60005490565b3390565b6001600160a01b0383166118675760405162461bcd60e51b8152600401808060200182810382526024815260200180611dea6024913960400191505060405180910390fd5b6001600160a01b0382166118ac5760405162461bcd60e51b8152600401808060200182810382526022815260200180611d2e6022913960400191505060405180910390fd5b6001600160a01b03808416600081815260076020908152604080832094871680845294825291829020859055815185815291517f8c5be1e5ebec7d5bd14f71427d1e84f3dd0314c0f7b2291e5b200ac8c7c3b9259281900390910190a3505050565b6001600160a01b0383166119535760405162461bcd60e51b8152600401808060200182810382526025815260200180611dc56025913960400191505060405180910390fd5b6001600160a01b0382166119985760405162461bcd60e51b8152600401808060200182810382526023815260200180611d0b6023913960400191505060405180910390fd5b6119a3838383611c6d565b6119e681604051806060016040528060268152602001611d77602691396001600160a01b038616600090815260066020526040902054919063ffffffff611a7716565b6001600160a01b038085166000908152600660205260408082209390935590841681522054611a1b908263ffffffff611b0e16565b6001600160a01b0380841660008181526006602090815260409182902094909455805185815290519193928716927fddf252ad1be2c89b69c2b068fc378daa952ba7f163c4a11628f55a4df523b3ef92918290030190a3505050565b60008184841115611b065760405162461bcd60e51b81526004018080602001828103825283818151815260200191508051906020019080838360005b83811015611acb578181015183820152602001611ab3565b50505050905090810190601f168015611af85780820380516001836020036101000a031916815260200191505b509250505060405180910390fd5b505050900390565b600082820183811015611b68576040805162461bcd60e51b815260206004820152601b60248201527f536166654d6174683a206164646974696f6e206f766572666c6f770000000000604482015290519081900360640190fd5b9392505050565b6001600160a01b038216611bca576040805162461bcd60e51b815260206004820152601f60248201527f45524332303a206d696e7420746f20746865207a65726f206164647265737300604482015290519081900360640190fd5b611bd660008383611c6d565b600854611be9908263ffffffff611b0e16565b6008556001600160a01b038216600090815260066020526040902054611c15908263ffffffff611b0e16565b6001600160a01b03831660008181526006602090815260408083209490945583518581529351929391927fddf252ad1be2c89b69c2b068fc378daa952ba7f163c4a11628f55a4df523b3ef9281900390910190a35050565b505050565b828054600181600116156101000203166002900490600052602060002090601f016020900481019282601f10611cb357805160ff1916838001178555611ce0565b82800160010185558215611ce0579182015b82811115611ce0578251825591602001919060010190611cc5565b50611cec929150611cf0565b5090565b6107cb91905b80821115611cec5760008155600101611cf656fe45524332303a207472616e7366657220746f20746865207a65726f206164647265737345524332303a20617070726f766520746f20746865207a65726f20616464726573734f776e61626c653a2063616c6c6572206973206e6f74206f6e65206f6620746865206f776e657245524332303a207472616e7366657220616d6f756e7420657863656564732062616c616e636545524332303a207472616e7366657220616d6f756e74206578636565647320616c6c6f77616e636545524332303a207472616e736665722066726f6d20746865207a65726f206164647265737345524332303a20617070726f76652066726f6d20746865207a65726f206164647265737345524332303a2064656372656173656420616c6c6f77616e63652062656c6f77207a65726fa26469706673582212202493f1dfc6abd71617cacaadf0484625b0097e824fe6fcc813eed82776eeee5564736f6c63430006020033",
  "source": "pragma solidity >=0.6.0 <0.8.0;\n\nimport \"./DAppBase.sol\";\n\n\ncontract DAppSample is DAppBase {\n\n   function mintCustomToken(string memory receivedTokenSymbol, uint256 amount, address dest, bytes32 extraData) public override onlyOwnerOrWriter{\n       _mint(dest, amount);\n    }\n\n}\n",
  "sourcePath": "/Users/duncanto/Documents/WorkingSet2/src/eurus-backend/smartcontract/contracts/dapp/DAppSample.sol",
  "compiler": {
    "name": "solc",
    "version": "0.6.2+commit.bacdbe57.Emscripten.clang"
  },
  "schemaVersion": "3.4.1",
  "updatedAt": "2021-08-05T02:03:48.608Z",
  "networkType": "ethereum",
  "devdoc": {
    "methods": {
      "allowance(address,address)": {
        "details": "See {IERC20-allowance}."
      },
      "approve(address,uint256)": {
        "details": "See {IERC20-approve}.     * Requirements:     * - `spender` cannot be the zero address."
      },
      "balanceOf(address)": {
        "details": "See {IERC20-balanceOf}."
      },
      "decimals()": {
        "details": "Returns the number of decimals used to get its user representation. For example, if `decimals` equals `2`, a balance of `505` tokens should be displayed to a user as `5,05` (`505 / 10 ** 2`).     * Tokens usually opt for a value of 18, imitating the relationship between Ether and Wei. This is the value {ERC20} uses, unless {_setupDecimals} is called.     * NOTE: This information is only used for _display_ purposes: it in no way affects any of the arithmetic of the contract, including {IERC20-balanceOf} and {IERC20-transfer}."
      },
      "decreaseAllowance(address,uint256)": {
        "details": "Atomically decreases the allowance granted to `spender` by the caller.     * This is an alternative to {approve} that can be used as a mitigation for problems described in {IERC20-approve}.     * Emits an {Approval} event indicating the updated allowance.     * Requirements:     * - `spender` cannot be the zero address. - `spender` must have allowance for the caller of at least `subtractedValue`."
      },
      "increaseAllowance(address,uint256)": {
        "details": "Atomically increases the allowance granted to `spender` by the caller.     * This is an alternative to {approve} that can be used as a mitigation for problems described in {IERC20-approve}.     * Emits an {Approval} event indicating the updated allowance.     * Requirements:     * - `spender` cannot be the zero address."
      },
      "name()": {
        "details": "Returns the name of the token."
      },
      "renounceOwnership()": {
        "details": "Leaves the contract without owner. It will not be possible to call `onlyOwner` functions anymore. Can only be called by the current owner.     * NOTE: Renouncing ownership will leave the contract without an owner, thereby removing any functionality that is only available to the owner."
      },
      "symbol()": {
        "details": "Returns the symbol of the token, usually a shorter version of the name."
      },
      "totalSupply()": {
        "details": "See {IERC20-totalSupply}."
      },
      "transfer(address,uint256)": {
        "details": "See {IERC20-transfer}.     * Requirements:     * - `recipient` cannot be the zero address. - the caller must have a balance of at least `amount`."
      },
      "transferFrom(address,address,uint256)": {
        "details": "See {IERC20-transferFrom}.     * Emits an {Approval} event indicating the updated allowance. This is not required by the EIP. See the note at the beginning of {ERC20}.     * Requirements:     * - `sender` and `recipient` cannot be the zero address. - `sender` must have a balance of at least `amount`. - the caller must have allowance for ``sender``'s tokens of at least `amount`."
      }
    }
  },
  "userdoc": {
    "methods": {}
  }
}