{
  "contractName": "DummyPlatformWallet",
  "abi": [
    {
      "inputs": [],
      "stateMutability": "nonpayable",
      "type": "constructor"
    },
    {
      "anonymous": false,
      "inputs": [
        {
          "indexed": true,
          "internalType": "address",
          "name": "sender",
          "type": "address"
        },
        {
          "indexed": true,
          "internalType": "uint256",
          "name": "transactionId",
          "type": "uint256"
        }
      ],
      "name": "Confirmation",
      "type": "event"
    },
    {
      "anonymous": false,
      "inputs": [
        {
          "indexed": true,
          "internalType": "address",
          "name": "sender",
          "type": "address"
        },
        {
          "indexed": false,
          "internalType": "uint256",
          "name": "value",
          "type": "uint256"
        }
      ],
      "name": "Deposit",
      "type": "event"
    },
    {
      "anonymous": false,
      "inputs": [
        {
          "indexed": false,
          "internalType": "string",
          "name": "",
          "type": "string"
        }
      ],
      "name": "Event",
      "type": "event"
    },
    {
      "anonymous": false,
      "inputs": [
        {
          "indexed": true,
          "internalType": "uint256",
          "name": "transactionId",
          "type": "uint256"
        }
      ],
      "name": "Execution",
      "type": "event"
    },
    {
      "anonymous": false,
      "inputs": [
        {
          "indexed": true,
          "internalType": "uint256",
          "name": "transactionId",
          "type": "uint256"
        }
      ],
      "name": "ExecutionFailure",
      "type": "event"
    },
    {
      "anonymous": false,
      "inputs": [
        {
          "indexed": true,
          "internalType": "uint256",
          "name": "mintRequestTransId",
          "type": "uint256"
        },
        {
          "indexed": false,
          "internalType": "string",
          "name": "mainnetDepositTransHash",
          "type": "string"
        }
      ],
      "name": "MintCompletedEvent",
      "type": "event"
    },
    {
      "anonymous": false,
      "inputs": [
        {
          "indexed": true,
          "internalType": "uint256",
          "name": "mintRequestTransId",
          "type": "uint256"
        },
        {
          "indexed": false,
          "internalType": "string",
          "name": "mainnetDepositTransHash",
          "type": "string"
        }
      ],
      "name": "MintRequestEvent",
      "type": "event"
    },
    {
      "anonymous": false,
      "inputs": [
        {
          "indexed": true,
          "internalType": "address",
          "name": "owner",
          "type": "address"
        }
      ],
      "name": "OwnerAdded",
      "type": "event"
    },
    {
      "anonymous": false,
      "inputs": [
        {
          "indexed": true,
          "internalType": "address",
          "name": "owner",
          "type": "address"
        }
      ],
      "name": "OwnerRemoved",
      "type": "event"
    },
    {
      "anonymous": false,
      "inputs": [
        {
          "indexed": true,
          "internalType": "address",
          "name": "previousOwner",
          "type": "address"
        },
        {
          "indexed": true,
          "internalType": "address",
          "name": "newOwner",
          "type": "address"
        }
      ],
      "name": "OwnershipTransferred",
      "type": "event"
    },
    {
      "anonymous": false,
      "inputs": [
        {
          "indexed": true,
          "internalType": "address",
          "name": "reader",
          "type": "address"
        }
      ],
      "name": "ReaderAdded",
      "type": "event"
    },
    {
      "anonymous": false,
      "inputs": [
        {
          "indexed": true,
          "internalType": "address",
          "name": "reader",
          "type": "address"
        }
      ],
      "name": "ReaderRemoved",
      "type": "event"
    },
    {
      "anonymous": false,
      "inputs": [
        {
          "indexed": true,
          "internalType": "address",
          "name": "sender",
          "type": "address"
        },
        {
          "indexed": true,
          "internalType": "uint256",
          "name": "transactionId",
          "type": "uint256"
        }
      ],
      "name": "Rejection",
      "type": "event"
    },
    {
      "anonymous": false,
      "inputs": [
        {
          "indexed": false,
          "internalType": "uint256",
          "name": "required",
          "type": "uint256"
        }
      ],
      "name": "RequirementChange",
      "type": "event"
    },
    {
      "anonymous": false,
      "inputs": [
        {
          "indexed": true,
          "internalType": "address",
          "name": "sender",
          "type": "address"
        },
        {
          "indexed": true,
          "internalType": "uint256",
          "name": "transactionId",
          "type": "uint256"
        }
      ],
      "name": "Revocation",
      "type": "event"
    },
    {
      "anonymous": false,
      "inputs": [
        {
          "indexed": true,
          "internalType": "uint256",
          "name": "transactionId",
          "type": "uint256"
        }
      ],
      "name": "Submission",
      "type": "event"
    },
    {
      "anonymous": false,
      "inputs": [
        {
          "indexed": true,
          "internalType": "address",
          "name": "writer",
          "type": "address"
        }
      ],
      "name": "WriterAdded",
      "type": "event"
    },
    {
      "anonymous": false,
      "inputs": [
        {
          "indexed": true,
          "internalType": "address",
          "name": "writer",
          "type": "address"
        }
      ],
      "name": "WriterRemoved",
      "type": "event"
    },
    {
      "inputs": [],
      "name": "MAX_OWNER_COUNT",
      "outputs": [
        {
          "internalType": "uint256",
          "name": "",
          "type": "uint256"
        }
      ],
      "stateMutability": "view",
      "type": "function"
    },
    {
      "inputs": [
        {
          "internalType": "address",
          "name": "newOwner",
          "type": "address"
        }
      ],
      "name": "addOwner",
      "outputs": [],
      "stateMutability": "nonpayable",
      "type": "function"
    },
    {
      "inputs": [
        {
          "internalType": "address",
          "name": "newReader",
          "type": "address"
        }
      ],
      "name": "addReader",
      "outputs": [],
      "stateMutability": "nonpayable",
      "type": "function"
    },
    {
      "inputs": [
        {
          "internalType": "address",
          "name": "operatorAddr",
          "type": "address"
        }
      ],
      "name": "addWalletOperator",
      "outputs": [],
      "stateMutability": "nonpayable",
      "type": "function"
    },
    {
      "inputs": [
        {
          "internalType": "address",
          "name": "newWriter",
          "type": "address"
        }
      ],
      "name": "addWriter",
      "outputs": [],
      "stateMutability": "nonpayable",
      "type": "function"
    },
    {
      "inputs": [
        {
          "internalType": "uint256",
          "name": "_required",
          "type": "uint256"
        }
      ],
      "name": "changeRequirement",
      "outputs": [],
      "stateMutability": "nonpayable",
      "type": "function"
    },
    {
      "inputs": [
        {
          "internalType": "uint256",
          "name": "transactionId",
          "type": "uint256"
        }
      ],
      "name": "confirmTransaction",
      "outputs": [],
      "stateMutability": "nonpayable",
      "type": "function"
    },
    {
      "inputs": [
        {
          "internalType": "uint256",
          "name": "",
          "type": "uint256"
        },
        {
          "internalType": "address",
          "name": "",
          "type": "address"
        }
      ],
      "name": "confirmations",
      "outputs": [
        {
          "internalType": "bool",
          "name": "",
          "type": "bool"
        }
      ],
      "stateMutability": "view",
      "type": "function"
    },
    {
      "inputs": [
        {
          "internalType": "uint256",
          "name": "transactionId",
          "type": "uint256"
        }
      ],
      "name": "getConfirmationCount",
      "outputs": [
        {
          "internalType": "uint256",
          "name": "count",
          "type": "uint256"
        }
      ],
      "stateMutability": "view",
      "type": "function"
    },
    {
      "inputs": [
        {
          "internalType": "uint256",
          "name": "transactionId",
          "type": "uint256"
        }
      ],
      "name": "getConfirmations",
      "outputs": [
        {
          "internalType": "address[]",
          "name": "_confirmations",
          "type": "address[]"
        }
      ],
      "stateMutability": "view",
      "type": "function"
    },
    {
      "inputs": [],
      "name": "getOwnerCount",
      "outputs": [
        {
          "internalType": "uint256",
          "name": "",
          "type": "uint256"
        }
      ],
      "stateMutability": "view",
      "type": "function"
    },
    {
      "inputs": [],
      "name": "getOwners",
      "outputs": [
        {
          "internalType": "address[]",
          "name": "",
          "type": "address[]"
        }
      ],
      "stateMutability": "view",
      "type": "function"
    },
    {
      "inputs": [],
      "name": "getReaderList",
      "outputs": [
        {
          "internalType": "address[]",
          "name": "",
          "type": "address[]"
        }
      ],
      "stateMutability": "view",
      "type": "function"
    },
    {
      "inputs": [
        {
          "internalType": "bool",
          "name": "pending",
          "type": "bool"
        },
        {
          "internalType": "bool",
          "name": "executed",
          "type": "bool"
        }
      ],
      "name": "getTransactionCount",
      "outputs": [
        {
          "internalType": "uint256",
          "name": "count",
          "type": "uint256"
        }
      ],
      "stateMutability": "view",
      "type": "function"
    },
    {
      "inputs": [
        {
          "internalType": "uint256",
          "name": "from",
          "type": "uint256"
        },
        {
          "internalType": "uint256",
          "name": "to",
          "type": "uint256"
        },
        {
          "internalType": "bool",
          "name": "pending",
          "type": "bool"
        },
        {
          "internalType": "bool",
          "name": "executed",
          "type": "bool"
        }
      ],
      "name": "getTransactionIds",
      "outputs": [
        {
          "internalType": "uint256[]",
          "name": "_transactionIds",
          "type": "uint256[]"
        }
      ],
      "stateMutability": "view",
      "type": "function"
    },
    {
      "inputs": [],
      "name": "getWalletOperatorList",
      "outputs": [
        {
          "internalType": "address[]",
          "name": "",
          "type": "address[]"
        }
      ],
      "stateMutability": "view",
      "type": "function"
    },
    {
      "inputs": [],
      "name": "getWalletOwner",
      "outputs": [
        {
          "internalType": "address",
          "name": "",
          "type": "address"
        }
      ],
      "stateMutability": "view",
      "type": "function"
    },
    {
      "inputs": [],
      "name": "getWriterList",
      "outputs": [
        {
          "internalType": "address[]",
          "name": "",
          "type": "address[]"
        }
      ],
      "stateMutability": "view",
      "type": "function"
    },
    {
      "inputs": [
        {
          "internalType": "uint256",
          "name": "transactionId",
          "type": "uint256"
        }
      ],
      "name": "isConfirmed",
      "outputs": [
        {
          "internalType": "bool",
          "name": "",
          "type": "bool"
        }
      ],
      "stateMutability": "view",
      "type": "function"
    },
    {
      "inputs": [
        {
          "internalType": "address",
          "name": "addr",
          "type": "address"
        }
      ],
      "name": "isOwner",
      "outputs": [
        {
          "internalType": "bool",
          "name": "",
          "type": "bool"
        }
      ],
      "stateMutability": "view",
      "type": "function"
    },
    {
      "inputs": [
        {
          "internalType": "uint256",
          "name": "transId",
          "type": "uint256"
        }
      ],
      "name": "isRejected",
      "outputs": [
        {
          "internalType": "bool",
          "name": "",
          "type": "bool"
        }
      ],
      "stateMutability": "view",
      "type": "function"
    },
    {
      "inputs": [
        {
          "internalType": "address",
          "name": "addr",
          "type": "address"
        }
      ],
      "name": "isWriter",
      "outputs": [
        {
          "internalType": "bool",
          "name": "",
          "type": "bool"
        }
      ],
      "stateMutability": "view",
      "type": "function"
    },
    {
      "inputs": [
        {
          "internalType": "uint256",
          "name": "",
          "type": "uint256"
        },
        {
          "internalType": "string",
          "name": "",
          "type": "string"
        }
      ],
      "name": "miscellaneousData",
      "outputs": [
        {
          "internalType": "string",
          "name": "",
          "type": "string"
        }
      ],
      "stateMutability": "view",
      "type": "function"
    },
    {
      "inputs": [
        {
          "internalType": "uint256",
          "name": "transId",
          "type": "uint256"
        }
      ],
      "name": "rejectTransaction",
      "outputs": [],
      "stateMutability": "nonpayable",
      "type": "function"
    },
    {
      "inputs": [
        {
          "internalType": "address",
          "name": "owner",
          "type": "address"
        }
      ],
      "name": "removeOwner",
      "outputs": [],
      "stateMutability": "nonpayable",
      "type": "function"
    },
    {
      "inputs": [
        {
          "internalType": "address",
          "name": "operatorAddr",
          "type": "address"
        }
      ],
      "name": "removeWalletOperator",
      "outputs": [],
      "stateMutability": "nonpayable",
      "type": "function"
    },
    {
      "inputs": [
        {
          "internalType": "address",
          "name": "existingReader",
          "type": "address"
        }
      ],
      "name": "removerReader",
      "outputs": [],
      "stateMutability": "nonpayable",
      "type": "function"
    },
    {
      "inputs": [
        {
          "internalType": "address",
          "name": "existingWriter",
          "type": "address"
        }
      ],
      "name": "removerWriter",
      "outputs": [],
      "stateMutability": "nonpayable",
      "type": "function"
    },
    {
      "inputs": [],
      "name": "renounceOwnership",
      "outputs": [],
      "stateMutability": "nonpayable",
      "type": "function"
    },
    {
      "inputs": [],
      "name": "required",
      "outputs": [
        {
          "internalType": "uint256",
          "name": "",
          "type": "uint256"
        }
      ],
      "stateMutability": "view",
      "type": "function"
    },
    {
      "inputs": [
        {
          "internalType": "uint256",
          "name": "transactionId",
          "type": "uint256"
        }
      ],
      "name": "revokeConfirmation",
      "outputs": [],
      "stateMutability": "nonpayable",
      "type": "function"
    },
    {
      "inputs": [
        {
          "internalType": "address",
          "name": "addr",
          "type": "address"
        }
      ],
      "name": "setWalletOwner",
      "outputs": [],
      "stateMutability": "nonpayable",
      "type": "function"
    },
    {
      "inputs": [
        {
          "internalType": "address",
          "name": "a",
          "type": "address"
        }
      ],
      "name": "toBytes",
      "outputs": [
        {
          "internalType": "bytes",
          "name": "",
          "type": "bytes"
        }
      ],
      "stateMutability": "pure",
      "type": "function"
    },
    {
      "inputs": [],
      "name": "transactionCount",
      "outputs": [
        {
          "internalType": "uint256",
          "name": "",
          "type": "uint256"
        }
      ],
      "stateMutability": "view",
      "type": "function"
    },
    {
      "inputs": [
        {
          "internalType": "uint256",
          "name": "",
          "type": "uint256"
        }
      ],
      "name": "transactions",
      "outputs": [
        {
          "internalType": "uint256",
          "name": "transId",
          "type": "uint256"
        },
        {
          "internalType": "bool",
          "name": "isDirectInvokeData",
          "type": "bool"
        },
        {
          "internalType": "address",
          "name": "destination",
          "type": "address"
        },
        {
          "internalType": "uint256",
          "name": "value",
          "type": "uint256"
        },
        {
          "internalType": "bytes",
          "name": "data",
          "type": "bytes"
        },
        {
          "internalType": "uint256",
          "name": "timestamp",
          "type": "uint256"
        },
        {
          "internalType": "uint256",
          "name": "blockNumber",
          "type": "uint256"
        },
        {
          "internalType": "bool",
          "name": "executed",
          "type": "bool"
        },
        {
          "internalType": "bool",
          "name": "rejected",
          "type": "bool"
        }
      ],
      "stateMutability": "view",
      "type": "function"
    },
    {
      "inputs": [
        {
          "internalType": "uint256",
          "name": "",
          "type": "uint256"
        }
      ],
      "name": "walletOperatorList",
      "outputs": [
        {
          "internalType": "address",
          "name": "",
          "type": "address"
        }
      ],
      "stateMutability": "view",
      "type": "function"
    },
    {
      "inputs": [],
      "name": "walletOwner",
      "outputs": [
        {
          "internalType": "address",
          "name": "",
          "type": "address"
        }
      ],
      "stateMutability": "view",
      "type": "function"
    },
    {
      "stateMutability": "payable",
      "type": "receive"
    },
    {
      "inputs": [
        {
          "internalType": "address",
          "name": "addr",
          "type": "address"
        }
      ],
      "name": "setInternalSmartContractConfig",
      "outputs": [],
      "stateMutability": "nonpayable",
      "type": "function"
    },
    {
      "inputs": [],
      "name": "getInternalSmartContractConfig",
      "outputs": [
        {
          "internalType": "address",
          "name": "",
          "type": "address"
        }
      ],
      "stateMutability": "view",
      "type": "function"
    },
    {
      "inputs": [
        {
          "internalType": "address",
          "name": "dest",
          "type": "address"
        },
        {
          "internalType": "string",
          "name": "assetName",
          "type": "string"
        },
        {
          "internalType": "uint256",
          "name": "amount",
          "type": "uint256"
        },
        {
          "internalType": "string",
          "name": "mainnetTransHash",
          "type": "string"
        }
      ],
      "name": "submitMintRequest",
      "outputs": [
        {
          "internalType": "uint256",
          "name": "transactionId",
          "type": "uint256"
        }
      ],
      "stateMutability": "nonpayable",
      "type": "function"
    },
    {
      "inputs": [
        {
          "internalType": "address payable",
          "name": "dest",
          "type": "address"
        },
        {
          "internalType": "uint256",
          "name": "amount",
          "type": "uint256"
        }
      ],
      "name": "transferETH",
      "outputs": [],
      "stateMutability": "nonpayable",
      "type": "function"
    }
  ],
  "bytecode": "0x60806040523480156200001157600080fd5b5060026000620000296001600160e01b03620000ce16565b6001600160a01b0381166000818152600160208190526040808320805460ff191683179055825491820183558280527f290decd9548b62a8d60345a988386fc84ba6bc95484008f6362f93160ef3e56390910180546001600160a01b031916841790555192935090917f8be0079c531659141344cd1fd0a4f28419497f9722a3daafe3b4186f6b6457e0908290a3508080620000c457600080fd5b50600955620000d2565b3390565b613e8080620000e26000396000f3fe60806040526004361061024a5760003560e01c80638145d12611610139578063ba51a6df116100b6578063da2824a81161007a578063da2824a814610a85578063dc8452cd14610ab8578063ddc6f5f614610acd578063ef18374a14610b00578063f9949d4d14610b15578063fba8b1e314610c675761028e565b8063ba51a6df146109b6578063bb7d9fa6146109e0578063c01a8c8414610a13578063ca2760f414610a3d578063d74f8edd14610a705761028e565b8063a0e67e2b116100fd578063a0e67e2b146108ef578063a8abe69a14610904578063afd8b1d114610944578063b5dc40c314610977578063b77bf600146109a15761028e565b80638145d1261461077057806385aaed4e146107a35780638b51d13f146107b85780639ace38c2146107e2578063a01013f8146108da5761028e565b80633411c81c116101c75780637065cb481161018b5780637065cb48146106b0578063715018a6146106e3578063755765ab146106f8578063784547a71461070d5780637b1a4909146107375761028e565b80633411c81c146105665780633a1abfe71461059f5780635474152514610604578063593b79fe1461064a5780635ce4e93d1461067d5761028e565b80631c95b98c1161020e5780631c95b98c146103745780631e556d90146104a357806320ea8d86146104d65780632b29ba23146105005780632f54bf6e146105335761028e565b8063020bec221461029357806305bf37aa146102c4578063098f076e146102ee578063173825d91461032c5780631ae879e81461035f5761028e565b3661028e57341561028c5760408051348152905133917fe1fffcc4923d04b559f4d29a8bfc6cda04eb5b0d3c460751c2402c5c5cc9109c919081900360200190a25b005b600080fd5b34801561029f57600080fd5b506102a8610c91565b604080516001600160a01b039092168252519081900360200190f35b3480156102d057600080fd5b5061028c600480360360208110156102e757600080fd5b5035610d11565b3480156102fa57600080fd5b506103186004803603602081101561031157600080fd5b5035610edd565b604080519115158252519081900360200190f35b34801561033857600080fd5b5061028c6004803603602081101561034f57600080fd5b50356001600160a01b0316610efe565b34801561036b57600080fd5b506102a86110c6565b34801561038057600080fd5b5061042e6004803603604081101561039757600080fd5b813591908101906040810160208201356401000000008111156103b957600080fd5b8201836020820111156103cb57600080fd5b803590602001918460018302840111640100000000831117156103ed57600080fd5b91908080601f0160208091040260200160405190810160405280939291908181526020018383808284376000920191909152509295506110d5945050505050565b6040805160208082528351818301528351919283929083019185019080838360005b83811015610468578181015183820152602001610450565b50505050905090810190601f1680156104955780820380516001836020036101000a031916815260200191505b509250505060405180910390f35b3480156104af57600080fd5b5061028c600480360360208110156104c657600080fd5b50356001600160a01b0316611187565b3480156104e257600080fd5b5061028c600480360360208110156104f957600080fd5b50356113ac565b34801561050c57600080fd5b506103186004803603602081101561052357600080fd5b50356001600160a01b031661156c565b34801561053f57600080fd5b506103186004803603602081101561055657600080fd5b50356001600160a01b031661158a565b34801561057257600080fd5b506103186004803603604081101561058957600080fd5b50803590602001356001600160a01b03166115a8565b3480156105ab57600080fd5b506105b46115c8565b60408051602080825283518183015283519192839290830191858101910280838360005b838110156105f05781810151838201526020016105d8565b505050509050019250505060405180910390f35b34801561061057600080fd5b506106386004803603604081101561062757600080fd5b50803515159060200135151561162b565b60408051918252519081900360200190f35b34801561065657600080fd5b5061042e6004803603602081101561066d57600080fd5b50356001600160a01b0316611699565b34801561068957600080fd5b5061028c600480360360208110156106a057600080fd5b50356001600160a01b03166116cb565b3480156106bc57600080fd5b5061028c600480360360208110156106d357600080fd5b50356001600160a01b03166117fe565b3480156106ef57600080fd5b5061028c61196f565b34801561070457600080fd5b506102a8611aec565b34801561071957600080fd5b506103186004803603602081101561073057600080fd5b5035611afb565b34801561074357600080fd5b5061028c6004803603604081101561075a57600080fd5b506001600160a01b038135169060200135611b84565b34801561077c57600080fd5b5061028c6004803603602081101561079357600080fd5b50356001600160a01b0316611c75565b3480156107af57600080fd5b506105b4611e7b565b3480156107c457600080fd5b50610638600480360360208110156107db57600080fd5b5035611edb565b3480156107ee57600080fd5b5061080c6004803603602081101561080557600080fd5b5035611f4a565b604051808a815260200189151515158152602001886001600160a01b03166001600160a01b03168152602001878152602001806020018681526020018581526020018415151515815260200183151515158152602001828103825287818151815260200191508051906020019080838360005b8381101561089757818101518382015260200161087f565b50505050905090810190601f1680156108c45780820380516001836020036101000a031916815260200191505b509a505050505050505050505060405180910390f35b3480156108e657600080fd5b506105b4612031565b3480156108fb57600080fd5b506105b4612091565b34801561091057600080fd5b506105b46004803603608081101561092757600080fd5b5080359060208101359060408101351515906060013515156120f1565b34801561095057600080fd5b5061028c6004803603602081101561096757600080fd5b50356001600160a01b031661221e565b34801561098357600080fd5b506105b46004803603602081101561099a57600080fd5b5035612380565b3480156109ad57600080fd5b506106386124f7565b3480156109c257600080fd5b5061028c600480360360208110156109d957600080fd5b50356124fd565b3480156109ec57600080fd5b5061028c60048036036020811015610a0357600080fd5b50356001600160a01b03166125b1565b348015610a1f57600080fd5b5061028c60048036036020811015610a3657600080fd5b5035612640565b348015610a4957600080fd5b5061028c60048036036020811015610a6057600080fd5b50356001600160a01b0316612816565b348015610a7c57600080fd5b50610638612932565b348015610a9157600080fd5b5061028c60048036036020811015610aa857600080fd5b50356001600160a01b0316612937565b348015610ac457600080fd5b50610638612a99565b348015610ad957600080fd5b5061028c60048036036020811015610af057600080fd5b50356001600160a01b0316612a9f565b348015610b0c57600080fd5b50610638612ca5565b348015610b2157600080fd5b5061063860048036036080811015610b3857600080fd5b6001600160a01b038235169190810190604081016020820135640100000000811115610b6357600080fd5b820183602082011115610b7557600080fd5b80359060200191846001830284011164010000000083111715610b9757600080fd5b91908080601f01602080910402602001604051908101604052809392919081815260200183838082843760009201919091525092958435959094909350604081019250602001359050640100000000811115610bf257600080fd5b820183602082011115610c0457600080fd5b80359060200191846001830284011164010000000083111715610c2657600080fd5b91908080601f016020809104026020016040519081016040528093929190818152602001838380828437600092019190915250929550612cab945050505050565b348015610c7357600080fd5b506102a860048036036020811015610c8a57600080fd5b5035613151565b600080610c9c613178565b6001600160a01b03811660009081526001602081905260409091205491925060ff909116151514610cfe5760405162461bcd60e51b8152600401808060200182810382526027815260200180613c6e6027913960400191505060405180910390fd5b600e546001600160a01b031691505b5090565b336000908152600d602052604090205460ff16151560011480610d3e5750600b546001600160a01b031633145b610d795760405162461bcd60e51b8152600401808060200182810382526038815260200180613c366038913960400191505060405180910390fd5b600081815260066020526040902060010154819061010090046001600160a01b0316610dd65760405162461bcd60e51b8152600401808060200182810382526025815260200180613d1d6025913960400191505060405180910390fd5b60008281526007602090815260408083203380855292529091205483919060ff1615610e335760405162461bcd60e51b8152600401808060200182810382526030815260200180613ced6030913960400191505060405180910390fd5b600084815260066020819052604090912001548490610100900460ff1615610e8c5760405162461bcd60e51b815260040180806020018281038252602c815260200180613e1f602c913960400191505060405180910390fd5b6000858152600660208190526040808320909101805461ff00191661010017905551869133917f310fda14a1b3763badba87b2ca73948d00cc14d8fa2d6ee19a67ac90fa9afa679190a35050505050565b60008181526006602081905260409091200154610100900460ff165b919050565b6000610f08613178565b6001600160a01b03811660009081526001602081905260409091205491925060ff909116151514610f6a5760405162461bcd60e51b8152600401808060200182810382526027815260200180613c6e6027913960400191505060405180910390fd5b6001600160a01b038216600090815260016020526040902054829060ff16610f9157600080fd5b6001600160a01b0383166000908152600160205260408120805460ff191690558054905b8181101561105e57846001600160a01b031660008281548110610fd457fe5b6000918252602090912001546001600160a01b031614156110565760006001830381548110610fff57fe5b600091825260208220015481546001600160a01b0390911691908390811061102357fe5b9060005260206000200160006101000a8154816001600160a01b0302191690836001600160a01b0316021790555061105e565b600101610fb5565b50600080548061106a57fe5b600082815260208120820160001990810180546001600160a01b03191690559091019091556040516001600160a01b038616917f58619076adf5bb0943d100ef88d52d7c3fd691b19d3a9071b555b651fbf418da91a250505050565b600b546001600160a01b031681565b60086020908152600092835260409283902082518084018301805192815290830193830193909320925281548351601f600260001961010060018616150201909316929092049182018390048302810183019094528084529083018282801561117f5780601f106111545761010080835404028352916020019161117f565b820191906000526020600020905b81548152906001019060200180831161116257829003601f168201915b505050505081565b6000611191613178565b6001600160a01b03811660009081526001602081905260409091205491925060ff9091161515146111f35760405162461bcd60e51b8152600401808060200182810382526027815260200180613c6e6027913960400191505060405180910390fd5b600b5482906001600160a01b03808316911614156112425760405162461bcd60e51b8152600401808060200182810382526026815260200180613d946026913960400191505060405180910390fd5b600b546001600160a01b03848116911614156112a5576040805162461bcd60e51b815260206004820152601a60248201527f43616e6e6f742072656d6f76652077616c6c6574206f776e6572000000000000604482015290519081900360640190fd5b6001600160a01b0383166000908152600d60205260408120805460ff19169055600c54905b6001820381101561137857846001600160a01b0316600c82815481106112ec57fe5b6000918252602090912001546001600160a01b0316141561137057600c600183038154811061131757fe5b600091825260209091200154600c80546001600160a01b03909216918390811061133d57fe5b9060005260206000200160006101000a8154816001600160a01b0302191690836001600160a01b03160217905550611378565b6001016112ca565b50600c80548061138457fe5b600082815260209020810160001990810180546001600160a01b031916905501905550505050565b336000908152600d602052604090205460ff161515600114806113d95750600b546001600160a01b031633145b6114145760405162461bcd60e51b8152600401808060200182810382526038815260200180613c366038913960400191505060405180910390fd5b60008181526007602090815260408083203380855292529091205482919060ff166114705760405162461bcd60e51b815260040180806020018281038252602c815260200180613c95602c913960400191505060405180910390fd5b60008381526006602081905260409091200154839060ff16156114c45760405162461bcd60e51b815260040180806020018281038252602c815260200180613cc1602c913960400191505060405180910390fd5b600084815260066020819052604090912001548490610100900460ff161561151d5760405162461bcd60e51b815260040180806020018281038252602c815260200180613e1f602c913960400191505060405180910390fd5b6000858152600760209081526040808320338085529252808320805460ff191690555187927ff6a317157440607f36269043eb55f1287a5a19ba2216afeab88cd46cbcfb88e991a35050505050565b6001600160a01b031660009081526005602052604090205460ff1690565b6001600160a01b031660009081526001602052604090205460ff1690565b600760209081526000928352604080842090915290825290205460ff1681565b6060600480548060200260200160405190810160405280929190818152602001828054801561162057602002820191906000526020600020905b81546001600160a01b03168152600190910190602001808311611602575b505050505090505b90565b6000805b600a548110156116925783801561165957506000818152600660208190526040909120015460ff16155b8061167e575082801561167e57506000818152600660208190526040909120015460ff165b1561168a576001820191505b60010161162f565b5092915050565b6040805160609290921b6bffffffffffffffffffffffff19166020830152805160148184030181526034909201905290565b60006116d5613178565b6001600160a01b03811660009081526001602081905260409091205491925060ff9091161515146117375760405162461bcd60e51b8152600401808060200182810382526027815260200180613c6e6027913960400191505060405180910390fd5b6001600160a01b0382166000908152600d6020526040902054829060ff161515600114156117965760405162461bcd60e51b815260040180806020018281038252602b815260200180613d69602b913960400191505060405180910390fd5b50506001600160a01b03166000818152600d60205260408120805460ff19166001908117909155600c805491820181559091527fdf6966c971051c3d54ec59162606531493a51404a002842f56009d7e5cf4a8c70180546001600160a01b0319169091179055565b6000611808613178565b6001600160a01b03811660009081526001602081905260409091205491925060ff90911615151461186a5760405162461bcd60e51b8152600401808060200182810382526027815260200180613c6e6027913960400191505060405180910390fd5b6001600160a01b038216600090815260016020819052604090912054839160ff909116151514156118e2576040805162461bcd60e51b815260206004820152601b60248201527f4164647265737320616c726561647920697320616e206f776e65720000000000604482015290519081900360640190fd5b6001600160a01b0383166000818152600160208190526040808320805460ff191683179055825491820183558280527f290decd9548b62a8d60345a988386fc84ba6bc95484008f6362f93160ef3e56390910180546001600160a01b03191684179055517f994a936646fe87ffe4f1e469d3d6aa417d6b855598397f323de5b449f765f0c39190a2505050565b6000611979613178565b6001600160a01b03811660009081526001602081905260409091205491925060ff9091161515146119db5760405162461bcd60e51b8152600401808060200182810382526027815260200180613c6e6027913960400191505060405180910390fd5b60006119e5613178565b6001600160a01b0381166000908152600160205260408120805460ff191690559091505b60005460001901811015611aba57816001600160a01b031660008281548110611a2e57fe5b6000918252602090912001546001600160a01b03161415611ab257600080546000198101908110611a5b57fe5b600091825260208220015481546001600160a01b03909116919083908110611a7f57fe5b9060005260206000200160006101000a8154816001600160a01b0302191690836001600160a01b03160217905550611aba565b600101611a09565b506000805480611ac657fe5b600082815260209020810160001990810180546001600160a01b03191690550190555050565b600b546001600160a01b031690565b600080805b600c54811015611b7a576000848152600760205260408120600c805491929184908110611b2957fe5b60009182526020808320909101546001600160a01b0316835282019290925260400190205460ff1615611b5d576001820191505b600954821415611b7257600192505050610ef9565b600101611b00565b5060009392505050565b611b8d3361158a565b80611bac5750336000908152600d602052604090205460ff1615156001145b80611bc15750600b546001600160a01b031633145b611bfc5760405162461bcd60e51b8152600401808060200182810382526041815260200180613dba6041913960600191505060405180910390fd5b804711611c3a5760405162461bcd60e51b8152600401808060200182810382526027815260200180613d426027913960400191505060405180910390fd5b6040516001600160a01b0383169082156108fc029083906000818181858888f19350505050158015611c70573d6000803e3d6000fd5b505050565b6000611c7f613178565b6001600160a01b03811660009081526001602081905260409091205491925060ff909116151514611ce15760405162461bcd60e51b8152600401808060200182810382526027815260200180613c6e6027913960400191505060405180910390fd5b6001600160a01b038216600090815260056020526040902054829060ff16611d43576040805162461bcd60e51b815260206004820152601060248201526f15dc9a5d195c881b9bdd08195e1a5cdd60821b604482015290519081900360640190fd5b6001600160a01b0383166000908152600560205260408120805460ff19169055600454905b81811015611e1357846001600160a01b031660048281548110611d8757fe5b6000918252602090912001546001600160a01b03161415611e0b5760046001830381548110611db257fe5b600091825260209091200154600480546001600160a01b039092169183908110611dd857fe5b9060005260206000200160006101000a8154816001600160a01b0302191690836001600160a01b03160217905550611e13565b600101611d68565b506004805480611e1f57fe5b600082815260208120820160001990810180546001600160a01b03191690559091019091556040516001600160a01b038616917f86e5bbceda94081c32220d685f37cc4e3ea7bb0be2dfbf0cb703579505a5390e91a250505050565b60606002805480602002602001604051908101604052809291908181526020018280548015611620576020028201919060005260206000209081546001600160a01b03168152600190910190602001808311611602575050505050905090565b6000805b600c54811015611f44576000838152600760205260408120600c805491929184908110611f0857fe5b60009182526020808320909101546001600160a01b0316835282019290925260400190205460ff1615611f3c576001820191505b600101611edf565b50919050565b600660209081526000918252604091829020805460018083015460028085015460038601805489516101009682161587026000190190911693909304601f8101899004890284018901909952888352949760ff841697949093046001600160a01b03169590949093919290918301828280156120075780601f10611fdc57610100808354040283529160200191612007565b820191906000526020600020905b815481529060010190602001808311611fea57829003601f168201915b50505050600483015460058401546006909401549293909290915060ff8082169161010090041689565b6060600c805480602002602001604051908101604052809291908181526020018280548015611620576020028201919060005260206000209081546001600160a01b03168152600190910190602001808311611602575050505050905090565b60606000805480602002602001604051908101604052809291908181526020018280548015611620576020028201919060005260206000209081546001600160a01b03168152600190910190602001808311611602575050505050905090565b606080600a54604051908082528060200260200182016040528015612120578160200160208202803883390190505b5090506000805b600a548110156121a35785801561215157506000818152600660208190526040909120015460ff16155b80612176575084801561217657506000818152600660208190526040909120015460ff165b1561219b578083838151811061218857fe5b6020026020010181815250506001820191505b600101612127565b8787036040519080825280602002602001820160405280156121cf578160200160208202803883390190505b5093508790505b86811015612213578281815181106121ea57fe5b6020026020010151848983038151811061220057fe5b60209081029190910101526001016121d6565b505050949350505050565b6000612228613178565b6001600160a01b03811660009081526001602081905260409091205491925060ff90911615151461228a5760405162461bcd60e51b8152600401808060200182810382526027815260200180613c6e6027913960400191505060405180910390fd5b6001600160a01b038216600090815260036020526040902054829060ff16156122f2576040805162461bcd60e51b815260206004820152601560248201527452656164657220616c72656164792065786973747360581b604482015290519081900360640190fd5b6001600160a01b038316600081815260036020526040808220805460ff1916600190811790915560028054918201815583527f405787fa12a823e0f2b7631cc41b3ba8828b3321ca811111fa75cd3aa3bb5ace0180546001600160a01b03191684179055517fb7724d890d2888af5a3fc456edb667e2c82c4441449ebcac301c618759e4f86d9190a2505050565b606080600c805490506040519080825280602002602001820160405280156123b2578160200160208202803883390190505b5090506000805b600c54811015612475576000858152600760205260408120600c8054919291849081106123e257fe5b60009182526020808320909101546001600160a01b0316835282019290925260400190205460ff161561246d57600c818154811061241c57fe5b9060005260206000200160009054906101000a90046001600160a01b031683838151811061244657fe5b60200260200101906001600160a01b031690816001600160a01b0316815250506001820191505b6001016123b9565b8160405190808252806020026020018201604052801561249f578160200160208202803883390190505b509350600090505b818110156124ef578281815181106124bb57fe5b60200260200101518482815181106124cf57fe5b6001600160a01b03909216602092830291909101909101526001016124a7565b505050919050565b600a5481565b6000612507613178565b6001600160a01b03811660009081526001602081905260409091205491925060ff9091161515146125695760405162461bcd60e51b8152600401808060200182810382526027815260200180613c6e6027913960400191505060405180910390fd5b818061257457600080fd5b60098390556040805184815290517fa3f1ee9126a074d9326c682f561767f710e927faa811f7a99829d49dc421797a9181900360200190a1505050565b60006125bb613178565b6001600160a01b03811660009081526001602081905260409091205491925060ff90911615151461261d5760405162461bcd60e51b8152600401808060200182810382526027815260200180613c6e6027913960400191505060405180910390fd5b50600e80546001600160a01b0319166001600160a01b0392909216919091179055565b336000908152600d602052604090205460ff1615156001148061266d5750600b546001600160a01b031633145b6126a85760405162461bcd60e51b8152600401808060200182810382526038815260200180613c366038913960400191505060405180910390fd5b600081815260066020526040902060010154819061010090046001600160a01b03166127055760405162461bcd60e51b8152600401808060200182810382526025815260200180613d1d6025913960400191505060405180910390fd5b60008281526007602090815260408083203380855292529091205483919060ff16156127625760405162461bcd60e51b8152600401808060200182810382526030815260200180613ced6030913960400191505060405180910390fd5b600084815260066020819052604090912001548490610100900460ff16156127bb5760405162461bcd60e51b815260040180806020018281038252602c815260200180613e1f602c913960400191505060405180910390fd5b6000858152600760209081526040808320338085529252808320805460ff191660011790555187927f4a504a94899432a9846e1aa406dceb1bcfd538bb839071d49d1e5e23f5be30ef91a361280f8561317c565b5050505050565b6000612820613178565b6001600160a01b03811660009081526001602081905260409091205491925060ff9091161515146128825760405162461bcd60e51b8152600401808060200182810382526027815260200180613c6e6027913960400191505060405180910390fd5b600b80546001600160a01b0319166001600160a01b038481169190911791829055166000908152600d602052604090205460ff1661292e57600b80546001600160a01b039081166000908152600d60205260408120805460ff191660019081179091559254600c805494850181559091527fdf6966c971051c3d54ec59162606531493a51404a002842f56009d7e5cf4a8c790920180546001600160a01b031916929091169190911790555b5050565b603281565b6000612941613178565b6001600160a01b03811660009081526001602081905260409091205491925060ff9091161515146129a35760405162461bcd60e51b8152600401808060200182810382526027815260200180613c6e6027913960400191505060405180910390fd5b6001600160a01b038216600090815260056020526040902054829060ff1615612a0b576040805162461bcd60e51b815260206004820152601560248201527457726974657220616c72656164792065786973747360581b604482015290519081900360640190fd5b6001600160a01b038316600081815260056020526040808220805460ff1916600190811790915560048054918201815583527f8a35acfbc15ff81a39ae7d344fd709f28e8600b4aa8c65c6b64bfe7fe36bd19b0180546001600160a01b03191684179055517f6ff3aa2ea7b53070f6d9d07a445d338d89e8edef44250ffa8be19f53910d4a2e9190a2505050565b60095481565b6000612aa9613178565b6001600160a01b03811660009081526001602081905260409091205491925060ff909116151514612b0b5760405162461bcd60e51b8152600401808060200182810382526027815260200180613c6e6027913960400191505060405180910390fd5b6001600160a01b038216600090815260036020526040902054829060ff16612b6d576040805162461bcd60e51b815260206004820152601060248201526f14995859195c881b9bdd08195e1a5cdd60821b604482015290519081900360640190fd5b6001600160a01b0383166000908152600360205260408120805460ff19169055600254905b81811015612c3d57846001600160a01b031660028281548110612bb157fe5b6000918252602090912001546001600160a01b03161415612c355760026001830381548110612bdc57fe5b600091825260209091200154600280546001600160a01b039092169183908110612c0257fe5b9060005260206000200160006101000a8154816001600160a01b0302191690836001600160a01b03160217905550612c3d565b600101612b92565b506002805480612c4957fe5b600082815260208120820160001990810180546001600160a01b03191690559091019091556040516001600160a01b038616917fe933431644458f1217f9e93d3e000e03c9bbbe55761046d0985c2e4d157bcbaa91a250505050565b60005490565b336000908152600d602052604081205460ff16151560011480612cd85750600b546001600160a01b031633145b612d135760405162461bcd60e51b8152600401808060200182810382526038815260200180613c366038913960400191505060405180910390fd5b600e546001600160a01b0316612d2857600080fd5b600e546040516303d0a60f60e41b81526020600482018181528751602484015287516000946001600160a01b031693633d0a60f0938a93928392604401918501908083838b5b83811015612d86578181015183820152602001612d6e565b50505050905090810190601f168015612db35780820380516001836020036101000a031916815260200191505b509250505060206040518083038186803b158015612dd057600080fd5b505afa158015612de4573d6000803e3d6000fd5b505050506040513d6020811015612dfa57600080fd5b505190506001600160a01b038116156130fb576000612e29878660405180602001604052806000815250613730565b6000818152600660209081526040808320600101805460ff1916905560088252918290208251808401845260108082526f0dac2d2dcdccae8a8e4c2dce690c2e6d60831b938201938452935194975087955088949193909282918083835b60208310612ea65780518252601f199092019160209182019101612e87565b51815160209384036101000a60001901801990921691161790529201948552506040519384900381019093208451612ee79591949190910192509050613ba7565b506040518060400160405280600781526020016619195c1bdcda5d60ca1b815250600860008381526020019081526020016000206040518060400160405280600681526020016530b1ba34b7b760d11b8152506040518082805190602001908083835b60208310612f695780518252601f199092019160209182019101612f4a565b51815160209384036101000a60001901801990921691161790529201948552506040519384900381019093208451612faa9591949190910192509050613ba7565b5085600860008381526020019081526020016000206040518060400160405280600981526020016861737365744e616d6560b81b8152506040518082805190602001908083835b602083106130105780518252601f199092019160209182019101612ff1565b51815160209384036101000a600019018019909216911617905292019485525060405193849003810190932084516130519591949190910192509050613ba7565b5061305b816138c0565b807f243951c2dd83c6c7aa62201c647101a05eea8807ce6231d023793263f8d201b3856040518080602001828103825283818151815260200191508051906020019080838360005b838110156130bb5781810151838201526020016130a3565b50505050905090810190601f1680156130e85780820380516001836020036101000a031916815260200191505b509250505060405180910390a250613148565b6040805162461bcd60e51b815260206004820152601e60248201527f506c6174666f726d57616c6c65743a20496e76616c6964206173736574210000604482015290519081900360640190fd5b50949350505050565b600c818154811061315e57fe5b6000918252602090912001546001600160a01b0316905081565b3390565b60008181526007602090815260408083203380855292529091205482919060ff166131d85760405162461bcd60e51b815260040180806020018281038252602c815260200180613c95602c913960400191505060405180910390fd5b60008381526006602081905260409091209081015460ff1615613242576040805162461bcd60e51b815260206004820152601c60248201527f5472616e73616374696f6e20616c726561647920657865637574656400000000604482015290519081900360640190fd5b61324b84611afb565b1561372a576060600860008681526020019081526020016000206040518060400160405280600681526020016530b1ba34b7b760d11b8152506040518082805190602001908083835b602083106132b35780518252601f199092019160209182019101613294565b518151600019602094850361010090810a820192831692199390931691909117909252949092019687526040805197889003820188208054601f60026001831615909802909501169590950492830182900482028801820190528187529294509250508301828280156133675780601f1061333c57610100808354040283529160200191613367565b820191906000526020600020905b81548152906001019060200180831161334a57829003601f168201915b5050505050905060405160200180806619195c1bdcda5d60ca1b815250600701905060405160208183030381529060405280519060200120816040516020018082805190602001908083835b602083106133d25780518252601f1990920191602091820191016133b3565b6001836020036101000a03801982511681845116808217855250505050505090500191505060405160208183030381529060405280519060200120141561280f5760068201805460ff191660011790556000858152600860209081526040918290208251808401845260098082526861737365744e616d6560b81b938201938452935160609492939192909182918083835b602083106134835780518252601f199092019160209182019101613464565b518151600019602094850361010090810a820192831692199390931691909117909252949092019687526040805197889003820188208054601f60026001831615909802909501169590950492830182900482028801820190528187529294509250508301828280156135375780601f1061350c57610100808354040283529160200191613537565b820191906000526020600020905b81548152906001019060200180831161351a57829003601f168201915b505050505090506135648360010160019054906101000a90046001600160a01b0316828560020154613922565b6060600860008881526020019081526020016000206040518060400160405280601081526020016f0dac2d2dcdccae8a8e4c2dce690c2e6d60831b8152506040518082805190602001908083835b602083106135d15780518252601f1990920191602091820191016135b2565b518151600019602094850361010090810a820192831692199390931691909117909252949092019687526040805197889003820188208054601f60026001831615909802909501169590950492830182900482028801820190528187529294509250508301828280156136855780601f1061365a57610100808354040283529160200191613685565b820191906000526020600020905b81548152906001019060200180831161366857829003601f168201915b50505050509050867fb259b303a39163b71969dd591586148adb96d6bd19e9cd0e16e7f7fa5aa39ef8826040518080602001828103825283818151815260200191508051906020019080838360005b838110156136ec5781810151838201526020016136d4565b50505050905090810190601f1680156137195780820380516001836020036101000a031916815260200191505b509250505060405180910390a25050505b50505050565b6000836001600160a01b03811661378e576040805162461bcd60e51b815260206004820152601f60248201527f4d756c746953696757616c6c65743a2041646472657373206973206e756c6c00604482015290519081900360640190fd5b600a546040805161012081018252828152600160208083018281526001600160a01b038b8116858701908152606086018c8152608087018c81524260a08901524360c0890152600060e08901819052610100808a018290528b8252600688529990208851815594519685018054935160ff199490941697151597909717610100600160a81b0319169290931690970217909355935160028501559051805194965091936138419260038501920190613ba7565b5060a0820151600482015560c0820151600582015560e0820151600690910180546101009384015160ff199091169215159290921761ff001916911515909202179055600a8054600101905560405182907fc0ba8fe4b176c1714197d43b9cc6bcf797a4a7461c5fe8d0ef6e184ae7601e5190600090a2509392505050565b6000818152600760209081526040808320338085529252808320805460ff191660011790555183927f4a504a94899432a9846e1aa406dceb1bcfd538bb839071d49d1e5e23f5be30ef91a36009546001141561391f5761391f8161317c565b50565b61392b3361158a565b8061394a5750336000908152600d602052604090205460ff1615156001145b8061395f5750600b546001600160a01b031633145b61399a5760405162461bcd60e51b8152600401808060200182810382526041815260200180613dba6041913960600191505060405180910390fd5b600e546040516303d0a60f60e41b81526020600482018181528551602484015285516000946001600160a01b031693633d0a60f0938893928392604401918501908083838b5b838110156139f85781810151838201526020016139e0565b50505050905090810190601f168015613a255780820380516001836020036101000a031916815260200191505b509250505060206040518083038186803b158015613a4257600080fd5b505afa158015613a56573d6000803e3d6000fd5b505050506040513d6020811015613a6c57600080fd5b505190506001600160a01b03811615613b7057604080516340c10f1960e01b815230600482015260248101849052905182916001600160a01b038316916340c10f199160448082019260009290919082900301818387803b158015613ad057600080fd5b505af1158015613ae4573d6000803e3d6000fd5b50506040805163a9059cbb60e01b81526001600160a01b038981166004830152602482018890529151869450918416925063a9059cbb9160448083019260209291908290030181600087803b158015613b3c57600080fd5b505af1158015613b50573d6000803e3d6000fd5b505050506040513d6020811015613b6657600080fd5b5061372a92505050565b60405162461bcd60e51b8152600401808060200182810382526024815260200180613dfb6024913960400191505060405180910390fd5b828054600181600116156101000203166002900490600052602060002090601f016020900481019282601f10613be857805160ff1916838001178555613c15565b82800160010185558215613c15579182015b82811115613c15578251825591602001919060010190613bfa565b50610d0d926116289250905b80821115610d0d5760008155600101613c2156fe4d756c746953696757616c6c65743a2063616c6c6572206973206e6f74206f6e65206f66207468652077616c6c6574206f70657261746f724f776e61626c653a2063616c6c6572206973206e6f74206f6e65206f6620746865206f776e65724d756c746953696757616c6c65743a205472616e73616374696f6e206973206e6f7420636f6e6669726d65644d756c746953696757616c6c65743a205472616e73616374696f6e20616c72656164792065786563757465644d756c746953696757616c6c65743a205472616e73616374696f6e20697320616c726561647920636f6e6669726d65644d756c746953696757616c6c65743a205472616e73616374696f6e206e6f7420666f756e64506c6174666f726d2057616c6c65742068617320696e73756666696369656e7420616d6f756e744d756c746953696757616c6c65743a2041646472657373206973206f70657261746f7220616c72656164794d756c746953696757616c6c65743a2063616c6c65722069732077616c6c6574206f776e6572506c6174666f726d57616c6c65743a2063616c6c6572206973206e6f74206f6e65206f6620746865206f776e6572206f722077616c6c6574206f70657261746f72506c6174666f726d57616c6c65743a206173736574206e616d65206e6f7420666f756e644d756c746953696757616c6c65743a205472616e73616374696f6e20616c72656164792072656a6563746564a2646970667358221220bcb955ed979148a72820b3104e11aa54191216b46b009e13bc3ead1241ceb41664736f6c63430006020033",
  "source": "pragma solidity >=0.6.0 <0.8.0;\n\nimport \"./MultiSigWallet.sol\";\nimport \"../config/InternalSmartContractConfig.sol\";\nimport \"../token/ITokenMintable.sol\";\nimport \"../erc20/basic/IERC20.sol\";\n\ncontract DummyPlatformWallet is MultiSigWallet{\n    InternalSmartContractConfig internalSmartContractConfig;\n\n    event MintRequestEvent(uint256 indexed mintRequestTransId, string mainnetDepositTransHash);\n    event MintCompletedEvent(uint256 indexed mintRequestTransId, string mainnetDepositTransHash);\n\n    string internal constant mainnetTransHashKeyName = \"mainnetTransHash\";\n    string internal constant transActionKeyName = \"action\";\n    string internal constant transAssetNameKeyName = \"assetName\";\n\n    bytes32 internal constant transActionHash =  keccak256(abi.encodePacked(\"deposit\"));\n    string internal constant transAction = \"deposit\";\n    \n    \n    constructor() MultiSigWallet(2) public {\n    }\n\n    modifier onlyOwnerOrWalletOperator() {\n        require(isOwner(msg.sender) || walletOperatorMap[msg.sender] == true || walletOwner == msg.sender, \n        \"PlatformWallet: caller is not one of the owner or wallet operator\");\n        _;\n    }\n\n\n    function setInternalSmartContractConfig(address addr) public \n    onlyOwner{\n        internalSmartContractConfig = InternalSmartContractConfig(addr);\n    }\n\n    function getInternalSmartContractConfig() public onlyOwner view returns(address){\n        return address(internalSmartContractConfig);\n    }\n\n    function transfer(address dest,string memory assetName, uint256 amount) internal onlyOwnerOrWalletOperator{\n  \n            address erc20Addr = internalSmartContractConfig.getErc20SmartContractAddrByAssetName(assetName);\n            if(erc20Addr!=address(0)){\n                IERC20 erc20 = IERC20(erc20Addr);\n                erc20.transfer(dest, amount);\n            }else{\n                 revert(\"PlatformWallet: Invalid asset\");\n            }\n       \n    }\n\n    function submitMintRequest(address dest, string memory assetName, uint256 amount, string memory mainnetTransHash) public onlyWalletOperator returns (uint transactionId){\n            require(address(internalSmartContractConfig) != address(0));\n            address erc20Addr = internalSmartContractConfig.getErc20SmartContractAddrByAssetName(assetName);\n            if(erc20Addr!=address(0)){\n                \n                uint256 mintRequestTransId = addTransaction(dest, amount, \"\");\n                transactionId = mintRequestTransId;\n                transactions[mintRequestTransId].isDirectInvokeData = false;\n                miscellaneousData[mintRequestTransId][mainnetTransHashKeyName] = mainnetTransHash;\n                miscellaneousData[mintRequestTransId][transActionKeyName] = transAction;\n                miscellaneousData[mintRequestTransId][transAssetNameKeyName] = assetName;\n                submitCustomTransaction(mintRequestTransId);\n                 emit MintRequestEvent(mintRequestTransId, mainnetTransHash);\n\n            }else{\n                revert(\"PlatformWallet: Invalid asset!\");\n            }\n    }\n\n    function executeTransaction(uint transactionId) override internal\n        confirmed(transactionId, msg.sender)\n        //notExecuted(transactionId)\n    {\n        Transaction storage txn = transactions[transactionId];\n        require (!txn.executed, \"Transaction already executed\");\n        if (isConfirmed(transactionId)) {\n\n            string memory action = miscellaneousData[transactionId][transActionKeyName];\n            if (keccak256(abi.encodePacked(action)) == transActionHash) {\n                txn.executed = true;\n                string memory assetName = miscellaneousData[transactionId][transAssetNameKeyName];\n                mint(txn.destination, assetName, txn.value);\n                string memory depositTransHash = miscellaneousData[transactionId][mainnetTransHashKeyName];\n \n                emit MintCompletedEvent(transactionId, depositTransHash);\n               \n            }\n            // else{\n            //     revert(\"Invalid action\");\n            // }\n            \n        }\n    }\n\n\n    function mint(address dest, string memory assetName, uint256 amount)internal onlyOwnerOrWalletOperator{\n        address erc20Addr = internalSmartContractConfig.getErc20SmartContractAddrByAssetName(assetName);\n        if(erc20Addr!=address(0)){\n            ITokenMintable tokenMintable = ITokenMintable(erc20Addr);\n            tokenMintable.mint(address(this), amount);\n           \n            IERC20 erc20 = IERC20(erc20Addr);\n            erc20.transfer(dest, amount);\n\n\n        }else{\n            revert(\"PlatformWallet: asset name not found\");\n        }\n    }\n\n    function transferETH(address payable dest, uint256 amount) public onlyOwnerOrWalletOperator{\n        require(address(this).balance>amount,\"Platform Wallet has insufficient amount\");\n        dest.transfer(amount);\n    }\n}",
  "sourcePath": "/Users/duncanto/Documents/WorkingSet2/src/eurus-backend/smartcontract/contracts/wallet/DummyPlatformWallet.sol",
  "compiler": {
    "name": "solc",
    "version": "0.6.2+commit.bacdbe57.Emscripten.clang"
  },
  "schemaVersion": "3.4.1",
  "updatedAt": "2021-08-04T10:30:06.331Z",
  "devdoc": {
    "methods": {
      "changeRequirement(uint256)": {
        "details": "Allows to change the number of required confirmations. Transaction has to be sent by wallet.",
        "params": {
          "_required": "Number of required confirmations."
        }
      },
      "confirmTransaction(uint256)": {
        "details": "Allows an owner to confirm a transaction.",
        "params": {
          "transactionId": "Transaction ID."
        }
      },
      "isConfirmed(uint256)": {
        "details": "Returns the confirmation status of a transaction.",
        "params": {
          "transactionId": "Transaction ID."
        },
        "returns": {
          "_0": "Confirmation status."
        }
      },
      "renounceOwnership()": {
        "details": "Leaves the contract without owner. It will not be possible to call `onlyOwner` functions anymore. Can only be called by the current owner.     * NOTE: Renouncing ownership will leave the contract without an owner, thereby removing any functionality that is only available to the owner."
      },
      "revokeConfirmation(uint256)": {
        "details": "Allows an owner to revoke a confirmation for a transaction.",
        "params": {
          "transactionId": "Transaction ID."
        }
      }
    }
  },
  "userdoc": {
    "methods": {}
  }
}