{
  "contractName": "DummyInternalSmartContractConfig",
  "abi": [
    {
      "inputs": [],
      "stateMutability": "nonpayable",
      "type": "constructor"
    },
    {
      "anonymous": false,
      "inputs": [
        {
          "indexed": false,
          "internalType": "string",
          "name": "",
          "type": "string"
        }
      ],
      "name": "Event",
      "type": "event"
    },
    {
      "anonymous": false,
      "inputs": [
        {
          "indexed": true,
          "internalType": "address",
          "name": "owner",
          "type": "address"
        }
      ],
      "name": "OwnerAdded",
      "type": "event"
    },
    {
      "anonymous": false,
      "inputs": [
        {
          "indexed": true,
          "internalType": "address",
          "name": "owner",
          "type": "address"
        }
      ],
      "name": "OwnerRemoved",
      "type": "event"
    },
    {
      "anonymous": false,
      "inputs": [
        {
          "indexed": true,
          "internalType": "address",
          "name": "previousOwner",
          "type": "address"
        },
        {
          "indexed": true,
          "internalType": "address",
          "name": "newOwner",
          "type": "address"
        }
      ],
      "name": "OwnershipTransferred",
      "type": "event"
    },
    {
      "inputs": [
        {
          "internalType": "address",
          "name": "newOwner",
          "type": "address"
        }
      ],
      "name": "addOwner",
      "outputs": [],
      "stateMutability": "nonpayable",
      "type": "function"
    },
    {
      "inputs": [],
      "name": "getOwnerCount",
      "outputs": [
        {
          "internalType": "uint256",
          "name": "",
          "type": "uint256"
        }
      ],
      "stateMutability": "view",
      "type": "function"
    },
    {
      "inputs": [],
      "name": "getOwners",
      "outputs": [
        {
          "internalType": "address[]",
          "name": "",
          "type": "address[]"
        }
      ],
      "stateMutability": "view",
      "type": "function"
    },
    {
      "inputs": [
        {
          "internalType": "address",
          "name": "addr",
          "type": "address"
        }
      ],
      "name": "isOwner",
      "outputs": [
        {
          "internalType": "bool",
          "name": "",
          "type": "bool"
        }
      ],
      "stateMutability": "view",
      "type": "function"
    },
    {
      "inputs": [
        {
          "internalType": "address",
          "name": "owner",
          "type": "address"
        }
      ],
      "name": "removeOwner",
      "outputs": [],
      "stateMutability": "nonpayable",
      "type": "function"
    },
    {
      "inputs": [],
      "name": "renounceOwnership",
      "outputs": [],
      "stateMutability": "nonpayable",
      "type": "function"
    },
    {
      "inputs": [
        {
          "internalType": "address",
          "name": "addr",
          "type": "address"
        }
      ],
      "name": "setMainnetWalletAddress",
      "outputs": [],
      "stateMutability": "nonpayable",
      "type": "function"
    },
    {
      "inputs": [
        {
          "internalType": "address",
          "name": "addr",
          "type": "address"
        }
      ],
      "name": "setInnetWalletAddress",
      "outputs": [],
      "stateMutability": "nonpayable",
      "type": "function"
    },
    {
      "inputs": [
        {
          "internalType": "address",
          "name": "addr",
          "type": "address"
        }
      ],
      "name": "setExternalSCConfigAddress",
      "outputs": [],
      "stateMutability": "nonpayable",
      "type": "function"
    },
    {
      "inputs": [
        {
          "internalType": "address",
          "name": "addr",
          "type": "address"
        }
      ],
      "name": "setWalletAddressMap",
      "outputs": [],
      "stateMutability": "nonpayable",
      "type": "function"
    },
    {
      "inputs": [
        {
          "internalType": "address",
          "name": "addr",
          "type": "address"
        }
      ],
      "name": "setApprovalWalletAddress",
      "outputs": [],
      "stateMutability": "nonpayable",
      "type": "function"
    },
    {
      "inputs": [
        {
          "internalType": "address",
          "name": "addr",
          "type": "address"
        }
      ],
      "name": "setWithdrawSmartContract",
      "outputs": [],
      "stateMutability": "nonpayable",
      "type": "function"
    },
    {
      "inputs": [],
      "name": "getInnetPlatformWalletAddress",
      "outputs": [
        {
          "internalType": "address",
          "name": "",
          "type": "address"
        }
      ],
      "stateMutability": "view",
      "type": "function"
    },
    {
      "inputs": [],
      "name": "getMainnetPlatformWalletAddress",
      "outputs": [
        {
          "internalType": "address",
          "name": "",
          "type": "address"
        }
      ],
      "stateMutability": "view",
      "type": "function"
    },
    {
      "inputs": [],
      "name": "getApprovalWalletAddress",
      "outputs": [
        {
          "internalType": "address",
          "name": "",
          "type": "address"
        }
      ],
      "stateMutability": "view",
      "type": "function"
    },
    {
      "inputs": [],
      "name": "getExternalSCConfigAddress",
      "outputs": [
        {
          "internalType": "address",
          "name": "",
          "type": "address"
        }
      ],
      "stateMutability": "view",
      "type": "function"
    },
    {
      "inputs": [],
      "name": "getWalletAddressMap",
      "outputs": [
        {
          "internalType": "address",
          "name": "",
          "type": "address"
        }
      ],
      "stateMutability": "view",
      "type": "function"
    },
    {
      "inputs": [],
      "name": "getWithdrawSmartContract",
      "outputs": [
        {
          "internalType": "address",
          "name": "",
          "type": "address"
        }
      ],
      "stateMutability": "view",
      "type": "function"
    },
    {
      "inputs": [
        {
          "internalType": "string",
          "name": "asset",
          "type": "string"
        }
      ],
      "name": "getErc20SmartContractAddrByAssetName",
      "outputs": [
        {
          "internalType": "address",
          "name": "",
          "type": "address"
        }
      ],
      "stateMutability": "view",
      "type": "function"
    }
  ],
  "bytecode": "0x608060405234801561001057600080fd5b5060006100246001600160e01b036100b816565b6001600160a01b0381166000818152600160208190526040808320805460ff191683179055825491820183558280527f290decd9548b62a8d60345a988386fc84ba6bc95484008f6362f93160ef3e56390910180546001600160a01b031916841790555192935090917f8be0079c531659141344cd1fd0a4f28419497f9722a3daafe3b4186f6b6457e0908290a3506100bc565b3390565b610e30806100cb6000396000f3fe608060405234801561001057600080fd5b50600436106101215760003560e01c8063715018a6116100ad578063a60210c511610071578063a60210c514610388578063c450700114610390578063cbf1a9ab146103b6578063d8a1bb37146103be578063ef18374a146103e457610121565b8063715018a6146102d457806381f13200146102dc578063857cdcfe14610302578063a0d5de4214610328578063a0e67e2b1461033057610121565b80633c4e98ae116100f45780633c4e98ae146101d25780633d0a60f0146101f85780633f2f20421461029e5780636d35204b146102a65780637065cb48146102ae57610121565b80631411ed1114610126578063173825d91461014e5780632f54bf6e146101745780633858bbf8146101ae575b600080fd5b61014c6004803603602081101561013c57600080fd5b50356001600160a01b03166103fe565b005b61014c6004803603602081101561016457600080fd5b50356001600160a01b031661048d565b61019a6004803603602081101561018a57600080fd5b50356001600160a01b0316610655565b604080519115158252519081900360200190f35b6101b6610673565b604080516001600160a01b039092168252519081900360200190f35b61014c600480360360208110156101e857600080fd5b50356001600160a01b0316610682565b6101b66004803603602081101561020e57600080fd5b81019060208101813564010000000081111561022957600080fd5b82018360208201111561023b57600080fd5b8035906020019184600183028401116401000000008311171561025d57600080fd5b91908080601f016020809104026020016040519081016040528093929190818152602001838380828437600092019190915250929550610711945050505050565b6101b66107f2565b6101b6610801565b61014c600480360360208110156102c457600080fd5b50356001600160a01b0316610810565b61014c610981565b61014c600480360360208110156102f257600080fd5b50356001600160a01b0316610afe565b61014c6004803603602081101561031857600080fd5b50356001600160a01b0316610b8d565b6101b6610c1c565b610338610c2b565b60408051602080825283518183015283519192839290830191858101910280838360005b8381101561037457818101518382015260200161035c565b505050509050019250505060405180910390f35b6101b6610c8d565b61014c600480360360208110156103a657600080fd5b50356001600160a01b0316610c9c565b6101b6610d2b565b61014c600480360360208110156103d457600080fd5b50356001600160a01b0316610d3a565b6103ec610dc9565b60408051918252519081900360200190f35b6000610408610dcf565b6001600160a01b03811660009081526001602081905260409091205491925060ff90911615151461046a5760405162461bcd60e51b8152600401808060200182810382526027815260200180610dd46027913960400191505060405180910390fd5b50600280546001600160a01b0319166001600160a01b0392909216919091179055565b6000610497610dcf565b6001600160a01b03811660009081526001602081905260409091205491925060ff9091161515146104f95760405162461bcd60e51b8152600401808060200182810382526027815260200180610dd46027913960400191505060405180910390fd5b6001600160a01b038216600090815260016020526040902054829060ff1661052057600080fd5b6001600160a01b0383166000908152600160205260408120805460ff191690558054905b818110156105ed57846001600160a01b03166000828154811061056357fe5b6000918252602090912001546001600160a01b031614156105e5576000600183038154811061058e57fe5b600091825260208220015481546001600160a01b039091169190839081106105b257fe5b9060005260206000200160006101000a8154816001600160a01b0302191690836001600160a01b031602179055506105ed565b600101610544565b5060008054806105f957fe5b600082815260208120820160001990810180546001600160a01b03191690559091019091556040516001600160a01b038616917f58619076adf5bb0943d100ef88d52d7c3fd691b19d3a9071b555b651fbf418da91a250505050565b6001600160a01b031660009081526001602052604090205460ff1690565b6003546001600160a01b031690565b600061068c610dcf565b6001600160a01b03811660009081526001602081905260409091205491925060ff9091161515146106ee5760405162461bcd60e51b8152600401808060200182810382526027815260200180610dd46027913960400191505060405180910390fd5b50600480546001600160a01b0319166001600160a01b0392909216919091179055565b6005546040516303d0a60f60e41b81526020600482018181528451602484015284516000946001600160a01b0316938493633d0a60f093889390928392604490910191908501908083838c5b8381101561077557818101518382015260200161075d565b50505050905090810190601f1680156107a25780820380516001836020036101000a031916815260200191505b509250505060206040518083038186803b1580156107bf57600080fd5b505afa1580156107d3573d6000803e3d6000fd5b505050506040513d60208110156107e957600080fd5b50519392505050565b6007546001600160a01b031690565b6005546001600160a01b031690565b600061081a610dcf565b6001600160a01b03811660009081526001602081905260409091205491925060ff90911615151461087c5760405162461bcd60e51b8152600401808060200182810382526027815260200180610dd46027913960400191505060405180910390fd5b6001600160a01b038216600090815260016020819052604090912054839160ff909116151514156108f4576040805162461bcd60e51b815260206004820152601b60248201527f4164647265737320616c726561647920697320616e206f776e65720000000000604482015290519081900360640190fd5b6001600160a01b0383166000818152600160208190526040808320805460ff191683179055825491820183558280527f290decd9548b62a8d60345a988386fc84ba6bc95484008f6362f93160ef3e56390910180546001600160a01b03191684179055517f994a936646fe87ffe4f1e469d3d6aa417d6b855598397f323de5b449f765f0c39190a2505050565b600061098b610dcf565b6001600160a01b03811660009081526001602081905260409091205491925060ff9091161515146109ed5760405162461bcd60e51b8152600401808060200182810382526027815260200180610dd46027913960400191505060405180910390fd5b60006109f7610dcf565b6001600160a01b0381166000908152600160205260408120805460ff191690559091505b60005460001901811015610acc57816001600160a01b031660008281548110610a4057fe5b6000918252602090912001546001600160a01b03161415610ac457600080546000198101908110610a6d57fe5b600091825260208220015481546001600160a01b03909116919083908110610a9157fe5b9060005260206000200160006101000a8154816001600160a01b0302191690836001600160a01b03160217905550610acc565b600101610a1b565b506000805480610ad857fe5b600082815260209020810160001990810180546001600160a01b03191690550190555050565b6000610b08610dcf565b6001600160a01b03811660009081526001602081905260409091205491925060ff909116151514610b6a5760405162461bcd60e51b8152600401808060200182810382526027815260200180610dd46027913960400191505060405180910390fd5b50600780546001600160a01b0319166001600160a01b0392909216919091179055565b6000610b97610dcf565b6001600160a01b03811660009081526001602081905260409091205491925060ff909116151514610bf95760405162461bcd60e51b8152600401808060200182810382526027815260200180610dd46027913960400191505060405180910390fd5b50600680546001600160a01b0319166001600160a01b0392909216919091179055565b6006546001600160a01b031690565b60606000805480602002602001604051908101604052809291908181526020018280548015610c8357602002820191906000526020600020905b81546001600160a01b03168152600190910190602001808311610c65575b5050505050905090565b6002546001600160a01b031690565b6000610ca6610dcf565b6001600160a01b03811660009081526001602081905260409091205491925060ff909116151514610d085760405162461bcd60e51b8152600401808060200182810382526027815260200180610dd46027913960400191505060405180910390fd5b50600380546001600160a01b0319166001600160a01b0392909216919091179055565b6004546001600160a01b031690565b6000610d44610dcf565b6001600160a01b03811660009081526001602081905260409091205491925060ff909116151514610da65760405162461bcd60e51b8152600401808060200182810382526027815260200180610dd46027913960400191505060405180910390fd5b50600580546001600160a01b0319166001600160a01b0392909216919091179055565b60005490565b339056fe4f776e61626c653a2063616c6c6572206973206e6f74206f6e65206f6620746865206f776e6572a264697066735822122091f24f2bbfddcd2ecfee102cc180bdd7c410a01994429dfe6a68d71b933d973064736f6c63430006020033",
  "source": "pragma solidity >=0.6.0 <0.8.0;\nimport \"../utils/ownable/MultiOwnable.sol\";\nimport \"./ExternalSmartContractConfig.sol\";\n\ncontract DummyInternalSmartContractConfig is MultiOwnable{\n\n    address mainnetWalletAddress;\n    address innetWalletAddress;\n    address approvalWalletAddress;\n    address externalSCConfigAddress;\n    address walletAddressMap;\n    address withdrawSmartContract;\n\n    constructor()public{}\n\n    function setMainnetWalletAddress(address addr)public onlyOwner{\n        mainnetWalletAddress = addr;\n    }\n\n    function setInnetWalletAddress(address addr)public onlyOwner{\n        innetWalletAddress=addr;\n    }\n\n    function setExternalSCConfigAddress(address addr)public onlyOwner{\n        externalSCConfigAddress = addr;\n    }\n\n    function setWalletAddressMap(address addr) public onlyOwner{\n        walletAddressMap = addr;\n    }\n\n    function setApprovalWalletAddress(address addr) public onlyOwner{\n        approvalWalletAddress = addr;\n    }\n\n    function setWithdrawSmartContract(address addr) public onlyOwner{\n        withdrawSmartContract = addr;\n    }\n    \n    function getInnetPlatformWalletAddress()public view returns (address){\n        return innetWalletAddress;\n    }\n\n    function getMainnetPlatformWalletAddress()public view returns (address){\n        return mainnetWalletAddress;\n    }\n\n    function getApprovalWalletAddress()public view returns (address){\n        return approvalWalletAddress;\n    }\n\n    function getExternalSCConfigAddress() public view returns(address){\n        return externalSCConfigAddress;\n    }\n\n    function getWalletAddressMap() public view returns(address){\n        return walletAddressMap;\n    }\n\n    function getWithdrawSmartContract() public view returns(address){\n        return withdrawSmartContract;\n    }\n\n    function getErc20SmartContractAddrByAssetName(string memory asset)public view returns(address) {\n        ExternalSmartContractConfig exConfig = ExternalSmartContractConfig(externalSCConfigAddress);\n        return exConfig.getErc20SmartContractAddrByAssetName(asset);\n   }\n}",
  "sourcePath": "/Users/duncanto/Documents/WorkingSet2/src/eurus-backend/smartcontract/contracts/config/DummyInternalSmartContractConfig.sol",
  "compiler": {
    "name": "solc",
    "version": "0.6.2+commit.bacdbe57.Emscripten.clang"
  },
  "schemaVersion": "3.4.1",
  "updatedAt": "2021-08-04T10:30:06.097Z",
  "devdoc": {
    "methods": {
      "renounceOwnership()": {
        "details": "Leaves the contract without owner. It will not be possible to call `onlyOwner` functions anymore. Can only be called by the current owner.     * NOTE: Renouncing ownership will leave the contract without an owner, thereby removing any functionality that is only available to the owner."
      }
    }
  },
  "userdoc": {
    "methods": {}
  }
}