{
  "contractName": "EtherForwardOwnedUpgradeabilityProxy",
  "abi": [
    {
      "anonymous": false,
      "inputs": [
        {
          "indexed": true,
          "internalType": "address",
          "name": "sender",
          "type": "address"
        },
        {
          "indexed": true,
          "internalType": "uint256",
          "name": "amount",
          "type": "uint256"
        }
      ],
      "name": "DepositETH",
      "type": "event"
    },
    {
      "anonymous": false,
      "inputs": [
        {
          "indexed": false,
          "internalType": "address",
          "name": "previousOwner",
          "type": "address"
        },
        {
          "indexed": false,
          "internalType": "address",
          "name": "newOwner",
          "type": "address"
        }
      ],
      "name": "ProxyOwnershipTransferred",
      "type": "event"
    },
    {
      "anonymous": false,
      "inputs": [
        {
          "indexed": true,
          "internalType": "address",
          "name": "implementation",
          "type": "address"
        }
      ],
      "name": "Upgraded",
      "type": "event"
    },
    {
      "stateMutability": "payable",
      "type": "fallback"
    },
    {
      "inputs": [],
      "name": "implementation",
      "outputs": [
        {
          "internalType": "address",
          "name": "impl",
          "type": "address"
        }
      ],
      "stateMutability": "view",
      "type": "function"
    },
    {
      "inputs": [],
      "name": "proxyOwner",
      "outputs": [
        {
          "internalType": "address",
          "name": "owner",
          "type": "address"
        }
      ],
      "stateMutability": "view",
      "type": "function"
    },
    {
      "inputs": [
        {
          "internalType": "address",
          "name": "newOwner",
          "type": "address"
        }
      ],
      "name": "transferProxyOwnership",
      "outputs": [],
      "stateMutability": "nonpayable",
      "type": "function"
    },
    {
      "inputs": [
        {
          "internalType": "address",
          "name": "implementation",
          "type": "address"
        }
      ],
      "name": "upgradeTo",
      "outputs": [],
      "stateMutability": "nonpayable",
      "type": "function"
    },
    {
      "inputs": [
        {
          "internalType": "address",
          "name": "implementation",
          "type": "address"
        },
        {
          "internalType": "bytes",
          "name": "data",
          "type": "bytes"
        }
      ],
      "name": "upgradeToAndCall",
      "outputs": [],
      "stateMutability": "payable",
      "type": "function"
    },
    {
      "stateMutability": "payable",
      "type": "receive"
    },
    {
      "inputs": [],
      "name": "getEtherForwardAddress",
      "outputs": [
        {
          "internalType": "address",
          "name": "",
          "type": "address"
        }
      ],
      "stateMutability": "view",
      "type": "function"
    },
    {
      "inputs": [
        {
          "internalType": "address",
          "name": "ethForwardAddr",
          "type": "address"
        }
      ],
      "name": "setEtherForwardAddress",
      "outputs": [],
      "stateMutability": "nonpayable",
      "type": "function"
    }
  ],
  "bytecode": "0x6080604052610016336001600160e01b0361007416565b60008054600181810183557f290decd9548b62a8d60345a988386fc84ba6bc95484008f6362f93160ef3e56390910180546001600160a01b03191633908117909155825260208190526040909120805460ff191690911790556100a9565b604080517f6f72672e7a657070656c696e6f732e70726f78792e6f776e65720000000000008152905190819003601a01902055565b610650806100b86000396000f3fe6080604052600436106100745760003560e01c80633a38c2681161004e5780633a38c268146101d05780634f1ef286146101e55780635c60da1b1461029b578063f1739cae146102b0576100b5565b8063025313a2146101375780632436341d146101685780633659cfe61461019d576100b5565b366100b5576002546040516001600160a01b03909116903480156108fc02916000818181858888f193505050501580156100b2573d6000803e3d6000fd5b50005b60006100bf6102e3565b90506001600160a01b038116610112576040805162461bcd60e51b81526020600482015260136024820152720496d706c656d656e746174696f6e206973203606c1b604482015290519081900360640190fd5b60405136600082376000803683855af43d806000843e818015610133578184f35b8184fd5b34801561014357600080fd5b5061014c610306565b604080516001600160a01b039092168252519081900360200190f35b34801561017457600080fd5b5061019b6004803603602081101561018b57600080fd5b50356001600160a01b031661033c565b005b3480156101a957600080fd5b5061019b600480360360208110156101c057600080fd5b50356001600160a01b0316610383565b3480156101dc57600080fd5b5061014c6103b4565b61019b600480360360408110156101fb57600080fd5b6001600160a01b03823516919081019060408101602082013564010000000081111561022657600080fd5b82018360208201111561023857600080fd5b8035906020019184600183028401116401000000008311171561025a57600080fd5b91908080601f0160208091040260200160405190810160405280939291908181526020018383808284376000920191909152509295506103c3945050505050565b3480156102a757600080fd5b5061014c6102e3565b3480156102bc57600080fd5b5061019b600480360360208110156102d357600080fd5b50356001600160a01b03166104a8565b60008060405180806105f860239139604051908190036023019020549392505050565b604080517f6f72672e7a657070656c696e6f732e70726f78792e6f776e65720000000000008152905190819003601a0190205490565b610344610306565b6001600160a01b0316336001600160a01b03161461036157600080fd5b600280546001600160a01b0319166001600160a01b0392909216919091179055565b61038b610306565b6001600160a01b0316336001600160a01b0316146103a857600080fd5b6103b181610534565b50565b6002546001600160a01b031690565b6103cb610306565b6001600160a01b0316336001600160a01b0316146103e857600080fd5b6103f182610383565b6000306001600160a01b031634836040518082805190602001908083835b6020831061042e5780518252601f19909201916020918201910161040f565b6001836020036101000a03801982511681845116808217855250505050505090500191505060006040518083038185875af1925050503d8060008114610490576040519150601f19603f3d011682016040523d82523d6000602084013e610495565b606091505b50509050806104a357600080fd5b505050565b6104b0610306565b6001600160a01b0316336001600160a01b0316146104cd57600080fd5b6001600160a01b0381166104e057600080fd5b7f5a3e66efaa1e445ebd894728a69d6959842ea1e97bd79b892797106e270efcd9610509610306565b604080516001600160a01b03928316815291841660208301528051918290030190a16103b1816105a0565b600061053e6102e3565b9050816001600160a01b0316816001600160a01b0316141561055f57600080fd5b610568826105d5565b6040516001600160a01b038316907fbc7cd75a20ee27fd9adebab32041f755214dbc6bffa90cc0225b39da2e5c2d3b90600090a25050565b604080517f6f72672e7a657070656c696e6f732e70726f78792e6f776e65720000000000008152905190819003601a01902055565b600060405180806105f86023913960405190819003602301902092909255505056fe6f72672e7a657070656c696e6f732e70726f78792e696d706c656d656e746174696f6ea2646970667358221220a7acea4c8d450cacbe0a9b150b7b99cf3cd182a1dc9e4643c3d30688c8e37d6c64736f6c63430006020033",
  "source": "pragma solidity >=0.6.0 <0.8.0;\n\nimport './OwnedUpgradeabilityProxy.sol';\n\ncontract EtherForwardOwnedUpgradeabilityProxy is OwnedUpgradeabilityProxy {\n  address payable private etherForwardAddress;\n\n  receive() external override payable {\n    etherForwardAddress.transfer(msg.value);\n  }\n\n  function getEtherForwardAddress() public view returns (address) {\n    return etherForwardAddress;\n  }\n\n  function setEtherForwardAddress(address ethForwardAddr) public onlyProxyOwner {\n    etherForwardAddress = payable(ethForwardAddr);\n  }\n}\n",
  "sourcePath": "/Users/duncanto/Documents/WorkingSet2/src/eurus-backend/smartcontract/contracts/utils/proxy/EtherForwardOwnedUpgradeabilityProxy.sol",
  "compiler": {
    "name": "solc",
    "version": "0.6.2+commit.bacdbe57.Emscripten.clang"
  },
  "schemaVersion": "3.4.1",
  "updatedAt": "2021-08-10T10:28:02.170Z",
  "devdoc": {
    "methods": {
      "implementation()": {
        "details": "Tells the address of the current implementation",
        "returns": {
          "impl": "address of the current implementation"
        }
      },
      "proxyOwner()": {
        "details": "Tells the address of the owner",
        "returns": {
          "owner": "the address of the owner"
        }
      },
      "transferProxyOwnership(address)": {
        "details": "Allows the current owner to transfer control of the contract to a newOwner.",
        "params": {
          "newOwner": "The address to transfer ownership to."
        }
      },
      "upgradeTo(address)": {
        "details": "Allows the proxy owner to upgrade the current version of the proxy.",
        "params": {
          "implementation": "representing the address of the new implementation to be set."
        }
      },
      "upgradeToAndCall(address,bytes)": {
        "details": "Allows the proxy owner to upgrade the current version of the proxy and call the new implementation to initialize whatever is needed through a low level call.",
        "params": {
          "data": "represents the msg.data to bet sent in the low level call. This parameter may include the function signature of the implementation to be called with the needed payload",
          "implementation": "representing the address of the new implementation to be set."
        }
      }
    }
  },
  "userdoc": {
    "methods": {}
  }
}