{
  "contractName": "EurusInternalConfig",
  "abi": [
    {
      "inputs": [],
      "stateMutability": "nonpayable",
      "type": "constructor"
    },
    {
      "anonymous": false,
      "inputs": [
        {
          "indexed": false,
          "internalType": "string",
          "name": "",
          "type": "string"
        }
      ],
      "name": "Event",
      "type": "event"
    },
    {
      "anonymous": false,
      "inputs": [
        {
          "indexed": true,
          "internalType": "address",
          "name": "owner",
          "type": "address"
        }
      ],
      "name": "OwnerAdded",
      "type": "event"
    },
    {
      "anonymous": false,
      "inputs": [
        {
          "indexed": true,
          "internalType": "address",
          "name": "owner",
          "type": "address"
        }
      ],
      "name": "OwnerRemoved",
      "type": "event"
    },
    {
      "anonymous": false,
      "inputs": [
        {
          "indexed": true,
          "internalType": "address",
          "name": "previousOwner",
          "type": "address"
        },
        {
          "indexed": true,
          "internalType": "address",
          "name": "newOwner",
          "type": "address"
        }
      ],
      "name": "OwnershipTransferred",
      "type": "event"
    },
    {
      "inputs": [
        {
          "internalType": "address",
          "name": "newOwner",
          "type": "address"
        }
      ],
      "name": "addOwner",
      "outputs": [],
      "stateMutability": "nonpayable",
      "type": "function"
    },
    {
      "inputs": [
        {
          "internalType": "uint256",
          "name": "",
          "type": "uint256"
        }
      ],
      "name": "addressList",
      "outputs": [
        {
          "internalType": "address",
          "name": "",
          "type": "address"
        }
      ],
      "stateMutability": "view",
      "type": "function"
    },
    {
      "inputs": [],
      "name": "eurusUserDepositAddress",
      "outputs": [
        {
          "internalType": "address",
          "name": "",
          "type": "address"
        }
      ],
      "stateMutability": "view",
      "type": "function"
    },
    {
      "inputs": [],
      "name": "getOwnerCount",
      "outputs": [
        {
          "internalType": "uint256",
          "name": "",
          "type": "uint256"
        }
      ],
      "stateMutability": "view",
      "type": "function"
    },
    {
      "inputs": [],
      "name": "getOwners",
      "outputs": [
        {
          "internalType": "address[]",
          "name": "",
          "type": "address[]"
        }
      ],
      "stateMutability": "view",
      "type": "function"
    },
    {
      "inputs": [
        {
          "internalType": "address",
          "name": "addr",
          "type": "address"
        }
      ],
      "name": "isOwner",
      "outputs": [
        {
          "internalType": "bool",
          "name": "",
          "type": "bool"
        }
      ],
      "stateMutability": "view",
      "type": "function"
    },
    {
      "inputs": [],
      "name": "platformWalletAddress",
      "outputs": [
        {
          "internalType": "address",
          "name": "",
          "type": "address"
        }
      ],
      "stateMutability": "view",
      "type": "function"
    },
    {
      "inputs": [
        {
          "internalType": "address",
          "name": "owner",
          "type": "address"
        }
      ],
      "name": "removeOwner",
      "outputs": [],
      "stateMutability": "nonpayable",
      "type": "function"
    },
    {
      "inputs": [],
      "name": "renounceOwnership",
      "outputs": [],
      "stateMutability": "nonpayable",
      "type": "function"
    },
    {
      "inputs": [
        {
          "internalType": "address",
          "name": "_currencyAddr",
          "type": "address"
        },
        {
          "internalType": "string",
          "name": "asset",
          "type": "string"
        }
      ],
      "name": "addCurrencyInfo",
      "outputs": [],
      "stateMutability": "nonpayable",
      "type": "function"
    },
    {
      "inputs": [
        {
          "internalType": "string",
          "name": "asset",
          "type": "string"
        }
      ],
      "name": "removeCurrencyInfo",
      "outputs": [],
      "stateMutability": "nonpayable",
      "type": "function"
    },
    {
      "inputs": [
        {
          "internalType": "string",
          "name": "asset",
          "type": "string"
        }
      ],
      "name": "getErc20SmartContractAddrByAssetName",
      "outputs": [
        {
          "internalType": "address",
          "name": "",
          "type": "address"
        }
      ],
      "stateMutability": "view",
      "type": "function"
    },
    {
      "inputs": [
        {
          "internalType": "address",
          "name": "_currencyAddr",
          "type": "address"
        }
      ],
      "name": "getErc20SmartContractByAddr",
      "outputs": [
        {
          "internalType": "string",
          "name": "",
          "type": "string"
        }
      ],
      "stateMutability": "view",
      "type": "function"
    },
    {
      "inputs": [
        {
          "internalType": "address",
          "name": "coldWalletAddr",
          "type": "address"
        }
      ],
      "name": "setPlatformWalletAddress",
      "outputs": [],
      "stateMutability": "nonpayable",
      "type": "function"
    },
    {
      "inputs": [
        {
          "internalType": "address",
          "name": "userDepositAddr",
          "type": "address"
        }
      ],
      "name": "setEurusUserDepositAddress",
      "outputs": [],
      "stateMutability": "nonpayable",
      "type": "function"
    },
    {
      "inputs": [],
      "name": "getAssetAddress",
      "outputs": [
        {
          "internalType": "string[]",
          "name": "",
          "type": "string[]"
        },
        {
          "internalType": "address[]",
          "name": "",
          "type": "address[]"
        }
      ],
      "stateMutability": "view",
      "type": "function"
    }
  ],
  "bytecode": "0x608060405234801561001057600080fd5b5060006100246001600160e01b036100b816565b6001600160a01b0381166000818152600160208190526040808320805460ff191683179055825491820183558280527f290decd9548b62a8d60345a988386fc84ba6bc95484008f6362f93160ef3e56390910180546001600160a01b031916841790555192935090917f8be0079c531659141344cd1fd0a4f28419497f9722a3daafe3b4186f6b6457e0908290a3506100bc565b3390565b611479806100cb6000396000f3fe608060405234801561001057600080fd5b50600436106101005760003560e01c8063715018a611610097578063aa8c2ef111610066578063aa8c2ef11461020a578063b2e9050e1461021d578063b810fb4314610225578063ef18374a1461023857610100565b8063715018a6146101d257806372f81733146101da5780639f2a6374146101ed578063a0e67e2b146101f557610100565b80633d0a60f0116100d35780633d0a60f0146101695780635f3820fd14610189578063670ab5e9146101a95780637065cb48146101bf57610100565b80630f66056914610105578063173825d91461011a5780632f54bf6e1461012d578063378f80cc14610156575b600080fd5b610118610113366004611150565b61024d565b005b6101186101283660046110c9565b610529565b61014061013b3660046110c9565b6106d2565b60405161014d9190611339565b60405180910390f35b6101186101643660046110c9565b6106f0565b61017c610177366004611150565b610760565b60405161014d919061129e565b61019c6101973660046110c9565b610792565b60405161014d9190611344565b6101b161083d565b60405161014d9291906112c5565b6101186101cd3660046110c9565b61097a565b610118610a97565b6101186101e83660046110f7565b610bf5565b61017c610dd5565b6101fd610de4565b60405161014d91906112b2565b6101186102183660046110c9565b610e47565b61017c610eb7565b61017c61023336600461118b565b610ec6565b610240610eed565b60405161014d919061140a565b6000610257610ef3565b6001600160a01b03811660009081526001602081905260409091205491925060ff9091161515146102a35760405162461bcd60e51b815260040161029a9061138c565b60405180910390fd5b60405180602001604052806000815250600360006002856040516102c79190611212565b9081526040805160209281900383019020546001600160a01b0316835282820193909352910160002082516103029391929190910190610ef7565b5060006002836040516103159190611212565b9081526040519081900360200181206002908101805493151560ff19909416939093179092556000919061034a908590611212565b90815260405190819003602001902080546001600160a01b03929092166001600160a01b03199092169190911790556000805b6004548110156104c657836040516020016103989190611212565b60405160208183030381529060405280519060200120600482815481106103bb57fe5b906000526020600020016040516020016103d5919061122e565b6040516020818303038152906040528051906020012014156104be576004546001116104b55760048054600019810190811061040d57fe5b906000526020600020016004828154811061042457fe5b90600052602060002001908054600181600116156101000203166002900461044d929190610f75565b5060058054600019810190811061046057fe5b600091825260209091200154600580546001600160a01b03909216918390811061048657fe5b9060005260206000200160006101000a8154816001600160a01b0302191690836001600160a01b031602179055505b600191506104c6565b60010161037d565b5080156105245760048054806104d857fe5b6001900381819060005260206000200160006104f49190610fea565b9055600580548061050157fe5b600082815260209020810160001990810180546001600160a01b03191690550190555b505050565b6000610533610ef3565b6001600160a01b03811660009081526001602081905260409091205491925060ff9091161515146105765760405162461bcd60e51b815260040161029a9061138c565b6001600160a01b038216600090815260016020526040902054829060ff1661059d57600080fd5b6001600160a01b0383166000908152600160205260408120805460ff191690558054905b8181101561066a57846001600160a01b0316600082815481106105e057fe5b6000918252602090912001546001600160a01b03161415610662576000600183038154811061060b57fe5b600091825260208220015481546001600160a01b0390911691908390811061062f57fe5b9060005260206000200160006101000a8154816001600160a01b0302191690836001600160a01b0316021790555061066a565b6001016105c1565b50600080548061067657fe5b600082815260208120820160001990810180546001600160a01b03191690559091019091556040516001600160a01b038616917f58619076adf5bb0943d100ef88d52d7c3fd691b19d3a9071b555b651fbf418da91a250505050565b6001600160a01b031660009081526001602052604090205460ff1690565b60006106fa610ef3565b6001600160a01b03811660009081526001602081905260409091205491925060ff90911615151461073d5760405162461bcd60e51b815260040161029a9061138c565b50600780546001600160a01b0319166001600160a01b0392909216919091179055565b60006002826040516107729190611212565b908152604051908190036020019020546001600160a01b03169050919050565b6001600160a01b03811660009081526003602090815260409182902080548351601f60026000196101006001861615020190931692909204918201849004840281018401909452808452606093928301828280156108315780601f1061080657610100808354040283529160200191610831565b820191906000526020600020905b81548152906001019060200180831161081457829003601f168201915b50505050509050919050565b6060806004600581805480602002602001604051908101604052809291908181526020016000905b828210156109105760008481526020908190208301805460408051601f60026000196101006001871615020190941693909304928301859004850281018501909152818152928301828280156108fc5780601f106108d1576101008083540402835291602001916108fc565b820191906000526020600020905b8154815290600101906020018083116108df57829003601f168201915b505050505081526020019060010190610865565b5050505091508080548060200260200160405190810160405280929190818152602001828054801561096b57602002820191906000526020600020905b81546001600160a01b0316815260019091019060200180831161094d575b50505050509050915091509091565b6000610984610ef3565b6001600160a01b03811660009081526001602081905260409091205491925060ff9091161515146109c75760405162461bcd60e51b815260040161029a9061138c565b6001600160a01b038216600090815260016020819052604090912054839160ff90911615151415610a0a5760405162461bcd60e51b815260040161029a906113d3565b6001600160a01b0383166000818152600160208190526040808320805460ff191683179055825491820183558280527f290decd9548b62a8d60345a988386fc84ba6bc95484008f6362f93160ef3e56390910180546001600160a01b03191684179055517f994a936646fe87ffe4f1e469d3d6aa417d6b855598397f323de5b449f765f0c39190a2505050565b6000610aa1610ef3565b6001600160a01b03811660009081526001602081905260409091205491925060ff909116151514610ae45760405162461bcd60e51b815260040161029a9061138c565b6000610aee610ef3565b6001600160a01b0381166000908152600160205260408120805460ff191690559091505b60005460001901811015610bc357816001600160a01b031660008281548110610b3757fe5b6000918252602090912001546001600160a01b03161415610bbb57600080546000198101908110610b6457fe5b600091825260208220015481546001600160a01b03909116919083908110610b8857fe5b9060005260206000200160006101000a8154816001600160a01b0302191690836001600160a01b03160217905550610bc3565b600101610b12565b506000805480610bcf57fe5b600082815260209020810160001990810180546001600160a01b03191690550190555050565b6000610bff610ef3565b6001600160a01b03811660009081526001602081905260409091205491925060ff909116151514610c425760405162461bcd60e51b815260040161029a9061138c565b81600281604051610c539190611212565b9081526040519081900360200190206002015460ff16151560011415610c8b5760405162461bcd60e51b815260040161029a90611357565b604080516060810182526001600160a01b0386168152602081018590526001818301529051600290610cbe908690611212565b90815260405160209181900382019020825181546001600160a01b0319166001600160a01b039091161781558282015180519192610d0492600185019290910190610ef7565b50604091820151600291909101805460ff19169115159190911790556001600160a01b0385166000908152600360209081529190208451610d4792860190610ef7565b506005805460018082019092557f036b6384b5eca791c62761152d0c79bb0604c104a5fb6f4eb0703f3154bb3db00180546001600160a01b0319166001600160a01b0387161790556004805491820181556000528351610dce917f8a35acfbc15ff81a39ae7d344fd709f28e8600b4aa8c65c6b64bfe7fe36bd19b01906020860190610ef7565b5050505050565b6006546001600160a01b031681565b60606000805480602002602001604051908101604052809291908181526020018280548015610e3c57602002820191906000526020600020905b81546001600160a01b03168152600190910190602001808311610e1e575b505050505090505b90565b6000610e51610ef3565b6001600160a01b03811660009081526001602081905260409091205491925060ff909116151514610e945760405162461bcd60e51b815260040161029a9061138c565b50600680546001600160a01b0319166001600160a01b0392909216919091179055565b6007546001600160a01b031681565b60058181548110610ed357fe5b6000918252602090912001546001600160a01b0316905081565b60005490565b3390565b828054600181600116156101000203166002900490600052602060002090601f016020900481019282601f10610f3857805160ff1916838001178555610f65565b82800160010185558215610f65579182015b82811115610f65578251825591602001919060010190610f4a565b50610f71929150611031565b5090565b828054600181600116156101000203166002900490600052602060002090601f016020900481019282601f10610fae5780548555610f65565b82800160010185558215610f6557600052602060002091601f016020900482015b82811115610f65578254825591600101919060010190610fcf565b50805460018160011615610100020316600290046000825580601f10611010575061102e565b601f01602090049060005260206000209081019061102e9190611031565b50565b610e4491905b80821115610f715760008155600101611037565b600082601f83011261105b578081fd5b813567ffffffffffffffff80821115611072578283fd5b604051601f8301601f191681016020018281118282101715611092578485fd5b6040528281529250828483016020018610156110ad57600080fd5b8260208601602083013760006020848301015250505092915050565b6000602082840312156110da578081fd5b81356001600160a01b03811681146110f0578182fd5b9392505050565b60008060408385031215611109578081fd5b82356001600160a01b038116811461111f578182fd5b9150602083013567ffffffffffffffff81111561113a578182fd5b6111468582860161104b565b9150509250929050565b600060208284031215611161578081fd5b813567ffffffffffffffff811115611177578182fd5b6111838482850161104b565b949350505050565b60006020828403121561119c578081fd5b5035919050565b6000815180845260208085019450808401835b838110156111db5781516001600160a01b0316875295820195908201906001016111b6565b509495945050505050565b600081518084526111fe816020860160208601611413565b601f01601f19169290920160200192915050565b60008251611224818460208701611413565b9190910192915050565b600080835460018082166000811461124d576001811461126457611293565b60ff198316865260028304607f1686019350611293565b600283048786526020808720875b8381101561128b5781548a820152908501908201611272565b505050860193505b509195945050505050565b6001600160a01b0391909116815260200190565b6000602082526110f060208301846111a3565b60006040820160408352808551808352606085019150602092506060838202860101838801855b8381101561131a57605f198884030185526113088383516111e6565b948601949250908501906001016112ec565b50508581038487015261132d81886111a3565b98975050505050505050565b901515815260200190565b6000602082526110f060208301846111e6565b6020808252818101527f496e76616c696420746f2061646420616e206164646564206164647265737321604082015260600190565b60208082526027908201527f4f776e61626c653a2063616c6c6572206973206e6f74206f6e65206f66207468604082015266329037bbb732b960c91b606082015260800190565b6020808252601b908201527f4164647265737320616c726561647920697320616e206f776e65720000000000604082015260600190565b90815260200190565b60005b8381101561142e578181015183820152602001611416565b8381111561143d576000848401525b5050505056fea2646970667358221220e0d61fd51b58c1380b10e6a2a832331d5c83b0d2ec5379f87b00f46f5182404064736f6c63430006020033",
  "source": "pragma solidity >=0.6.0 <0.8.0;\n\npragma experimental ABIEncoderV2;\n\nimport \"../utils/ownable/MultiOwnable.sol\";\n\ncontract EurusInternalConfig is MultiOwnable{\n    struct Currency{\n        address _currencyAddr;\n        string assetName;\n        bool isExist;\n    }\n    mapping(string=>Currency) currencySCMap;\n    mapping(address=>string) currencyAddrMap;\n    string[] currencyList;\n    address[] public addressList;\n    address public platformWalletAddress; //Hot wallet address\n    address public eurusUserDepositAddress;\n\n    modifier onlyNotAddedAddr(string memory assetName) {\n        require(currencySCMap[assetName].isExist!=true, \"Invalid to add an added address!\");\n        _;\n    }\n\n    modifier onlyAddedAddr(string memory assetName) {\n        require(currencySCMap[assetName].isExist==true, \"Invalid to del a non-existing asset!\");\n        _;\n    }\n\n    constructor()public{}\n\n    function addCurrencyInfo(address _currencyAddr, string memory asset)public onlyOwner onlyNotAddedAddr(asset){\n        currencySCMap[asset]=Currency(_currencyAddr,asset,true);\n        currencyAddrMap[_currencyAddr]=asset;\n        addressList.push(_currencyAddr);\n        currencyList.push(asset);\n    }\n    \n    function removeCurrencyInfo(string memory asset) public onlyOwner{\n        currencyAddrMap[currencySCMap[asset]._currencyAddr]=\"\";\n        currencySCMap[asset].isExist=false;\n        currencySCMap[asset]._currencyAddr = address(0);\n        bool found = false;\n        for (uint i=0; i<currencyList.length; i++)\n            //Operator == not compatible with types string memory and string memory\n            //compare strings by hashing the packed encoding values of the string\n            if (keccak256(abi.encodePacked(currencyList[i])) == keccak256(abi.encodePacked(asset))) {\n                if (currencyList.length >= 1){\n                    currencyList[i] = currencyList[currencyList.length - 1];\n                    addressList[i]=addressList[addressList.length - 1];\n                }\n                found = true;\n            break;\n            }\n        if (found){\n            currencyList.pop();\n            addressList.pop();\n        }\n    }\n\n    function getErc20SmartContractAddrByAssetName(string memory asset)public view returns(address) {\n        return currencySCMap[asset]._currencyAddr;\n    }\n\n    function getErc20SmartContractByAddr(address _currencyAddr)public view returns(string memory){\n        return currencyAddrMap[_currencyAddr];\n    }\n\n    function setPlatformWalletAddress(address coldWalletAddr)public onlyOwner{\n        platformWalletAddress=coldWalletAddr;\n    }\n\n    function setEurusUserDepositAddress(address userDepositAddr) public onlyOwner{\n        eurusUserDepositAddress=userDepositAddr;\n    }\n\n    function getAssetAddress()public view returns(string [] memory,  address [] memory){\n        return (currencyList, addressList);\n    }\n}\n",
  "sourcePath": "/Users/duncanto/Documents/WorkingSet2/src/eurus-backend/smartcontract/contracts/config/EurusInternalConfig.sol",
  "compiler": {
    "name": "solc",
    "version": "0.6.2+commit.bacdbe57.Emscripten.clang"
  },
  "schemaVersion": "3.4.1",
  "updatedAt": "2021-08-04T10:30:06.109Z",
  "devdoc": {
    "methods": {
      "renounceOwnership()": {
        "details": "Leaves the contract without owner. It will not be possible to call `onlyOwner` functions anymore. Can only be called by the current owner.     * NOTE: Renouncing ownership will leave the contract without an owner, thereby removing any functionality that is only available to the owner."
      }
    }
  },
  "userdoc": {
    "methods": {}
  }
}