{
  "contractName": "EurusPlatformWallet",
  "abi": [
    {
      "anonymous": false,
      "inputs": [
        {
          "indexed": false,
          "internalType": "string",
          "name": "",
          "type": "string"
        }
      ],
      "name": "Event",
      "type": "event"
    },
    {
      "anonymous": false,
      "inputs": [
        {
          "indexed": true,
          "internalType": "address",
          "name": "owner",
          "type": "address"
        }
      ],
      "name": "OwnerAdded",
      "type": "event"
    },
    {
      "anonymous": false,
      "inputs": [
        {
          "indexed": true,
          "internalType": "address",
          "name": "owner",
          "type": "address"
        }
      ],
      "name": "OwnerRemoved",
      "type": "event"
    },
    {
      "anonymous": false,
      "inputs": [
        {
          "indexed": true,
          "internalType": "address",
          "name": "previousOwner",
          "type": "address"
        },
        {
          "indexed": true,
          "internalType": "address",
          "name": "newOwner",
          "type": "address"
        }
      ],
      "name": "OwnershipTransferred",
      "type": "event"
    },
    {
      "anonymous": false,
      "inputs": [
        {
          "indexed": true,
          "internalType": "address",
          "name": "reader",
          "type": "address"
        }
      ],
      "name": "ReaderAdded",
      "type": "event"
    },
    {
      "anonymous": false,
      "inputs": [
        {
          "indexed": true,
          "internalType": "address",
          "name": "reader",
          "type": "address"
        }
      ],
      "name": "ReaderRemoved",
      "type": "event"
    },
    {
      "anonymous": false,
      "inputs": [
        {
          "indexed": true,
          "internalType": "address",
          "name": "writer",
          "type": "address"
        }
      ],
      "name": "WriterAdded",
      "type": "event"
    },
    {
      "anonymous": false,
      "inputs": [
        {
          "indexed": true,
          "internalType": "address",
          "name": "writer",
          "type": "address"
        }
      ],
      "name": "WriterRemoved",
      "type": "event"
    },
    {
      "inputs": [
        {
          "internalType": "address",
          "name": "newOwner",
          "type": "address"
        }
      ],
      "name": "addOwner",
      "outputs": [],
      "stateMutability": "nonpayable",
      "type": "function"
    },
    {
      "inputs": [
        {
          "internalType": "address",
          "name": "newReader",
          "type": "address"
        }
      ],
      "name": "addReader",
      "outputs": [],
      "stateMutability": "nonpayable",
      "type": "function"
    },
    {
      "inputs": [
        {
          "internalType": "address",
          "name": "newWriter",
          "type": "address"
        }
      ],
      "name": "addWriter",
      "outputs": [],
      "stateMutability": "nonpayable",
      "type": "function"
    },
    {
      "inputs": [],
      "name": "getOwnerCount",
      "outputs": [
        {
          "internalType": "uint256",
          "name": "",
          "type": "uint256"
        }
      ],
      "stateMutability": "view",
      "type": "function"
    },
    {
      "inputs": [],
      "name": "getOwners",
      "outputs": [
        {
          "internalType": "address[]",
          "name": "",
          "type": "address[]"
        }
      ],
      "stateMutability": "view",
      "type": "function"
    },
    {
      "inputs": [],
      "name": "getReaderList",
      "outputs": [
        {
          "internalType": "address[]",
          "name": "",
          "type": "address[]"
        }
      ],
      "stateMutability": "view",
      "type": "function"
    },
    {
      "inputs": [],
      "name": "getWriterList",
      "outputs": [
        {
          "internalType": "address[]",
          "name": "",
          "type": "address[]"
        }
      ],
      "stateMutability": "view",
      "type": "function"
    },
    {
      "inputs": [
        {
          "internalType": "address",
          "name": "addr",
          "type": "address"
        }
      ],
      "name": "isOwner",
      "outputs": [
        {
          "internalType": "bool",
          "name": "",
          "type": "bool"
        }
      ],
      "stateMutability": "view",
      "type": "function"
    },
    {
      "inputs": [
        {
          "internalType": "address",
          "name": "addr",
          "type": "address"
        }
      ],
      "name": "isWriter",
      "outputs": [
        {
          "internalType": "bool",
          "name": "",
          "type": "bool"
        }
      ],
      "stateMutability": "view",
      "type": "function"
    },
    {
      "inputs": [
        {
          "internalType": "address",
          "name": "owner",
          "type": "address"
        }
      ],
      "name": "removeOwner",
      "outputs": [],
      "stateMutability": "nonpayable",
      "type": "function"
    },
    {
      "inputs": [
        {
          "internalType": "address",
          "name": "existingReader",
          "type": "address"
        }
      ],
      "name": "removerReader",
      "outputs": [],
      "stateMutability": "nonpayable",
      "type": "function"
    },
    {
      "inputs": [
        {
          "internalType": "address",
          "name": "existingWriter",
          "type": "address"
        }
      ],
      "name": "removerWriter",
      "outputs": [],
      "stateMutability": "nonpayable",
      "type": "function"
    },
    {
      "inputs": [],
      "name": "renounceOwnership",
      "outputs": [],
      "stateMutability": "nonpayable",
      "type": "function"
    },
    {
      "inputs": [],
      "name": "requireSig",
      "outputs": [
        {
          "internalType": "uint256",
          "name": "",
          "type": "uint256"
        }
      ],
      "stateMutability": "view",
      "type": "function"
    },
    {
      "inputs": [
        {
          "internalType": "address",
          "name": "addr",
          "type": "address"
        }
      ],
      "name": "setEurusInternalConfig",
      "outputs": [],
      "stateMutability": "nonpayable",
      "type": "function"
    },
    {
      "inputs": [],
      "name": "getEurusInternalConfig",
      "outputs": [
        {
          "internalType": "address",
          "name": "",
          "type": "address"
        }
      ],
      "stateMutability": "view",
      "type": "function"
    },
    {
      "inputs": [
        {
          "internalType": "bytes32",
          "name": "requestTransHash",
          "type": "bytes32"
        },
        {
          "internalType": "address",
          "name": "toAddr",
          "type": "address"
        },
        {
          "internalType": "string",
          "name": "assetName",
          "type": "string"
        },
        {
          "internalType": "uint256",
          "name": "amount",
          "type": "uint256"
        },
        {
          "internalType": "uint8",
          "name": "decimal",
          "type": "uint8"
        },
        {
          "internalType": "bytes[]",
          "name": "signature",
          "type": "bytes[]"
        }
      ],
      "name": "transfer",
      "outputs": [],
      "stateMutability": "nonpayable",
      "type": "function"
    },
    {
      "inputs": [
        {
          "internalType": "bytes32",
          "name": "hash",
          "type": "bytes32"
        },
        {
          "internalType": "bytes[]",
          "name": "signature",
          "type": "bytes[]"
        }
      ],
      "name": "verify",
      "outputs": [
        {
          "internalType": "bool",
          "name": "",
          "type": "bool"
        }
      ],
      "stateMutability": "nonpayable",
      "type": "function"
    },
    {
      "inputs": [
        {
          "internalType": "bytes32",
          "name": "hash",
          "type": "bytes32"
        },
        {
          "internalType": "bytes",
          "name": "signature",
          "type": "bytes"
        }
      ],
      "name": "verifySignature",
      "outputs": [
        {
          "internalType": "address",
          "name": "",
          "type": "address"
        }
      ],
      "stateMutability": "view",
      "type": "function"
    }
  ],
  "bytecode": "0x60806040526005600955600061001c6001600160e01b036100b016565b6001600160a01b0381166000818152600160208190526040808320805460ff191683179055825491820183558280527f290decd9548b62a8d60345a988386fc84ba6bc95484008f6362f93160ef3e56390910180546001600160a01b031916841790555192935090917f8be0079c531659141344cd1fd0a4f28419497f9722a3daafe3b4186f6b6457e0908290a3506100b4565b3390565b611cab806100c36000396000f3fe608060405234801561001057600080fd5b50600436106101215760003560e01c8063a0e67e2b116100ad578063daca6f7811610071578063daca6f781461022d578063ddc6f5f614610240578063ea234b6214610253578063ef18374a14610266578063fb0fe3f41461026e57610121565b8063a0e67e2b146101d5578063afd8b1d1146101dd578063cefe3795146101f0578063d7c903a014610205578063da2824a81461021a57610121565b80637065cb48116100f45780637065cb481461018c578063715018a61461019f5780638145d126146101a757806385aaed4e146101ba57806395800563146101c257610121565b8063173825d9146101265780632b29ba231461013b5780632f54bf6e146101645780633a1abfe714610177575b600080fd5b6101396101343660046115f8565b610281565b005b61014e6101493660046115f8565b610433565b60405161015b919061185e565b60405180910390f35b61014e6101723660046115f8565b610451565b61017f61046f565b60405161015b9190611811565b61013961019a3660046115f8565b6104d1565b6101396105ee565b6101396101b53660046115f8565b61074c565b61017f61090b565b6101396101d0366004611657565b61096b565b61017f610dbf565b6101396101eb3660046115f8565b610e1f565b6101f8610f35565b60405161015b91906117e4565b61020d610f44565b60405161015b9190611bee565b6101396102283660046115f8565b610f4a565b6101f861023b366004611736565b611060565b61013961024e3660046115f8565b611090565b6101396102613660046115f8565b61124f565b61020d6112bf565b61014e61027c3660046116f1565b6112c5565b600061028b611410565b6001600160a01b03811660009081526001602081905260409091205491925060ff9091161515146102d75760405162461bcd60e51b81526004016102ce90611963565b60405180910390fd5b6001600160a01b038216600090815260016020526040902054829060ff166102fe57600080fd5b6001600160a01b0383166000908152600160205260408120805460ff191690558054905b818110156103cb57846001600160a01b03166000828154811061034157fe5b6000918252602090912001546001600160a01b031614156103c3576000600183038154811061036c57fe5b600091825260208220015481546001600160a01b0390911691908390811061039057fe5b9060005260206000200160006101000a8154816001600160a01b0302191690836001600160a01b031602179055506103cb565b600101610322565b5060008054806103d757fe5b600082815260208120820160001990810180546001600160a01b03191690559091019091556040516001600160a01b038616917f58619076adf5bb0943d100ef88d52d7c3fd691b19d3a9071b555b651fbf418da91a250505050565b6001600160a01b031660009081526005602052604090205460ff1690565b6001600160a01b031660009081526001602052604090205460ff1690565b606060048054806020026020016040519081016040528092919081815260200182805480156104c757602002820191906000526020600020905b81546001600160a01b031681526001909101906020018083116104a9575b5050505050905090565b60006104db611410565b6001600160a01b03811660009081526001602081905260409091205491925060ff90911615151461051e5760405162461bcd60e51b81526004016102ce90611963565b6001600160a01b038216600090815260016020819052604090912054839160ff909116151514156105615760405162461bcd60e51b81526004016102ce90611ad1565b6001600160a01b0383166000818152600160208190526040808320805460ff191683179055825491820183558280527f290decd9548b62a8d60345a988386fc84ba6bc95484008f6362f93160ef3e56390910180546001600160a01b03191684179055517f994a936646fe87ffe4f1e469d3d6aa417d6b855598397f323de5b449f765f0c39190a2505050565b60006105f8611410565b6001600160a01b03811660009081526001602081905260409091205491925060ff90911615151461063b5760405162461bcd60e51b81526004016102ce90611963565b6000610645611410565b6001600160a01b0381166000908152600160205260408120805460ff191690559091505b6000546000190181101561071a57816001600160a01b03166000828154811061068e57fe5b6000918252602090912001546001600160a01b03161415610712576000805460001981019081106106bb57fe5b600091825260208220015481546001600160a01b039091169190839081106106df57fe5b9060005260206000200160006101000a8154816001600160a01b0302191690836001600160a01b0316021790555061071a565b600101610669565b50600080548061072657fe5b600082815260209020810160001990810180546001600160a01b03191690550190555050565b6000610756611410565b6001600160a01b03811660009081526001602081905260409091205491925060ff9091161515146107995760405162461bcd60e51b81526004016102ce90611963565b6001600160a01b038216600090815260056020526040902054829060ff166107d35760405162461bcd60e51b81526004016102ce90611b51565b6001600160a01b0383166000908152600560205260408120805460ff19169055600454905b818110156108a357846001600160a01b03166004828154811061081757fe5b6000918252602090912001546001600160a01b0316141561089b576004600183038154811061084257fe5b600091825260209091200154600480546001600160a01b03909216918390811061086857fe5b9060005260206000200160006101000a8154816001600160a01b0302191690836001600160a01b031602179055506108a3565b6001016107f8565b5060048054806108af57fe5b600082815260208120820160001990810180546001600160a01b03191690559091019091556040516001600160a01b038616917f86e5bbceda94081c32220d685f37cc4e3ea7bb0be2dfbf0cb703579505a5390e91a250505050565b606060028054806020026020016040519081016040528092919081815260200182805480156104c7576020028201919060005260206000209081546001600160a01b031681526001909101906020018083116104a9575050505050905090565b3360009081526005602052604090205460ff168061098d575061098d33610451565b6109a95760405162461bcd60e51b81526004016102ce90611b08565b60008681526008602052604090205460ff161515600114156109dd5760405162461bcd60e51b81526004016102ce90611a36565b6000868152600860209081526040808320805460ff1916600117905551610a0c91899189918991899101611869565b604051602081830303815290604052805190602001209050610a2e81836112c5565b50604051602001610a3e906117d5565b6040516020818303038152906040528051906020012085604051602001610a6591906117b9565b6040516020818303038152906040528051906020012014610d7e576006546040516303d0a60f60e41b81526000916001600160a01b031690633d0a60f090610ab19089906004016118c2565b60206040518083038186803b158015610ac957600080fd5b505afa158015610add573d6000803e3d6000fd5b505050506040513d601f19601f82011682018060405250610b01919081019061161b565b90506001600160a01b038116610b295760405162461bcd60e51b81526004016102ce90611b7b565b60008190506000816001600160a01b031663313ce5676040518163ffffffff1660e01b815260040160206040518083038186803b158015610b6957600080fd5b505afa158015610b7d573d6000803e3d6000fd5b505050506040513d601f19601f82011682018060405250610ba19190810190611771565b90508560ff168160ff161415610c375760405163a9059cbb60e01b81526001600160a01b0383169063a9059cbb90610bdf908c908b906004016117f8565b602060405180830381600087803b158015610bf957600080fd5b505af1158015610c0d573d6000803e3d6000fd5b505050506040513d601f19601f82011682018060405250610c319190810190611637565b50610d76565b8560ff168160ff161115610cdb5760405163a9059cbb60e01b81528682039060ff600a8318168902906001600160a01b0385169063a9059cbb90610c81908e9085906004016117f8565b602060405180830381600087803b158015610c9b57600080fd5b505af1158015610caf573d6000803e3d6000fd5b505050506040513d601f19601f82011682018060405250610cd39190810190611637565b505050610d76565b808603600060ff600a8318168981610cef57fe5b049050836001600160a01b031663a9059cbb8c836040518363ffffffff1660e01b8152600401610d209291906117f8565b602060405180830381600087803b158015610d3a57600080fd5b505af1158015610d4e573d6000803e3d6000fd5b505050506040513d601f19601f82011682018060405250610d729190810190611637565b5050505b505050610db6565b6040516001600160a01b0387169085156108fc029086906000818181858888f19350505050158015610db4573d6000803e3d6000fd5b505b50505050505050565b606060008054806020026020016040519081016040528092919081815260200182805480156104c7576020028201919060005260206000209081546001600160a01b031681526001909101906020018083116104a9575050505050905090565b6000610e29611410565b6001600160a01b03811660009081526001602081905260409091205491925060ff909116151514610e6c5760405162461bcd60e51b81526004016102ce90611963565b6001600160a01b038216600090815260036020526040902054829060ff1615610ea75760405162461bcd60e51b81526004016102ce906118d5565b6001600160a01b038316600081815260036020526040808220805460ff1916600190811790915560028054918201815583527f405787fa12a823e0f2b7631cc41b3ba8828b3321ca811111fa75cd3aa3bb5ace0180546001600160a01b03191684179055517fb7724d890d2888af5a3fc456edb667e2c82c4441449ebcac301c618759e4f86d9190a2505050565b6006546001600160a01b031690565b60095481565b6000610f54611410565b6001600160a01b03811660009081526001602081905260409091205491925060ff909116151514610f975760405162461bcd60e51b81526004016102ce90611963565b6001600160a01b038216600090815260056020526040902054829060ff1615610fd25760405162461bcd60e51b81526004016102ce90611904565b6001600160a01b038316600081815260056020526040808220805460ff1916600190811790915560048054918201815583527f8a35acfbc15ff81a39ae7d344fd709f28e8600b4aa8c65c6b64bfe7fe36bd19b0180546001600160a01b03191684179055517f6ff3aa2ea7b53070f6d9d07a445d338d89e8edef44250ffa8be19f53910d4a2e9190a2505050565b60008061106d8484611414565b905061107881610433565b1561108457905061108a565b60009150505b92915050565b600061109a611410565b6001600160a01b03811660009081526001602081905260409091205491925060ff9091161515146110dd5760405162461bcd60e51b81526004016102ce90611963565b6001600160a01b038216600090815260036020526040902054829060ff166111175760405162461bcd60e51b81526004016102ce90611bc4565b6001600160a01b0383166000908152600360205260408120805460ff19169055600254905b818110156111e757846001600160a01b03166002828154811061115b57fe5b6000918252602090912001546001600160a01b031614156111df576002600183038154811061118657fe5b600091825260209091200154600280546001600160a01b0390921691839081106111ac57fe5b9060005260206000200160006101000a8154816001600160a01b0302191690836001600160a01b031602179055506111e7565b60010161113c565b5060028054806111f357fe5b600082815260208120820160001990810180546001600160a01b03191690559091019091556040516001600160a01b038616917fe933431644458f1217f9e93d3e000e03c9bbbe55761046d0985c2e4d157bcbaa91a250505050565b6000611259611410565b6001600160a01b03811660009081526001602081905260409091205491925060ff90911615151461129c5760405162461bcd60e51b81526004016102ce90611963565b50600680546001600160a01b0319166001600160a01b0392909216919091179055565b60005490565b60006112cf6114fa565b60005b6009548110156113ad5760006112fb868684815181106112ee57fe5b6020026020010151611060565b90506001600160a01b0381166113235760405162461bcd60e51b81526004016102ce906119e1565b6001600160a01b03811660009081526007602052604090205460ff161515600114156113615760405162461bcd60e51b81526004016102ce90611a81565b6001600160a01b0381166000908152600760205260409020805460ff191660011790558083836005811061139157fe5b6001600160a01b039092166020929092020152506001016112d2565b5060005b600954811015611405576000600760008484600581106113cd57fe5b602090810291909101516001600160a01b03168252810191909152604001600020805460ff19169115159190911790556001016113b1565b506001949350505050565b3390565b600081516041146114375760405162461bcd60e51b81526004016102ce90611933565b60208201516040830151606084015160001a601b81101561145657601b015b8060ff16601b148061146b57508060ff16601c145b6114875760405162461bcd60e51b81526004016102ce906119aa565b6114938682858561149d565b9695505050505050565b600080600186868686604051600081526020016040526040516114c394939291906118a4565b6020604051602081039080840390855afa1580156114e5573d6000803e3d6000fd5b5050604051601f190151979650505050505050565b6040518060a001604052806005906020820280388339509192915050565b600082601f830112611528578081fd5b813567ffffffffffffffff81111561153e578182fd5b602061154d8182840201611bf7565b828152925080830184820160005b8481101561158457611572888584358a010161158f565b8352918301919083019060010161155b565b505050505092915050565b600082601f83011261159f578081fd5b813567ffffffffffffffff8111156115b5578182fd5b6115c8601f8201601f1916602001611bf7565b91508082528360208285010111156115df57600080fd5b8060208401602084013760009082016020015292915050565b600060208284031215611609578081fd5b813561161481611c4e565b9392505050565b60006020828403121561162c578081fd5b815161161481611c4e565b600060208284031215611648578081fd5b81518015158114611614578182fd5b60008060008060008060c0878903121561166f578182fd5b86359550602087013561168181611c4e565b9450604087013567ffffffffffffffff8082111561169d578384fd5b6116a98a838b0161158f565b955060608901359450608089013591506116c282611c66565b90925060a088013590808211156116d7578283fd5b506116e489828a01611518565b9150509295509295509295565b60008060408385031215611703578182fd5b82359150602083013567ffffffffffffffff811115611720578182fd5b61172c85828601611518565b9150509250929050565b60008060408385031215611748578182fd5b82359150602083013567ffffffffffffffff811115611765578182fd5b61172c8582860161158f565b600060208284031215611782578081fd5b815161161481611c66565b600081518084526117a5816020860160208601611c1e565b601f01601f19169290920160200192915050565b600082516117cb818460208701611c1e565b9190910192915050565b6208aa8960eb1b815260030190565b6001600160a01b0391909116815260200190565b6001600160a01b03929092168252602082015260400190565b6020808252825182820181905260009190848201906040850190845b818110156118525783516001600160a01b03168352928401929184019160010161182d565b50909695505050505050565b901515815260200190565b8481526001600160a01b03841660208201526080604082018190526000906118939083018561178d565b905082606083015295945050505050565b93845260ff9290921660208401526040830152606082015260800190565b600060208252611614602083018461178d565b60208082526015908201527452656164657220616c72656164792065786973747360581b604082015260600190565b60208082526015908201527457726974657220616c72656164792065786973747360581b604082015260600190565b6020808252601690820152750a4cae2ead2e4ca40c6dee4e4cac6e840d8cadccee8d60531b604082015260600190565b60208082526027908201527f4f776e61626c653a2063616c6c6572206973206e6f74206f6e65206f66207468604082015266329037bbb732b960c91b606082015260800190565b6020808252601b908201527f5369676e61747572652076657273696f6e206e6f74206d617463680000000000604082015260600190565b60208082526035908201527f4575727573506c6174666f726d57616c6c65743a207369676e6174757265207360408201527432b73232b91034b9903737ba1030903bb934ba32b960591b606082015260800190565b6020808252602b908201527f4575727573506c6174666f726d57616c6c65743a204475706c6963617465642060408201526a3a3930b739b0b1ba34b7b760a91b606082015260800190565b60208082526030908201527f4575727573506c6174666f726d57616c6c65743a206475706c6963617465207360408201526f69676e6174757265206164647265737360801b606082015260800190565b6020808252601b908201527f4164647265737320616c726561647920697320616e206f776e65720000000000604082015260600190565b60208082526029908201527f4575727573506c6174666f726d57616c6c65743a20577269746572206f72206f604082015268776e6572206f6e6c7960b81b606082015260800190565b60208082526010908201526f15dc9a5d195c881b9bdd08195e1a5cdd60821b604082015260600190565b60208082526029908201527f4575727573506c6174666f726d57616c6c65743a204173736574206e616d65206040820152681b9bdd08199bdd5b9960ba1b606082015260800190565b60208082526010908201526f14995859195c881b9bdd08195e1a5cdd60821b604082015260600190565b90815260200190565b60405181810167ffffffffffffffff81118282101715611c1657600080fd5b604052919050565b60005b83811015611c39578181015183820152602001611c21565b83811115611c48576000848401525b50505050565b6001600160a01b0381168114611c6357600080fd5b50565b60ff81168114611c6357600080fdfea2646970667358221220a69231298b9c52c3a516403911fe306c9224b914c6163f17a71ae9a268d319d464736f6c63430006020033",
  "source": "pragma solidity >=0.6.0 <0.8.0;\n\npragma experimental ABIEncoderV2;\nimport \"../utils/ownable/ReadWritePermissionable.sol\";\nimport \"../erc20/basic/ERC20.sol\";\nimport \"../config/EurusInternalConfig.sol\";\n\ncontract EurusPlatformWallet is ReadWritePermissionable{\n\n    bytes32 constant internal ethNameHash = keccak256(abi.encodePacked(\"ETH\"));\n    EurusInternalConfig internal internalConfig;\n    mapping (address => bool) private withdrawIDMap;\n    mapping (bytes32 => bool) private processedTransHash;\n\n    uint public requireSig = 5;\n\n    modifier onlyWriterOrOwner(){\n        require(writerMap[msg.sender] ||  isOwner(msg.sender), \"EurusPlatformWallet: Writer or owner only\");\n        _;\n    }\n\n    function setEurusInternalConfig(address addr) public onlyOwner{\n        internalConfig = EurusInternalConfig(addr);\n    }\n\n    function getEurusInternalConfig() public view returns (address) {\n        return address(internalConfig);\n    }\n\n    function transfer(bytes32 requestTransHash, address toAddr, string memory assetName, uint256 amount, uint8 decimal, bytes[] memory signature) public onlyWriterOrOwner {\n        require(processedTransHash[requestTransHash] != true, 'EurusPlatformWallet: Duplicated transaction');\n        processedTransHash[requestTransHash] = true;\n\n        bytes32 hash = keccak256(abi.encode(requestTransHash, toAddr, assetName, amount));\n        verify(hash, signature);\n        if (keccak256(abi.encodePacked(assetName)) != ethNameHash){\n            address erc20Addr = internalConfig.getErc20SmartContractAddrByAssetName(assetName);\n            require(erc20Addr != address(0), \"EurusPlatformWallet: Asset name not found\");\n            ERC20 erc20 = ERC20(erc20Addr);\n\n            uint8 targetDecimal = erc20.decimals();\n            if (targetDecimal == decimal ){\n\n                erc20.transfer(toAddr, amount);\n            }else if (targetDecimal > decimal){\n                uint8 delta = targetDecimal - decimal;\n                uint256 targetAmount = amount * (10 ^ delta);\n                erc20.transfer(toAddr, targetAmount);\n            }else {\n                uint8 delta =  decimal - targetDecimal;\n                uint256 targetAmount = amount / (10 ^ delta);\n                erc20.transfer(toAddr, targetAmount);\n            }\n        }else {\n            payable(toAddr).transfer(amount);\n        }\n    }\n\n    function verify (bytes32 hash, bytes[] memory signature) public returns(bool) {\n        address[5] memory signedData;\n        for(uint i = 0;i<requireSig;i++){\n            address signatureAddr = verifySignature(hash, signature[i]);\n            require (signatureAddr != address(0), 'EurusPlatformWallet: signature sender is not a writer');\n            require (withdrawIDMap[signatureAddr]!=true, 'EurusPlatformWallet: duplicate signature address');\n            withdrawIDMap[signatureAddr]=true;\n            signedData[i]=signatureAddr;\n        }\n\n        for(uint i = 0;i<requireSig;i++){\n            withdrawIDMap[signedData[i]]=false;\n        }\n        return true;\n    }\n\n    function verifySignature(bytes32 hash, bytes memory signature) public view returns (address) {\n        address addressFromSig = recoverSigner(hash, signature);\n        if(isWriter(addressFromSig)){\n            return addressFromSig;\n        }\n        return address(0);\n    }\n//\n//    /**\n//    * @dev Recover signer address from a message by using their signature\n//    * @param hash bytes32 message, the hash is the signed message. What is recovered is the signer address.\n//    * @param sig bytes signature, the signature is generated using web3.eth.sign(). Inclusive \"0x...\"\n//    */\n    function recoverSigner(bytes32 hash, bytes memory sig) private pure returns (address) {\n        require(sig.length == 65, \"Require correct length\");\n\n        bytes32 r;\n        bytes32 s;\n        uint8 v;\n\n        // Divide the signature in r, s and v variables\n        assembly {\n            r := mload(add(sig, 32))\n            s := mload(add(sig, 64))\n            v := byte(0, mload(add(sig, 96)))\n        }\n\n        // Version of signature should be 27 or 28, but 0 and 1 are also possible versions\n        if (v < 27) {\n            v += 27;\n        }\n\n        require(v == 27 || v == 28, \"Signature version not match\");\n\n        return recoverSigner2(hash, v, r, s);\n    }\n\n    function recoverSigner2(bytes32 h, uint8 v, bytes32 r, bytes32 s) internal pure returns (address) {\n        address addr = ecrecover(h, v, r, s);\n        return addr;\n    }\n\n}",
  "sourcePath": "/Users/duncanto/Documents/WorkingSet2/src/eurus-backend/smartcontract/contracts/wallet/EurusPlatformWallet.sol",
  "compiler": {
    "name": "solc",
    "version": "0.6.2+commit.bacdbe57.Emscripten.clang"
  },
  "schemaVersion": "3.4.1",
  "updatedAt": "2021-08-04T10:30:06.340Z",
  "devdoc": {
    "methods": {
      "renounceOwnership()": {
        "details": "Leaves the contract without owner. It will not be possible to call `onlyOwner` functions anymore. Can only be called by the current owner.     * NOTE: Renouncing ownership will leave the contract without an owner, thereby removing any functionality that is only available to the owner."
      }
    }
  },
  "userdoc": {
    "methods": {}
  }
}