{
  "contractName": "EurusDummyUserDeposit",
  "abi": [
    {
      "inputs": [],
      "stateMutability": "nonpayable",
      "type": "constructor"
    },
    {
      "anonymous": false,
      "inputs": [
        {
          "indexed": false,
          "internalType": "string",
          "name": "",
          "type": "string"
        }
      ],
      "name": "Event",
      "type": "event"
    },
    {
      "anonymous": false,
      "inputs": [
        {
          "indexed": true,
          "internalType": "address",
          "name": "owner",
          "type": "address"
        }
      ],
      "name": "OwnerAdded",
      "type": "event"
    },
    {
      "anonymous": false,
      "inputs": [
        {
          "indexed": true,
          "internalType": "address",
          "name": "owner",
          "type": "address"
        }
      ],
      "name": "OwnerRemoved",
      "type": "event"
    },
    {
      "anonymous": false,
      "inputs": [
        {
          "indexed": true,
          "internalType": "address",
          "name": "previousOwner",
          "type": "address"
        },
        {
          "indexed": true,
          "internalType": "address",
          "name": "newOwner",
          "type": "address"
        }
      ],
      "name": "OwnershipTransferred",
      "type": "event"
    },
    {
      "anonymous": false,
      "inputs": [
        {
          "indexed": true,
          "internalType": "address",
          "name": "reader",
          "type": "address"
        }
      ],
      "name": "ReaderAdded",
      "type": "event"
    },
    {
      "anonymous": false,
      "inputs": [
        {
          "indexed": true,
          "internalType": "address",
          "name": "reader",
          "type": "address"
        }
      ],
      "name": "ReaderRemoved",
      "type": "event"
    },
    {
      "anonymous": false,
      "inputs": [
        {
          "indexed": true,
          "internalType": "bytes32",
          "name": "transactionHash",
          "type": "bytes32"
        },
        {
          "indexed": true,
          "internalType": "address",
          "name": "senderAddr",
          "type": "address"
        },
        {
          "indexed": true,
          "internalType": "string",
          "name": "assetName",
          "type": "string"
        },
        {
          "indexed": false,
          "internalType": "uint256",
          "name": "amount",
          "type": "uint256"
        }
      ],
      "name": "Sweep",
      "type": "event"
    },
    {
      "anonymous": false,
      "inputs": [
        {
          "indexed": true,
          "internalType": "address",
          "name": "writer",
          "type": "address"
        }
      ],
      "name": "WriterAdded",
      "type": "event"
    },
    {
      "anonymous": false,
      "inputs": [
        {
          "indexed": true,
          "internalType": "address",
          "name": "writer",
          "type": "address"
        }
      ],
      "name": "WriterRemoved",
      "type": "event"
    },
    {
      "inputs": [
        {
          "internalType": "address",
          "name": "newOwner",
          "type": "address"
        }
      ],
      "name": "addOwner",
      "outputs": [],
      "stateMutability": "nonpayable",
      "type": "function"
    },
    {
      "inputs": [
        {
          "internalType": "address",
          "name": "newReader",
          "type": "address"
        }
      ],
      "name": "addReader",
      "outputs": [],
      "stateMutability": "nonpayable",
      "type": "function"
    },
    {
      "inputs": [
        {
          "internalType": "address",
          "name": "newWriter",
          "type": "address"
        }
      ],
      "name": "addWriter",
      "outputs": [],
      "stateMutability": "nonpayable",
      "type": "function"
    },
    {
      "inputs": [],
      "name": "eurusPlatformWalletAddress",
      "outputs": [
        {
          "internalType": "address payable",
          "name": "",
          "type": "address"
        }
      ],
      "stateMutability": "view",
      "type": "function"
    },
    {
      "inputs": [],
      "name": "getOwnerCount",
      "outputs": [
        {
          "internalType": "uint256",
          "name": "",
          "type": "uint256"
        }
      ],
      "stateMutability": "view",
      "type": "function"
    },
    {
      "inputs": [],
      "name": "getOwners",
      "outputs": [
        {
          "internalType": "address[]",
          "name": "",
          "type": "address[]"
        }
      ],
      "stateMutability": "view",
      "type": "function"
    },
    {
      "inputs": [],
      "name": "getReaderList",
      "outputs": [
        {
          "internalType": "address[]",
          "name": "",
          "type": "address[]"
        }
      ],
      "stateMutability": "view",
      "type": "function"
    },
    {
      "inputs": [],
      "name": "getWriterList",
      "outputs": [
        {
          "internalType": "address[]",
          "name": "",
          "type": "address[]"
        }
      ],
      "stateMutability": "view",
      "type": "function"
    },
    {
      "inputs": [
        {
          "internalType": "address",
          "name": "addr",
          "type": "address"
        }
      ],
      "name": "isOwner",
      "outputs": [
        {
          "internalType": "bool",
          "name": "",
          "type": "bool"
        }
      ],
      "stateMutability": "view",
      "type": "function"
    },
    {
      "inputs": [
        {
          "internalType": "address",
          "name": "addr",
          "type": "address"
        }
      ],
      "name": "isWriter",
      "outputs": [
        {
          "internalType": "bool",
          "name": "",
          "type": "bool"
        }
      ],
      "stateMutability": "view",
      "type": "function"
    },
    {
      "inputs": [
        {
          "internalType": "address",
          "name": "owner",
          "type": "address"
        }
      ],
      "name": "removeOwner",
      "outputs": [],
      "stateMutability": "nonpayable",
      "type": "function"
    },
    {
      "inputs": [
        {
          "internalType": "address",
          "name": "existingReader",
          "type": "address"
        }
      ],
      "name": "removerReader",
      "outputs": [],
      "stateMutability": "nonpayable",
      "type": "function"
    },
    {
      "inputs": [
        {
          "internalType": "address",
          "name": "existingWriter",
          "type": "address"
        }
      ],
      "name": "removerWriter",
      "outputs": [],
      "stateMutability": "nonpayable",
      "type": "function"
    },
    {
      "inputs": [],
      "name": "renounceOwnership",
      "outputs": [],
      "stateMutability": "nonpayable",
      "type": "function"
    },
    {
      "inputs": [
        {
          "internalType": "address",
          "name": "eurusInternalConfigAddr",
          "type": "address"
        }
      ],
      "name": "setEurusInternalConfigAddress",
      "outputs": [],
      "stateMutability": "nonpayable",
      "type": "function"
    },
    {
      "inputs": [
        {
          "internalType": "address",
          "name": "eurusPlatformAddr",
          "type": "address"
        }
      ],
      "name": "setEurusPlatformAddress",
      "outputs": [],
      "stateMutability": "nonpayable",
      "type": "function"
    },
    {
      "inputs": [
        {
          "internalType": "bytes32",
          "name": "transactionHash",
          "type": "bytes32"
        },
        {
          "internalType": "address",
          "name": "sender",
          "type": "address"
        },
        {
          "internalType": "string",
          "name": "assetName",
          "type": "string"
        },
        {
          "internalType": "uint256",
          "name": "amount",
          "type": "uint256"
        }
      ],
      "name": "sweep",
      "outputs": [],
      "stateMutability": "nonpayable",
      "type": "function"
    }
  ],
  "bytecode": "0x608060405234801561001057600080fd5b5060006100246001600160e01b036100b816565b6001600160a01b0381166000818152600160208190526040808320805460ff191683179055825491820183558280527f290decd9548b62a8d60345a988386fc84ba6bc95484008f6362f93160ef3e56390910180546001600160a01b031916841790555192935090917f8be0079c531659141344cd1fd0a4f28419497f9722a3daafe3b4186f6b6457e0908290a3506100bc565b3390565b611658806100cb6000396000f3fe608060405234801561001057600080fd5b506004361061010b5760003560e01c806385aaed4e116100a2578063afd8b1d111610071578063afd8b1d11461035b578063d925b02714610381578063da2824a8146103a7578063ddc6f5f6146103cd578063ef18374a146103f35761010b565b806385aaed4e1461030157806394d09e1014610309578063a0e67e2b1461032d578063ac04971f146103355761010b565b80633a1abfe7116100de5780633a1abfe7146102555780637065cb48146102ad578063715018a6146102d35780638145d126146102db5761010b565b806303d8fb5714610110578063173825d9146101cf5780632b29ba23146101f55780632f54bf6e1461022f575b600080fd5b6101cd6004803603608081101561012657600080fd5b8135916001600160a01b036020820135169181019060608101604082013564010000000081111561015657600080fd5b82018360208201111561016857600080fd5b8035906020019184600183028401116401000000008311171561018a57600080fd5b91908080601f016020809104026020016040519081016040528093929190818152602001838380828437600092019190915250929550509135925061040d915050565b005b6101cd600480360360208110156101e557600080fd5b50356001600160a01b03166107e0565b61021b6004803603602081101561020b57600080fd5b50356001600160a01b03166109a8565b604080519115158252519081900360200190f35b61021b6004803603602081101561024557600080fd5b50356001600160a01b03166109c6565b61025d6109e4565b60408051602080825283518183015283519192839290830191858101910280838360005b83811015610299578181015183820152602001610281565b505050509050019250505060405180910390f35b6101cd600480360360208110156102c357600080fd5b50356001600160a01b0316610a46565b6101cd610bb7565b6101cd600480360360208110156102f157600080fd5b50356001600160a01b0316610d34565b61025d610f3a565b610311610f9a565b604080516001600160a01b039092168252519081900360200190f35b61025d610fa9565b6101cd6004803603602081101561034b57600080fd5b50356001600160a01b0316611009565b6101cd6004803603602081101561037157600080fd5b50356001600160a01b0316611098565b6101cd6004803603602081101561039757600080fd5b50356001600160a01b03166111fa565b6101cd600480360360208110156103bd57600080fd5b50356001600160a01b0316611289565b6101cd600480360360208110156103e357600080fd5b50356001600160a01b03166113eb565b6103fb6115f1565b60408051918252519081900360200190f35b3360008181526005602052604090205460ff1661045f576040805162461bcd60e51b815260206004820152600b60248201526a577269746572206f6e6c7960a81b604482015290519081900360640190fd5b6001600160a01b0384166104ab576040805162461bcd60e51b815260206004820152600e60248201526d34b73b30b634b21039b2b73232b960911b604482015290519081900360640190fd5b6007546040516303d0a60f60e41b81526020600482018181528651602484015286516000946001600160a01b031693633d0a60f0938993928392604401918501908083838b5b838110156105095781810151838201526020016104f1565b50505050905090810190601f1680156105365780820380516001836020036101000a031916815260200191505b509250505060206040518083038186803b15801561055357600080fd5b505afa158015610567573d6000803e3d6000fd5b505050506040513d602081101561057d57600080fd5b505190506001600160a01b0381166105dc576040805162461bcd60e51b815260206004820152601760248201527f496e76616c69642045524332302061737365744e616d65000000000000000000604482015290519081900360640190fd5b60405160200180806208aa8960eb1b815250600301905060405160208183030381529060405280519060200120846040516020018082805190602001908083835b6020831061063c5780518252601f19909201916020918201910161061d565b6001836020036101000a0380198251168184511680821785525050505050509050019150506040516020818303038152906040528051906020012014610705576006546040805163a9059cbb60e01b81526001600160a01b039283166004820152602481018690529051839283169163a9059cbb9160448083019260209291908290030181600087803b1580156106d257600080fd5b505af11580156106e6573d6000803e3d6000fd5b505050506040513d60208110156106fc57600080fd5b50610741915050565b6006546040516001600160a01b039091169084156108fc029085906000818181858888f1935050505015801561073f573d6000803e3d6000fd5b505b836040518082805190602001908083835b602083106107715780518252601f199092019160209182019101610752565b51815160209384036101000a60001901801990921691161790526040805192909401829003822089835293519395506001600160a01b038b1694508b937f5e0f0925b5a968787891df2ce44540a853b1066ee6d6cd024f991115713a219a9350918290030190a4505050505050565b60006107ea6115f7565b6001600160a01b03811660009081526001602081905260409091205491925060ff90911615151461084c5760405162461bcd60e51b81526004018080602001828103825260278152602001806115fc6027913960400191505060405180910390fd5b6001600160a01b038216600090815260016020526040902054829060ff1661087357600080fd5b6001600160a01b0383166000908152600160205260408120805460ff191690558054905b8181101561094057846001600160a01b0316600082815481106108b657fe5b6000918252602090912001546001600160a01b0316141561093857600060018303815481106108e157fe5b600091825260208220015481546001600160a01b0390911691908390811061090557fe5b9060005260206000200160006101000a8154816001600160a01b0302191690836001600160a01b03160217905550610940565b600101610897565b50600080548061094c57fe5b600082815260208120820160001990810180546001600160a01b03191690559091019091556040516001600160a01b038616917f58619076adf5bb0943d100ef88d52d7c3fd691b19d3a9071b555b651fbf418da91a250505050565b6001600160a01b031660009081526005602052604090205460ff1690565b6001600160a01b031660009081526001602052604090205460ff1690565b60606004805480602002602001604051908101604052809291908181526020018280548015610a3c57602002820191906000526020600020905b81546001600160a01b03168152600190910190602001808311610a1e575b5050505050905090565b6000610a506115f7565b6001600160a01b03811660009081526001602081905260409091205491925060ff909116151514610ab25760405162461bcd60e51b81526004018080602001828103825260278152602001806115fc6027913960400191505060405180910390fd5b6001600160a01b038216600090815260016020819052604090912054839160ff90911615151415610b2a576040805162461bcd60e51b815260206004820152601b60248201527f4164647265737320616c726561647920697320616e206f776e65720000000000604482015290519081900360640190fd5b6001600160a01b0383166000818152600160208190526040808320805460ff191683179055825491820183558280527f290decd9548b62a8d60345a988386fc84ba6bc95484008f6362f93160ef3e56390910180546001600160a01b03191684179055517f994a936646fe87ffe4f1e469d3d6aa417d6b855598397f323de5b449f765f0c39190a2505050565b6000610bc16115f7565b6001600160a01b03811660009081526001602081905260409091205491925060ff909116151514610c235760405162461bcd60e51b81526004018080602001828103825260278152602001806115fc6027913960400191505060405180910390fd5b6000610c2d6115f7565b6001600160a01b0381166000908152600160205260408120805460ff191690559091505b60005460001901811015610d0257816001600160a01b031660008281548110610c7657fe5b6000918252602090912001546001600160a01b03161415610cfa57600080546000198101908110610ca357fe5b600091825260208220015481546001600160a01b03909116919083908110610cc757fe5b9060005260206000200160006101000a8154816001600160a01b0302191690836001600160a01b03160217905550610d02565b600101610c51565b506000805480610d0e57fe5b600082815260209020810160001990810180546001600160a01b03191690550190555050565b6000610d3e6115f7565b6001600160a01b03811660009081526001602081905260409091205491925060ff909116151514610da05760405162461bcd60e51b81526004018080602001828103825260278152602001806115fc6027913960400191505060405180910390fd5b6001600160a01b038216600090815260056020526040902054829060ff16610e02576040805162461bcd60e51b815260206004820152601060248201526f15dc9a5d195c881b9bdd08195e1a5cdd60821b604482015290519081900360640190fd5b6001600160a01b0383166000908152600560205260408120805460ff19169055600454905b81811015610ed257846001600160a01b031660048281548110610e4657fe5b6000918252602090912001546001600160a01b03161415610eca5760046001830381548110610e7157fe5b600091825260209091200154600480546001600160a01b039092169183908110610e9757fe5b9060005260206000200160006101000a8154816001600160a01b0302191690836001600160a01b03160217905550610ed2565b600101610e27565b506004805480610ede57fe5b600082815260208120820160001990810180546001600160a01b03191690559091019091556040516001600160a01b038616917f86e5bbceda94081c32220d685f37cc4e3ea7bb0be2dfbf0cb703579505a5390e91a250505050565b60606002805480602002602001604051908101604052809291908181526020018280548015610a3c576020028201919060005260206000209081546001600160a01b03168152600190910190602001808311610a1e575050505050905090565b6006546001600160a01b031681565b60606000805480602002602001604051908101604052809291908181526020018280548015610a3c576020028201919060005260206000209081546001600160a01b03168152600190910190602001808311610a1e575050505050905090565b60006110136115f7565b6001600160a01b03811660009081526001602081905260409091205491925060ff9091161515146110755760405162461bcd60e51b81526004018080602001828103825260278152602001806115fc6027913960400191505060405180910390fd5b50600680546001600160a01b0319166001600160a01b0392909216919091179055565b60006110a26115f7565b6001600160a01b03811660009081526001602081905260409091205491925060ff9091161515146111045760405162461bcd60e51b81526004018080602001828103825260278152602001806115fc6027913960400191505060405180910390fd5b6001600160a01b038216600090815260036020526040902054829060ff161561116c576040805162461bcd60e51b815260206004820152601560248201527452656164657220616c72656164792065786973747360581b604482015290519081900360640190fd5b6001600160a01b038316600081815260036020526040808220805460ff1916600190811790915560028054918201815583527f405787fa12a823e0f2b7631cc41b3ba8828b3321ca811111fa75cd3aa3bb5ace0180546001600160a01b03191684179055517fb7724d890d2888af5a3fc456edb667e2c82c4441449ebcac301c618759e4f86d9190a2505050565b60006112046115f7565b6001600160a01b03811660009081526001602081905260409091205491925060ff9091161515146112665760405162461bcd60e51b81526004018080602001828103825260278152602001806115fc6027913960400191505060405180910390fd5b50600780546001600160a01b0319166001600160a01b0392909216919091179055565b60006112936115f7565b6001600160a01b03811660009081526001602081905260409091205491925060ff9091161515146112f55760405162461bcd60e51b81526004018080602001828103825260278152602001806115fc6027913960400191505060405180910390fd5b6001600160a01b038216600090815260056020526040902054829060ff161561135d576040805162461bcd60e51b815260206004820152601560248201527457726974657220616c72656164792065786973747360581b604482015290519081900360640190fd5b6001600160a01b038316600081815260056020526040808220805460ff1916600190811790915560048054918201815583527f8a35acfbc15ff81a39ae7d344fd709f28e8600b4aa8c65c6b64bfe7fe36bd19b0180546001600160a01b03191684179055517f6ff3aa2ea7b53070f6d9d07a445d338d89e8edef44250ffa8be19f53910d4a2e9190a2505050565b60006113f56115f7565b6001600160a01b03811660009081526001602081905260409091205491925060ff9091161515146114575760405162461bcd60e51b81526004018080602001828103825260278152602001806115fc6027913960400191505060405180910390fd5b6001600160a01b038216600090815260036020526040902054829060ff166114b9576040805162461bcd60e51b815260206004820152601060248201526f14995859195c881b9bdd08195e1a5cdd60821b604482015290519081900360640190fd5b6001600160a01b0383166000908152600360205260408120805460ff19169055600254905b8181101561158957846001600160a01b0316600282815481106114fd57fe5b6000918252602090912001546001600160a01b03161415611581576002600183038154811061152857fe5b600091825260209091200154600280546001600160a01b03909216918390811061154e57fe5b9060005260206000200160006101000a8154816001600160a01b0302191690836001600160a01b03160217905550611589565b6001016114de565b50600280548061159557fe5b600082815260208120820160001990810180546001600160a01b03191690559091019091556040516001600160a01b038616917fe933431644458f1217f9e93d3e000e03c9bbbe55761046d0985c2e4d157bcbaa91a250505050565b60005490565b339056fe4f776e61626c653a2063616c6c6572206973206e6f74206f6e65206f6620746865206f776e6572a26469706673582212207d083df0bede5e1cf486aca12f317cfb415db2d1c1629e507844e62295c2e0aa64736f6c63430006020033",
  "source": "pragma solidity >=0.6.0 <0.8.0;\n\nimport \"../utils/ownable/ReadWritePermissionable.sol\";\nimport \"../config/EurusInternalConfig.sol\";\nimport \"../erc20/basic/IERC20.sol\";\n\ncontract EurusDummyUserDeposit is ReadWritePermissionable {\n    address payable public eurusPlatformWalletAddress;\n\n    EurusInternalConfig eurusInternalConfig;\n\n    event Sweep(bytes32 indexed transactionHash, address indexed senderAddr, string indexed assetName, uint256 amount);\n\n    constructor() public{}\n\n    function setEurusInternalConfigAddress(address eurusInternalConfigAddr)public onlyOwner{\n        eurusInternalConfig=EurusInternalConfig(eurusInternalConfigAddr);\n    }\n\n    function setEurusPlatformAddress(address eurusPlatformAddr)public onlyOwner{\n        eurusPlatformWalletAddress=payable(eurusPlatformAddr);\n    }\n\n    function sweep(bytes32 transactionHash, address sender, string memory assetName, uint256 amount)public onlyWriter(msg.sender){\n        require(sender!=address(0),\"invalid sender\");\n        address addr = eurusInternalConfig.getErc20SmartContractAddrByAssetName(assetName);\n        require(addr!=address(0),\"Invalid ERC20 assetName\");\n        if (keccak256(abi.encodePacked(assetName)) != keccak256(abi.encodePacked(\"ETH\"))){\n            IERC20 erc20 = IERC20(addr);\n            erc20.transfer(eurusPlatformWalletAddress, amount);\n        }else{\n            eurusPlatformWalletAddress.transfer(amount);\n        }\n        emit Sweep(transactionHash,sender,assetName, amount);\n    }\n\n}\n\n",
  "sourcePath": "/Users/duncanto/Documents/WorkingSet2/src/eurus-backend/smartcontract/contracts/deposit/EurusDummyUserDeposit.sol",
  "compiler": {
    "name": "solc",
    "version": "0.6.2+commit.bacdbe57.Emscripten.clang"
  },
  "schemaVersion": "3.4.1",
  "updatedAt": "2021-08-04T10:30:06.148Z",
  "devdoc": {
    "methods": {
      "renounceOwnership()": {
        "details": "Leaves the contract without owner. It will not be possible to call `onlyOwner` functions anymore. Can only be called by the current owner.     * NOTE: Renouncing ownership will leave the contract without an owner, thereby removing any functionality that is only available to the owner."
      }
    }
  },
  "userdoc": {
    "methods": {}
  }
}