{
  "contractName": "EurusUserDeposit",
  "abi": [
    {
      "inputs": [],
      "stateMutability": "nonpayable",
      "type": "constructor"
    },
    {
      "anonymous": false,
      "inputs": [
        {
          "indexed": false,
          "internalType": "string",
          "name": "",
          "type": "string"
        }
      ],
      "name": "Event",
      "type": "event"
    },
    {
      "anonymous": false,
      "inputs": [
        {
          "indexed": true,
          "internalType": "address",
          "name": "owner",
          "type": "address"
        }
      ],
      "name": "OwnerAdded",
      "type": "event"
    },
    {
      "anonymous": false,
      "inputs": [
        {
          "indexed": true,
          "internalType": "address",
          "name": "owner",
          "type": "address"
        }
      ],
      "name": "OwnerRemoved",
      "type": "event"
    },
    {
      "anonymous": false,
      "inputs": [
        {
          "indexed": true,
          "internalType": "address",
          "name": "previousOwner",
          "type": "address"
        },
        {
          "indexed": true,
          "internalType": "address",
          "name": "newOwner",
          "type": "address"
        }
      ],
      "name": "OwnershipTransferred",
      "type": "event"
    },
    {
      "anonymous": false,
      "inputs": [
        {
          "indexed": true,
          "internalType": "address",
          "name": "reader",
          "type": "address"
        }
      ],
      "name": "ReaderAdded",
      "type": "event"
    },
    {
      "anonymous": false,
      "inputs": [
        {
          "indexed": true,
          "internalType": "address",
          "name": "reader",
          "type": "address"
        }
      ],
      "name": "ReaderRemoved",
      "type": "event"
    },
    {
      "anonymous": false,
      "inputs": [
        {
          "indexed": true,
          "internalType": "bytes32",
          "name": "transactionHash",
          "type": "bytes32"
        },
        {
          "indexed": true,
          "internalType": "address",
          "name": "senderAddr",
          "type": "address"
        },
        {
          "indexed": false,
          "internalType": "string",
          "name": "assetName",
          "type": "string"
        },
        {
          "indexed": false,
          "internalType": "uint256",
          "name": "amount",
          "type": "uint256"
        }
      ],
      "name": "Sweep",
      "type": "event"
    },
    {
      "anonymous": false,
      "inputs": [
        {
          "indexed": true,
          "internalType": "address",
          "name": "writer",
          "type": "address"
        }
      ],
      "name": "WriterAdded",
      "type": "event"
    },
    {
      "anonymous": false,
      "inputs": [
        {
          "indexed": true,
          "internalType": "address",
          "name": "writer",
          "type": "address"
        }
      ],
      "name": "WriterRemoved",
      "type": "event"
    },
    {
      "inputs": [
        {
          "internalType": "address",
          "name": "newOwner",
          "type": "address"
        }
      ],
      "name": "addOwner",
      "outputs": [],
      "stateMutability": "nonpayable",
      "type": "function"
    },
    {
      "inputs": [
        {
          "internalType": "address",
          "name": "newReader",
          "type": "address"
        }
      ],
      "name": "addReader",
      "outputs": [],
      "stateMutability": "nonpayable",
      "type": "function"
    },
    {
      "inputs": [
        {
          "internalType": "address",
          "name": "newWriter",
          "type": "address"
        }
      ],
      "name": "addWriter",
      "outputs": [],
      "stateMutability": "nonpayable",
      "type": "function"
    },
    {
      "inputs": [],
      "name": "eurusInternalConfig",
      "outputs": [
        {
          "internalType": "contract EurusInternalConfig",
          "name": "",
          "type": "address"
        }
      ],
      "stateMutability": "view",
      "type": "function"
    },
    {
      "inputs": [],
      "name": "eurusPlatformWalletAddress",
      "outputs": [
        {
          "internalType": "address payable",
          "name": "",
          "type": "address"
        }
      ],
      "stateMutability": "view",
      "type": "function"
    },
    {
      "inputs": [],
      "name": "getOwnerCount",
      "outputs": [
        {
          "internalType": "uint256",
          "name": "",
          "type": "uint256"
        }
      ],
      "stateMutability": "view",
      "type": "function"
    },
    {
      "inputs": [],
      "name": "getOwners",
      "outputs": [
        {
          "internalType": "address[]",
          "name": "",
          "type": "address[]"
        }
      ],
      "stateMutability": "view",
      "type": "function"
    },
    {
      "inputs": [],
      "name": "getReaderList",
      "outputs": [
        {
          "internalType": "address[]",
          "name": "",
          "type": "address[]"
        }
      ],
      "stateMutability": "view",
      "type": "function"
    },
    {
      "inputs": [],
      "name": "getWriterList",
      "outputs": [
        {
          "internalType": "address[]",
          "name": "",
          "type": "address[]"
        }
      ],
      "stateMutability": "view",
      "type": "function"
    },
    {
      "inputs": [
        {
          "internalType": "address",
          "name": "addr",
          "type": "address"
        }
      ],
      "name": "isOwner",
      "outputs": [
        {
          "internalType": "bool",
          "name": "",
          "type": "bool"
        }
      ],
      "stateMutability": "view",
      "type": "function"
    },
    {
      "inputs": [
        {
          "internalType": "address",
          "name": "addr",
          "type": "address"
        }
      ],
      "name": "isWriter",
      "outputs": [
        {
          "internalType": "bool",
          "name": "",
          "type": "bool"
        }
      ],
      "stateMutability": "view",
      "type": "function"
    },
    {
      "inputs": [
        {
          "internalType": "address",
          "name": "owner",
          "type": "address"
        }
      ],
      "name": "removeOwner",
      "outputs": [],
      "stateMutability": "nonpayable",
      "type": "function"
    },
    {
      "inputs": [
        {
          "internalType": "address",
          "name": "existingReader",
          "type": "address"
        }
      ],
      "name": "removerReader",
      "outputs": [],
      "stateMutability": "nonpayable",
      "type": "function"
    },
    {
      "inputs": [
        {
          "internalType": "address",
          "name": "existingWriter",
          "type": "address"
        }
      ],
      "name": "removerWriter",
      "outputs": [],
      "stateMutability": "nonpayable",
      "type": "function"
    },
    {
      "inputs": [],
      "name": "renounceOwnership",
      "outputs": [],
      "stateMutability": "nonpayable",
      "type": "function"
    },
    {
      "inputs": [
        {
          "internalType": "address",
          "name": "eurusInternalConfigAddr",
          "type": "address"
        }
      ],
      "name": "setEurusInternalConfigAddress",
      "outputs": [],
      "stateMutability": "nonpayable",
      "type": "function"
    },
    {
      "inputs": [
        {
          "internalType": "address",
          "name": "eurusPlatformAddr",
          "type": "address"
        }
      ],
      "name": "setEurusPlatformAddress",
      "outputs": [],
      "stateMutability": "nonpayable",
      "type": "function"
    },
    {
      "inputs": [
        {
          "internalType": "bytes32",
          "name": "transactionHash",
          "type": "bytes32"
        },
        {
          "internalType": "address",
          "name": "sender",
          "type": "address"
        },
        {
          "internalType": "string",
          "name": "assetName",
          "type": "string"
        },
        {
          "internalType": "uint256",
          "name": "amount",
          "type": "uint256"
        }
      ],
      "name": "sweep",
      "outputs": [],
      "stateMutability": "nonpayable",
      "type": "function"
    }
  ],
  "bytecode": "0x608060405234801561001057600080fd5b5060006100246001600160e01b036100b816565b6001600160a01b0381166000818152600160208190526040808320805460ff191683179055825491820183558280527f290decd9548b62a8d60345a988386fc84ba6bc95484008f6362f93160ef3e56390910180546001600160a01b031916841790555192935090917f8be0079c531659141344cd1fd0a4f28419497f9722a3daafe3b4186f6b6457e0908290a3506100bc565b3390565b6117f9806100cb6000396000f3fe608060405234801561001057600080fd5b50600436106101165760003560e01c806385aaed4e116100a2578063afd8b1d111610071578063afd8b1d11461036e578063d925b02714610394578063da2824a8146103ba578063ddc6f5f6146103e0578063ef18374a1461040657610116565b806385aaed4e1461033057806394d09e1014610338578063a0e67e2b14610340578063ac04971f1461034857610116565b80633a1abfe7116100e95780633a1abfe7146102605780635bec7b34146102b85780637065cb48146102dc578063715018a6146103025780638145d1261461030a57610116565b806303d8fb571461011b578063173825d9146101da5780632b29ba23146102005780632f54bf6e1461023a575b600080fd5b6101d86004803603608081101561013157600080fd5b8135916001600160a01b036020820135169181019060608101604082013564010000000081111561016157600080fd5b82018360208201111561017357600080fd5b8035906020019184600183028401116401000000008311171561019557600080fd5b91908080601f0160208091040260200160405190810160405280939291908181526020018383808284376000920191909152509295505091359250610420915050565b005b6101d8600480360360208110156101f057600080fd5b50356001600160a01b031661094a565b6102266004803603602081101561021657600080fd5b50356001600160a01b0316610b12565b604080519115158252519081900360200190f35b6102266004803603602081101561025057600080fd5b50356001600160a01b0316610b30565b610268610b4e565b60408051602080825283518183015283519192839290830191858101910280838360005b838110156102a457818101518382015260200161028c565b505050509050019250505060405180910390f35b6102c0610bb0565b604080516001600160a01b039092168252519081900360200190f35b6101d8600480360360208110156102f257600080fd5b50356001600160a01b0316610bbf565b6101d8610d30565b6101d86004803603602081101561032057600080fd5b50356001600160a01b0316610ead565b6102686110b3565b6102c0611113565b610268611122565b6101d86004803603602081101561035e57600080fd5b50356001600160a01b0316611182565b6101d86004803603602081101561038457600080fd5b50356001600160a01b0316611211565b6101d8600480360360208110156103aa57600080fd5b50356001600160a01b0316611373565b6101d8600480360360208110156103d057600080fd5b50356001600160a01b0316611402565b6101d8600480360360208110156103f657600080fd5b50356001600160a01b0316611564565b61040e61176a565b60408051918252519081900360200190f35b3360008181526005602052604090205460ff16610472576040805162461bcd60e51b815260206004820152600b60248201526a577269746572206f6e6c7960a81b604482015290519081900360640190fd5b6001600160a01b0384166104bf576040805162461bcd60e51b815260206004820152600f60248201526e496e76616c69642073656e6465722160881b604482015290519081900360640190fd5b6006546001600160a01b03166105065760405162461bcd60e51b815260040180806020018281038252602881526020018061179c6028913960400191505060405180910390fd5b60405160200180806208aa8960eb1b815250600301905060405160208183030381529060405280519060200120836040516020018082805190602001908083835b602083106105665780518252601f199092019160209182019101610547565b6001836020036101000a038019825116818451168082178552505050505050905001915050604051602081830303815290604052805190602001201461085b576007546040516303d0a60f60e41b81526020600482018181528651602484015286516000946001600160a01b031693633d0a60f0938993928392604401918501908083838b5b838110156106045781810151838201526020016105ec565b50505050905090810190601f1680156106315780820380516001836020036101000a031916815260200191505b509250505060206040518083038186803b15801561064e57600080fd5b505afa158015610662573d6000803e3d6000fd5b505050506040513d602081101561067857600080fd5b505190506001600160a01b0381166106d7576040805162461bcd60e51b815260206004820152601760248201527f496e76616c69642045524332302061737365744e616d65000000000000000000604482015290519081900360640190fd5b600654604080516001600160a01b039283166024820152604480820187905282518083039091018152606490910182526020810180516001600160e01b031663a9059cbb60e01b178152915181519193600093606093918716928692909182918083835b6020831061075a5780518252601f19909201916020918201910161073b565b6001836020036101000a0380198251168184511680821785525050505050509050019150506000604051808303816000865af19150503d80600081146107bc576040519150601f19603f3d011682016040523d82523d6000602084013e6107c1565b606091505b50915091508181906108515760405162461bcd60e51b81526004018080602001828103825283818151815260200191508051906020019080838360005b838110156108165781810151838201526020016107fe565b50505050905090810190601f1680156108435780820380516001836020036101000a031916815260200191505b509250505060405180910390fd5b5050505050610897565b6006546040516001600160a01b039091169083156108fc029084906000818181858888f19350505050158015610895573d6000803e3d6000fd5b505b836001600160a01b0316857f5e0f0925b5a968787891df2ce44540a853b1066ee6d6cd024f991115713a219a85856040518080602001838152602001828103825284818151815260200191508051906020019080838360005b838110156109085781810151838201526020016108f0565b50505050905090810190601f1680156109355780820380516001836020036101000a031916815260200191505b50935050505060405180910390a35050505050565b6000610954611770565b6001600160a01b03811660009081526001602081905260409091205491925060ff9091161515146109b65760405162461bcd60e51b81526004018080602001828103825260278152602001806117756027913960400191505060405180910390fd5b6001600160a01b038216600090815260016020526040902054829060ff166109dd57600080fd5b6001600160a01b0383166000908152600160205260408120805460ff191690558054905b81811015610aaa57846001600160a01b031660008281548110610a2057fe5b6000918252602090912001546001600160a01b03161415610aa25760006001830381548110610a4b57fe5b600091825260208220015481546001600160a01b03909116919083908110610a6f57fe5b9060005260206000200160006101000a8154816001600160a01b0302191690836001600160a01b03160217905550610aaa565b600101610a01565b506000805480610ab657fe5b600082815260208120820160001990810180546001600160a01b03191690559091019091556040516001600160a01b038616917f58619076adf5bb0943d100ef88d52d7c3fd691b19d3a9071b555b651fbf418da91a250505050565b6001600160a01b031660009081526005602052604090205460ff1690565b6001600160a01b031660009081526001602052604090205460ff1690565b60606004805480602002602001604051908101604052809291908181526020018280548015610ba657602002820191906000526020600020905b81546001600160a01b03168152600190910190602001808311610b88575b5050505050905090565b6007546001600160a01b031681565b6000610bc9611770565b6001600160a01b03811660009081526001602081905260409091205491925060ff909116151514610c2b5760405162461bcd60e51b81526004018080602001828103825260278152602001806117756027913960400191505060405180910390fd5b6001600160a01b038216600090815260016020819052604090912054839160ff90911615151415610ca3576040805162461bcd60e51b815260206004820152601b60248201527f4164647265737320616c726561647920697320616e206f776e65720000000000604482015290519081900360640190fd5b6001600160a01b0383166000818152600160208190526040808320805460ff191683179055825491820183558280527f290decd9548b62a8d60345a988386fc84ba6bc95484008f6362f93160ef3e56390910180546001600160a01b03191684179055517f994a936646fe87ffe4f1e469d3d6aa417d6b855598397f323de5b449f765f0c39190a2505050565b6000610d3a611770565b6001600160a01b03811660009081526001602081905260409091205491925060ff909116151514610d9c5760405162461bcd60e51b81526004018080602001828103825260278152602001806117756027913960400191505060405180910390fd5b6000610da6611770565b6001600160a01b0381166000908152600160205260408120805460ff191690559091505b60005460001901811015610e7b57816001600160a01b031660008281548110610def57fe5b6000918252602090912001546001600160a01b03161415610e7357600080546000198101908110610e1c57fe5b600091825260208220015481546001600160a01b03909116919083908110610e4057fe5b9060005260206000200160006101000a8154816001600160a01b0302191690836001600160a01b03160217905550610e7b565b600101610dca565b506000805480610e8757fe5b600082815260209020810160001990810180546001600160a01b03191690550190555050565b6000610eb7611770565b6001600160a01b03811660009081526001602081905260409091205491925060ff909116151514610f195760405162461bcd60e51b81526004018080602001828103825260278152602001806117756027913960400191505060405180910390fd5b6001600160a01b038216600090815260056020526040902054829060ff16610f7b576040805162461bcd60e51b815260206004820152601060248201526f15dc9a5d195c881b9bdd08195e1a5cdd60821b604482015290519081900360640190fd5b6001600160a01b0383166000908152600560205260408120805460ff19169055600454905b8181101561104b57846001600160a01b031660048281548110610fbf57fe5b6000918252602090912001546001600160a01b031614156110435760046001830381548110610fea57fe5b600091825260209091200154600480546001600160a01b03909216918390811061101057fe5b9060005260206000200160006101000a8154816001600160a01b0302191690836001600160a01b0316021790555061104b565b600101610fa0565b50600480548061105757fe5b600082815260208120820160001990810180546001600160a01b03191690559091019091556040516001600160a01b038616917f86e5bbceda94081c32220d685f37cc4e3ea7bb0be2dfbf0cb703579505a5390e91a250505050565b60606002805480602002602001604051908101604052809291908181526020018280548015610ba6576020028201919060005260206000209081546001600160a01b03168152600190910190602001808311610b88575050505050905090565b6006546001600160a01b031681565b60606000805480602002602001604051908101604052809291908181526020018280548015610ba6576020028201919060005260206000209081546001600160a01b03168152600190910190602001808311610b88575050505050905090565b600061118c611770565b6001600160a01b03811660009081526001602081905260409091205491925060ff9091161515146111ee5760405162461bcd60e51b81526004018080602001828103825260278152602001806117756027913960400191505060405180910390fd5b50600680546001600160a01b0319166001600160a01b0392909216919091179055565b600061121b611770565b6001600160a01b03811660009081526001602081905260409091205491925060ff90911615151461127d5760405162461bcd60e51b81526004018080602001828103825260278152602001806117756027913960400191505060405180910390fd5b6001600160a01b038216600090815260036020526040902054829060ff16156112e5576040805162461bcd60e51b815260206004820152601560248201527452656164657220616c72656164792065786973747360581b604482015290519081900360640190fd5b6001600160a01b038316600081815260036020526040808220805460ff1916600190811790915560028054918201815583527f405787fa12a823e0f2b7631cc41b3ba8828b3321ca811111fa75cd3aa3bb5ace0180546001600160a01b03191684179055517fb7724d890d2888af5a3fc456edb667e2c82c4441449ebcac301c618759e4f86d9190a2505050565b600061137d611770565b6001600160a01b03811660009081526001602081905260409091205491925060ff9091161515146113df5760405162461bcd60e51b81526004018080602001828103825260278152602001806117756027913960400191505060405180910390fd5b50600780546001600160a01b0319166001600160a01b0392909216919091179055565b600061140c611770565b6001600160a01b03811660009081526001602081905260409091205491925060ff90911615151461146e5760405162461bcd60e51b81526004018080602001828103825260278152602001806117756027913960400191505060405180910390fd5b6001600160a01b038216600090815260056020526040902054829060ff16156114d6576040805162461bcd60e51b815260206004820152601560248201527457726974657220616c72656164792065786973747360581b604482015290519081900360640190fd5b6001600160a01b038316600081815260056020526040808220805460ff1916600190811790915560048054918201815583527f8a35acfbc15ff81a39ae7d344fd709f28e8600b4aa8c65c6b64bfe7fe36bd19b0180546001600160a01b03191684179055517f6ff3aa2ea7b53070f6d9d07a445d338d89e8edef44250ffa8be19f53910d4a2e9190a2505050565b600061156e611770565b6001600160a01b03811660009081526001602081905260409091205491925060ff9091161515146115d05760405162461bcd60e51b81526004018080602001828103825260278152602001806117756027913960400191505060405180910390fd5b6001600160a01b038216600090815260036020526040902054829060ff16611632576040805162461bcd60e51b815260206004820152601060248201526f14995859195c881b9bdd08195e1a5cdd60821b604482015290519081900360640190fd5b6001600160a01b0383166000908152600360205260408120805460ff19169055600254905b8181101561170257846001600160a01b03166002828154811061167657fe5b6000918252602090912001546001600160a01b031614156116fa57600260018303815481106116a157fe5b600091825260209091200154600280546001600160a01b0390921691839081106116c757fe5b9060005260206000200160006101000a8154816001600160a01b0302191690836001600160a01b03160217905550611702565b600101611657565b50600280548061170e57fe5b600082815260208120820160001990810180546001600160a01b03191690559091019091556040516001600160a01b038616917fe933431644458f1217f9e93d3e000e03c9bbbe55761046d0985c2e4d157bcbaa91a250505050565b60005490565b339056fe4f776e61626c653a2063616c6c6572206973206e6f74206f6e65206f6620746865206f776e6572506c6174666f726d2057616c6c65742041646472657373206861736e2774206265656e2073657421a264697066735822122080d49f058ad3fd57bd792b7c2ba7be9f19c9b148258ddc7a20d9b9a4955f84ee64736f6c63430006020033",
  "source": "pragma solidity >=0.6.0 <0.8.0;\n\nimport \"../utils/ownable/ReadWritePermissionable.sol\";\nimport \"../config/EurusInternalConfig.sol\";\ncontract EurusUserDeposit is ReadWritePermissionable {\n    address payable public eurusPlatformWalletAddress;\n\n    EurusInternalConfig public eurusInternalConfig;\n\n    event Sweep(bytes32 indexed transactionHash, address indexed senderAddr, string assetName, uint256 amount);\n    //event SweepFailure(bytes32 indexed transactionHash);\n\n    constructor() public{}\n\n    function setEurusInternalConfigAddress(address eurusInternalConfigAddr)public onlyOwner{\n        eurusInternalConfig=EurusInternalConfig(eurusInternalConfigAddr);\n    }\n\n    function setEurusPlatformAddress(address eurusPlatformAddr)public onlyOwner{\n        eurusPlatformWalletAddress=payable(eurusPlatformAddr);\n    }\n\n    function sweep(bytes32 transactionHash, address sender, string memory assetName, uint256 amount)public onlyWriter(msg.sender){\n        require(sender!=address(0),\"Invalid sender!\");\n        require(eurusPlatformWalletAddress!=(address(0)),\"Platform Wallet Address hasn't been set!\");\n        if (keccak256(abi.encodePacked(assetName)) != keccak256(abi.encodePacked(\"ETH\"))){\n            address addr = eurusInternalConfig.getErc20SmartContractAddrByAssetName(assetName);\n            require(addr!=address(0),\"Invalid ERC20 assetName\");\n            bytes memory data = abi.encodeWithSignature(\"transfer(address,uint256)\", eurusPlatformWalletAddress, amount);\n            (bool success, bytes memory returnData) = address(addr).call(data);\n            require(success, string(returnData));\n           //bool result;\n           //bytes32 output;\n           //(result, output) = external_call(addr,0,data);\n           //require(result,  bytes32ToString(output));\n        }else{\n            eurusPlatformWalletAddress.transfer(amount);\n        }\n        emit Sweep(transactionHash,sender,assetName, amount);\n    }\n\n    //function bytes32ToString(bytes32 _bytes32) public pure returns (string memory) {\n    //    uint8 i = 0;\n    //    while(i < 32 && _bytes32[i] != 0) {\n    //        i++;\n    //    }\n    //    bytes memory bytesArray = new bytes(i);\n    //    for (i = 0; i < 32 && _bytes32[i] != 0; i++) {\n    //        bytesArray[i] = _bytes32[i];\n    //    }\n    //    return string(bytesArray);\n    //}\n\n   //function external_call(address destination, uint value, bytes memory data) internal returns (bool, bytes32) {\n   //    bool result;\n   //    bytes32 output;\n   //    assembly {\n   //        output := mload(0x40)\n   //        result := call(\n   //        gas(),\n   //        destination,\n   //        value,\n   //        add(data, 32),     // First 32 bytes are the padded length of data, so exclude that\n   //        mload(data),       // Size of the input (in bytes) - this is what fixes the padding problem\n   //        output,\n   //        0x40                  // Output is ignored, therefore the output size is zero\n   //        )\n   //    }\n   //    return (result, output);\n   //}\n\n}\n\n",
  "sourcePath": "/Users/duncanto/Documents/WorkingSet2/src/eurus-backend/smartcontract/contracts/deposit/EurusUserDeposit.sol",
  "compiler": {
    "name": "solc",
    "version": "0.6.2+commit.bacdbe57.Emscripten.clang"
  },
  "schemaVersion": "3.4.1",
  "updatedAt": "2021-08-04T10:30:06.152Z",
  "devdoc": {
    "methods": {
      "renounceOwnership()": {
        "details": "Leaves the contract without owner. It will not be possible to call `onlyOwner` functions anymore. Can only be called by the current owner.     * NOTE: Renouncing ownership will leave the contract without an owner, thereby removing any functionality that is only available to the owner."
      }
    }
  },
  "userdoc": {
    "methods": {}
  }
}