{
  "contractName": "ExternalSmartContractConfig",
  "abi": [
    {
      "anonymous": false,
      "inputs": [
        {
          "indexed": false,
          "internalType": "string",
          "name": "",
          "type": "string"
        }
      ],
      "name": "Event",
      "type": "event"
    },
    {
      "anonymous": false,
      "inputs": [
        {
          "indexed": true,
          "internalType": "address",
          "name": "owner",
          "type": "address"
        }
      ],
      "name": "OwnerAdded",
      "type": "event"
    },
    {
      "anonymous": false,
      "inputs": [
        {
          "indexed": true,
          "internalType": "address",
          "name": "owner",
          "type": "address"
        }
      ],
      "name": "OwnerRemoved",
      "type": "event"
    },
    {
      "anonymous": false,
      "inputs": [
        {
          "indexed": true,
          "internalType": "address",
          "name": "previousOwner",
          "type": "address"
        },
        {
          "indexed": true,
          "internalType": "address",
          "name": "newOwner",
          "type": "address"
        }
      ],
      "name": "OwnershipTransferred",
      "type": "event"
    },
    {
      "anonymous": false,
      "inputs": [
        {
          "indexed": true,
          "internalType": "address",
          "name": "reader",
          "type": "address"
        }
      ],
      "name": "ReaderAdded",
      "type": "event"
    },
    {
      "anonymous": false,
      "inputs": [
        {
          "indexed": true,
          "internalType": "address",
          "name": "reader",
          "type": "address"
        }
      ],
      "name": "ReaderRemoved",
      "type": "event"
    },
    {
      "anonymous": false,
      "inputs": [
        {
          "indexed": true,
          "internalType": "address",
          "name": "writer",
          "type": "address"
        }
      ],
      "name": "WriterAdded",
      "type": "event"
    },
    {
      "anonymous": false,
      "inputs": [
        {
          "indexed": true,
          "internalType": "address",
          "name": "writer",
          "type": "address"
        }
      ],
      "name": "WriterRemoved",
      "type": "event"
    },
    {
      "inputs": [
        {
          "internalType": "address",
          "name": "newOwner",
          "type": "address"
        }
      ],
      "name": "addOwner",
      "outputs": [],
      "stateMutability": "nonpayable",
      "type": "function"
    },
    {
      "inputs": [
        {
          "internalType": "address",
          "name": "newReader",
          "type": "address"
        }
      ],
      "name": "addReader",
      "outputs": [],
      "stateMutability": "nonpayable",
      "type": "function"
    },
    {
      "inputs": [
        {
          "internalType": "address",
          "name": "newWriter",
          "type": "address"
        }
      ],
      "name": "addWriter",
      "outputs": [],
      "stateMutability": "nonpayable",
      "type": "function"
    },
    {
      "inputs": [
        {
          "internalType": "uint256",
          "name": "",
          "type": "uint256"
        }
      ],
      "name": "addressList",
      "outputs": [
        {
          "internalType": "address",
          "name": "",
          "type": "address"
        }
      ],
      "stateMutability": "view",
      "type": "function"
    },
    {
      "inputs": [
        {
          "internalType": "uint256",
          "name": "",
          "type": "uint256"
        }
      ],
      "name": "currencyList",
      "outputs": [
        {
          "internalType": "string",
          "name": "",
          "type": "string"
        }
      ],
      "stateMutability": "view",
      "type": "function"
    },
    {
      "inputs": [],
      "name": "getOwnerCount",
      "outputs": [
        {
          "internalType": "uint256",
          "name": "",
          "type": "uint256"
        }
      ],
      "stateMutability": "view",
      "type": "function"
    },
    {
      "inputs": [],
      "name": "getOwners",
      "outputs": [
        {
          "internalType": "address[]",
          "name": "",
          "type": "address[]"
        }
      ],
      "stateMutability": "view",
      "type": "function"
    },
    {
      "inputs": [],
      "name": "getReaderList",
      "outputs": [
        {
          "internalType": "address[]",
          "name": "",
          "type": "address[]"
        }
      ],
      "stateMutability": "view",
      "type": "function"
    },
    {
      "inputs": [],
      "name": "getWriterList",
      "outputs": [
        {
          "internalType": "address[]",
          "name": "",
          "type": "address[]"
        }
      ],
      "stateMutability": "view",
      "type": "function"
    },
    {
      "inputs": [
        {
          "internalType": "address",
          "name": "addr",
          "type": "address"
        }
      ],
      "name": "isOwner",
      "outputs": [
        {
          "internalType": "bool",
          "name": "",
          "type": "bool"
        }
      ],
      "stateMutability": "view",
      "type": "function"
    },
    {
      "inputs": [
        {
          "internalType": "address",
          "name": "addr",
          "type": "address"
        }
      ],
      "name": "isWriter",
      "outputs": [
        {
          "internalType": "bool",
          "name": "",
          "type": "bool"
        }
      ],
      "stateMutability": "view",
      "type": "function"
    },
    {
      "inputs": [
        {
          "internalType": "address",
          "name": "owner",
          "type": "address"
        }
      ],
      "name": "removeOwner",
      "outputs": [],
      "stateMutability": "nonpayable",
      "type": "function"
    },
    {
      "inputs": [
        {
          "internalType": "address",
          "name": "existingReader",
          "type": "address"
        }
      ],
      "name": "removerReader",
      "outputs": [],
      "stateMutability": "nonpayable",
      "type": "function"
    },
    {
      "inputs": [
        {
          "internalType": "address",
          "name": "existingWriter",
          "type": "address"
        }
      ],
      "name": "removerWriter",
      "outputs": [],
      "stateMutability": "nonpayable",
      "type": "function"
    },
    {
      "inputs": [],
      "name": "renounceOwnership",
      "outputs": [],
      "stateMutability": "nonpayable",
      "type": "function"
    },
    {
      "inputs": [
        {
          "internalType": "address",
          "name": "_currencyAddr",
          "type": "address"
        },
        {
          "internalType": "string",
          "name": "asset",
          "type": "string"
        },
        {
          "internalType": "uint256",
          "name": "decimal",
          "type": "uint256"
        },
        {
          "internalType": "string",
          "name": "id",
          "type": "string"
        }
      ],
      "name": "addCurrencyInfo",
      "outputs": [],
      "stateMutability": "nonpayable",
      "type": "function"
    },
    {
      "inputs": [
        {
          "internalType": "string",
          "name": "asset",
          "type": "string"
        }
      ],
      "name": "removeCurrencyInfo",
      "outputs": [],
      "stateMutability": "nonpayable",
      "type": "function"
    },
    {
      "inputs": [
        {
          "internalType": "string",
          "name": "asset",
          "type": "string"
        }
      ],
      "name": "getErc20SmartContractAddrByAssetName",
      "outputs": [
        {
          "internalType": "address",
          "name": "",
          "type": "address"
        }
      ],
      "stateMutability": "view",
      "type": "function"
    },
    {
      "inputs": [
        {
          "internalType": "address",
          "name": "_currencyAddr",
          "type": "address"
        }
      ],
      "name": "getErc20SmartContractByAddr",
      "outputs": [
        {
          "internalType": "string",
          "name": "",
          "type": "string"
        }
      ],
      "stateMutability": "view",
      "type": "function"
    },
    {
      "inputs": [],
      "name": "getAssetAddress",
      "outputs": [
        {
          "internalType": "string[]",
          "name": "",
          "type": "string[]"
        },
        {
          "internalType": "address[]",
          "name": "",
          "type": "address[]"
        }
      ],
      "stateMutability": "view",
      "type": "function"
    },
    {
      "inputs": [
        {
          "internalType": "string",
          "name": "asset",
          "type": "string"
        }
      ],
      "name": "getAssetDecimal",
      "outputs": [
        {
          "internalType": "uint256",
          "name": "",
          "type": "uint256"
        }
      ],
      "stateMutability": "view",
      "type": "function"
    },
    {
      "inputs": [
        {
          "internalType": "string",
          "name": "asset",
          "type": "string"
        }
      ],
      "name": "getAssetListID",
      "outputs": [
        {
          "internalType": "string",
          "name": "",
          "type": "string"
        }
      ],
      "stateMutability": "view",
      "type": "function"
    },
    {
      "inputs": [
        {
          "internalType": "uint256",
          "name": "ethFee",
          "type": "uint256"
        },
        {
          "internalType": "string[]",
          "name": "asset",
          "type": "string[]"
        },
        {
          "internalType": "uint256[]",
          "name": "amount",
          "type": "uint256[]"
        }
      ],
      "name": "setETHFee",
      "outputs": [],
      "stateMutability": "nonpayable",
      "type": "function"
    },
    {
      "inputs": [
        {
          "internalType": "string",
          "name": "asset",
          "type": "string"
        },
        {
          "internalType": "uint256",
          "name": "amount",
          "type": "uint256"
        }
      ],
      "name": "setAdminFee",
      "outputs": [],
      "stateMutability": "nonpayable",
      "type": "function"
    },
    {
      "inputs": [
        {
          "internalType": "string",
          "name": "asset",
          "type": "string"
        }
      ],
      "name": "getAdminFee",
      "outputs": [
        {
          "internalType": "uint256",
          "name": "",
          "type": "uint256"
        }
      ],
      "stateMutability": "view",
      "type": "function"
    },
    {
      "inputs": [
        {
          "internalType": "string",
          "name": "asset",
          "type": "string"
        },
        {
          "internalType": "string",
          "name": "kycLevel",
          "type": "string"
        },
        {
          "internalType": "uint256",
          "name": "limit",
          "type": "uint256"
        }
      ],
      "name": "setKycLimit",
      "outputs": [],
      "stateMutability": "nonpayable",
      "type": "function"
    },
    {
      "inputs": [
        {
          "internalType": "string",
          "name": "symbol",
          "type": "string"
        },
        {
          "internalType": "string",
          "name": "kycLevel",
          "type": "string"
        }
      ],
      "name": "getCurrencyKycLimit",
      "outputs": [
        {
          "internalType": "uint256",
          "name": "",
          "type": "uint256"
        }
      ],
      "stateMutability": "view",
      "type": "function"
    }
  ],
  "bytecode": "0x608060405260006100176001600160e01b036100ab16565b6001600160a01b0381166000818152600160208190526040808320805460ff191683179055825491820183558280527f290decd9548b62a8d60345a988386fc84ba6bc95484008f6362f93160ef3e56390910180546001600160a01b031916841790555192935090917f8be0079c531659141344cd1fd0a4f28419497f9722a3daafe3b4186f6b6457e0908290a3506100af565b3390565b6122f8806100be6000396000f3fe608060405234801561001057600080fd5b50600436106101a95760003560e01c8063715018a6116100f9578063b810fb4311610097578063ddc6f5f611610071578063ddc6f5f614610386578063ecbeef8114610399578063ef18374a146103ac578063f0d053dc146103b4576101a9565b8063b810fb431461034d578063c4a5fbf414610360578063da2824a814610373576101a9565b806385aaed4e116100d357806385aaed4e14610317578063898bb0691461031f578063a0e67e2b14610332578063afd8b1d11461033a576101a9565b8063715018a6146102e95780638145d126146102f157806384c761e114610304576101a9565b80633d692f1211610166578063532f9a3711610140578063532f9a371461028d5780635f3820fd146102ad578063670ab5e9146102c05780637065cb48146102d6576101a9565b80633d692f121461024757806345ce03521461025a5780634d708c721461027a576101a9565b80630f660569146101ae578063173825d9146101c35780632b29ba23146101d65780632f54bf6e146101ff5780633a1abfe7146102125780633d0a60f014610227575b600080fd5b6101c16101bc366004611cd2565b6103c7565b005b6101c16101d1366004611c34565b6106fa565b6101e96101e4366004611c34565b6108a3565b6040516101f69190612093565b60405180910390f35b6101e961020d366004611c34565b6108c1565b61021a6108df565b6040516101f6919061200c565b61023a610235366004611cd2565b610942565b6040516101f69190611ff8565b6101c1610255366004611c56565b610974565b61026d610268366004611cd2565b610be5565b6040516101f69190612246565b61026d610288366004611cd2565b610c0d565b6102a061029b366004611cd2565b610c1f565b6040516101f6919061209e565b6102a06102bb366004611c34565b610ccc565b6102c8610d40565b6040516101f692919061201f565b6101c16102e4366004611c34565b610e7d565b6101c1610f9a565b6101c16102ff366004611c34565b6110d2565b6101c1610312366004611d6e565b611291565b61021a611316565b6101c161032d366004611e33565b611376565b61021a611422565b6101c1610348366004611c34565b611482565b61023a61035b366004611e1b565b611598565b61026d61036e366004611d0d565b6115bf565b6101c1610381366004611c34565b611605565b6101c1610394366004611c34565b61171b565b6101c16103a7366004611dd8565b6118da565b61026d611942565b6102a06103c2366004611e1b565b611948565b6103d0336108c1565b1580156103ed57503360009081526005602052604090205460ff16155b156104135760405162461bcd60e51b815260040161040a9061210f565b60405180910390fd5b60006006826040516104259190611f5d565b908152602001604051809103902060020160006101000a81548160ff02191690831515021790555060405180602001604052806000815250600760006006846040516104719190611f5d565b9081526040805160209281900383019020546001600160a01b0316835282820193909352910160002082516104ac93919291909101906119f2565b5060006006826040516104bf9190611f5d565b908152604080516020928190038301812080546001600160a01b0319166001600160a01b03959095169490941790935590820181526000825251600990610507908490611f5d565b908152602001604051809103902090805190602001906105289291906119f2565b50600060088260405161053b9190611f5d565b908152604051908190036020019020556000805b600b54811015610698578260405160200161056a9190611f5d565b60405160208183030381529060405280519060200120600b828154811061058d57fe5b906000526020600020016040516020016105a79190611f79565b60405160208183030381529060405280519060200120141561069057600b5460011161068757600b805460001981019081106105df57fe5b90600052602060002001600b82815481106105f657fe5b90600052602060002001908054600181600116156101000203166002900461061f929190611a70565b50600c8054600019810190811061063257fe5b600091825260209091200154600c80546001600160a01b03909216918390811061065857fe5b9060005260206000200160006101000a8154816001600160a01b0302191690836001600160a01b031602179055505b60019150610698565b60010161054f565b5080156106f657600b8054806106aa57fe5b6001900381819060005260206000200160006106c69190611ae5565b9055600c8054806106d357fe5b600082815260209020810160001990810180546001600160a01b03191690550190555b5050565b60006107046119ee565b6001600160a01b03811660009081526001602081905260409091205491925060ff9091161515146107475760405162461bcd60e51b815260040161040a9061213d565b6001600160a01b038216600090815260016020526040902054829060ff1661076e57600080fd5b6001600160a01b0383166000908152600160205260408120805460ff191690558054905b8181101561083b57846001600160a01b0316600082815481106107b157fe5b6000918252602090912001546001600160a01b0316141561083357600060018303815481106107dc57fe5b600091825260208220015481546001600160a01b0390911691908390811061080057fe5b9060005260206000200160006101000a8154816001600160a01b0302191690836001600160a01b0316021790555061083b565b600101610792565b50600080548061084757fe5b600082815260208120820160001990810180546001600160a01b03191690559091019091556040516001600160a01b038616917f58619076adf5bb0943d100ef88d52d7c3fd691b19d3a9071b555b651fbf418da91a250505050565b6001600160a01b031660009081526005602052604090205460ff1690565b6001600160a01b031660009081526001602052604090205460ff1690565b6060600480548060200260200160405190810160405280929190818152602001828054801561093757602002820191906000526020600020905b81546001600160a01b03168152600190910190602001808311610919575b505050505090505b90565b60006006826040516109549190611f5d565b908152604051908190036020019020546001600160a01b03169050919050565b61097d336108c1565b15801561099a57503360009081526005602052604090205460ff16155b156109b75760405162461bcd60e51b815260040161040a9061210f565b826006816040516109c89190611f5d565b9081526040519081900360200190206002015460ff16151560011415610a005760405162461bcd60e51b815260040161040a90612184565b6040518060a00160405280866001600160a01b0316815260200185815260200160011515815260200184815260200183815250600685604051610a439190611f5d565b90815260405160209181900382019020825181546001600160a01b0319166001600160a01b039091161781558282015180519192610a89926001850192909101906119f2565b50604082015160028201805460ff19169115159190911790556060820151600382015560808201518051610ac79160048401916020909101906119f2565b5050506001600160a01b03851660009081526007602090815260409091208551610af3928701906119f2565b5082600885604051610b059190611f5d565b90815260200160405180910390208190555081600985604051610b289190611f5d565b90815260200160405180910390209080519060200190610b499291906119f2565b50600b80546001810182556000919091528451610b8d917f0175b7a638427703f0dbe7bb9bbf987a2551717b34e79f33b5b1008d1fa01db9019060208701906119f2565b5050600c80546001810182556000919091527fdf6966c971051c3d54ec59162606531493a51404a002842f56009d7e5cf4a8c70180546001600160a01b0319166001600160a01b039590951694909417909355505050565b6000600882604051610bf79190611f5d565b9081526020016040518091039020549050919050565b6000600a82604051610bf79190611f5d565b6060600982604051610c319190611f5d565b9081526040805160209281900383018120805460026001821615610100026000190190911604601f81018590048502830185019093528282529092909190830182828015610cc05780601f10610c9557610100808354040283529160200191610cc0565b820191906000526020600020905b815481529060010190602001808311610ca357829003601f168201915b50505050509050919050565b6001600160a01b03811660009081526007602090815260409182902080548351601f6002600019610100600186161502019093169290920491820184900484028101840190945280845260609392830182828015610cc05780601f10610c9557610100808354040283529160200191610cc0565b606080600b600c81805480602002602001604051908101604052809291908181526020016000905b82821015610e135760008481526020908190208301805460408051601f6002600019610100600187161502019094169390930492830185900485028101850190915281815292830182828015610dff5780601f10610dd457610100808354040283529160200191610dff565b820191906000526020600020905b815481529060010190602001808311610de257829003601f168201915b505050505081526020019060010190610d68565b50505050915080805480602002602001604051908101604052809291908181526020018280548015610e6e57602002820191906000526020600020905b81546001600160a01b03168152600190910190602001808311610e50575b50505050509050915091509091565b6000610e876119ee565b6001600160a01b03811660009081526001602081905260409091205491925060ff909116151514610eca5760405162461bcd60e51b815260040161040a9061213d565b6001600160a01b038216600090815260016020819052604090912054839160ff90911615151415610f0d5760405162461bcd60e51b815260040161040a906121bb565b6001600160a01b0383166000818152600160208190526040808320805460ff191683179055825491820183558280527f290decd9548b62a8d60345a988386fc84ba6bc95484008f6362f93160ef3e56390910180546001600160a01b03191684179055517f994a936646fe87ffe4f1e469d3d6aa417d6b855598397f323de5b449f765f0c39190a2505050565b6000610fa46119ee565b6001600160a01b03811660009081526001602081905260409091205491925060ff909116151514610fe75760405162461bcd60e51b815260040161040a9061213d565b6000610ff16119ee565b6001600160a01b0381166000908152600160205260408120805460ff191690559091505b600054600019018110156110c657816001600160a01b03166000828154811061103a57fe5b6000918252602090912001546001600160a01b031614156110be5760008054600019810190811061106757fe5b600091825260208220015481546001600160a01b0390911691908390811061108b57fe5b9060005260206000200160006101000a8154816001600160a01b0302191690836001600160a01b031602179055506110c6565b600101611015565b5060008054806106d357fe5b60006110dc6119ee565b6001600160a01b03811660009081526001602081905260409091205491925060ff90911615151461111f5760405162461bcd60e51b815260040161040a9061213d565b6001600160a01b038216600090815260056020526040902054829060ff166111595760405162461bcd60e51b815260040161040a906121f2565b6001600160a01b0383166000908152600560205260408120805460ff19169055600454905b8181101561122957846001600160a01b03166004828154811061119d57fe5b6000918252602090912001546001600160a01b0316141561122157600460018303815481106111c857fe5b600091825260209091200154600480546001600160a01b0390921691839081106111ee57fe5b9060005260206000200160006101000a8154816001600160a01b0302191690836001600160a01b03160217905550611229565b60010161117e565b50600480548061123557fe5b600082815260208120820160001990810180546001600160a01b03191690559091019091556040516001600160a01b038616917f86e5bbceda94081c32220d685f37cc4e3ea7bb0be2dfbf0cb703579505a5390e91a250505050565b61129a336108c1565b1580156112b757503360009081526005602052604090205460ff16155b156112d45760405162461bcd60e51b815260040161040a9061210f565b80600d846040516112e59190611f5d565b9081526020016040518091039020836040516113019190611f5d565b90815260405190819003602001902055505050565b60606002805480602002602001604051908101604052809291908181526020018280548015610937576020028201919060005260206000209081546001600160a01b03168152600190910190602001808311610919575050505050905090565b61137f336108c1565b15801561139c57503360009081526005602052604090205460ff16155b156113b95760405162461bcd60e51b815260040161040a9061210f565b82600a6040516113c890611fe9565b9081526040519081900360200190205560005b815181101561141c576114148382815181106113f357fe5b602002602001015183838151811061140757fe5b60200260200101516118da565b6001016113db565b50505050565b60606000805480602002602001604051908101604052809291908181526020018280548015610937576020028201919060005260206000209081546001600160a01b03168152600190910190602001808311610919575050505050905090565b600061148c6119ee565b6001600160a01b03811660009081526001602081905260409091205491925060ff9091161515146114cf5760405162461bcd60e51b815260040161040a9061213d565b6001600160a01b038216600090815260036020526040902054829060ff161561150a5760405162461bcd60e51b815260040161040a906120b1565b6001600160a01b038316600081815260036020526040808220805460ff1916600190811790915560028054918201815583527f405787fa12a823e0f2b7631cc41b3ba8828b3321ca811111fa75cd3aa3bb5ace0180546001600160a01b03191684179055517fb7724d890d2888af5a3fc456edb667e2c82c4441449ebcac301c618759e4f86d9190a2505050565b600c81815481106115a557fe5b6000918252602090912001546001600160a01b0316905081565b6000600d836040516115d19190611f5d565b9081526020016040518091039020826040516115ed9190611f5d565b90815260200160405180910390205490505b92915050565b600061160f6119ee565b6001600160a01b03811660009081526001602081905260409091205491925060ff9091161515146116525760405162461bcd60e51b815260040161040a9061213d565b6001600160a01b038216600090815260056020526040902054829060ff161561168d5760405162461bcd60e51b815260040161040a906120e0565b6001600160a01b038316600081815260056020526040808220805460ff1916600190811790915560048054918201815583527f8a35acfbc15ff81a39ae7d344fd709f28e8600b4aa8c65c6b64bfe7fe36bd19b0180546001600160a01b03191684179055517f6ff3aa2ea7b53070f6d9d07a445d338d89e8edef44250ffa8be19f53910d4a2e9190a2505050565b60006117256119ee565b6001600160a01b03811660009081526001602081905260409091205491925060ff9091161515146117685760405162461bcd60e51b815260040161040a9061213d565b6001600160a01b038216600090815260036020526040902054829060ff166117a25760405162461bcd60e51b815260040161040a9061221c565b6001600160a01b0383166000908152600360205260408120805460ff19169055600254905b8181101561187257846001600160a01b0316600282815481106117e657fe5b6000918252602090912001546001600160a01b0316141561186a576002600183038154811061181157fe5b600091825260209091200154600280546001600160a01b03909216918390811061183757fe5b9060005260206000200160006101000a8154816001600160a01b0302191690836001600160a01b03160217905550611872565b6001016117c7565b50600280548061187e57fe5b600082815260208120820160001990810180546001600160a01b03191690559091019091556040516001600160a01b038616917fe933431644458f1217f9e93d3e000e03c9bbbe55761046d0985c2e4d157bcbaa91a250505050565b6118e3336108c1565b15801561190057503360009081526005602052604090205460ff16155b1561191d5760405162461bcd60e51b815260040161040a9061210f565b80600a8360405161192e9190611f5d565b908152604051908190036020019020555050565b60005490565b600b818154811061195557fe5b600091825260209182902001805460408051601f60026000196101006001871615020190941693909304928301859004850281018501909152818152935090918301828280156119e65780601f106119bb576101008083540402835291602001916119e6565b820191906000526020600020905b8154815290600101906020018083116119c957829003601f168201915b505050505081565b3390565b828054600181600116156101000203166002900490600052602060002090601f016020900481019282601f10611a3357805160ff1916838001178555611a60565b82800160010185558215611a60579182015b82811115611a60578251825591602001919060010190611a45565b50611a6c929150611b2c565b5090565b828054600181600116156101000203166002900490600052602060002090601f016020900481019282601f10611aa95780548555611a60565b82800160010185558215611a6057600052602060002091601f016020900482015b82811115611a60578254825591600101919060010190611aca565b50805460018160011615610100020316600290046000825580601f10611b0b5750611b29565b601f016020900490600052602060002090810190611b299190611b2c565b50565b61093f91905b80821115611a6c5760008155600101611b32565b80356001600160a01b03811681146115ff57600080fd5b600082601f830112611b6d578081fd5b8135611b80611b7b82612276565b61224f565b818152915060208083019084810181840286018201871015611ba157600080fd5b60005b84811015611bc057813584529282019290820190600101611ba4565b505050505092915050565b600082601f830112611bdb578081fd5b813567ffffffffffffffff811115611bf1578182fd5b611c04601f8201601f191660200161224f565b9150808252836020828501011115611c1b57600080fd5b8060208401602084013760009082016020015292915050565b600060208284031215611c45578081fd5b611c4f8383611b46565b9392505050565b60008060008060808587031215611c6b578283fd5b611c758686611b46565b9350602085013567ffffffffffffffff80821115611c91578485fd5b611c9d88838901611bcb565b9450604087013593506060870135915080821115611cb9578283fd5b50611cc687828801611bcb565b91505092959194509250565b600060208284031215611ce3578081fd5b813567ffffffffffffffff811115611cf9578182fd5b611d0584828501611bcb565b949350505050565b60008060408385031215611d1f578182fd5b823567ffffffffffffffff80821115611d36578384fd5b611d4286838701611bcb565b93506020850135915080821115611d57578283fd5b50611d6485828601611bcb565b9150509250929050565b600080600060608486031215611d82578283fd5b833567ffffffffffffffff80821115611d99578485fd5b611da587838801611bcb565b94506020860135915080821115611dba578384fd5b50611dc786828701611bcb565b925050604084013590509250925092565b60008060408385031215611dea578182fd5b823567ffffffffffffffff811115611e00578283fd5b611e0c85828601611bcb565b95602094909401359450505050565b600060208284031215611e2c578081fd5b5035919050565b600080600060608486031215611e47578283fd5b8335925060208085013567ffffffffffffffff80821115611e66578485fd5b81870188601f820112611e77578586fd5b80359250611e87611b7b84612276565b83815284810190828601885b86811015611ebc57611eaa8d898435880101611bcb565b84529287019290870190600101611e93565b509097505050506040870135925080831115611ed6578384fd5b5050611ee486828701611b5d565b9150509250925092565b6000815180845260208085019450808401835b83811015611f265781516001600160a01b031687529582019590820190600101611f01565b509495945050505050565b60008151808452611f49816020860160208601612296565b601f01601f19169290920160200192915050565b60008251611f6f818460208701612296565b9190910192915050565b6000808354600180821660008114611f985760018114611faf57611fde565b60ff198316865260028304607f1686019350611fde565b600283048786526020808720875b83811015611fd65781548a820152908501908201611fbd565b505050860193505b509195945050505050565b6208aa8960eb1b815260030190565b6001600160a01b0391909116815260200190565b600060208252611c4f6020830184611eee565b60006040820160408352808551808352606085019150602092506060838202860101838801855b8381101561207457605f19888403018552612062838351611f31565b94860194925090850190600101612046565b5050858103848701526120878188611eee565b98975050505050505050565b901515815260200190565b600060208252611c4f6020830184611f31565b60208082526015908201527452656164657220616c72656164792065786973747360581b604082015260600190565b60208082526015908201527457726974657220616c72656164792065786973747360581b604082015260600190565b6020808252601490820152734f776e6572206f7220777269746572206f6e6c7960601b604082015260600190565b60208082526027908201527f4f776e61626c653a2063616c6c6572206973206e6f74206f6e65206f66207468604082015266329037bbb732b960c91b606082015260800190565b6020808252601e908201527f496e76616c696420746f2061646420616e206164646564206173736574210000604082015260600190565b6020808252601b908201527f4164647265737320616c726561647920697320616e206f776e65720000000000604082015260600190565b60208082526010908201526f15dc9a5d195c881b9bdd08195e1a5cdd60821b604082015260600190565b60208082526010908201526f14995859195c881b9bdd08195e1a5cdd60821b604082015260600190565b90815260200190565b60405181810167ffffffffffffffff8111828210171561226e57600080fd5b604052919050565b600067ffffffffffffffff82111561228c578081fd5b5060209081020190565b60005b838110156122b1578181015183820152602001612299565b8381111561141c575050600091015256fea26469706673582212200a96d24cc78777b77fe8ccc7c2db7168a9c8ed091232e5ff50c3899026e97bb864736f6c63430006020033",
  "source": "pragma solidity >=0.6.0 <0.8.0;\npragma experimental ABIEncoderV2;\nimport \"../utils/ownable/ReadWritePermissionable.sol\";\n\ncontract ExternalSmartContractConfig is ReadWritePermissionable {\n    struct Currency{\n        address _currencyAddr;\n        string assetName;\n        bool isExist;\n        uint decimal;\n        string id;\n    }\n    mapping(string=>Currency) currencySCMap;\n    mapping(address=>string) currencyAddrMap;\n    mapping(string=>uint) currencyDecimalMap;\n    mapping(string=>string) currencyIDMap;\n\n    mapping(string=>uint) adminFeeMap;\n\n    string[] public currencyList;\n    address[] public addressList;\n\n    mapping(string=>mapping(string=>uint256)) currencyKycLimit;\n\n    modifier onlyNotAddedAddr(string memory assetName) {\n        require(currencySCMap[assetName].isExist!=true, \"Invalid to add an added asset!\");\n        _;\n    }\n\n    modifier onlyAddedAddr(string memory assetName) {\n        require(currencySCMap[assetName].isExist==true, \"Invalid to del a non-existing asset!\");\n        _;\n    }\n\n    function addCurrencyInfo(address _currencyAddr, string memory asset, uint decimal, string memory id)public onlyOwnerOrWriter onlyNotAddedAddr(asset){\n        currencySCMap[asset]=Currency(_currencyAddr,asset,true,decimal,id);\n        currencyAddrMap[_currencyAddr]=asset;\n        currencyDecimalMap[asset] = decimal;\n        currencyIDMap[asset] = id;\n        currencyList.push(asset);\n        addressList.push(_currencyAddr);\n    }\n    \n    function removeCurrencyInfo(string memory asset) public onlyOwnerOrWriter{\n        currencySCMap[asset].isExist=false;\n        currencyAddrMap[currencySCMap[asset]._currencyAddr]=\"\";\n        currencySCMap[asset]._currencyAddr = address(0);\n        currencyIDMap[asset] = \"\";\n        currencyDecimalMap[asset] = 0;\n        bool isFound = false;\n        for (uint i=0; i<currencyList.length; i++)\n            //Operator == not compatible with types string memory and string memory\n            //compare strings by hashing the packed encoding values of the string\n            if (keccak256(abi.encodePacked(currencyList[i])) == keccak256(abi.encodePacked(asset))) {\n                if (currencyList.length >= 1){\n                    currencyList[i] = currencyList[currencyList.length - 1];\n                    addressList[i]=addressList[addressList.length - 1];\n                }\n                isFound = true;\n                break;\n            }\n        if (isFound){\n            currencyList.pop();\n            addressList.pop();\n        }\n    }\n\n    function getErc20SmartContractAddrByAssetName(string memory asset)public view returns(address) {\n        return currencySCMap[asset]._currencyAddr;\n    }\n\n    function getErc20SmartContractByAddr(address _currencyAddr)public view returns(string memory){\n        return currencyAddrMap[_currencyAddr];\n    }\n\n    function getAssetAddress()public view returns(string [] memory,  address [] memory){\n        return (currencyList, addressList);\n    }\n\n    function getAssetDecimal(string memory asset) public view returns(uint) {\n        return currencyDecimalMap[asset];\n    }\n\n    function getAssetListID(string memory asset) public view returns(string memory) {\n        return currencyIDMap[asset];\n    }\n\n    function setETHFee(uint ethFee, string[] memory asset , uint[] memory amount) public onlyOwnerOrWriter{\n        adminFeeMap[\"ETH\"] = ethFee;\n        for(uint i = 0;i < amount.length; i++) {\n            setAdminFee(asset[i],amount[i]);\n        }\n    }\n\n    function setAdminFee(string memory asset, uint amount) public onlyOwnerOrWriter {\n        adminFeeMap[asset] = amount;\n    }\n\n    function getAdminFee(string memory asset) public view returns(uint){\n        return adminFeeMap[asset];\n    }\n\n    function setKycLimit(string memory asset, string memory kycLevel, uint256 limit) public onlyOwnerOrWriter{\n        currencyKycLimit[asset][kycLevel] = limit;\n    }\n\n    function getCurrencyKycLimit(string memory symbol, string memory kycLevel)public view returns(uint256){\n        return currencyKycLimit[symbol][kycLevel];\n    }\n\n}\n",
  "sourcePath": "/Users/duncanto/Documents/WorkingSet2/src/eurus-backend/smartcontract/contracts/config/ExternalSmartContractConfig.sol",
  "compiler": {
    "name": "solc",
    "version": "0.6.2+commit.bacdbe57.Emscripten.clang"
  },
  "schemaVersion": "3.4.1",
  "updatedAt": "2021-08-04T10:30:06.120Z",
  "devdoc": {
    "methods": {
      "renounceOwnership()": {
        "details": "Leaves the contract without owner. It will not be possible to call `onlyOwner` functions anymore. Can only be called by the current owner.     * NOTE: Renouncing ownership will leave the contract without an owner, thereby removing any functionality that is only available to the owner."
      }
    }
  },
  "userdoc": {
    "methods": {}
  }
}