{
  "contractName": "InternalSmartContractConfig",
  "abi": [
    {
      "inputs": [],
      "stateMutability": "nonpayable",
      "type": "constructor"
    },
    {
      "anonymous": false,
      "inputs": [
        {
          "indexed": false,
          "internalType": "string",
          "name": "",
          "type": "string"
        }
      ],
      "name": "Event",
      "type": "event"
    },
    {
      "anonymous": false,
      "inputs": [
        {
          "indexed": true,
          "internalType": "address",
          "name": "owner",
          "type": "address"
        }
      ],
      "name": "OwnerAdded",
      "type": "event"
    },
    {
      "anonymous": false,
      "inputs": [
        {
          "indexed": true,
          "internalType": "address",
          "name": "owner",
          "type": "address"
        }
      ],
      "name": "OwnerRemoved",
      "type": "event"
    },
    {
      "anonymous": false,
      "inputs": [
        {
          "indexed": true,
          "internalType": "address",
          "name": "previousOwner",
          "type": "address"
        },
        {
          "indexed": true,
          "internalType": "address",
          "name": "newOwner",
          "type": "address"
        }
      ],
      "name": "OwnershipTransferred",
      "type": "event"
    },
    {
      "anonymous": false,
      "inputs": [
        {
          "indexed": true,
          "internalType": "address",
          "name": "reader",
          "type": "address"
        }
      ],
      "name": "ReaderAdded",
      "type": "event"
    },
    {
      "anonymous": false,
      "inputs": [
        {
          "indexed": true,
          "internalType": "address",
          "name": "reader",
          "type": "address"
        }
      ],
      "name": "ReaderRemoved",
      "type": "event"
    },
    {
      "anonymous": false,
      "inputs": [
        {
          "indexed": true,
          "internalType": "address",
          "name": "writer",
          "type": "address"
        }
      ],
      "name": "WriterAdded",
      "type": "event"
    },
    {
      "anonymous": false,
      "inputs": [
        {
          "indexed": true,
          "internalType": "address",
          "name": "writer",
          "type": "address"
        }
      ],
      "name": "WriterRemoved",
      "type": "event"
    },
    {
      "inputs": [
        {
          "internalType": "address",
          "name": "newOwner",
          "type": "address"
        }
      ],
      "name": "addOwner",
      "outputs": [],
      "stateMutability": "nonpayable",
      "type": "function"
    },
    {
      "inputs": [
        {
          "internalType": "address",
          "name": "newReader",
          "type": "address"
        }
      ],
      "name": "addReader",
      "outputs": [],
      "stateMutability": "nonpayable",
      "type": "function"
    },
    {
      "inputs": [
        {
          "internalType": "address",
          "name": "newWriter",
          "type": "address"
        }
      ],
      "name": "addWriter",
      "outputs": [],
      "stateMutability": "nonpayable",
      "type": "function"
    },
    {
      "inputs": [],
      "name": "getOwnerCount",
      "outputs": [
        {
          "internalType": "uint256",
          "name": "",
          "type": "uint256"
        }
      ],
      "stateMutability": "view",
      "type": "function"
    },
    {
      "inputs": [],
      "name": "getOwners",
      "outputs": [
        {
          "internalType": "address[]",
          "name": "",
          "type": "address[]"
        }
      ],
      "stateMutability": "view",
      "type": "function"
    },
    {
      "inputs": [],
      "name": "getReaderList",
      "outputs": [
        {
          "internalType": "address[]",
          "name": "",
          "type": "address[]"
        }
      ],
      "stateMutability": "view",
      "type": "function"
    },
    {
      "inputs": [],
      "name": "getWriterList",
      "outputs": [
        {
          "internalType": "address[]",
          "name": "",
          "type": "address[]"
        }
      ],
      "stateMutability": "view",
      "type": "function"
    },
    {
      "inputs": [
        {
          "internalType": "address",
          "name": "addr",
          "type": "address"
        }
      ],
      "name": "isOwner",
      "outputs": [
        {
          "internalType": "bool",
          "name": "",
          "type": "bool"
        }
      ],
      "stateMutability": "view",
      "type": "function"
    },
    {
      "inputs": [
        {
          "internalType": "address",
          "name": "addr",
          "type": "address"
        }
      ],
      "name": "isWriter",
      "outputs": [
        {
          "internalType": "bool",
          "name": "",
          "type": "bool"
        }
      ],
      "stateMutability": "view",
      "type": "function"
    },
    {
      "inputs": [
        {
          "internalType": "address",
          "name": "owner",
          "type": "address"
        }
      ],
      "name": "removeOwner",
      "outputs": [],
      "stateMutability": "nonpayable",
      "type": "function"
    },
    {
      "inputs": [
        {
          "internalType": "address",
          "name": "existingReader",
          "type": "address"
        }
      ],
      "name": "removerReader",
      "outputs": [],
      "stateMutability": "nonpayable",
      "type": "function"
    },
    {
      "inputs": [
        {
          "internalType": "address",
          "name": "existingWriter",
          "type": "address"
        }
      ],
      "name": "removerWriter",
      "outputs": [],
      "stateMutability": "nonpayable",
      "type": "function"
    },
    {
      "inputs": [],
      "name": "renounceOwnership",
      "outputs": [],
      "stateMutability": "nonpayable",
      "type": "function"
    },
    {
      "inputs": [
        {
          "internalType": "address",
          "name": "addr",
          "type": "address"
        }
      ],
      "name": "setMainnetWalletAddress",
      "outputs": [],
      "stateMutability": "nonpayable",
      "type": "function"
    },
    {
      "inputs": [
        {
          "internalType": "address",
          "name": "addr",
          "type": "address"
        }
      ],
      "name": "setUserWalletAddress",
      "outputs": [],
      "stateMutability": "nonpayable",
      "type": "function"
    },
    {
      "inputs": [
        {
          "internalType": "address",
          "name": "addr",
          "type": "address"
        }
      ],
      "name": "setInnetWalletAddress",
      "outputs": [],
      "stateMutability": "nonpayable",
      "type": "function"
    },
    {
      "inputs": [
        {
          "internalType": "address",
          "name": "addr",
          "type": "address"
        }
      ],
      "name": "setExternalSCConfigAddress",
      "outputs": [],
      "stateMutability": "nonpayable",
      "type": "function"
    },
    {
      "inputs": [
        {
          "internalType": "address",
          "name": "addr",
          "type": "address"
        }
      ],
      "name": "setAdminFeeWalletAddress",
      "outputs": [],
      "stateMutability": "nonpayable",
      "type": "function"
    },
    {
      "inputs": [
        {
          "internalType": "address",
          "name": "addr",
          "type": "address"
        }
      ],
      "name": "setWalletAddressMap",
      "outputs": [],
      "stateMutability": "nonpayable",
      "type": "function"
    },
    {
      "inputs": [
        {
          "internalType": "address",
          "name": "addr",
          "type": "address"
        }
      ],
      "name": "setApprovalWalletAddress",
      "outputs": [],
      "stateMutability": "nonpayable",
      "type": "function"
    },
    {
      "inputs": [
        {
          "internalType": "address",
          "name": "addr",
          "type": "address"
        }
      ],
      "name": "setWithdrawSmartContract",
      "outputs": [],
      "stateMutability": "nonpayable",
      "type": "function"
    },
    {
      "inputs": [
        {
          "internalType": "address",
          "name": "addr",
          "type": "address"
        }
      ],
      "name": "setUserWalletProxyAddress",
      "outputs": [],
      "stateMutability": "nonpayable",
      "type": "function"
    },
    {
      "inputs": [],
      "name": "getInnetPlatformWalletAddress",
      "outputs": [
        {
          "internalType": "address",
          "name": "",
          "type": "address"
        }
      ],
      "stateMutability": "view",
      "type": "function"
    },
    {
      "inputs": [],
      "name": "getMainnetPlatformWalletAddress",
      "outputs": [
        {
          "internalType": "address",
          "name": "",
          "type": "address"
        }
      ],
      "stateMutability": "view",
      "type": "function"
    },
    {
      "inputs": [],
      "name": "getApprovalWalletAddress",
      "outputs": [
        {
          "internalType": "address",
          "name": "",
          "type": "address"
        }
      ],
      "stateMutability": "view",
      "type": "function"
    },
    {
      "inputs": [],
      "name": "getExternalSCConfigAddress",
      "outputs": [
        {
          "internalType": "address",
          "name": "",
          "type": "address"
        }
      ],
      "stateMutability": "view",
      "type": "function"
    },
    {
      "inputs": [],
      "name": "getWalletAddressMap",
      "outputs": [
        {
          "internalType": "address",
          "name": "",
          "type": "address"
        }
      ],
      "stateMutability": "view",
      "type": "function"
    },
    {
      "inputs": [],
      "name": "getWithdrawSmartContract",
      "outputs": [
        {
          "internalType": "address",
          "name": "",
          "type": "address"
        }
      ],
      "stateMutability": "view",
      "type": "function"
    },
    {
      "inputs": [],
      "name": "getAdminFeeWalletAddress",
      "outputs": [
        {
          "internalType": "address",
          "name": "",
          "type": "address"
        }
      ],
      "stateMutability": "view",
      "type": "function"
    },
    {
      "inputs": [],
      "name": "getUserWalletAddress",
      "outputs": [
        {
          "internalType": "address",
          "name": "",
          "type": "address"
        }
      ],
      "stateMutability": "view",
      "type": "function"
    },
    {
      "inputs": [],
      "name": "getUserWalletProxyAddress",
      "outputs": [
        {
          "internalType": "address",
          "name": "",
          "type": "address"
        }
      ],
      "stateMutability": "view",
      "type": "function"
    },
    {
      "inputs": [
        {
          "internalType": "string",
          "name": "asset",
          "type": "string"
        }
      ],
      "name": "getErc20SmartContractAddrByAssetName",
      "outputs": [
        {
          "internalType": "address",
          "name": "",
          "type": "address"
        }
      ],
      "stateMutability": "view",
      "type": "function"
    },
    {
      "inputs": [
        {
          "internalType": "address",
          "name": "addr",
          "type": "address"
        }
      ],
      "name": "setGasFeeWalletAddress",
      "outputs": [],
      "stateMutability": "nonpayable",
      "type": "function"
    },
    {
      "inputs": [],
      "name": "getGasFeeWalletAddress",
      "outputs": [
        {
          "internalType": "address",
          "name": "",
          "type": "address"
        }
      ],
      "stateMutability": "view",
      "type": "function"
    }
  ],
  "bytecode": "0x608060405234801561001057600080fd5b5060006100246001600160e01b036100b816565b6001600160a01b0381166000818152600160208190526040808320805460ff191683179055825491820183558280527f290decd9548b62a8d60345a988386fc84ba6bc95484008f6362f93160ef3e56390910180546001600160a01b031916841790555192935090917f8be0079c531659141344cd1fd0a4f28419497f9722a3daafe3b4186f6b6457e0908290a3506100bc565b3390565b611ac1806100cb6000396000f3fe608060405234801561001057600080fd5b50600436106102065760003560e01c8063857cdcfe1161011a578063c4507001116100ad578063ddc6f5f61161007c578063ddc6f5f6146105d5578063ef18374a146105fb578063f4ff2c1114610615578063f5f6d70b1461063b578063fb2e5fa31461064357610206565b8063c45070011461055b578063cbf1a9ab14610581578063d8a1bb3714610589578063da2824a8146105af57610206565b8063a0d5de42116100e9578063a0d5de421461051d578063a0e67e2b14610525578063a60210c51461052d578063afd8b1d11461053557610206565b8063857cdcfe146104c157806385aaed4e146104e757806391cf2d26146104ef578063944857ef146104f757610206565b80633d0a60f01161019d5780636d35204b1161016c5780636d35204b1461043f5780637065cb4814610447578063715018a61461046d5780638145d1261461047557806381f132001461049b57610206565b80633d0a60f0146103815780633f2f204214610427578063419834ac1461042f578063685725f31461043757610206565b80632f54bf6e116101d95780632f54bf6e146102b95780633858bbf8146102df5780633a1abfe7146103035780633c4e98ae1461035b57610206565b80631411ed111461020b578063173825d91461023357806327bfb812146102595780632b29ba231461027f575b600080fd5b6102316004803603602081101561022157600080fd5b50356001600160a01b0316610669565b005b6102316004803603602081101561024957600080fd5b50356001600160a01b03166106f8565b6102316004803603602081101561026f57600080fd5b50356001600160a01b03166108c0565b6102a56004803603602081101561029557600080fd5b50356001600160a01b031661094f565b604080519115158252519081900360200190f35b6102a5600480360360208110156102cf57600080fd5b50356001600160a01b031661096d565b6102e761098b565b604080516001600160a01b039092168252519081900360200190f35b61030b61099a565b60408051602080825283518183015283519192839290830191858101910280838360005b8381101561034757818101518382015260200161032f565b505050509050019250505060405180910390f35b6102316004803603602081101561037157600080fd5b50356001600160a01b03166109fc565b6102e76004803603602081101561039757600080fd5b8101906020810181356401000000008111156103b257600080fd5b8201836020820111156103c457600080fd5b803590602001918460018302840111640100000000831117156103e657600080fd5b91908080601f016020809104026020016040519081016040528093929190818152602001838380828437600092019190915250929550610a8b945050505050565b6102e7610b6c565b6102e7610b7b565b6102e7610b8a565b6102e7610b99565b6102316004803603602081101561045d57600080fd5b50356001600160a01b0316610ba8565b610231610d19565b6102316004803603602081101561048b57600080fd5b50356001600160a01b0316610e96565b610231600480360360208110156104b157600080fd5b50356001600160a01b031661109c565b610231600480360360208110156104d757600080fd5b50356001600160a01b031661112b565b61030b6111ba565b6102e761121a565b6102316004803603602081101561050d57600080fd5b50356001600160a01b0316611229565b6102e76112b8565b61030b6112c7565b6102e7611327565b6102316004803603602081101561054b57600080fd5b50356001600160a01b0316611336565b6102316004803603602081101561057157600080fd5b50356001600160a01b0316611498565b6102e7611527565b6102316004803603602081101561059f57600080fd5b50356001600160a01b0316611536565b610231600480360360208110156105c557600080fd5b50356001600160a01b03166115c5565b610231600480360360208110156105eb57600080fd5b50356001600160a01b0316611727565b61060361192d565b60408051918252519081900360200190f35b6102316004803603602081101561062b57600080fd5b50356001600160a01b0316611933565b6102e76119c2565b6102316004803603602081101561065957600080fd5b50356001600160a01b03166119d1565b6000610673611a60565b6001600160a01b03811660009081526001602081905260409091205491925060ff9091161515146106d55760405162461bcd60e51b8152600401808060200182810382526027815260200180611a656027913960400191505060405180910390fd5b50600680546001600160a01b0319166001600160a01b0392909216919091179055565b6000610702611a60565b6001600160a01b03811660009081526001602081905260409091205491925060ff9091161515146107645760405162461bcd60e51b8152600401808060200182810382526027815260200180611a656027913960400191505060405180910390fd5b6001600160a01b038216600090815260016020526040902054829060ff1661078b57600080fd5b6001600160a01b0383166000908152600160205260408120805460ff191690558054905b8181101561085857846001600160a01b0316600082815481106107ce57fe5b6000918252602090912001546001600160a01b0316141561085057600060018303815481106107f957fe5b600091825260208220015481546001600160a01b0390911691908390811061081d57fe5b9060005260206000200160006101000a8154816001600160a01b0302191690836001600160a01b03160217905550610858565b6001016107af565b50600080548061086457fe5b600082815260208120820160001990810180546001600160a01b03191690559091019091556040516001600160a01b038616917f58619076adf5bb0943d100ef88d52d7c3fd691b19d3a9071b555b651fbf418da91a250505050565b60006108ca611a60565b6001600160a01b03811660009081526001602081905260409091205491925060ff90911615151461092c5760405162461bcd60e51b8152600401808060200182810382526027815260200180611a656027913960400191505060405180910390fd5b50600c80546001600160a01b0319166001600160a01b0392909216919091179055565b6001600160a01b031660009081526005602052604090205460ff1690565b6001600160a01b031660009081526001602052604090205460ff1690565b6007546001600160a01b031690565b606060048054806020026020016040519081016040528092919081815260200182805480156109f257602002820191906000526020600020905b81546001600160a01b031681526001909101906020018083116109d4575b5050505050905090565b6000610a06611a60565b6001600160a01b03811660009081526001602081905260409091205491925060ff909116151514610a685760405162461bcd60e51b8152600401808060200182810382526027815260200180611a656027913960400191505060405180910390fd5b50600880546001600160a01b0319166001600160a01b0392909216919091179055565b6009546040516303d0a60f60e41b81526020600482018181528451602484015284516000946001600160a01b0316938493633d0a60f093889390928392604490910191908501908083838c5b83811015610aef578181015183820152602001610ad7565b50505050905090810190601f168015610b1c5780820380516001836020036101000a031916815260200191505b509250505060206040518083038186803b158015610b3957600080fd5b505afa158015610b4d573d6000803e3d6000fd5b505050506040513d6020811015610b6357600080fd5b50519392505050565b600b546001600160a01b031690565b600c546001600160a01b031690565b600e546001600160a01b031690565b6009546001600160a01b031690565b6000610bb2611a60565b6001600160a01b03811660009081526001602081905260409091205491925060ff909116151514610c145760405162461bcd60e51b8152600401808060200182810382526027815260200180611a656027913960400191505060405180910390fd5b6001600160a01b038216600090815260016020819052604090912054839160ff90911615151415610c8c576040805162461bcd60e51b815260206004820152601b60248201527f4164647265737320616c726561647920697320616e206f776e65720000000000604482015290519081900360640190fd5b6001600160a01b0383166000818152600160208190526040808320805460ff191683179055825491820183558280527f290decd9548b62a8d60345a988386fc84ba6bc95484008f6362f93160ef3e56390910180546001600160a01b03191684179055517f994a936646fe87ffe4f1e469d3d6aa417d6b855598397f323de5b449f765f0c39190a2505050565b6000610d23611a60565b6001600160a01b03811660009081526001602081905260409091205491925060ff909116151514610d855760405162461bcd60e51b8152600401808060200182810382526027815260200180611a656027913960400191505060405180910390fd5b6000610d8f611a60565b6001600160a01b0381166000908152600160205260408120805460ff191690559091505b60005460001901811015610e6457816001600160a01b031660008281548110610dd857fe5b6000918252602090912001546001600160a01b03161415610e5c57600080546000198101908110610e0557fe5b600091825260208220015481546001600160a01b03909116919083908110610e2957fe5b9060005260206000200160006101000a8154816001600160a01b0302191690836001600160a01b03160217905550610e64565b600101610db3565b506000805480610e7057fe5b600082815260209020810160001990810180546001600160a01b03191690550190555050565b6000610ea0611a60565b6001600160a01b03811660009081526001602081905260409091205491925060ff909116151514610f025760405162461bcd60e51b8152600401808060200182810382526027815260200180611a656027913960400191505060405180910390fd5b6001600160a01b038216600090815260056020526040902054829060ff16610f64576040805162461bcd60e51b815260206004820152601060248201526f15dc9a5d195c881b9bdd08195e1a5cdd60821b604482015290519081900360640190fd5b6001600160a01b0383166000908152600560205260408120805460ff19169055600454905b8181101561103457846001600160a01b031660048281548110610fa857fe5b6000918252602090912001546001600160a01b0316141561102c5760046001830381548110610fd357fe5b600091825260209091200154600480546001600160a01b039092169183908110610ff957fe5b9060005260206000200160006101000a8154816001600160a01b0302191690836001600160a01b03160217905550611034565b600101610f89565b50600480548061104057fe5b600082815260208120820160001990810180546001600160a01b03191690559091019091556040516001600160a01b038616917f86e5bbceda94081c32220d685f37cc4e3ea7bb0be2dfbf0cb703579505a5390e91a250505050565b60006110a6611a60565b6001600160a01b03811660009081526001602081905260409091205491925060ff9091161515146111085760405162461bcd60e51b8152600401808060200182810382526027815260200180611a656027913960400191505060405180910390fd5b50600b80546001600160a01b0319166001600160a01b0392909216919091179055565b6000611135611a60565b6001600160a01b03811660009081526001602081905260409091205491925060ff9091161515146111975760405162461bcd60e51b8152600401808060200182810382526027815260200180611a656027913960400191505060405180910390fd5b50600a80546001600160a01b0319166001600160a01b0392909216919091179055565b606060028054806020026020016040519081016040528092919081815260200182805480156109f2576020028201919060005260206000209081546001600160a01b031681526001909101906020018083116109d4575050505050905090565b600f546001600160a01b031690565b6000611233611a60565b6001600160a01b03811660009081526001602081905260409091205491925060ff9091161515146112955760405162461bcd60e51b8152600401808060200182810382526027815260200180611a656027913960400191505060405180910390fd5b50600e80546001600160a01b0319166001600160a01b0392909216919091179055565b600a546001600160a01b031690565b606060008054806020026020016040519081016040528092919081815260200182805480156109f2576020028201919060005260206000209081546001600160a01b031681526001909101906020018083116109d4575050505050905090565b6006546001600160a01b031690565b6000611340611a60565b6001600160a01b03811660009081526001602081905260409091205491925060ff9091161515146113a25760405162461bcd60e51b8152600401808060200182810382526027815260200180611a656027913960400191505060405180910390fd5b6001600160a01b038216600090815260036020526040902054829060ff161561140a576040805162461bcd60e51b815260206004820152601560248201527452656164657220616c72656164792065786973747360581b604482015290519081900360640190fd5b6001600160a01b038316600081815260036020526040808220805460ff1916600190811790915560028054918201815583527f405787fa12a823e0f2b7631cc41b3ba8828b3321ca811111fa75cd3aa3bb5ace0180546001600160a01b03191684179055517fb7724d890d2888af5a3fc456edb667e2c82c4441449ebcac301c618759e4f86d9190a2505050565b60006114a2611a60565b6001600160a01b03811660009081526001602081905260409091205491925060ff9091161515146115045760405162461bcd60e51b8152600401808060200182810382526027815260200180611a656027913960400191505060405180910390fd5b50600780546001600160a01b0319166001600160a01b0392909216919091179055565b6008546001600160a01b031690565b6000611540611a60565b6001600160a01b03811660009081526001602081905260409091205491925060ff9091161515146115a25760405162461bcd60e51b8152600401808060200182810382526027815260200180611a656027913960400191505060405180910390fd5b50600980546001600160a01b0319166001600160a01b0392909216919091179055565b60006115cf611a60565b6001600160a01b03811660009081526001602081905260409091205491925060ff9091161515146116315760405162461bcd60e51b8152600401808060200182810382526027815260200180611a656027913960400191505060405180910390fd5b6001600160a01b038216600090815260056020526040902054829060ff1615611699576040805162461bcd60e51b815260206004820152601560248201527457726974657220616c72656164792065786973747360581b604482015290519081900360640190fd5b6001600160a01b038316600081815260056020526040808220805460ff1916600190811790915560048054918201815583527f8a35acfbc15ff81a39ae7d344fd709f28e8600b4aa8c65c6b64bfe7fe36bd19b0180546001600160a01b03191684179055517f6ff3aa2ea7b53070f6d9d07a445d338d89e8edef44250ffa8be19f53910d4a2e9190a2505050565b6000611731611a60565b6001600160a01b03811660009081526001602081905260409091205491925060ff9091161515146117935760405162461bcd60e51b8152600401808060200182810382526027815260200180611a656027913960400191505060405180910390fd5b6001600160a01b038216600090815260036020526040902054829060ff166117f5576040805162461bcd60e51b815260206004820152601060248201526f14995859195c881b9bdd08195e1a5cdd60821b604482015290519081900360640190fd5b6001600160a01b0383166000908152600360205260408120805460ff19169055600254905b818110156118c557846001600160a01b03166002828154811061183957fe5b6000918252602090912001546001600160a01b031614156118bd576002600183038154811061186457fe5b600091825260209091200154600280546001600160a01b03909216918390811061188a57fe5b9060005260206000200160006101000a8154816001600160a01b0302191690836001600160a01b031602179055506118c5565b60010161181a565b5060028054806118d157fe5b600082815260208120820160001990810180546001600160a01b03191690559091019091556040516001600160a01b038616917fe933431644458f1217f9e93d3e000e03c9bbbe55761046d0985c2e4d157bcbaa91a250505050565b60005490565b600061193d611a60565b6001600160a01b03811660009081526001602081905260409091205491925060ff90911615151461199f5760405162461bcd60e51b8152600401808060200182810382526027815260200180611a656027913960400191505060405180910390fd5b50600f80546001600160a01b0319166001600160a01b0392909216919091179055565b600d546001600160a01b031690565b60006119db611a60565b6001600160a01b03811660009081526001602081905260409091205491925060ff909116151514611a3d5760405162461bcd60e51b8152600401808060200182810382526027815260200180611a656027913960400191505060405180910390fd5b50600d80546001600160a01b0319166001600160a01b0392909216919091179055565b339056fe4f776e61626c653a2063616c6c6572206973206e6f74206f6e65206f6620746865206f776e6572a26469706673582212207c224b4bcf6e9111b912f3f435c8b4d4d218930610cd0dd66baf1b8a05d06cba64736f6c63430006020033",
  "source": "pragma solidity >=0.6.0 <0.8.0;\nimport \"../utils/ownable/MultiOwnable.sol\";\nimport \"./ExternalSmartContractConfig.sol\";\nimport \"../utils/ownable/ReadWritePermissionable.sol\";\n\ncontract InternalSmartContractConfig is ReadWritePermissionable{\n\n    address mainnetWalletAddress; //Unused\n    address innetWalletAddress; //Sidechain hot wallet\n    address approvalWalletAddress; \n    address externalSCConfigAddress;\n    address walletAddressMap;\n    address withdrawSmartContract;\n    address adminFeeWalletAddress; //Withdraw admin fee cold wallet\n    address userWalletAddress; //User wallet logic smart contract address\n    address gasFeeWalletAddress; //Gas fee for centralized user cold wallet\n    address userWalletProxyAddress; //User wallet proxy for collecting EUN when transfer or withdraw failed\n\n    constructor()public{}\n\n    function setMainnetWalletAddress(address addr)public onlyOwner{\n        mainnetWalletAddress = addr;\n    }\n\n    function setUserWalletAddress(address addr)public onlyOwner{\n        userWalletAddress = addr;\n    }\n\n    function setInnetWalletAddress(address addr)public onlyOwner{\n        innetWalletAddress=addr;\n    }\n\n    function setExternalSCConfigAddress(address addr)public onlyOwner{\n        externalSCConfigAddress = addr;\n    }\n\n    function setAdminFeeWalletAddress(address addr)public onlyOwner{\n        adminFeeWalletAddress = addr;\n    }\n\n    function setWalletAddressMap(address addr) public onlyOwner{\n        walletAddressMap = addr;\n    }\n\n    function setApprovalWalletAddress(address addr) public onlyOwner{\n        approvalWalletAddress = addr;\n    }\n\n    function setWithdrawSmartContract(address addr) public onlyOwner{\n        withdrawSmartContract = addr;\n    }\n\n    function setUserWalletProxyAddress(address addr) public onlyOwner{\n        userWalletProxyAddress = addr;\n    }\n    \n    function getInnetPlatformWalletAddress()public view returns (address){\n        return innetWalletAddress;\n    }\n\n    function getMainnetPlatformWalletAddress()public view returns (address){\n        return mainnetWalletAddress;\n    }\n\n    function getApprovalWalletAddress()public view returns (address){\n        return approvalWalletAddress;\n    }\n\n    function getExternalSCConfigAddress() public view returns(address){\n        return externalSCConfigAddress;\n    }\n\n    function getWalletAddressMap() public view returns(address){\n        return walletAddressMap;\n    }\n\n    function getWithdrawSmartContract() public view returns(address){\n        return withdrawSmartContract;\n    }\n    function getAdminFeeWalletAddress()public view returns (address){\n        return adminFeeWalletAddress;\n    }\n\n    function getUserWalletAddress()public view returns (address){\n        return userWalletAddress;\n    }\n\n    function getUserWalletProxyAddress() public view returns(address){\n        return userWalletProxyAddress;\n    }\n\n    function getErc20SmartContractAddrByAssetName(string memory asset)public view returns(address) {\n        ExternalSmartContractConfig exConfig = ExternalSmartContractConfig(externalSCConfigAddress);\n        return exConfig.getErc20SmartContractAddrByAssetName(asset);\n   }\n\n   function setGasFeeWalletAddress(address addr) public onlyOwner {\n       gasFeeWalletAddress = addr;\n   }\n\n   function getGasFeeWalletAddress() public view returns(address){\n       return gasFeeWalletAddress;\n   }\n\n}",
  "sourcePath": "/Users/duncanto/Documents/WorkingSet2/src/eurus-backend/smartcontract/contracts/config/InternalSmartContractConfig.sol",
  "compiler": {
    "name": "solc",
    "version": "0.6.2+commit.bacdbe57.Emscripten.clang"
  },
  "schemaVersion": "3.4.1",
  "updatedAt": "2021-08-10T11:39:26.016Z",
  "networkType": "ethereum",
  "devdoc": {
    "methods": {
      "renounceOwnership()": {
        "details": "Leaves the contract without owner. It will not be possible to call `onlyOwner` functions anymore. Can only be called by the current owner.     * NOTE: Renouncing ownership will leave the contract without an owner, thereby removing any functionality that is only available to the owner."
      }
    }
  },
  "userdoc": {
    "methods": {}
  }
}