{
  "contractName": "MerchantWallet",
  "abi": [
    {
      "inputs": [
        {
          "internalType": "uint256",
          "name": "_required",
          "type": "uint256"
        }
      ],
      "stateMutability": "nonpayable",
      "type": "constructor"
    },
    {
      "anonymous": false,
      "inputs": [
        {
          "indexed": true,
          "internalType": "address",
          "name": "sender",
          "type": "address"
        },
        {
          "indexed": true,
          "internalType": "uint256",
          "name": "transactionId",
          "type": "uint256"
        }
      ],
      "name": "Confirmation",
      "type": "event"
    },
    {
      "anonymous": false,
      "inputs": [
        {
          "indexed": true,
          "internalType": "address",
          "name": "sender",
          "type": "address"
        },
        {
          "indexed": false,
          "internalType": "uint256",
          "name": "value",
          "type": "uint256"
        }
      ],
      "name": "Deposit",
      "type": "event"
    },
    {
      "anonymous": false,
      "inputs": [
        {
          "indexed": false,
          "internalType": "string",
          "name": "",
          "type": "string"
        }
      ],
      "name": "Event",
      "type": "event"
    },
    {
      "anonymous": false,
      "inputs": [
        {
          "indexed": true,
          "internalType": "uint256",
          "name": "transactionId",
          "type": "uint256"
        }
      ],
      "name": "Execution",
      "type": "event"
    },
    {
      "anonymous": false,
      "inputs": [
        {
          "indexed": true,
          "internalType": "uint256",
          "name": "transactionId",
          "type": "uint256"
        }
      ],
      "name": "ExecutionFailure",
      "type": "event"
    },
    {
      "anonymous": false,
      "inputs": [
        {
          "indexed": true,
          "internalType": "address",
          "name": "owner",
          "type": "address"
        }
      ],
      "name": "OwnerAdded",
      "type": "event"
    },
    {
      "anonymous": false,
      "inputs": [
        {
          "indexed": true,
          "internalType": "address",
          "name": "owner",
          "type": "address"
        }
      ],
      "name": "OwnerRemoved",
      "type": "event"
    },
    {
      "anonymous": false,
      "inputs": [
        {
          "indexed": true,
          "internalType": "address",
          "name": "previousOwner",
          "type": "address"
        },
        {
          "indexed": true,
          "internalType": "address",
          "name": "newOwner",
          "type": "address"
        }
      ],
      "name": "OwnershipTransferred",
      "type": "event"
    },
    {
      "anonymous": false,
      "inputs": [
        {
          "indexed": true,
          "internalType": "address",
          "name": "reader",
          "type": "address"
        }
      ],
      "name": "ReaderAdded",
      "type": "event"
    },
    {
      "anonymous": false,
      "inputs": [
        {
          "indexed": true,
          "internalType": "address",
          "name": "reader",
          "type": "address"
        }
      ],
      "name": "ReaderRemoved",
      "type": "event"
    },
    {
      "anonymous": false,
      "inputs": [
        {
          "indexed": true,
          "internalType": "address",
          "name": "sender",
          "type": "address"
        },
        {
          "indexed": true,
          "internalType": "uint256",
          "name": "transactionId",
          "type": "uint256"
        }
      ],
      "name": "Rejection",
      "type": "event"
    },
    {
      "anonymous": false,
      "inputs": [
        {
          "indexed": false,
          "internalType": "uint256",
          "name": "required",
          "type": "uint256"
        }
      ],
      "name": "RequirementChange",
      "type": "event"
    },
    {
      "anonymous": false,
      "inputs": [
        {
          "indexed": true,
          "internalType": "address",
          "name": "sender",
          "type": "address"
        },
        {
          "indexed": true,
          "internalType": "uint256",
          "name": "transactionId",
          "type": "uint256"
        }
      ],
      "name": "Revocation",
      "type": "event"
    },
    {
      "anonymous": false,
      "inputs": [
        {
          "indexed": true,
          "internalType": "uint256",
          "name": "transactionId",
          "type": "uint256"
        }
      ],
      "name": "Submission",
      "type": "event"
    },
    {
      "anonymous": false,
      "inputs": [
        {
          "indexed": true,
          "internalType": "address",
          "name": "writer",
          "type": "address"
        }
      ],
      "name": "WriterAdded",
      "type": "event"
    },
    {
      "anonymous": false,
      "inputs": [
        {
          "indexed": true,
          "internalType": "address",
          "name": "writer",
          "type": "address"
        }
      ],
      "name": "WriterRemoved",
      "type": "event"
    },
    {
      "inputs": [],
      "name": "MAX_OWNER_COUNT",
      "outputs": [
        {
          "internalType": "uint256",
          "name": "",
          "type": "uint256"
        }
      ],
      "stateMutability": "view",
      "type": "function"
    },
    {
      "inputs": [
        {
          "internalType": "address",
          "name": "newOwner",
          "type": "address"
        }
      ],
      "name": "addOwner",
      "outputs": [],
      "stateMutability": "nonpayable",
      "type": "function"
    },
    {
      "inputs": [
        {
          "internalType": "address",
          "name": "newReader",
          "type": "address"
        }
      ],
      "name": "addReader",
      "outputs": [],
      "stateMutability": "nonpayable",
      "type": "function"
    },
    {
      "inputs": [
        {
          "internalType": "address",
          "name": "operatorAddr",
          "type": "address"
        }
      ],
      "name": "addWalletOperator",
      "outputs": [],
      "stateMutability": "nonpayable",
      "type": "function"
    },
    {
      "inputs": [
        {
          "internalType": "address",
          "name": "newWriter",
          "type": "address"
        }
      ],
      "name": "addWriter",
      "outputs": [],
      "stateMutability": "nonpayable",
      "type": "function"
    },
    {
      "inputs": [
        {
          "internalType": "uint256",
          "name": "_required",
          "type": "uint256"
        }
      ],
      "name": "changeRequirement",
      "outputs": [],
      "stateMutability": "nonpayable",
      "type": "function"
    },
    {
      "inputs": [
        {
          "internalType": "uint256",
          "name": "transactionId",
          "type": "uint256"
        }
      ],
      "name": "confirmTransaction",
      "outputs": [],
      "stateMutability": "nonpayable",
      "type": "function"
    },
    {
      "inputs": [
        {
          "internalType": "uint256",
          "name": "",
          "type": "uint256"
        },
        {
          "internalType": "address",
          "name": "",
          "type": "address"
        }
      ],
      "name": "confirmations",
      "outputs": [
        {
          "internalType": "bool",
          "name": "",
          "type": "bool"
        }
      ],
      "stateMutability": "view",
      "type": "function"
    },
    {
      "inputs": [
        {
          "internalType": "uint256",
          "name": "transactionId",
          "type": "uint256"
        }
      ],
      "name": "getConfirmationCount",
      "outputs": [
        {
          "internalType": "uint256",
          "name": "count",
          "type": "uint256"
        }
      ],
      "stateMutability": "view",
      "type": "function"
    },
    {
      "inputs": [
        {
          "internalType": "uint256",
          "name": "transactionId",
          "type": "uint256"
        }
      ],
      "name": "getConfirmations",
      "outputs": [
        {
          "internalType": "address[]",
          "name": "_confirmations",
          "type": "address[]"
        }
      ],
      "stateMutability": "view",
      "type": "function"
    },
    {
      "inputs": [],
      "name": "getOwnerCount",
      "outputs": [
        {
          "internalType": "uint256",
          "name": "",
          "type": "uint256"
        }
      ],
      "stateMutability": "view",
      "type": "function"
    },
    {
      "inputs": [],
      "name": "getOwners",
      "outputs": [
        {
          "internalType": "address[]",
          "name": "",
          "type": "address[]"
        }
      ],
      "stateMutability": "view",
      "type": "function"
    },
    {
      "inputs": [],
      "name": "getReaderList",
      "outputs": [
        {
          "internalType": "address[]",
          "name": "",
          "type": "address[]"
        }
      ],
      "stateMutability": "view",
      "type": "function"
    },
    {
      "inputs": [
        {
          "internalType": "bool",
          "name": "pending",
          "type": "bool"
        },
        {
          "internalType": "bool",
          "name": "executed",
          "type": "bool"
        }
      ],
      "name": "getTransactionCount",
      "outputs": [
        {
          "internalType": "uint256",
          "name": "count",
          "type": "uint256"
        }
      ],
      "stateMutability": "view",
      "type": "function"
    },
    {
      "inputs": [
        {
          "internalType": "uint256",
          "name": "from",
          "type": "uint256"
        },
        {
          "internalType": "uint256",
          "name": "to",
          "type": "uint256"
        },
        {
          "internalType": "bool",
          "name": "pending",
          "type": "bool"
        },
        {
          "internalType": "bool",
          "name": "executed",
          "type": "bool"
        }
      ],
      "name": "getTransactionIds",
      "outputs": [
        {
          "internalType": "uint256[]",
          "name": "_transactionIds",
          "type": "uint256[]"
        }
      ],
      "stateMutability": "view",
      "type": "function"
    },
    {
      "inputs": [],
      "name": "getWalletOperatorList",
      "outputs": [
        {
          "internalType": "address[]",
          "name": "",
          "type": "address[]"
        }
      ],
      "stateMutability": "view",
      "type": "function"
    },
    {
      "inputs": [],
      "name": "getWalletOwner",
      "outputs": [
        {
          "internalType": "address",
          "name": "",
          "type": "address"
        }
      ],
      "stateMutability": "view",
      "type": "function"
    },
    {
      "inputs": [],
      "name": "getWriterList",
      "outputs": [
        {
          "internalType": "address[]",
          "name": "",
          "type": "address[]"
        }
      ],
      "stateMutability": "view",
      "type": "function"
    },
    {
      "inputs": [
        {
          "internalType": "uint256",
          "name": "transactionId",
          "type": "uint256"
        }
      ],
      "name": "isConfirmed",
      "outputs": [
        {
          "internalType": "bool",
          "name": "",
          "type": "bool"
        }
      ],
      "stateMutability": "view",
      "type": "function"
    },
    {
      "inputs": [
        {
          "internalType": "address",
          "name": "addr",
          "type": "address"
        }
      ],
      "name": "isOwner",
      "outputs": [
        {
          "internalType": "bool",
          "name": "",
          "type": "bool"
        }
      ],
      "stateMutability": "view",
      "type": "function"
    },
    {
      "inputs": [
        {
          "internalType": "uint256",
          "name": "transId",
          "type": "uint256"
        }
      ],
      "name": "isRejected",
      "outputs": [
        {
          "internalType": "bool",
          "name": "",
          "type": "bool"
        }
      ],
      "stateMutability": "view",
      "type": "function"
    },
    {
      "inputs": [
        {
          "internalType": "address",
          "name": "addr",
          "type": "address"
        }
      ],
      "name": "isWriter",
      "outputs": [
        {
          "internalType": "bool",
          "name": "",
          "type": "bool"
        }
      ],
      "stateMutability": "view",
      "type": "function"
    },
    {
      "inputs": [
        {
          "internalType": "uint256",
          "name": "",
          "type": "uint256"
        },
        {
          "internalType": "string",
          "name": "",
          "type": "string"
        }
      ],
      "name": "miscellaneousData",
      "outputs": [
        {
          "internalType": "string",
          "name": "",
          "type": "string"
        }
      ],
      "stateMutability": "view",
      "type": "function"
    },
    {
      "inputs": [
        {
          "internalType": "uint256",
          "name": "transId",
          "type": "uint256"
        }
      ],
      "name": "rejectTransaction",
      "outputs": [],
      "stateMutability": "nonpayable",
      "type": "function"
    },
    {
      "inputs": [
        {
          "internalType": "address",
          "name": "owner",
          "type": "address"
        }
      ],
      "name": "removeOwner",
      "outputs": [],
      "stateMutability": "nonpayable",
      "type": "function"
    },
    {
      "inputs": [
        {
          "internalType": "address",
          "name": "operatorAddr",
          "type": "address"
        }
      ],
      "name": "removeWalletOperator",
      "outputs": [],
      "stateMutability": "nonpayable",
      "type": "function"
    },
    {
      "inputs": [
        {
          "internalType": "address",
          "name": "existingReader",
          "type": "address"
        }
      ],
      "name": "removerReader",
      "outputs": [],
      "stateMutability": "nonpayable",
      "type": "function"
    },
    {
      "inputs": [
        {
          "internalType": "address",
          "name": "existingWriter",
          "type": "address"
        }
      ],
      "name": "removerWriter",
      "outputs": [],
      "stateMutability": "nonpayable",
      "type": "function"
    },
    {
      "inputs": [],
      "name": "renounceOwnership",
      "outputs": [],
      "stateMutability": "nonpayable",
      "type": "function"
    },
    {
      "inputs": [],
      "name": "required",
      "outputs": [
        {
          "internalType": "uint256",
          "name": "",
          "type": "uint256"
        }
      ],
      "stateMutability": "view",
      "type": "function"
    },
    {
      "inputs": [
        {
          "internalType": "uint256",
          "name": "transactionId",
          "type": "uint256"
        }
      ],
      "name": "revokeConfirmation",
      "outputs": [],
      "stateMutability": "nonpayable",
      "type": "function"
    },
    {
      "inputs": [
        {
          "internalType": "address",
          "name": "addr",
          "type": "address"
        }
      ],
      "name": "setWalletOwner",
      "outputs": [],
      "stateMutability": "nonpayable",
      "type": "function"
    },
    {
      "inputs": [
        {
          "internalType": "address",
          "name": "a",
          "type": "address"
        }
      ],
      "name": "toBytes",
      "outputs": [
        {
          "internalType": "bytes",
          "name": "",
          "type": "bytes"
        }
      ],
      "stateMutability": "pure",
      "type": "function"
    },
    {
      "inputs": [],
      "name": "transactionCount",
      "outputs": [
        {
          "internalType": "uint256",
          "name": "",
          "type": "uint256"
        }
      ],
      "stateMutability": "view",
      "type": "function"
    },
    {
      "inputs": [
        {
          "internalType": "uint256",
          "name": "",
          "type": "uint256"
        }
      ],
      "name": "transactions",
      "outputs": [
        {
          "internalType": "uint256",
          "name": "transId",
          "type": "uint256"
        },
        {
          "internalType": "bool",
          "name": "isDirectInvokeData",
          "type": "bool"
        },
        {
          "internalType": "address",
          "name": "destination",
          "type": "address"
        },
        {
          "internalType": "uint256",
          "name": "value",
          "type": "uint256"
        },
        {
          "internalType": "bytes",
          "name": "data",
          "type": "bytes"
        },
        {
          "internalType": "uint256",
          "name": "timestamp",
          "type": "uint256"
        },
        {
          "internalType": "uint256",
          "name": "blockNumber",
          "type": "uint256"
        },
        {
          "internalType": "bool",
          "name": "executed",
          "type": "bool"
        },
        {
          "internalType": "bool",
          "name": "rejected",
          "type": "bool"
        }
      ],
      "stateMutability": "view",
      "type": "function"
    },
    {
      "inputs": [
        {
          "internalType": "uint256",
          "name": "",
          "type": "uint256"
        }
      ],
      "name": "walletOperatorList",
      "outputs": [
        {
          "internalType": "address",
          "name": "",
          "type": "address"
        }
      ],
      "stateMutability": "view",
      "type": "function"
    },
    {
      "inputs": [],
      "name": "walletOwner",
      "outputs": [
        {
          "internalType": "address",
          "name": "",
          "type": "address"
        }
      ],
      "stateMutability": "view",
      "type": "function"
    },
    {
      "stateMutability": "payable",
      "type": "receive"
    },
    {
      "inputs": [
        {
          "internalType": "address",
          "name": "addr",
          "type": "address"
        }
      ],
      "name": "setInternalSmartContract",
      "outputs": [],
      "stateMutability": "nonpayable",
      "type": "function"
    },
    {
      "inputs": [],
      "name": "getInternalSmartContract",
      "outputs": [
        {
          "internalType": "address",
          "name": "",
          "type": "address"
        }
      ],
      "stateMutability": "view",
      "type": "function"
    },
    {
      "inputs": [
        {
          "internalType": "string",
          "name": "assetName",
          "type": "string"
        },
        {
          "internalType": "uint256",
          "name": "amount",
          "type": "uint256"
        },
        {
          "internalType": "string",
          "name": "orderId",
          "type": "string"
        },
        {
          "internalType": "string",
          "name": "txnId",
          "type": "string"
        }
      ],
      "name": "processPayment",
      "outputs": [],
      "stateMutability": "nonpayable",
      "type": "function"
    },
    {
      "inputs": [
        {
          "internalType": "address",
          "name": "dest",
          "type": "address"
        },
        {
          "internalType": "string",
          "name": "assetName",
          "type": "string"
        },
        {
          "internalType": "uint256",
          "name": "amount",
          "type": "uint256"
        }
      ],
      "name": "transfer",
      "outputs": [],
      "stateMutability": "nonpayable",
      "type": "function"
    },
    {
      "inputs": [
        {
          "internalType": "string",
          "name": "assetName",
          "type": "string"
        },
        {
          "internalType": "uint256",
          "name": "amount",
          "type": "uint256"
        }
      ],
      "name": "withdraw",
      "outputs": [],
      "stateMutability": "nonpayable",
      "type": "function"
    },
    {
      "inputs": [
        {
          "internalType": "string",
          "name": "assetName",
          "type": "string"
        }
      ],
      "name": "balanceOf",
      "outputs": [],
      "stateMutability": "view",
      "type": "function"
    },
    {
      "inputs": [
        {
          "internalType": "string",
          "name": "assetName",
          "type": "string"
        },
        {
          "internalType": "uint256",
          "name": "amount",
          "type": "uint256"
        },
        {
          "internalType": "string",
          "name": "remarks",
          "type": "string"
        },
        {
          "internalType": "string",
          "name": "orderId",
          "type": "string"
        }
      ],
      "name": "createPayment",
      "outputs": [],
      "stateMutability": "nonpayable",
      "type": "function"
    }
  ],
  "bytecode": "0x60806040523480156200001157600080fd5b506040516200335f3803806200335f833981810160405260208110156200003757600080fd5b50518060006200004f6001600160e01b03620000f516565b6001600160a01b0381166000818152600160208190526040808320805460ff191683179055825491820183558280527f290decd9548b62a8d60345a988386fc84ba6bc95484008f6362f93160ef3e56390910180546001600160a01b031916841790555192935090917f8be0079c531659141344cd1fd0a4f28419497f9722a3daafe3b4186f6b6457e0908290a3508080620000ea57600080fd5b5060095550620000f9565b3390565b61325680620001096000396000f3fe60806040526004361061026b5760003560e01c80638145d12611610144578063ba51a6df116100b6578063dc8452cd1161007a578063dc8452cd14610d92578063ddc6f5f614610da7578063ef18374a14610dda578063f246461a14610def578063fba8b1e314610e22578063fff3a01b14610e4c576102af565b8063ba51a6df14610cc3578063c01a8c8414610ced578063ca2760f414610d17578063d74f8edd14610d4a578063da2824a814610d5f576102af565b8063a01013f811610108578063a01013f814610be7578063a0e67e2b14610bfc578063a8abe69a14610c11578063afd8b1d114610c51578063b5dc40c314610c84578063b77bf60014610cae576102af565b80638145d12614610a7d57806385aaed4e14610ab05780638b51d13f14610ac557806393693c2c1461087b5780639ace38c214610aef576102af565b80633411c81c116101dd5780635ce4e93d116101a15780635ce4e93d146108005780637065cb4814610833578063715018a614610866578063739319ec1461087b578063755765ab14610a3e578063784547a714610a53576102af565b80633411c81c1461063857806335ee5f87146106715780633a1abfe7146107225780635474152514610787578063593b79fe146107cd576102af565b80631e556d901161022f5780631e556d90146104ad57806320ea8d86146104e05780632b29ba231461050a5780632b95fee11461053d5780632f54bf6e1461055257806330b39a6214610585576102af565b806305bf37aa146102b4578063098f076e146102de578063173825d91461031c5780631ae879e81461034f5780631c95b98c14610380576102af565b366102af5734156102ad5760408051348152905133917fe1fffcc4923d04b559f4d29a8bfc6cda04eb5b0d3c460751c2402c5c5cc9109c919081900360200190a25b005b600080fd5b3480156102c057600080fd5b506102ad600480360360208110156102d757600080fd5b5035610f0f565b3480156102ea57600080fd5b506103086004803603602081101561030157600080fd5b50356110db565b604080519115158252519081900360200190f35b34801561032857600080fd5b506102ad6004803603602081101561033f57600080fd5b50356001600160a01b03166110fc565b34801561035b57600080fd5b506103646112c4565b604080516001600160a01b039092168252519081900360200190f35b34801561038c57600080fd5b50610438600480360360408110156103a357600080fd5b81359190810190604081016020820135600160201b8111156103c457600080fd5b8201836020820111156103d657600080fd5b803590602001918460018302840111600160201b831117156103f757600080fd5b91908080601f0160208091040260200160405190810160405280939291908181526020018383808284376000920191909152509295506112d3945050505050565b6040805160208082528351818301528351919283929083019185019080838360005b8381101561047257818101518382015260200161045a565b50505050905090810190601f16801561049f5780820380516001836020036101000a031916815260200191505b509250505060405180910390f35b3480156104b957600080fd5b506102ad600480360360208110156104d057600080fd5b50356001600160a01b0316611385565b3480156104ec57600080fd5b506102ad6004803603602081101561050357600080fd5b50356115aa565b34801561051657600080fd5b506103086004803603602081101561052d57600080fd5b50356001600160a01b031661176a565b34801561054957600080fd5b50610364611788565b34801561055e57600080fd5b506103086004803603602081101561057557600080fd5b50356001600160a01b0316611806565b34801561059157600080fd5b506102ad600480360360408110156105a857600080fd5b810190602081018135600160201b8111156105c257600080fd5b8201836020820111156105d457600080fd5b803590602001918460018302840111600160201b831117156105f557600080fd5b91908080601f0160208091040260200160405190810160405280939291908181526020018383808284376000920191909152509295505091359250611824915050565b34801561064457600080fd5b506103086004803603604081101561065b57600080fd5b50803590602001356001600160a01b0316611828565b34801561067d57600080fd5b506102ad6004803603602081101561069457600080fd5b810190602081018135600160201b8111156106ae57600080fd5b8201836020820111156106c057600080fd5b803590602001918460018302840111600160201b831117156106e157600080fd5b91908080601f016020809104026020016040519081016040528093929190818152602001838380828437600092019190915250929550611848945050505050565b34801561072e57600080fd5b5061073761184b565b60408051602080825283518183015283519192839290830191858101910280838360005b8381101561077357818101518382015260200161075b565b505050509050019250505060405180910390f35b34801561079357600080fd5b506107bb600480360360408110156107aa57600080fd5b5080351515906020013515156118ad565b60408051918252519081900360200190f35b3480156107d957600080fd5b50610438600480360360208110156107f057600080fd5b50356001600160a01b031661191b565b34801561080c57600080fd5b506102ad6004803603602081101561082357600080fd5b50356001600160a01b031661194d565b34801561083f57600080fd5b506102ad6004803603602081101561085657600080fd5b50356001600160a01b0316611a80565b34801561087257600080fd5b506102ad611bf1565b34801561088757600080fd5b506102ad6004803603608081101561089e57600080fd5b810190602081018135600160201b8111156108b857600080fd5b8201836020820111156108ca57600080fd5b803590602001918460018302840111600160201b831117156108eb57600080fd5b91908080601f01602080910402602001604051908101604052809392919081815260200183838082843760009201919091525092958435959094909350604081019250602001359050600160201b81111561094557600080fd5b82018360208201111561095757600080fd5b803590602001918460018302840111600160201b8311171561097857600080fd5b91908080601f0160208091040260200160405190810160405280939291908181526020018383808284376000920191909152509295949360208101935035915050600160201b8111156109ca57600080fd5b8201836020820111156109dc57600080fd5b803590602001918460018302840111600160201b831117156109fd57600080fd5b91908080601f016020809104026020016040519081016040528093929190818152602001838380828437600092019190915250929550611d6e945050505050565b348015610a4a57600080fd5b50610364611d74565b348015610a5f57600080fd5b5061030860048036036020811015610a7657600080fd5b5035611d83565b348015610a8957600080fd5b506102ad60048036036020811015610aa057600080fd5b50356001600160a01b0316611e0c565b348015610abc57600080fd5b50610737612012565b348015610ad157600080fd5b506107bb60048036036020811015610ae857600080fd5b5035612072565b348015610afb57600080fd5b50610b1960048036036020811015610b1257600080fd5b50356120e1565b604051808a815260200189151515158152602001886001600160a01b03166001600160a01b03168152602001878152602001806020018681526020018581526020018415151515815260200183151515158152602001828103825287818151815260200191508051906020019080838360005b83811015610ba4578181015183820152602001610b8c565b50505050905090810190601f168015610bd15780820380516001836020036101000a031916815260200191505b509a505050505050505050505060405180910390f35b348015610bf357600080fd5b506107376121c8565b348015610c0857600080fd5b50610737612228565b348015610c1d57600080fd5b5061073760048036036080811015610c3457600080fd5b508035906020810135906040810135151590606001351515612288565b348015610c5d57600080fd5b506102ad60048036036020811015610c7457600080fd5b50356001600160a01b03166123b5565b348015610c9057600080fd5b5061073760048036036020811015610ca757600080fd5b5035612517565b348015610cba57600080fd5b506107bb61268e565b348015610ccf57600080fd5b506102ad60048036036020811015610ce657600080fd5b5035612694565b348015610cf957600080fd5b506102ad60048036036020811015610d1057600080fd5b5035612748565b348015610d2357600080fd5b506102ad60048036036020811015610d3a57600080fd5b50356001600160a01b031661291e565b348015610d5657600080fd5b506107bb612a39565b348015610d6b57600080fd5b506102ad60048036036020811015610d8257600080fd5b50356001600160a01b0316612a3e565b348015610d9e57600080fd5b506107bb612ba0565b348015610db357600080fd5b506102ad60048036036020811015610dca57600080fd5b50356001600160a01b0316612ba6565b348015610de657600080fd5b506107bb612dac565b348015610dfb57600080fd5b506102ad60048036036020811015610e1257600080fd5b50356001600160a01b0316612db2565b348015610e2e57600080fd5b5061036460048036036020811015610e4557600080fd5b5035612e41565b348015610e5857600080fd5b506102ad60048036036060811015610e6f57600080fd5b6001600160a01b038235169190810190604081016020820135600160201b811115610e9957600080fd5b820183602082011115610eab57600080fd5b803590602001918460018302840111600160201b83111715610ecc57600080fd5b91908080601f0160208091040260200160405190810160405280939291908181526020018383808284376000920191909152509295505091359250612e68915050565b336000908152600d602052604090205460ff16151560011480610f3c5750600b546001600160a01b031633145b610f775760405162461bcd60e51b81526004018080602001828103825260388152602001806130986038913960400191505060405180910390fd5b600081815260066020526040902060010154819061010090046001600160a01b0316610fd45760405162461bcd60e51b815260040180806020018281038252602581526020018061317f6025913960400191505060405180910390fd5b60008281526007602090815260408083203380855292529091205483919060ff16156110315760405162461bcd60e51b815260040180806020018281038252603081526020018061314f6030913960400191505060405180910390fd5b600084815260066020819052604090912001548490610100900460ff161561108a5760405162461bcd60e51b815260040180806020018281038252602c8152602001806131f5602c913960400191505060405180910390fd5b6000858152600660208190526040808320909101805461ff00191661010017905551869133917f310fda14a1b3763badba87b2ca73948d00cc14d8fa2d6ee19a67ac90fa9afa679190a35050505050565b60008181526006602081905260409091200154610100900460ff165b919050565b6000611106612e6d565b6001600160a01b03811660009081526001602081905260409091205491925060ff9091161515146111685760405162461bcd60e51b81526004018080602001828103825260278152602001806130d06027913960400191505060405180910390fd5b6001600160a01b038216600090815260016020526040902054829060ff1661118f57600080fd5b6001600160a01b0383166000908152600160205260408120805460ff191690558054905b8181101561125c57846001600160a01b0316600082815481106111d257fe5b6000918252602090912001546001600160a01b0316141561125457600060018303815481106111fd57fe5b600091825260208220015481546001600160a01b0390911691908390811061122157fe5b9060005260206000200160006101000a8154816001600160a01b0302191690836001600160a01b0316021790555061125c565b6001016111b3565b50600080548061126857fe5b600082815260208120820160001990810180546001600160a01b03191690559091019091556040516001600160a01b038616917f58619076adf5bb0943d100ef88d52d7c3fd691b19d3a9071b555b651fbf418da91a250505050565b600b546001600160a01b031681565b60086020908152600092835260409283902082518084018301805192815290830193830193909320925281548351601f600260001961010060018616150201909316929092049182018390048302810183019094528084529083018282801561137d5780601f106113525761010080835404028352916020019161137d565b820191906000526020600020905b81548152906001019060200180831161136057829003601f168201915b505050505081565b600061138f612e6d565b6001600160a01b03811660009081526001602081905260409091205491925060ff9091161515146113f15760405162461bcd60e51b81526004018080602001828103825260278152602001806130d06027913960400191505060405180910390fd5b600b5482906001600160a01b03808316911614156114405760405162461bcd60e51b81526004018080602001828103825260268152602001806131cf6026913960400191505060405180910390fd5b600b546001600160a01b03848116911614156114a3576040805162461bcd60e51b815260206004820152601a60248201527f43616e6e6f742072656d6f76652077616c6c6574206f776e6572000000000000604482015290519081900360640190fd5b6001600160a01b0383166000908152600d60205260408120805460ff19169055600c54905b6001820381101561157657846001600160a01b0316600c82815481106114ea57fe5b6000918252602090912001546001600160a01b0316141561156e57600c600183038154811061151557fe5b600091825260209091200154600c80546001600160a01b03909216918390811061153b57fe5b9060005260206000200160006101000a8154816001600160a01b0302191690836001600160a01b03160217905550611576565b6001016114c8565b50600c80548061158257fe5b600082815260209020810160001990810180546001600160a01b031916905501905550505050565b336000908152600d602052604090205460ff161515600114806115d75750600b546001600160a01b031633145b6116125760405162461bcd60e51b81526004018080602001828103825260388152602001806130986038913960400191505060405180910390fd5b60008181526007602090815260408083203380855292529091205482919060ff1661166e5760405162461bcd60e51b815260040180806020018281038252602c8152602001806130f7602c913960400191505060405180910390fd5b60008381526006602081905260409091200154839060ff16156116c25760405162461bcd60e51b815260040180806020018281038252602c815260200180613123602c913960400191505060405180910390fd5b600084815260066020819052604090912001548490610100900460ff161561171b5760405162461bcd60e51b815260040180806020018281038252602c8152602001806131f5602c913960400191505060405180910390fd5b6000858152600760209081526040808320338085529252808320805460ff191690555187927ff6a317157440607f36269043eb55f1287a5a19ba2216afeab88cd46cbcfb88e991a35050505050565b6001600160a01b031660009081526005602052604090205460ff1690565b600080611793612e6d565b6001600160a01b03811660009081526001602081905260409091205491925060ff9091161515146117f55760405162461bcd60e51b81526004018080602001828103825260278152602001806130d06027913960400191505060405180910390fd5b5050600e546001600160a01b031690565b6001600160a01b031660009081526001602052604090205460ff1690565b5050565b600760209081526000928352604080842090915290825290205460ff1681565b50565b606060048054806020026020016040519081016040528092919081815260200182805480156118a357602002820191906000526020600020905b81546001600160a01b03168152600190910190602001808311611885575b5050505050905090565b6000805b600a54811015611914578380156118db57506000818152600660208190526040909120015460ff16155b80611900575082801561190057506000818152600660208190526040909120015460ff165b1561190c576001820191505b6001016118b1565b5092915050565b6040805160609290921b6bffffffffffffffffffffffff19166020830152805160148184030181526034909201905290565b6000611957612e6d565b6001600160a01b03811660009081526001602081905260409091205491925060ff9091161515146119b95760405162461bcd60e51b81526004018080602001828103825260278152602001806130d06027913960400191505060405180910390fd5b6001600160a01b0382166000908152600d6020526040902054829060ff16151560011415611a185760405162461bcd60e51b815260040180806020018281038252602b8152602001806131a4602b913960400191505060405180910390fd5b50506001600160a01b03166000818152600d60205260408120805460ff19166001908117909155600c805491820181559091527fdf6966c971051c3d54ec59162606531493a51404a002842f56009d7e5cf4a8c70180546001600160a01b0319169091179055565b6000611a8a612e6d565b6001600160a01b03811660009081526001602081905260409091205491925060ff909116151514611aec5760405162461bcd60e51b81526004018080602001828103825260278152602001806130d06027913960400191505060405180910390fd5b6001600160a01b038216600090815260016020819052604090912054839160ff90911615151415611b64576040805162461bcd60e51b815260206004820152601b60248201527f4164647265737320616c726561647920697320616e206f776e65720000000000604482015290519081900360640190fd5b6001600160a01b0383166000818152600160208190526040808320805460ff191683179055825491820183558280527f290decd9548b62a8d60345a988386fc84ba6bc95484008f6362f93160ef3e56390910180546001600160a01b03191684179055517f994a936646fe87ffe4f1e469d3d6aa417d6b855598397f323de5b449f765f0c39190a2505050565b6000611bfb612e6d565b6001600160a01b03811660009081526001602081905260409091205491925060ff909116151514611c5d5760405162461bcd60e51b81526004018080602001828103825260278152602001806130d06027913960400191505060405180910390fd5b6000611c67612e6d565b6001600160a01b0381166000908152600160205260408120805460ff191690559091505b60005460001901811015611d3c57816001600160a01b031660008281548110611cb057fe5b6000918252602090912001546001600160a01b03161415611d3457600080546000198101908110611cdd57fe5b600091825260208220015481546001600160a01b03909116919083908110611d0157fe5b9060005260206000200160006101000a8154816001600160a01b0302191690836001600160a01b03160217905550611d3c565b600101611c8b565b506000805480611d4857fe5b600082815260209020810160001990810180546001600160a01b03191690550190555050565b50505050565b600b546001600160a01b031690565b600080805b600c54811015611e02576000848152600760205260408120600c805491929184908110611db157fe5b60009182526020808320909101546001600160a01b0316835282019290925260400190205460ff1615611de5576001820191505b600954821415611dfa576001925050506110f7565b600101611d88565b5060009392505050565b6000611e16612e6d565b6001600160a01b03811660009081526001602081905260409091205491925060ff909116151514611e785760405162461bcd60e51b81526004018080602001828103825260278152602001806130d06027913960400191505060405180910390fd5b6001600160a01b038216600090815260056020526040902054829060ff16611eda576040805162461bcd60e51b815260206004820152601060248201526f15dc9a5d195c881b9bdd08195e1a5cdd60821b604482015290519081900360640190fd5b6001600160a01b0383166000908152600560205260408120805460ff19169055600454905b81811015611faa57846001600160a01b031660048281548110611f1e57fe5b6000918252602090912001546001600160a01b03161415611fa25760046001830381548110611f4957fe5b600091825260209091200154600480546001600160a01b039092169183908110611f6f57fe5b9060005260206000200160006101000a8154816001600160a01b0302191690836001600160a01b03160217905550611faa565b600101611eff565b506004805480611fb657fe5b600082815260208120820160001990810180546001600160a01b03191690559091019091556040516001600160a01b038616917f86e5bbceda94081c32220d685f37cc4e3ea7bb0be2dfbf0cb703579505a5390e91a250505050565b606060028054806020026020016040519081016040528092919081815260200182805480156118a3576020028201919060005260206000209081546001600160a01b03168152600190910190602001808311611885575050505050905090565b6000805b600c548110156120db576000838152600760205260408120600c80549192918490811061209f57fe5b60009182526020808320909101546001600160a01b0316835282019290925260400190205460ff16156120d3576001820191505b600101612076565b50919050565b600660209081526000918252604091829020805460018083015460028085015460038601805489516101009682161587026000190190911693909304601f8101899004890284018901909952888352949760ff841697949093046001600160a01b031695909490939192909183018282801561219e5780601f106121735761010080835404028352916020019161219e565b820191906000526020600020905b81548152906001019060200180831161218157829003601f168201915b50505050600483015460058401546006909401549293909290915060ff8082169161010090041689565b6060600c8054806020026020016040519081016040528092919081815260200182805480156118a3576020028201919060005260206000209081546001600160a01b03168152600190910190602001808311611885575050505050905090565b606060008054806020026020016040519081016040528092919081815260200182805480156118a3576020028201919060005260206000209081546001600160a01b03168152600190910190602001808311611885575050505050905090565b606080600a546040519080825280602002602001820160405280156122b7578160200160208202803883390190505b5090506000805b600a5481101561233a578580156122e857506000818152600660208190526040909120015460ff16155b8061230d575084801561230d57506000818152600660208190526040909120015460ff165b15612332578083838151811061231f57fe5b6020026020010181815250506001820191505b6001016122be565b878703604051908082528060200260200182016040528015612366578160200160208202803883390190505b5093508790505b868110156123aa5782818151811061238157fe5b6020026020010151848983038151811061239757fe5b602090810291909101015260010161236d565b505050949350505050565b60006123bf612e6d565b6001600160a01b03811660009081526001602081905260409091205491925060ff9091161515146124215760405162461bcd60e51b81526004018080602001828103825260278152602001806130d06027913960400191505060405180910390fd5b6001600160a01b038216600090815260036020526040902054829060ff1615612489576040805162461bcd60e51b815260206004820152601560248201527452656164657220616c72656164792065786973747360581b604482015290519081900360640190fd5b6001600160a01b038316600081815260036020526040808220805460ff1916600190811790915560028054918201815583527f405787fa12a823e0f2b7631cc41b3ba8828b3321ca811111fa75cd3aa3bb5ace0180546001600160a01b03191684179055517fb7724d890d2888af5a3fc456edb667e2c82c4441449ebcac301c618759e4f86d9190a2505050565b606080600c80549050604051908082528060200260200182016040528015612549578160200160208202803883390190505b5090506000805b600c5481101561260c576000858152600760205260408120600c80549192918490811061257957fe5b60009182526020808320909101546001600160a01b0316835282019290925260400190205460ff161561260457600c81815481106125b357fe5b9060005260206000200160009054906101000a90046001600160a01b03168383815181106125dd57fe5b60200260200101906001600160a01b031690816001600160a01b0316815250506001820191505b600101612550565b81604051908082528060200260200182016040528015612636578160200160208202803883390190505b509350600090505b818110156126865782818151811061265257fe5b602002602001015184828151811061266657fe5b6001600160a01b039092166020928302919091019091015260010161263e565b505050919050565b600a5481565b600061269e612e6d565b6001600160a01b03811660009081526001602081905260409091205491925060ff9091161515146127005760405162461bcd60e51b81526004018080602001828103825260278152602001806130d06027913960400191505060405180910390fd5b818061270b57600080fd5b60098390556040805184815290517fa3f1ee9126a074d9326c682f561767f710e927faa811f7a99829d49dc421797a9181900360200190a1505050565b336000908152600d602052604090205460ff161515600114806127755750600b546001600160a01b031633145b6127b05760405162461bcd60e51b81526004018080602001828103825260388152602001806130986038913960400191505060405180910390fd5b600081815260066020526040902060010154819061010090046001600160a01b031661280d5760405162461bcd60e51b815260040180806020018281038252602581526020018061317f6025913960400191505060405180910390fd5b60008281526007602090815260408083203380855292529091205483919060ff161561286a5760405162461bcd60e51b815260040180806020018281038252603081526020018061314f6030913960400191505060405180910390fd5b600084815260066020819052604090912001548490610100900460ff16156128c35760405162461bcd60e51b815260040180806020018281038252602c8152602001806131f5602c913960400191505060405180910390fd5b6000858152600760209081526040808320338085529252808320805460ff191660011790555187927f4a504a94899432a9846e1aa406dceb1bcfd538bb839071d49d1e5e23f5be30ef91a361291785612e71565b5050505050565b6000612928612e6d565b6001600160a01b03811660009081526001602081905260409091205491925060ff90911615151461298a5760405162461bcd60e51b81526004018080602001828103825260278152602001806130d06027913960400191505060405180910390fd5b600b80546001600160a01b0319166001600160a01b038481169190911791829055166000908152600d602052604090205460ff1661182457600b80546001600160a01b039081166000908152600d60205260408120805460ff191660019081179091559254600c805494850181559091527fdf6966c971051c3d54ec59162606531493a51404a002842f56009d7e5cf4a8c790920180546001600160a01b031916929091169190911790555050565b603281565b6000612a48612e6d565b6001600160a01b03811660009081526001602081905260409091205491925060ff909116151514612aaa5760405162461bcd60e51b81526004018080602001828103825260278152602001806130d06027913960400191505060405180910390fd5b6001600160a01b038216600090815260056020526040902054829060ff1615612b12576040805162461bcd60e51b815260206004820152601560248201527457726974657220616c72656164792065786973747360581b604482015290519081900360640190fd5b6001600160a01b038316600081815260056020526040808220805460ff1916600190811790915560048054918201815583527f8a35acfbc15ff81a39ae7d344fd709f28e8600b4aa8c65c6b64bfe7fe36bd19b0180546001600160a01b03191684179055517f6ff3aa2ea7b53070f6d9d07a445d338d89e8edef44250ffa8be19f53910d4a2e9190a2505050565b60095481565b6000612bb0612e6d565b6001600160a01b03811660009081526001602081905260409091205491925060ff909116151514612c125760405162461bcd60e51b81526004018080602001828103825260278152602001806130d06027913960400191505060405180910390fd5b6001600160a01b038216600090815260036020526040902054829060ff16612c74576040805162461bcd60e51b815260206004820152601060248201526f14995859195c881b9bdd08195e1a5cdd60821b604482015290519081900360640190fd5b6001600160a01b0383166000908152600360205260408120805460ff19169055600254905b81811015612d4457846001600160a01b031660028281548110612cb857fe5b6000918252602090912001546001600160a01b03161415612d3c5760026001830381548110612ce357fe5b600091825260209091200154600280546001600160a01b039092169183908110612d0957fe5b9060005260206000200160006101000a8154816001600160a01b0302191690836001600160a01b03160217905550612d44565b600101612c99565b506002805480612d5057fe5b600082815260208120820160001990810180546001600160a01b03191690559091019091556040516001600160a01b038616917fe933431644458f1217f9e93d3e000e03c9bbbe55761046d0985c2e4d157bcbaa91a250505050565b60005490565b6000612dbc612e6d565b6001600160a01b03811660009081526001602081905260409091205491925060ff909116151514612e1e5760405162461bcd60e51b81526004018080602001828103825260278152602001806130d06027913960400191505060405180910390fd5b50600e80546001600160a01b0319166001600160a01b0392909216919091179055565b600c8181548110612e4e57fe5b6000918252602090912001546001600160a01b0316905081565b505050565b3390565b60008181526007602090815260408083203380855292529091205482919060ff16612ecd5760405162461bcd60e51b815260040180806020018281038252602c8152602001806130f7602c913960400191505060405180910390fd5b60008381526006602081905260409091200154839060ff1615612f215760405162461bcd60e51b815260040180806020018281038252602c815260200180613123602c913960400191505060405180910390fd5b612f2a84611d83565b15611d6e576000848152600660205260409020600181015460ff161561307c57600681018054600160ff199091168117909155808201546002808401546003850180546040805160206101009884161589026000190190931695909504601f810183900483028601830190915280855261300a969095046001600160a01b031694929392908301828280156130005780601f10612fd557610100808354040283529160200191613000565b820191906000526020600020905b815481529060010190602001808311612fe357829003601f168201915b505050505061307e565b1561303f5760405185907f33e13ecb54c3076d8e8bb8c2881800a4d972b792045ffae98fdf46df365fed7590600090a2613077565b60405185907f526441bb6c1aba3c9a4a6ca1d6545da9c2333c8c48343ef398eb858d72b7923690600090a260068101805460ff191690555b612917565bfe5b60008060008084516020860187895af19594505050505056fe4d756c746953696757616c6c65743a2063616c6c6572206973206e6f74206f6e65206f66207468652077616c6c6574206f70657261746f724f776e61626c653a2063616c6c6572206973206e6f74206f6e65206f6620746865206f776e65724d756c746953696757616c6c65743a205472616e73616374696f6e206973206e6f7420636f6e6669726d65644d756c746953696757616c6c65743a205472616e73616374696f6e20616c72656164792065786563757465644d756c746953696757616c6c65743a205472616e73616374696f6e20697320616c726561647920636f6e6669726d65644d756c746953696757616c6c65743a205472616e73616374696f6e206e6f7420666f756e644d756c746953696757616c6c65743a2041646472657373206973206f70657261746f7220616c72656164794d756c746953696757616c6c65743a2063616c6c65722069732077616c6c6574206f776e65724d756c746953696757616c6c65743a205472616e73616374696f6e20616c72656164792072656a6563746564a2646970667358221220cf84d00d1eadfaad8b06ce1a4279399c48ab2f2b7ae9e1edfef11259b62fccda64736f6c63430006020033",
  "source": "pragma solidity >=0.6.0 <0.8.0;\n\nimport \"./MultiSigWallet.sol\";\nimport \"../config/InternalSmartContractConfig.sol\";\n\ncontract MerchantWallet is MultiSigWallet{\n    InternalSmartContractConfig internal internalSmartContractContract;\n\n    constructor(uint _required) MultiSigWallet(_required) public {\n    }\n\n    function setInternalSmartContract(address addr) public onlyOwner{\n        internalSmartContractContract = InternalSmartContractConfig(addr);\n    }\n\n    function getInternalSmartContract() public onlyOwner view returns(address){\n        return address(internalSmartContractContract);\n    }\n\n    function processPayment(string memory assetName, uint256 amount, string memory orderId, string memory txnId)public{\n\n    }\n\n    function transfer(address dest, string memory assetName, uint256 amount)public {\n\n    }\n\n    function withdraw(string memory assetName, uint256 amount)public{\n\n    }\n\n    function balanceOf(string memory assetName)public view{\n\n    }\n\n    function createPayment(string memory assetName, uint256 amount, string memory remarks, string memory orderId)public{\n\n    }\n}\n",
  "sourcePath": "/Users/duncanto/Documents/WorkingSet2/src/eurus-backend/smartcontract/contracts/wallet/MerchantWallet.sol",
  "compiler": {
    "name": "solc",
    "version": "0.6.2+commit.bacdbe57.Emscripten.clang"
  },
  "schemaVersion": "3.4.1",
  "updatedAt": "2021-08-04T10:30:06.349Z",
  "devdoc": {
    "methods": {
      "changeRequirement(uint256)": {
        "details": "Allows to change the number of required confirmations. Transaction has to be sent by wallet.",
        "params": {
          "_required": "Number of required confirmations."
        }
      },
      "confirmTransaction(uint256)": {
        "details": "Allows an owner to confirm a transaction.",
        "params": {
          "transactionId": "Transaction ID."
        }
      },
      "isConfirmed(uint256)": {
        "details": "Returns the confirmation status of a transaction.",
        "params": {
          "transactionId": "Transaction ID."
        },
        "returns": {
          "_0": "Confirmation status."
        }
      },
      "renounceOwnership()": {
        "details": "Leaves the contract without owner. It will not be possible to call `onlyOwner` functions anymore. Can only be called by the current owner.     * NOTE: Renouncing ownership will leave the contract without an owner, thereby removing any functionality that is only available to the owner."
      },
      "revokeConfirmation(uint256)": {
        "details": "Allows an owner to revoke a confirmation for a transaction.",
        "params": {
          "transactionId": "Transaction ID."
        }
      }
    }
  },
  "userdoc": {
    "methods": {}
  }
}