{
  "contractName": "OwnedUpgradeabilityProxy",
  "abi": [
    {
      "inputs": [],
      "stateMutability": "nonpayable",
      "type": "constructor"
    },
    {
      "anonymous": false,
      "inputs": [
        {
          "indexed": true,
          "internalType": "address",
          "name": "sender",
          "type": "address"
        },
        {
          "indexed": true,
          "internalType": "uint256",
          "name": "amount",
          "type": "uint256"
        }
      ],
      "name": "DepositETH",
      "type": "event"
    },
    {
      "anonymous": false,
      "inputs": [
        {
          "indexed": false,
          "internalType": "address",
          "name": "previousOwner",
          "type": "address"
        },
        {
          "indexed": false,
          "internalType": "address",
          "name": "newOwner",
          "type": "address"
        }
      ],
      "name": "ProxyOwnershipTransferred",
      "type": "event"
    },
    {
      "anonymous": false,
      "inputs": [
        {
          "indexed": true,
          "internalType": "address",
          "name": "implementation",
          "type": "address"
        }
      ],
      "name": "Upgraded",
      "type": "event"
    },
    {
      "stateMutability": "payable",
      "type": "fallback",
      "payable": true
    },
    {
      "inputs": [],
      "name": "implementation",
      "outputs": [
        {
          "internalType": "address",
          "name": "impl",
          "type": "address"
        }
      ],
      "stateMutability": "view",
      "type": "function",
      "constant": true
    },
    {
      "stateMutability": "payable",
      "type": "receive",
      "payable": true
    },
    {
      "inputs": [],
      "name": "proxyOwner",
      "outputs": [
        {
          "internalType": "address",
          "name": "owner",
          "type": "address"
        }
      ],
      "stateMutability": "view",
      "type": "function",
      "constant": true
    },
    {
      "inputs": [
        {
          "internalType": "address",
          "name": "newOwner",
          "type": "address"
        }
      ],
      "name": "transferProxyOwnership",
      "outputs": [],
      "stateMutability": "nonpayable",
      "type": "function"
    },
    {
      "inputs": [
        {
          "internalType": "address",
          "name": "implementation",
          "type": "address"
        }
      ],
      "name": "upgradeTo",
      "outputs": [],
      "stateMutability": "nonpayable",
      "type": "function"
    },
    {
      "inputs": [
        {
          "internalType": "address",
          "name": "implementation",
          "type": "address"
        },
        {
          "internalType": "bytes",
          "name": "data",
          "type": "bytes"
        }
      ],
      "name": "upgradeToAndCall",
      "outputs": [],
      "stateMutability": "payable",
      "type": "function",
      "payable": true
    }
  ],
  "bytecode": "0x608060405234801561001057600080fd5b50610023336001600160e01b0361008116565b60008054600181810183557f290decd9548b62a8d60345a988386fc84ba6bc95484008f6362f93160ef3e56390910180546001600160a01b03191633908117909155825260208190526040909120805460ff191690911790556100b6565b604080517f6f72672e7a657070656c696e6f732e70726f78792e6f776e65720000000000008152905190819003601a01902055565b610584806100c56000396000f3fe60806040526004361061004e5760003560e01c8063025313a21461010b5780633659cfe61461013c5780634f1ef2861461016f5780635c60da1b14610225578063f1739cae1461023a57610089565b3661008957341561008757604051349033907fced5d8bf10823804603bba066e4f53aa6e8f6f4be68bf0114cf7a0e52183e4e990600090a35b005b600061009361026d565b90506001600160a01b0381166100e6576040805162461bcd60e51b81526020600482015260136024820152720496d706c656d656e746174696f6e206973203606c1b604482015290519081900360640190fd5b60405136600082376000803683855af43d806000843e818015610107578184f35b8184fd5b34801561011757600080fd5b50610120610290565b604080516001600160a01b039092168252519081900360200190f35b34801561014857600080fd5b506100876004803603602081101561015f57600080fd5b50356001600160a01b03166102c6565b6100876004803603604081101561018557600080fd5b6001600160a01b0382351691908101906040810160208201356401000000008111156101b057600080fd5b8201836020820111156101c257600080fd5b803590602001918460018302840111640100000000831117156101e457600080fd5b91908080601f0160208091040260200160405190810160405280939291908181526020018383808284376000920191909152509295506102f7945050505050565b34801561023157600080fd5b5061012061026d565b34801561024657600080fd5b506100876004803603602081101561025d57600080fd5b50356001600160a01b03166103dc565b600080604051808061052c60239139604051908190036023019020549392505050565b604080517f6f72672e7a657070656c696e6f732e70726f78792e6f776e65720000000000008152905190819003601a0190205490565b6102ce610290565b6001600160a01b0316336001600160a01b0316146102eb57600080fd5b6102f481610468565b50565b6102ff610290565b6001600160a01b0316336001600160a01b03161461031c57600080fd5b610325826102c6565b6000306001600160a01b031634836040518082805190602001908083835b602083106103625780518252601f199092019160209182019101610343565b6001836020036101000a03801982511681845116808217855250505050505090500191505060006040518083038185875af1925050503d80600081146103c4576040519150601f19603f3d011682016040523d82523d6000602084013e6103c9565b606091505b50509050806103d757600080fd5b505050565b6103e4610290565b6001600160a01b0316336001600160a01b03161461040157600080fd5b6001600160a01b03811661041457600080fd5b7f5a3e66efaa1e445ebd894728a69d6959842ea1e97bd79b892797106e270efcd961043d610290565b604080516001600160a01b03928316815291841660208301528051918290030190a16102f4816104d4565b600061047261026d565b9050816001600160a01b0316816001600160a01b0316141561049357600080fd5b61049c82610509565b6040516001600160a01b038316907fbc7cd75a20ee27fd9adebab32041f755214dbc6bffa90cc0225b39da2e5c2d3b90600090a25050565b604080517f6f72672e7a657070656c696e6f732e70726f78792e6f776e65720000000000008152905190819003601a01902055565b6000604051808061052c6023913960405190819003602301902092909255505056fe6f72672e7a657070656c696e6f732e70726f78792e696d706c656d656e746174696f6ea264697066735822122085f676afcf1ac5cf6ed72c83c455f24898b18f5ed329867ef786fed8ef2b74a564736f6c63430006020033",
  "source": "pragma solidity >=0.6.0 <0.8.0;\n\nimport './UpgradeabilityProxy.sol';\n\n/**\n * @title OwnedUpgradeabilityProxy\n * @dev This contract combines an upgradeability proxy with basic authorization control functionalities\n */\ncontract OwnedUpgradeabilityProxy is UpgradeabilityProxy {\n  address[] internal placeholder0; //Owner list\n  mapping (address => bool) internal placeholder1; //Owner map\n\n  /**\n  * @dev Event to show ownership has been transferred\n  * @param previousOwner representing the address of the previous owner\n  * @param newOwner representing the address of the new owner\n  */\n  event ProxyOwnershipTransferred(address previousOwner, address newOwner);\n\n  // Storage position of the owner of the contract\n  bytes32 private constant proxyOwnerPosition = keccak256(\"org.zeppelinos.proxy.owner\");\n\n  /**\n  * @dev the constructor sets the original owner of the contract to the sender account.\n  */\n  constructor () public {\n    setUpgradeabilityOwner(msg.sender);\n    placeholder0.push( msg.sender);\n    placeholder1[msg.sender] = true;\n  }\n\n  /**\n  * @dev Throws if called by any account other than the owner.\n  */\n  modifier onlyProxyOwner() {\n    require(msg.sender == proxyOwner());\n    _;\n  }\n\n  /**\n   * @dev Tells the address of the owner\n   * @return owner the address of the owner\n   */\n  function proxyOwner() public view returns (address owner) {\n    bytes32 position = proxyOwnerPosition;\n    assembly {\n      owner := sload(position)\n    }\n  }\n\n  /**\n   * @dev Sets the address of the owner\n   */\n  function setUpgradeabilityOwner(address newProxyOwner) internal {\n    bytes32 position = proxyOwnerPosition;\n    assembly {\n      sstore(position, newProxyOwner)\n    }\n  }\n\n  /**\n   * @dev Allows the current owner to transfer control of the contract to a newOwner.\n   * @param newOwner The address to transfer ownership to.\n   */\n  function transferProxyOwnership(address newOwner) public onlyProxyOwner {\n    require(newOwner != address(0));\n    emit ProxyOwnershipTransferred(proxyOwner(), newOwner);\n    setUpgradeabilityOwner(newOwner);\n  }\n\n  /**\n   * @dev Allows the proxy owner to upgrade the current version of the proxy.\n   * @param implementation representing the address of the new implementation to be set.\n   */\n  function upgradeTo(address implementation) public onlyProxyOwner {\n    _upgradeTo(implementation);\n  }\n\n  /**\n   * @dev Allows the proxy owner to upgrade the current version of the proxy and call the new implementation\n   * to initialize whatever is needed through a low level call.\n   * @param implementation representing the address of the new implementation to be set.\n   * @param data represents the msg.data to bet sent in the low level call. This parameter may include the function\n   * signature of the implementation to be called with the needed payload\n   */\n  function upgradeToAndCall(address implementation, bytes memory data) payable public onlyProxyOwner {\n    upgradeTo(implementation);\n    //require(this.call.value(msg.value)(data));\n    (bool success, ) = address(this).call.value(msg.value)(data);\n    require(success);\n  }\n}",
  "sourcePath": "/Users/duncanto/Documents/WorkingSet2/src/eurus-backend/smartcontract/contracts/utils/proxy/OwnedUpgradeabilityProxy.sol",
  "compiler": {
    "name": "solc",
    "version": "0.6.2+commit.bacdbe57.Emscripten.clang"
  },
  "schemaVersion": "3.4.1",
  "updatedAt": "2021-08-11T02:32:04.247Z",
  "networkType": "ethereum",
  "devdoc": {
    "details": "This contract combines an upgradeability proxy with basic authorization control functionalities",
    "methods": {
      "constructor": {
        "details": "the constructor sets the original owner of the contract to the sender account."
      },
      "implementation()": {
        "details": "Tells the address of the current implementation",
        "returns": {
          "impl": "address of the current implementation"
        }
      },
      "proxyOwner()": {
        "details": "Tells the address of the owner",
        "returns": {
          "owner": "the address of the owner"
        }
      },
      "transferProxyOwnership(address)": {
        "details": "Allows the current owner to transfer control of the contract to a newOwner.",
        "params": {
          "newOwner": "The address to transfer ownership to."
        }
      },
      "upgradeTo(address)": {
        "details": "Allows the proxy owner to upgrade the current version of the proxy.",
        "params": {
          "implementation": "representing the address of the new implementation to be set."
        }
      },
      "upgradeToAndCall(address,bytes)": {
        "details": "Allows the proxy owner to upgrade the current version of the proxy and call the new implementation to initialize whatever is needed through a low level call.",
        "params": {
          "data": "represents the msg.data to bet sent in the low level call. This parameter may include the function signature of the implementation to be called with the needed payload",
          "implementation": "representing the address of the new implementation to be set."
        }
      }
    },
    "title": "OwnedUpgradeabilityProxy"
  },
  "userdoc": {
    "methods": {}
  }
}