{
  "contractName": "PlatformWallet",
  "abi": [
    {
      "inputs": [],
      "stateMutability": "nonpayable",
      "type": "constructor"
    },
    {
      "anonymous": false,
      "inputs": [
        {
          "indexed": true,
          "internalType": "address",
          "name": "sender",
          "type": "address"
        },
        {
          "indexed": true,
          "internalType": "uint256",
          "name": "transactionId",
          "type": "uint256"
        }
      ],
      "name": "Confirmation",
      "type": "event"
    },
    {
      "anonymous": false,
      "inputs": [
        {
          "indexed": true,
          "internalType": "address",
          "name": "sender",
          "type": "address"
        },
        {
          "indexed": false,
          "internalType": "uint256",
          "name": "value",
          "type": "uint256"
        }
      ],
      "name": "Deposit",
      "type": "event"
    },
    {
      "anonymous": false,
      "inputs": [
        {
          "indexed": false,
          "internalType": "string",
          "name": "",
          "type": "string"
        }
      ],
      "name": "Event",
      "type": "event"
    },
    {
      "anonymous": false,
      "inputs": [
        {
          "indexed": true,
          "internalType": "uint256",
          "name": "transactionId",
          "type": "uint256"
        }
      ],
      "name": "Execution",
      "type": "event"
    },
    {
      "anonymous": false,
      "inputs": [
        {
          "indexed": true,
          "internalType": "uint256",
          "name": "transactionId",
          "type": "uint256"
        }
      ],
      "name": "ExecutionFailure",
      "type": "event"
    },
    {
      "anonymous": false,
      "inputs": [
        {
          "indexed": true,
          "internalType": "uint256",
          "name": "mintRequestTransId",
          "type": "uint256"
        },
        {
          "indexed": false,
          "internalType": "string",
          "name": "mainnetDepositTransHash",
          "type": "string"
        }
      ],
      "name": "MintCompletedEvent",
      "type": "event"
    },
    {
      "anonymous": false,
      "inputs": [
        {
          "indexed": true,
          "internalType": "uint256",
          "name": "mintRequestTransId",
          "type": "uint256"
        },
        {
          "indexed": false,
          "internalType": "string",
          "name": "mainnetDepositTransHash",
          "type": "string"
        }
      ],
      "name": "MintRequestEvent",
      "type": "event"
    },
    {
      "anonymous": false,
      "inputs": [
        {
          "indexed": true,
          "internalType": "address",
          "name": "owner",
          "type": "address"
        }
      ],
      "name": "OwnerAdded",
      "type": "event"
    },
    {
      "anonymous": false,
      "inputs": [
        {
          "indexed": true,
          "internalType": "address",
          "name": "owner",
          "type": "address"
        }
      ],
      "name": "OwnerRemoved",
      "type": "event"
    },
    {
      "anonymous": false,
      "inputs": [
        {
          "indexed": true,
          "internalType": "address",
          "name": "previousOwner",
          "type": "address"
        },
        {
          "indexed": true,
          "internalType": "address",
          "name": "newOwner",
          "type": "address"
        }
      ],
      "name": "OwnershipTransferred",
      "type": "event"
    },
    {
      "anonymous": false,
      "inputs": [
        {
          "indexed": true,
          "internalType": "address",
          "name": "reader",
          "type": "address"
        }
      ],
      "name": "ReaderAdded",
      "type": "event"
    },
    {
      "anonymous": false,
      "inputs": [
        {
          "indexed": true,
          "internalType": "address",
          "name": "reader",
          "type": "address"
        }
      ],
      "name": "ReaderRemoved",
      "type": "event"
    },
    {
      "anonymous": false,
      "inputs": [
        {
          "indexed": true,
          "internalType": "address",
          "name": "sender",
          "type": "address"
        },
        {
          "indexed": true,
          "internalType": "uint256",
          "name": "transactionId",
          "type": "uint256"
        }
      ],
      "name": "Rejection",
      "type": "event"
    },
    {
      "anonymous": false,
      "inputs": [
        {
          "indexed": false,
          "internalType": "uint256",
          "name": "required",
          "type": "uint256"
        }
      ],
      "name": "RequirementChange",
      "type": "event"
    },
    {
      "anonymous": false,
      "inputs": [
        {
          "indexed": true,
          "internalType": "address",
          "name": "sender",
          "type": "address"
        },
        {
          "indexed": true,
          "internalType": "uint256",
          "name": "transactionId",
          "type": "uint256"
        }
      ],
      "name": "Revocation",
      "type": "event"
    },
    {
      "anonymous": false,
      "inputs": [
        {
          "indexed": true,
          "internalType": "uint256",
          "name": "transactionId",
          "type": "uint256"
        }
      ],
      "name": "Submission",
      "type": "event"
    },
    {
      "anonymous": false,
      "inputs": [
        {
          "indexed": true,
          "internalType": "address",
          "name": "writer",
          "type": "address"
        }
      ],
      "name": "WriterAdded",
      "type": "event"
    },
    {
      "anonymous": false,
      "inputs": [
        {
          "indexed": true,
          "internalType": "address",
          "name": "writer",
          "type": "address"
        }
      ],
      "name": "WriterRemoved",
      "type": "event"
    },
    {
      "inputs": [],
      "name": "MAX_OWNER_COUNT",
      "outputs": [
        {
          "internalType": "uint256",
          "name": "",
          "type": "uint256"
        }
      ],
      "stateMutability": "view",
      "type": "function"
    },
    {
      "inputs": [
        {
          "internalType": "address",
          "name": "newOwner",
          "type": "address"
        }
      ],
      "name": "addOwner",
      "outputs": [],
      "stateMutability": "nonpayable",
      "type": "function"
    },
    {
      "inputs": [
        {
          "internalType": "address",
          "name": "newReader",
          "type": "address"
        }
      ],
      "name": "addReader",
      "outputs": [],
      "stateMutability": "nonpayable",
      "type": "function"
    },
    {
      "inputs": [
        {
          "internalType": "address",
          "name": "operatorAddr",
          "type": "address"
        }
      ],
      "name": "addWalletOperator",
      "outputs": [],
      "stateMutability": "nonpayable",
      "type": "function"
    },
    {
      "inputs": [
        {
          "internalType": "address",
          "name": "newWriter",
          "type": "address"
        }
      ],
      "name": "addWriter",
      "outputs": [],
      "stateMutability": "nonpayable",
      "type": "function"
    },
    {
      "inputs": [
        {
          "internalType": "uint256",
          "name": "_required",
          "type": "uint256"
        }
      ],
      "name": "changeRequirement",
      "outputs": [],
      "stateMutability": "nonpayable",
      "type": "function"
    },
    {
      "inputs": [
        {
          "internalType": "uint256",
          "name": "transactionId",
          "type": "uint256"
        }
      ],
      "name": "confirmTransaction",
      "outputs": [],
      "stateMutability": "nonpayable",
      "type": "function"
    },
    {
      "inputs": [
        {
          "internalType": "uint256",
          "name": "",
          "type": "uint256"
        },
        {
          "internalType": "address",
          "name": "",
          "type": "address"
        }
      ],
      "name": "confirmations",
      "outputs": [
        {
          "internalType": "bool",
          "name": "",
          "type": "bool"
        }
      ],
      "stateMutability": "view",
      "type": "function"
    },
    {
      "inputs": [
        {
          "internalType": "uint256",
          "name": "transactionId",
          "type": "uint256"
        }
      ],
      "name": "getConfirmationCount",
      "outputs": [
        {
          "internalType": "uint256",
          "name": "count",
          "type": "uint256"
        }
      ],
      "stateMutability": "view",
      "type": "function"
    },
    {
      "inputs": [
        {
          "internalType": "uint256",
          "name": "transactionId",
          "type": "uint256"
        }
      ],
      "name": "getConfirmations",
      "outputs": [
        {
          "internalType": "address[]",
          "name": "_confirmations",
          "type": "address[]"
        }
      ],
      "stateMutability": "view",
      "type": "function"
    },
    {
      "inputs": [],
      "name": "getOwnerCount",
      "outputs": [
        {
          "internalType": "uint256",
          "name": "",
          "type": "uint256"
        }
      ],
      "stateMutability": "view",
      "type": "function"
    },
    {
      "inputs": [],
      "name": "getOwners",
      "outputs": [
        {
          "internalType": "address[]",
          "name": "",
          "type": "address[]"
        }
      ],
      "stateMutability": "view",
      "type": "function"
    },
    {
      "inputs": [],
      "name": "getReaderList",
      "outputs": [
        {
          "internalType": "address[]",
          "name": "",
          "type": "address[]"
        }
      ],
      "stateMutability": "view",
      "type": "function"
    },
    {
      "inputs": [
        {
          "internalType": "bool",
          "name": "pending",
          "type": "bool"
        },
        {
          "internalType": "bool",
          "name": "executed",
          "type": "bool"
        }
      ],
      "name": "getTransactionCount",
      "outputs": [
        {
          "internalType": "uint256",
          "name": "count",
          "type": "uint256"
        }
      ],
      "stateMutability": "view",
      "type": "function"
    },
    {
      "inputs": [
        {
          "internalType": "uint256",
          "name": "from",
          "type": "uint256"
        },
        {
          "internalType": "uint256",
          "name": "to",
          "type": "uint256"
        },
        {
          "internalType": "bool",
          "name": "pending",
          "type": "bool"
        },
        {
          "internalType": "bool",
          "name": "executed",
          "type": "bool"
        }
      ],
      "name": "getTransactionIds",
      "outputs": [
        {
          "internalType": "uint256[]",
          "name": "_transactionIds",
          "type": "uint256[]"
        }
      ],
      "stateMutability": "view",
      "type": "function"
    },
    {
      "inputs": [],
      "name": "getWalletOperatorList",
      "outputs": [
        {
          "internalType": "address[]",
          "name": "",
          "type": "address[]"
        }
      ],
      "stateMutability": "view",
      "type": "function"
    },
    {
      "inputs": [],
      "name": "getWalletOwner",
      "outputs": [
        {
          "internalType": "address",
          "name": "",
          "type": "address"
        }
      ],
      "stateMutability": "view",
      "type": "function"
    },
    {
      "inputs": [],
      "name": "getWriterList",
      "outputs": [
        {
          "internalType": "address[]",
          "name": "",
          "type": "address[]"
        }
      ],
      "stateMutability": "view",
      "type": "function"
    },
    {
      "inputs": [
        {
          "internalType": "uint256",
          "name": "transactionId",
          "type": "uint256"
        }
      ],
      "name": "isConfirmed",
      "outputs": [
        {
          "internalType": "bool",
          "name": "",
          "type": "bool"
        }
      ],
      "stateMutability": "view",
      "type": "function"
    },
    {
      "inputs": [
        {
          "internalType": "address",
          "name": "addr",
          "type": "address"
        }
      ],
      "name": "isOwner",
      "outputs": [
        {
          "internalType": "bool",
          "name": "",
          "type": "bool"
        }
      ],
      "stateMutability": "view",
      "type": "function"
    },
    {
      "inputs": [
        {
          "internalType": "uint256",
          "name": "transId",
          "type": "uint256"
        }
      ],
      "name": "isRejected",
      "outputs": [
        {
          "internalType": "bool",
          "name": "",
          "type": "bool"
        }
      ],
      "stateMutability": "view",
      "type": "function"
    },
    {
      "inputs": [
        {
          "internalType": "address",
          "name": "addr",
          "type": "address"
        }
      ],
      "name": "isWriter",
      "outputs": [
        {
          "internalType": "bool",
          "name": "",
          "type": "bool"
        }
      ],
      "stateMutability": "view",
      "type": "function"
    },
    {
      "inputs": [
        {
          "internalType": "uint256",
          "name": "",
          "type": "uint256"
        },
        {
          "internalType": "string",
          "name": "",
          "type": "string"
        }
      ],
      "name": "miscellaneousData",
      "outputs": [
        {
          "internalType": "string",
          "name": "",
          "type": "string"
        }
      ],
      "stateMutability": "view",
      "type": "function"
    },
    {
      "inputs": [
        {
          "internalType": "uint256",
          "name": "transId",
          "type": "uint256"
        }
      ],
      "name": "rejectTransaction",
      "outputs": [],
      "stateMutability": "nonpayable",
      "type": "function"
    },
    {
      "inputs": [
        {
          "internalType": "address",
          "name": "owner",
          "type": "address"
        }
      ],
      "name": "removeOwner",
      "outputs": [],
      "stateMutability": "nonpayable",
      "type": "function"
    },
    {
      "inputs": [
        {
          "internalType": "address",
          "name": "operatorAddr",
          "type": "address"
        }
      ],
      "name": "removeWalletOperator",
      "outputs": [],
      "stateMutability": "nonpayable",
      "type": "function"
    },
    {
      "inputs": [
        {
          "internalType": "address",
          "name": "existingReader",
          "type": "address"
        }
      ],
      "name": "removerReader",
      "outputs": [],
      "stateMutability": "nonpayable",
      "type": "function"
    },
    {
      "inputs": [
        {
          "internalType": "address",
          "name": "existingWriter",
          "type": "address"
        }
      ],
      "name": "removerWriter",
      "outputs": [],
      "stateMutability": "nonpayable",
      "type": "function"
    },
    {
      "inputs": [],
      "name": "renounceOwnership",
      "outputs": [],
      "stateMutability": "nonpayable",
      "type": "function"
    },
    {
      "inputs": [],
      "name": "required",
      "outputs": [
        {
          "internalType": "uint256",
          "name": "",
          "type": "uint256"
        }
      ],
      "stateMutability": "view",
      "type": "function"
    },
    {
      "inputs": [
        {
          "internalType": "uint256",
          "name": "transactionId",
          "type": "uint256"
        }
      ],
      "name": "revokeConfirmation",
      "outputs": [],
      "stateMutability": "nonpayable",
      "type": "function"
    },
    {
      "inputs": [
        {
          "internalType": "address",
          "name": "addr",
          "type": "address"
        }
      ],
      "name": "setWalletOwner",
      "outputs": [],
      "stateMutability": "nonpayable",
      "type": "function"
    },
    {
      "inputs": [
        {
          "internalType": "address",
          "name": "a",
          "type": "address"
        }
      ],
      "name": "toBytes",
      "outputs": [
        {
          "internalType": "bytes",
          "name": "",
          "type": "bytes"
        }
      ],
      "stateMutability": "pure",
      "type": "function"
    },
    {
      "inputs": [],
      "name": "transactionCount",
      "outputs": [
        {
          "internalType": "uint256",
          "name": "",
          "type": "uint256"
        }
      ],
      "stateMutability": "view",
      "type": "function"
    },
    {
      "inputs": [
        {
          "internalType": "uint256",
          "name": "",
          "type": "uint256"
        }
      ],
      "name": "transactions",
      "outputs": [
        {
          "internalType": "uint256",
          "name": "transId",
          "type": "uint256"
        },
        {
          "internalType": "bool",
          "name": "isDirectInvokeData",
          "type": "bool"
        },
        {
          "internalType": "address",
          "name": "destination",
          "type": "address"
        },
        {
          "internalType": "uint256",
          "name": "value",
          "type": "uint256"
        },
        {
          "internalType": "bytes",
          "name": "data",
          "type": "bytes"
        },
        {
          "internalType": "uint256",
          "name": "timestamp",
          "type": "uint256"
        },
        {
          "internalType": "uint256",
          "name": "blockNumber",
          "type": "uint256"
        },
        {
          "internalType": "bool",
          "name": "executed",
          "type": "bool"
        },
        {
          "internalType": "bool",
          "name": "rejected",
          "type": "bool"
        }
      ],
      "stateMutability": "view",
      "type": "function"
    },
    {
      "inputs": [
        {
          "internalType": "uint256",
          "name": "",
          "type": "uint256"
        }
      ],
      "name": "walletOperatorList",
      "outputs": [
        {
          "internalType": "address",
          "name": "",
          "type": "address"
        }
      ],
      "stateMutability": "view",
      "type": "function"
    },
    {
      "inputs": [],
      "name": "walletOwner",
      "outputs": [
        {
          "internalType": "address",
          "name": "",
          "type": "address"
        }
      ],
      "stateMutability": "view",
      "type": "function"
    },
    {
      "stateMutability": "payable",
      "type": "receive"
    },
    {
      "inputs": [
        {
          "internalType": "address",
          "name": "addr",
          "type": "address"
        }
      ],
      "name": "setInternalSmartContractConfig",
      "outputs": [],
      "stateMutability": "nonpayable",
      "type": "function"
    },
    {
      "inputs": [],
      "name": "getInternalSmartContractConfig",
      "outputs": [
        {
          "internalType": "address",
          "name": "",
          "type": "address"
        }
      ],
      "stateMutability": "view",
      "type": "function"
    },
    {
      "inputs": [
        {
          "internalType": "address",
          "name": "dest",
          "type": "address"
        },
        {
          "internalType": "string",
          "name": "assetName",
          "type": "string"
        },
        {
          "internalType": "uint256",
          "name": "amount",
          "type": "uint256"
        },
        {
          "internalType": "string",
          "name": "mainnetTransHash",
          "type": "string"
        }
      ],
      "name": "submitMintRequest",
      "outputs": [
        {
          "internalType": "uint256",
          "name": "transactionId",
          "type": "uint256"
        }
      ],
      "stateMutability": "nonpayable",
      "type": "function"
    },
    {
      "inputs": [
        {
          "internalType": "address payable",
          "name": "dest",
          "type": "address"
        },
        {
          "internalType": "uint256",
          "name": "amount",
          "type": "uint256"
        }
      ],
      "name": "transferETH",
      "outputs": [],
      "stateMutability": "payable",
      "type": "function"
    }
  ],
  "bytecode": "0x60806040523480156200001157600080fd5b5060026000620000296001600160e01b03620000ce16565b6001600160a01b0381166000818152600160208190526040808320805460ff191683179055825491820183558280527f290decd9548b62a8d60345a988386fc84ba6bc95484008f6362f93160ef3e56390910180546001600160a01b031916841790555192935090917f8be0079c531659141344cd1fd0a4f28419497f9722a3daafe3b4186f6b6457e0908290a3508080620000c457600080fd5b50600955620000d2565b3390565b613da780620000e26000396000f3fe60806040526004361061024a5760003560e01c80638145d12611610139578063ba51a6df116100b6578063da2824a81161007a578063da2824a814610a78578063dc8452cd14610aab578063ddc6f5f614610ac0578063ef18374a14610af3578063f9949d4d14610b08578063fba8b1e314610c5a5761028e565b8063ba51a6df146109a9578063bb7d9fa6146109d3578063c01a8c8414610a06578063ca2760f414610a30578063d74f8edd14610a635761028e565b8063a0e67e2b116100fd578063a0e67e2b146108e2578063a8abe69a146108f7578063afd8b1d114610937578063b5dc40c31461096a578063b77bf600146109945761028e565b80638145d1261461076357806385aaed4e146107965780638b51d13f146107ab5780639ace38c2146107d5578063a01013f8146108cd5761028e565b80633411c81c116101c75780637065cb481161018b5780637065cb48146106b0578063715018a6146106e3578063755765ab146106f8578063784547a71461070d5780637b1a4909146107375761028e565b80633411c81c146105665780633a1abfe71461059f5780635474152514610604578063593b79fe1461064a5780635ce4e93d1461067d5761028e565b80631c95b98c1161020e5780631c95b98c146103745780631e556d90146104a357806320ea8d86146104d65780632b29ba23146105005780632f54bf6e146105335761028e565b8063020bec221461029357806305bf37aa146102c4578063098f076e146102ee578063173825d91461032c5780631ae879e81461035f5761028e565b3661028e57341561028c5760408051348152905133917fe1fffcc4923d04b559f4d29a8bfc6cda04eb5b0d3c460751c2402c5c5cc9109c919081900360200190a25b005b600080fd5b34801561029f57600080fd5b506102a8610c84565b604080516001600160a01b039092168252519081900360200190f35b3480156102d057600080fd5b5061028c600480360360208110156102e757600080fd5b5035610c94565b3480156102fa57600080fd5b506103186004803603602081101561031157600080fd5b5035610e60565b604080519115158252519081900360200190f35b34801561033857600080fd5b5061028c6004803603602081101561034f57600080fd5b50356001600160a01b0316610e81565b34801561036b57600080fd5b506102a8611049565b34801561038057600080fd5b5061042e6004803603604081101561039757600080fd5b813591908101906040810160208201356401000000008111156103b957600080fd5b8201836020820111156103cb57600080fd5b803590602001918460018302840111640100000000831117156103ed57600080fd5b91908080601f016020809104026020016040519081016040528093929190818152602001838380828437600092019190915250929550611058945050505050565b6040805160208082528351818301528351919283929083019185019080838360005b83811015610468578181015183820152602001610450565b50505050905090810190601f1680156104955780820380516001836020036101000a031916815260200191505b509250505060405180910390f35b3480156104af57600080fd5b5061028c600480360360208110156104c657600080fd5b50356001600160a01b031661110a565b3480156104e257600080fd5b5061028c600480360360208110156104f957600080fd5b503561132f565b34801561050c57600080fd5b506103186004803603602081101561052357600080fd5b50356001600160a01b03166114ef565b34801561053f57600080fd5b506103186004803603602081101561055657600080fd5b50356001600160a01b031661150d565b34801561057257600080fd5b506103186004803603604081101561058957600080fd5b50803590602001356001600160a01b031661152b565b3480156105ab57600080fd5b506105b461154b565b60408051602080825283518183015283519192839290830191858101910280838360005b838110156105f05781810151838201526020016105d8565b505050509050019250505060405180910390f35b34801561061057600080fd5b506106386004803603604081101561062757600080fd5b5080351515906020013515156115ad565b60408051918252519081900360200190f35b34801561065657600080fd5b5061042e6004803603602081101561066d57600080fd5b50356001600160a01b031661161b565b34801561068957600080fd5b5061028c600480360360208110156106a057600080fd5b50356001600160a01b031661164d565b3480156106bc57600080fd5b5061028c600480360360208110156106d357600080fd5b50356001600160a01b0316611780565b3480156106ef57600080fd5b5061028c6118f1565b34801561070457600080fd5b506102a8611a6e565b34801561071957600080fd5b506103186004803603602081101561073057600080fd5b5035611a7d565b61028c6004803603604081101561074d57600080fd5b506001600160a01b038135169060200135611b06565b34801561076f57600080fd5b5061028c6004803603602081101561078657600080fd5b50356001600160a01b0316611bb9565b3480156107a257600080fd5b506105b4611dbf565b3480156107b757600080fd5b50610638600480360360208110156107ce57600080fd5b5035611e1f565b3480156107e157600080fd5b506107ff600480360360208110156107f857600080fd5b5035611e8e565b604051808a815260200189151515158152602001886001600160a01b03166001600160a01b03168152602001878152602001806020018681526020018581526020018415151515815260200183151515158152602001828103825287818151815260200191508051906020019080838360005b8381101561088a578181015183820152602001610872565b50505050905090810190601f1680156108b75780820380516001836020036101000a031916815260200191505b509a505050505050505050505060405180910390f35b3480156108d957600080fd5b506105b4611f75565b3480156108ee57600080fd5b506105b4611fd5565b34801561090357600080fd5b506105b46004803603608081101561091a57600080fd5b508035906020810135906040810135151590606001351515612035565b34801561094357600080fd5b5061028c6004803603602081101561095a57600080fd5b50356001600160a01b0316612162565b34801561097657600080fd5b506105b46004803603602081101561098d57600080fd5b50356122c4565b3480156109a057600080fd5b5061063861243b565b3480156109b557600080fd5b5061028c600480360360208110156109cc57600080fd5b5035612441565b3480156109df57600080fd5b5061028c600480360360208110156109f657600080fd5b50356001600160a01b03166124f5565b348015610a1257600080fd5b5061028c60048036036020811015610a2957600080fd5b5035612584565b348015610a3c57600080fd5b5061028c60048036036020811015610a5357600080fd5b50356001600160a01b031661275a565b348015610a6f57600080fd5b50610638612876565b348015610a8457600080fd5b5061028c60048036036020811015610a9b57600080fd5b50356001600160a01b031661287b565b348015610ab757600080fd5b506106386129dd565b348015610acc57600080fd5b5061028c60048036036020811015610ae357600080fd5b50356001600160a01b03166129e3565b348015610aff57600080fd5b50610638612be9565b348015610b1457600080fd5b5061063860048036036080811015610b2b57600080fd5b6001600160a01b038235169190810190604081016020820135640100000000811115610b5657600080fd5b820183602082011115610b6857600080fd5b80359060200191846001830284011164010000000083111715610b8a57600080fd5b91908080601f01602080910402602001604051908101604052809392919081815260200183838082843760009201919091525092958435959094909350604081019250602001359050640100000000811115610be557600080fd5b820183602082011115610bf757600080fd5b80359060200191846001830284011164010000000083111715610c1957600080fd5b91908080601f016020809104026020016040519081016040528093929190818152602001838380828437600092019190915250929550612bef945050505050565b348015610c6657600080fd5b506102a860048036036020811015610c7d57600080fd5b5035613095565b600e546001600160a01b03165b90565b336000908152600d602052604090205460ff16151560011480610cc15750600b546001600160a01b031633145b610cfc5760405162461bcd60e51b8152600401808060200182810382526038815260200180613b846038913960400191505060405180910390fd5b600081815260066020526040902060010154819061010090046001600160a01b0316610d595760405162461bcd60e51b8152600401808060200182810382526025815260200180613c6b6025913960400191505060405180910390fd5b60008281526007602090815260408083203380855292529091205483919060ff1615610db65760405162461bcd60e51b8152600401808060200182810382526030815260200180613c3b6030913960400191505060405180910390fd5b600084815260066020819052604090912001548490610100900460ff1615610e0f5760405162461bcd60e51b815260040180806020018281038252602c815260200180613d46602c913960400191505060405180910390fd5b6000858152600660208190526040808320909101805461ff00191661010017905551869133917f310fda14a1b3763badba87b2ca73948d00cc14d8fa2d6ee19a67ac90fa9afa679190a35050505050565b60008181526006602081905260409091200154610100900460ff165b919050565b6000610e8b6130bc565b6001600160a01b03811660009081526001602081905260409091205491925060ff909116151514610eed5760405162461bcd60e51b8152600401808060200182810382526027815260200180613bbc6027913960400191505060405180910390fd5b6001600160a01b038216600090815260016020526040902054829060ff16610f1457600080fd5b6001600160a01b0383166000908152600160205260408120805460ff191690558054905b81811015610fe157846001600160a01b031660008281548110610f5757fe5b6000918252602090912001546001600160a01b03161415610fd95760006001830381548110610f8257fe5b600091825260208220015481546001600160a01b03909116919083908110610fa657fe5b9060005260206000200160006101000a8154816001600160a01b0302191690836001600160a01b03160217905550610fe1565b600101610f38565b506000805480610fed57fe5b600082815260208120820160001990810180546001600160a01b03191690559091019091556040516001600160a01b038616917f58619076adf5bb0943d100ef88d52d7c3fd691b19d3a9071b555b651fbf418da91a250505050565b600b546001600160a01b031681565b60086020908152600092835260409283902082518084018301805192815290830193830193909320925281548351601f60026000196101006001861615020190931692909204918201839004830281018301909452808452908301828280156111025780601f106110d757610100808354040283529160200191611102565b820191906000526020600020905b8154815290600101906020018083116110e557829003601f168201915b505050505081565b60006111146130bc565b6001600160a01b03811660009081526001602081905260409091205491925060ff9091161515146111765760405162461bcd60e51b8152600401808060200182810382526027815260200180613bbc6027913960400191505060405180910390fd5b600b5482906001600160a01b03808316911614156111c55760405162461bcd60e51b8152600401808060200182810382526026815260200180613cbb6026913960400191505060405180910390fd5b600b546001600160a01b0384811691161415611228576040805162461bcd60e51b815260206004820152601a60248201527f43616e6e6f742072656d6f76652077616c6c6574206f776e6572000000000000604482015290519081900360640190fd5b6001600160a01b0383166000908152600d60205260408120805460ff19169055600c54905b600182038110156112fb57846001600160a01b0316600c828154811061126f57fe5b6000918252602090912001546001600160a01b031614156112f357600c600183038154811061129a57fe5b600091825260209091200154600c80546001600160a01b0390921691839081106112c057fe5b9060005260206000200160006101000a8154816001600160a01b0302191690836001600160a01b031602179055506112fb565b60010161124d565b50600c80548061130757fe5b600082815260209020810160001990810180546001600160a01b031916905501905550505050565b336000908152600d602052604090205460ff1615156001148061135c5750600b546001600160a01b031633145b6113975760405162461bcd60e51b8152600401808060200182810382526038815260200180613b846038913960400191505060405180910390fd5b60008181526007602090815260408083203380855292529091205482919060ff166113f35760405162461bcd60e51b815260040180806020018281038252602c815260200180613be3602c913960400191505060405180910390fd5b60008381526006602081905260409091200154839060ff16156114475760405162461bcd60e51b815260040180806020018281038252602c815260200180613c0f602c913960400191505060405180910390fd5b600084815260066020819052604090912001548490610100900460ff16156114a05760405162461bcd60e51b815260040180806020018281038252602c815260200180613d46602c913960400191505060405180910390fd5b6000858152600760209081526040808320338085529252808320805460ff191690555187927ff6a317157440607f36269043eb55f1287a5a19ba2216afeab88cd46cbcfb88e991a35050505050565b6001600160a01b031660009081526005602052604090205460ff1690565b6001600160a01b031660009081526001602052604090205460ff1690565b600760209081526000928352604080842090915290825290205460ff1681565b606060048054806020026020016040519081016040528092919081815260200182805480156115a357602002820191906000526020600020905b81546001600160a01b03168152600190910190602001808311611585575b5050505050905090565b6000805b600a54811015611614578380156115db57506000818152600660208190526040909120015460ff16155b80611600575082801561160057506000818152600660208190526040909120015460ff165b1561160c576001820191505b6001016115b1565b5092915050565b6040805160609290921b6bffffffffffffffffffffffff19166020830152805160148184030181526034909201905290565b60006116576130bc565b6001600160a01b03811660009081526001602081905260409091205491925060ff9091161515146116b95760405162461bcd60e51b8152600401808060200182810382526027815260200180613bbc6027913960400191505060405180910390fd5b6001600160a01b0382166000908152600d6020526040902054829060ff161515600114156117185760405162461bcd60e51b815260040180806020018281038252602b815260200180613c90602b913960400191505060405180910390fd5b50506001600160a01b03166000818152600d60205260408120805460ff19166001908117909155600c805491820181559091527fdf6966c971051c3d54ec59162606531493a51404a002842f56009d7e5cf4a8c70180546001600160a01b0319169091179055565b600061178a6130bc565b6001600160a01b03811660009081526001602081905260409091205491925060ff9091161515146117ec5760405162461bcd60e51b8152600401808060200182810382526027815260200180613bbc6027913960400191505060405180910390fd5b6001600160a01b038216600090815260016020819052604090912054839160ff90911615151415611864576040805162461bcd60e51b815260206004820152601b60248201527f4164647265737320616c726561647920697320616e206f776e65720000000000604482015290519081900360640190fd5b6001600160a01b0383166000818152600160208190526040808320805460ff191683179055825491820183558280527f290decd9548b62a8d60345a988386fc84ba6bc95484008f6362f93160ef3e56390910180546001600160a01b03191684179055517f994a936646fe87ffe4f1e469d3d6aa417d6b855598397f323de5b449f765f0c39190a2505050565b60006118fb6130bc565b6001600160a01b03811660009081526001602081905260409091205491925060ff90911615151461195d5760405162461bcd60e51b8152600401808060200182810382526027815260200180613bbc6027913960400191505060405180910390fd5b60006119676130bc565b6001600160a01b0381166000908152600160205260408120805460ff191690559091505b60005460001901811015611a3c57816001600160a01b0316600082815481106119b057fe5b6000918252602090912001546001600160a01b03161415611a34576000805460001981019081106119dd57fe5b600091825260208220015481546001600160a01b03909116919083908110611a0157fe5b9060005260206000200160006101000a8154816001600160a01b0302191690836001600160a01b03160217905550611a3c565b60010161198b565b506000805480611a4857fe5b600082815260209020810160001990810180546001600160a01b03191690550190555050565b600b546001600160a01b031690565b600080805b600c54811015611afc576000848152600760205260408120600c805491929184908110611aab57fe5b60009182526020808320909101546001600160a01b0316835282019290925260400190205460ff1615611adf576001820191505b600954821415611af457600192505050610e7c565b600101611a82565b5060009392505050565b611b0f3361150d565b80611b2e5750336000908152600d602052604090205460ff1615156001145b80611b435750600b546001600160a01b031633145b611b7e5760405162461bcd60e51b8152600401808060200182810382526041815260200180613ce16041913960600191505060405180910390fd5b6040516001600160a01b0383169082156108fc029083906000818181858888f19350505050158015611bb4573d6000803e3d6000fd5b505050565b6000611bc36130bc565b6001600160a01b03811660009081526001602081905260409091205491925060ff909116151514611c255760405162461bcd60e51b8152600401808060200182810382526027815260200180613bbc6027913960400191505060405180910390fd5b6001600160a01b038216600090815260056020526040902054829060ff16611c87576040805162461bcd60e51b815260206004820152601060248201526f15dc9a5d195c881b9bdd08195e1a5cdd60821b604482015290519081900360640190fd5b6001600160a01b0383166000908152600560205260408120805460ff19169055600454905b81811015611d5757846001600160a01b031660048281548110611ccb57fe5b6000918252602090912001546001600160a01b03161415611d4f5760046001830381548110611cf657fe5b600091825260209091200154600480546001600160a01b039092169183908110611d1c57fe5b9060005260206000200160006101000a8154816001600160a01b0302191690836001600160a01b03160217905550611d57565b600101611cac565b506004805480611d6357fe5b600082815260208120820160001990810180546001600160a01b03191690559091019091556040516001600160a01b038616917f86e5bbceda94081c32220d685f37cc4e3ea7bb0be2dfbf0cb703579505a5390e91a250505050565b606060028054806020026020016040519081016040528092919081815260200182805480156115a3576020028201919060005260206000209081546001600160a01b03168152600190910190602001808311611585575050505050905090565b6000805b600c54811015611e88576000838152600760205260408120600c805491929184908110611e4c57fe5b60009182526020808320909101546001600160a01b0316835282019290925260400190205460ff1615611e80576001820191505b600101611e23565b50919050565b600660209081526000918252604091829020805460018083015460028085015460038601805489516101009682161587026000190190911693909304601f8101899004890284018901909952888352949760ff841697949093046001600160a01b0316959094909391929091830182828015611f4b5780601f10611f2057610100808354040283529160200191611f4b565b820191906000526020600020905b815481529060010190602001808311611f2e57829003601f168201915b50505050600483015460058401546006909401549293909290915060ff8082169161010090041689565b6060600c8054806020026020016040519081016040528092919081815260200182805480156115a3576020028201919060005260206000209081546001600160a01b03168152600190910190602001808311611585575050505050905090565b606060008054806020026020016040519081016040528092919081815260200182805480156115a3576020028201919060005260206000209081546001600160a01b03168152600190910190602001808311611585575050505050905090565b606080600a54604051908082528060200260200182016040528015612064578160200160208202803883390190505b5090506000805b600a548110156120e75785801561209557506000818152600660208190526040909120015460ff16155b806120ba57508480156120ba57506000818152600660208190526040909120015460ff165b156120df57808383815181106120cc57fe5b6020026020010181815250506001820191505b60010161206b565b878703604051908082528060200260200182016040528015612113578160200160208202803883390190505b5093508790505b868110156121575782818151811061212e57fe5b6020026020010151848983038151811061214457fe5b602090810291909101015260010161211a565b505050949350505050565b600061216c6130bc565b6001600160a01b03811660009081526001602081905260409091205491925060ff9091161515146121ce5760405162461bcd60e51b8152600401808060200182810382526027815260200180613bbc6027913960400191505060405180910390fd5b6001600160a01b038216600090815260036020526040902054829060ff1615612236576040805162461bcd60e51b815260206004820152601560248201527452656164657220616c72656164792065786973747360581b604482015290519081900360640190fd5b6001600160a01b038316600081815260036020526040808220805460ff1916600190811790915560028054918201815583527f405787fa12a823e0f2b7631cc41b3ba8828b3321ca811111fa75cd3aa3bb5ace0180546001600160a01b03191684179055517fb7724d890d2888af5a3fc456edb667e2c82c4441449ebcac301c618759e4f86d9190a2505050565b606080600c805490506040519080825280602002602001820160405280156122f6578160200160208202803883390190505b5090506000805b600c548110156123b9576000858152600760205260408120600c80549192918490811061232657fe5b60009182526020808320909101546001600160a01b0316835282019290925260400190205460ff16156123b157600c818154811061236057fe5b9060005260206000200160009054906101000a90046001600160a01b031683838151811061238a57fe5b60200260200101906001600160a01b031690816001600160a01b0316815250506001820191505b6001016122fd565b816040519080825280602002602001820160405280156123e3578160200160208202803883390190505b509350600090505b81811015612433578281815181106123ff57fe5b602002602001015184828151811061241357fe5b6001600160a01b03909216602092830291909101909101526001016123eb565b505050919050565b600a5481565b600061244b6130bc565b6001600160a01b03811660009081526001602081905260409091205491925060ff9091161515146124ad5760405162461bcd60e51b8152600401808060200182810382526027815260200180613bbc6027913960400191505060405180910390fd5b81806124b857600080fd5b60098390556040805184815290517fa3f1ee9126a074d9326c682f561767f710e927faa811f7a99829d49dc421797a9181900360200190a1505050565b60006124ff6130bc565b6001600160a01b03811660009081526001602081905260409091205491925060ff9091161515146125615760405162461bcd60e51b8152600401808060200182810382526027815260200180613bbc6027913960400191505060405180910390fd5b50600e80546001600160a01b0319166001600160a01b0392909216919091179055565b336000908152600d602052604090205460ff161515600114806125b15750600b546001600160a01b031633145b6125ec5760405162461bcd60e51b8152600401808060200182810382526038815260200180613b846038913960400191505060405180910390fd5b600081815260066020526040902060010154819061010090046001600160a01b03166126495760405162461bcd60e51b8152600401808060200182810382526025815260200180613c6b6025913960400191505060405180910390fd5b60008281526007602090815260408083203380855292529091205483919060ff16156126a65760405162461bcd60e51b8152600401808060200182810382526030815260200180613c3b6030913960400191505060405180910390fd5b600084815260066020819052604090912001548490610100900460ff16156126ff5760405162461bcd60e51b815260040180806020018281038252602c815260200180613d46602c913960400191505060405180910390fd5b6000858152600760209081526040808320338085529252808320805460ff191660011790555187927f4a504a94899432a9846e1aa406dceb1bcfd538bb839071d49d1e5e23f5be30ef91a3612753856130c0565b5050505050565b60006127646130bc565b6001600160a01b03811660009081526001602081905260409091205491925060ff9091161515146127c65760405162461bcd60e51b8152600401808060200182810382526027815260200180613bbc6027913960400191505060405180910390fd5b600b80546001600160a01b0319166001600160a01b038481169190911791829055166000908152600d602052604090205460ff1661287257600b80546001600160a01b039081166000908152600d60205260408120805460ff191660019081179091559254600c805494850181559091527fdf6966c971051c3d54ec59162606531493a51404a002842f56009d7e5cf4a8c790920180546001600160a01b031916929091169190911790555b5050565b603281565b60006128856130bc565b6001600160a01b03811660009081526001602081905260409091205491925060ff9091161515146128e75760405162461bcd60e51b8152600401808060200182810382526027815260200180613bbc6027913960400191505060405180910390fd5b6001600160a01b038216600090815260056020526040902054829060ff161561294f576040805162461bcd60e51b815260206004820152601560248201527457726974657220616c72656164792065786973747360581b604482015290519081900360640190fd5b6001600160a01b038316600081815260056020526040808220805460ff1916600190811790915560048054918201815583527f8a35acfbc15ff81a39ae7d344fd709f28e8600b4aa8c65c6b64bfe7fe36bd19b0180546001600160a01b03191684179055517f6ff3aa2ea7b53070f6d9d07a445d338d89e8edef44250ffa8be19f53910d4a2e9190a2505050565b60095481565b60006129ed6130bc565b6001600160a01b03811660009081526001602081905260409091205491925060ff909116151514612a4f5760405162461bcd60e51b8152600401808060200182810382526027815260200180613bbc6027913960400191505060405180910390fd5b6001600160a01b038216600090815260036020526040902054829060ff16612ab1576040805162461bcd60e51b815260206004820152601060248201526f14995859195c881b9bdd08195e1a5cdd60821b604482015290519081900360640190fd5b6001600160a01b0383166000908152600360205260408120805460ff19169055600254905b81811015612b8157846001600160a01b031660028281548110612af557fe5b6000918252602090912001546001600160a01b03161415612b795760026001830381548110612b2057fe5b600091825260209091200154600280546001600160a01b039092169183908110612b4657fe5b9060005260206000200160006101000a8154816001600160a01b0302191690836001600160a01b03160217905550612b81565b600101612ad6565b506002805480612b8d57fe5b600082815260208120820160001990810180546001600160a01b03191690559091019091556040516001600160a01b038616917fe933431644458f1217f9e93d3e000e03c9bbbe55761046d0985c2e4d157bcbaa91a250505050565b60005490565b336000908152600d602052604081205460ff16151560011480612c1c5750600b546001600160a01b031633145b612c575760405162461bcd60e51b8152600401808060200182810382526038815260200180613b846038913960400191505060405180910390fd5b600e546001600160a01b0316612c6c57600080fd5b600e546040516303d0a60f60e41b81526020600482018181528751602484015287516000946001600160a01b031693633d0a60f0938a93928392604401918501908083838b5b83811015612cca578181015183820152602001612cb2565b50505050905090810190601f168015612cf75780820380516001836020036101000a031916815260200191505b509250505060206040518083038186803b158015612d1457600080fd5b505afa158015612d28573d6000803e3d6000fd5b505050506040513d6020811015612d3e57600080fd5b505190506001600160a01b0381161561303f576000612d6d878660405180602001604052806000815250613674565b6000818152600660209081526040808320600101805460ff1916905560088252918290208251808401845260108082526f0dac2d2dcdccae8a8e4c2dce690c2e6d60831b938201938452935194975087955088949193909282918083835b60208310612dea5780518252601f199092019160209182019101612dcb565b51815160209384036101000a60001901801990921691161790529201948552506040519384900381019093208451612e2b9591949190910192509050613aeb565b506040518060400160405280600781526020016619195c1bdcda5d60ca1b815250600860008381526020019081526020016000206040518060400160405280600681526020016530b1ba34b7b760d11b8152506040518082805190602001908083835b60208310612ead5780518252601f199092019160209182019101612e8e565b51815160209384036101000a60001901801990921691161790529201948552506040519384900381019093208451612eee9591949190910192509050613aeb565b5085600860008381526020019081526020016000206040518060400160405280600981526020016861737365744e616d6560b81b8152506040518082805190602001908083835b60208310612f545780518252601f199092019160209182019101612f35565b51815160209384036101000a60001901801990921691161790529201948552506040519384900381019093208451612f959591949190910192509050613aeb565b50612f9f81613804565b807f243951c2dd83c6c7aa62201c647101a05eea8807ce6231d023793263f8d201b3856040518080602001828103825283818151815260200191508051906020019080838360005b83811015612fff578181015183820152602001612fe7565b50505050905090810190601f16801561302c5780820380516001836020036101000a031916815260200191505b509250505060405180910390a25061308c565b6040805162461bcd60e51b815260206004820152601e60248201527f506c6174666f726d57616c6c65743a20496e76616c6964206173736574210000604482015290519081900360640190fd5b50949350505050565b600c81815481106130a257fe5b6000918252602090912001546001600160a01b0316905081565b3390565b60008181526007602090815260408083203380855292529091205482919060ff1661311c5760405162461bcd60e51b815260040180806020018281038252602c815260200180613be3602c913960400191505060405180910390fd5b60008381526006602081905260409091209081015460ff1615613186576040805162461bcd60e51b815260206004820152601c60248201527f5472616e73616374696f6e20616c726561647920657865637574656400000000604482015290519081900360640190fd5b61318f84611a7d565b1561366e576060600860008681526020019081526020016000206040518060400160405280600681526020016530b1ba34b7b760d11b8152506040518082805190602001908083835b602083106131f75780518252601f1990920191602091820191016131d8565b518151600019602094850361010090810a820192831692199390931691909117909252949092019687526040805197889003820188208054601f60026001831615909802909501169590950492830182900482028801820190528187529294509250508301828280156132ab5780601f10613280576101008083540402835291602001916132ab565b820191906000526020600020905b81548152906001019060200180831161328e57829003601f168201915b5050505050905060405160200180806619195c1bdcda5d60ca1b815250600701905060405160208183030381529060405280519060200120816040516020018082805190602001908083835b602083106133165780518252601f1990920191602091820191016132f7565b6001836020036101000a0380198251168184511680821785525050505050509050019150506040516020818303038152906040528051906020012014156127535760068201805460ff191660011790556000858152600860209081526040918290208251808401845260098082526861737365744e616d6560b81b938201938452935160609492939192909182918083835b602083106133c75780518252601f1990920191602091820191016133a8565b518151600019602094850361010090810a820192831692199390931691909117909252949092019687526040805197889003820188208054601f600260018316159098029095011695909504928301829004820288018201905281875292945092505083018282801561347b5780601f106134505761010080835404028352916020019161347b565b820191906000526020600020905b81548152906001019060200180831161345e57829003601f168201915b505050505090506134a88360010160019054906101000a90046001600160a01b0316828560020154613866565b6060600860008881526020019081526020016000206040518060400160405280601081526020016f0dac2d2dcdccae8a8e4c2dce690c2e6d60831b8152506040518082805190602001908083835b602083106135155780518252601f1990920191602091820191016134f6565b518151600019602094850361010090810a820192831692199390931691909117909252949092019687526040805197889003820188208054601f60026001831615909802909501169590950492830182900482028801820190528187529294509250508301828280156135c95780601f1061359e576101008083540402835291602001916135c9565b820191906000526020600020905b8154815290600101906020018083116135ac57829003601f168201915b50505050509050867fb259b303a39163b71969dd591586148adb96d6bd19e9cd0e16e7f7fa5aa39ef8826040518080602001828103825283818151815260200191508051906020019080838360005b83811015613630578181015183820152602001613618565b50505050905090810190601f16801561365d5780820380516001836020036101000a031916815260200191505b509250505060405180910390a25050505b50505050565b6000836001600160a01b0381166136d2576040805162461bcd60e51b815260206004820152601f60248201527f4d756c746953696757616c6c65743a2041646472657373206973206e756c6c00604482015290519081900360640190fd5b600a546040805161012081018252828152600160208083018281526001600160a01b038b8116858701908152606086018c8152608087018c81524260a08901524360c0890152600060e08901819052610100808a018290528b8252600688529990208851815594519685018054935160ff199490941697151597909717610100600160a81b0319169290931690970217909355935160028501559051805194965091936137859260038501920190613aeb565b5060a0820151600482015560c0820151600582015560e0820151600690910180546101009384015160ff199091169215159290921761ff001916911515909202179055600a8054600101905560405182907fc0ba8fe4b176c1714197d43b9cc6bcf797a4a7461c5fe8d0ef6e184ae7601e5190600090a2509392505050565b6000818152600760209081526040808320338085529252808320805460ff191660011790555183927f4a504a94899432a9846e1aa406dceb1bcfd538bb839071d49d1e5e23f5be30ef91a36009546001141561386357613863816130c0565b50565b61386f3361150d565b8061388e5750336000908152600d602052604090205460ff1615156001145b806138a35750600b546001600160a01b031633145b6138de5760405162461bcd60e51b8152600401808060200182810382526041815260200180613ce16041913960600191505060405180910390fd5b600e546040516303d0a60f60e41b81526020600482018181528551602484015285516000946001600160a01b031693633d0a60f0938893928392604401918501908083838b5b8381101561393c578181015183820152602001613924565b50505050905090810190601f1680156139695780820380516001836020036101000a031916815260200191505b509250505060206040518083038186803b15801561398657600080fd5b505afa15801561399a573d6000803e3d6000fd5b505050506040513d60208110156139b057600080fd5b505190506001600160a01b03811615613ab457604080516340c10f1960e01b815230600482015260248101849052905182916001600160a01b038316916340c10f199160448082019260009290919082900301818387803b158015613a1457600080fd5b505af1158015613a28573d6000803e3d6000fd5b50506040805163a9059cbb60e01b81526001600160a01b038981166004830152602482018890529151869450918416925063a9059cbb9160448083019260209291908290030181600087803b158015613a8057600080fd5b505af1158015613a94573d6000803e3d6000fd5b505050506040513d6020811015613aaa57600080fd5b5061366e92505050565b60405162461bcd60e51b8152600401808060200182810382526024815260200180613d226024913960400191505060405180910390fd5b828054600181600116156101000203166002900490600052602060002090601f016020900481019282601f10613b2c57805160ff1916838001178555613b59565b82800160010185558215613b59579182015b82811115613b59578251825591602001919060010190613b3e565b50613b65929150613b69565b5090565b610c9191905b80821115613b655760008155600101613b6f56fe4d756c746953696757616c6c65743a2063616c6c6572206973206e6f74206f6e65206f66207468652077616c6c6574206f70657261746f724f776e61626c653a2063616c6c6572206973206e6f74206f6e65206f6620746865206f776e65724d756c746953696757616c6c65743a205472616e73616374696f6e206973206e6f7420636f6e6669726d65644d756c746953696757616c6c65743a205472616e73616374696f6e20616c72656164792065786563757465644d756c746953696757616c6c65743a205472616e73616374696f6e20697320616c726561647920636f6e6669726d65644d756c746953696757616c6c65743a205472616e73616374696f6e206e6f7420666f756e644d756c746953696757616c6c65743a2041646472657373206973206f70657261746f7220616c72656164794d756c746953696757616c6c65743a2063616c6c65722069732077616c6c6574206f776e6572506c6174666f726d57616c6c65743a2063616c6c6572206973206e6f74206f6e65206f6620746865206f776e6572206f722077616c6c6574206f70657261746f72506c6174666f726d57616c6c65743a206173736574206e616d65206e6f7420666f756e644d756c746953696757616c6c65743a205472616e73616374696f6e20616c72656164792072656a6563746564a26469706673582212200bb0c8977cd71c1707011ad01924c3aa75e9bef374bc4f3ef3f49fd97ff1c08b64736f6c63430006020033",
  "source": "pragma solidity >=0.6.0 <0.8.0;\n\nimport \"./MultiSigWallet.sol\";\nimport \"../config/InternalSmartContractConfig.sol\";\nimport \"../token/ITokenMintable.sol\";\nimport \"../erc20/basic/IERC20.sol\";\n\ncontract PlatformWallet is MultiSigWallet{\n    InternalSmartContractConfig internalSmartContractConfig;\n\n    event MintRequestEvent(uint256 indexed mintRequestTransId, string mainnetDepositTransHash);\n    event MintCompletedEvent(uint256 indexed mintRequestTransId, string mainnetDepositTransHash);\n\n\n    string internal constant mainnetTransHashKeyName = \"mainnetTransHash\";\n    string internal constant transActionKeyName = \"action\";\n    string internal constant transAssetNameKeyName = \"assetName\";\n\n    bytes32 internal constant transActionHash =  keccak256(abi.encodePacked(\"deposit\"));\n    string internal constant transAction = \"deposit\";\n    \n    \n    constructor() MultiSigWallet(2) public {\n    }\n\n    modifier onlyOwnerOrWalletOperator() {\n        require(isOwner(msg.sender) || walletOperatorMap[msg.sender] == true || walletOwner == msg.sender, \n        \"PlatformWallet: caller is not one of the owner or wallet operator\");\n        _;\n    }\n\n\n    function setInternalSmartContractConfig(address addr) public \n    onlyOwner{\n        internalSmartContractConfig = InternalSmartContractConfig(addr);\n    }\n\n    function getInternalSmartContractConfig() public view returns(address){\n        return address(internalSmartContractConfig);\n    }\n\n    function transfer(address dest,string memory assetName, uint256 amount) internal onlyOwnerOrWalletOperator{\n  \n            address erc20Addr = internalSmartContractConfig.getErc20SmartContractAddrByAssetName(assetName);\n            if(erc20Addr!=address(0)){\n                IERC20 erc20 = IERC20(erc20Addr);\n                erc20.transfer(dest, amount);\n            }else{\n                 revert(\"PlatformWallet: Invalid asset\");\n            }\n       \n    }\n\n    function submitMintRequest(address dest, string memory assetName, uint256 amount, string memory mainnetTransHash) public onlyWalletOperator returns (uint transactionId){\n            require(address(internalSmartContractConfig) != address(0));\n            address erc20Addr = internalSmartContractConfig.getErc20SmartContractAddrByAssetName(assetName);\n            if(erc20Addr!=address(0)){\n                \n                uint256 mintRequestTransId = addTransaction(dest, amount, \"\");\n                transactionId = mintRequestTransId;\n                transactions[mintRequestTransId].isDirectInvokeData = false;\n                miscellaneousData[mintRequestTransId][mainnetTransHashKeyName] = mainnetTransHash;\n                miscellaneousData[mintRequestTransId][transActionKeyName] = transAction;\n                miscellaneousData[mintRequestTransId][transAssetNameKeyName] = assetName;\n                submitCustomTransaction(mintRequestTransId);\n                 emit MintRequestEvent(mintRequestTransId, mainnetTransHash);\n\n            }else{\n                revert(\"PlatformWallet: Invalid asset!\");\n            }\n    }\n\n    function executeTransaction(uint transactionId) override internal\n        confirmed(transactionId, msg.sender)\n        //notExecuted(transactionId)\n    {\n        Transaction storage txn = transactions[transactionId];\n        require (!txn.executed, \"Transaction already executed\");\n        if (isConfirmed(transactionId)) {\n\n            string memory action = miscellaneousData[transactionId][transActionKeyName];\n            if (keccak256(abi.encodePacked(action)) == transActionHash) {\n                txn.executed = true;\n                string memory assetName = miscellaneousData[transactionId][transAssetNameKeyName];\n                mint(txn.destination, assetName, txn.value);\n                string memory depositTransHash = miscellaneousData[transactionId][mainnetTransHashKeyName];\n \n                emit MintCompletedEvent(transactionId, depositTransHash);\n               \n            }\n            // else{\n            //     revert(\"Invalid action\");\n            // }\n            \n        }\n    }\n\n\n    function mint(address dest, string memory assetName, uint256 amount)internal onlyOwnerOrWalletOperator{\n        address erc20Addr = internalSmartContractConfig.getErc20SmartContractAddrByAssetName(assetName);\n        if(erc20Addr!=address(0)){\n            ITokenMintable tokenMintable = ITokenMintable(erc20Addr);\n            tokenMintable.mint(address(this), amount);\n           \n            IERC20 erc20 = IERC20(erc20Addr);\n            erc20.transfer(dest, amount);\n\n\n        }else{\n            revert(\"PlatformWallet: asset name not found\");\n        }\n    }\n\n    function transferETH(address payable dest, uint256 amount) public payable onlyOwnerOrWalletOperator {\n        //require(address(this).balance>amount,\"Platform Wallet has insufficient amount\");\n        dest.transfer(amount);\n    }\n}",
  "sourcePath": "/Users/duncanto/Documents/WorkingSet2/src/eurus-backend/smartcontract/contracts/wallet/PlatformWallet.sol",
  "compiler": {
    "name": "solc",
    "version": "0.6.2+commit.bacdbe57.Emscripten.clang"
  },
  "schemaVersion": "3.4.1",
  "updatedAt": "2021-08-04T10:30:06.370Z",
  "devdoc": {
    "methods": {
      "changeRequirement(uint256)": {
        "details": "Allows to change the number of required confirmations. Transaction has to be sent by wallet.",
        "params": {
          "_required": "Number of required confirmations."
        }
      },
      "confirmTransaction(uint256)": {
        "details": "Allows an owner to confirm a transaction.",
        "params": {
          "transactionId": "Transaction ID."
        }
      },
      "isConfirmed(uint256)": {
        "details": "Returns the confirmation status of a transaction.",
        "params": {
          "transactionId": "Transaction ID."
        },
        "returns": {
          "_0": "Confirmation status."
        }
      },
      "renounceOwnership()": {
        "details": "Leaves the contract without owner. It will not be possible to call `onlyOwner` functions anymore. Can only be called by the current owner.     * NOTE: Renouncing ownership will leave the contract without an owner, thereby removing any functionality that is only available to the owner."
      },
      "revokeConfirmation(uint256)": {
        "details": "Allows an owner to revoke a confirmation for a transaction.",
        "params": {
          "transactionId": "Transaction ID."
        }
      }
    }
  },
  "userdoc": {
    "methods": {}
  }
}