{
  "contractName": "TestERC20",
  "abi": [
    {
      "anonymous": false,
      "inputs": [
        {
          "indexed": true,
          "internalType": "address",
          "name": "owner",
          "type": "address"
        },
        {
          "indexed": true,
          "internalType": "address",
          "name": "spender",
          "type": "address"
        },
        {
          "indexed": false,
          "internalType": "uint256",
          "name": "value",
          "type": "uint256"
        }
      ],
      "name": "Approval",
      "type": "event"
    },
    {
      "anonymous": false,
      "inputs": [
        {
          "indexed": false,
          "internalType": "string",
          "name": "",
          "type": "string"
        }
      ],
      "name": "Event",
      "type": "event"
    },
    {
      "anonymous": false,
      "inputs": [
        {
          "indexed": true,
          "internalType": "address",
          "name": "owner",
          "type": "address"
        }
      ],
      "name": "OwnerAdded",
      "type": "event"
    },
    {
      "anonymous": false,
      "inputs": [
        {
          "indexed": true,
          "internalType": "address",
          "name": "owner",
          "type": "address"
        }
      ],
      "name": "OwnerRemoved",
      "type": "event"
    },
    {
      "anonymous": false,
      "inputs": [
        {
          "indexed": true,
          "internalType": "address",
          "name": "previousOwner",
          "type": "address"
        },
        {
          "indexed": true,
          "internalType": "address",
          "name": "newOwner",
          "type": "address"
        }
      ],
      "name": "OwnershipTransferred",
      "type": "event"
    },
    {
      "anonymous": false,
      "inputs": [
        {
          "indexed": true,
          "internalType": "address",
          "name": "reader",
          "type": "address"
        }
      ],
      "name": "ReaderAdded",
      "type": "event"
    },
    {
      "anonymous": false,
      "inputs": [
        {
          "indexed": true,
          "internalType": "address",
          "name": "reader",
          "type": "address"
        }
      ],
      "name": "ReaderRemoved",
      "type": "event"
    },
    {
      "anonymous": false,
      "inputs": [
        {
          "indexed": true,
          "internalType": "address",
          "name": "from",
          "type": "address"
        },
        {
          "indexed": true,
          "internalType": "address",
          "name": "to",
          "type": "address"
        },
        {
          "indexed": false,
          "internalType": "uint256",
          "name": "value",
          "type": "uint256"
        }
      ],
      "name": "Transfer",
      "type": "event"
    },
    {
      "anonymous": false,
      "inputs": [
        {
          "indexed": true,
          "internalType": "address",
          "name": "writer",
          "type": "address"
        }
      ],
      "name": "WriterAdded",
      "type": "event"
    },
    {
      "anonymous": false,
      "inputs": [
        {
          "indexed": true,
          "internalType": "address",
          "name": "writer",
          "type": "address"
        }
      ],
      "name": "WriterRemoved",
      "type": "event"
    },
    {
      "inputs": [
        {
          "internalType": "address",
          "name": "newOwner",
          "type": "address"
        }
      ],
      "name": "addOwner",
      "outputs": [],
      "stateMutability": "nonpayable",
      "type": "function"
    },
    {
      "inputs": [
        {
          "internalType": "address",
          "name": "newReader",
          "type": "address"
        }
      ],
      "name": "addReader",
      "outputs": [],
      "stateMutability": "nonpayable",
      "type": "function"
    },
    {
      "inputs": [
        {
          "internalType": "address",
          "name": "newWriter",
          "type": "address"
        }
      ],
      "name": "addWriter",
      "outputs": [],
      "stateMutability": "nonpayable",
      "type": "function"
    },
    {
      "inputs": [
        {
          "internalType": "address",
          "name": "owner",
          "type": "address"
        },
        {
          "internalType": "address",
          "name": "spender",
          "type": "address"
        }
      ],
      "name": "allowance",
      "outputs": [
        {
          "internalType": "uint256",
          "name": "",
          "type": "uint256"
        }
      ],
      "stateMutability": "view",
      "type": "function"
    },
    {
      "inputs": [
        {
          "internalType": "address",
          "name": "spender",
          "type": "address"
        },
        {
          "internalType": "uint256",
          "name": "amount",
          "type": "uint256"
        }
      ],
      "name": "approve",
      "outputs": [
        {
          "internalType": "bool",
          "name": "",
          "type": "bool"
        }
      ],
      "stateMutability": "nonpayable",
      "type": "function"
    },
    {
      "inputs": [
        {
          "internalType": "address",
          "name": "account",
          "type": "address"
        }
      ],
      "name": "balanceOf",
      "outputs": [
        {
          "internalType": "uint256",
          "name": "",
          "type": "uint256"
        }
      ],
      "stateMutability": "view",
      "type": "function"
    },
    {
      "inputs": [],
      "name": "decimals",
      "outputs": [
        {
          "internalType": "uint8",
          "name": "",
          "type": "uint8"
        }
      ],
      "stateMutability": "view",
      "type": "function"
    },
    {
      "inputs": [
        {
          "internalType": "address",
          "name": "spender",
          "type": "address"
        },
        {
          "internalType": "uint256",
          "name": "subtractedValue",
          "type": "uint256"
        }
      ],
      "name": "decreaseAllowance",
      "outputs": [
        {
          "internalType": "bool",
          "name": "",
          "type": "bool"
        }
      ],
      "stateMutability": "nonpayable",
      "type": "function"
    },
    {
      "inputs": [],
      "name": "getOwnerCount",
      "outputs": [
        {
          "internalType": "uint256",
          "name": "",
          "type": "uint256"
        }
      ],
      "stateMutability": "view",
      "type": "function"
    },
    {
      "inputs": [],
      "name": "getOwners",
      "outputs": [
        {
          "internalType": "address[]",
          "name": "",
          "type": "address[]"
        }
      ],
      "stateMutability": "view",
      "type": "function"
    },
    {
      "inputs": [],
      "name": "getReaderList",
      "outputs": [
        {
          "internalType": "address[]",
          "name": "",
          "type": "address[]"
        }
      ],
      "stateMutability": "view",
      "type": "function"
    },
    {
      "inputs": [],
      "name": "getWriterList",
      "outputs": [
        {
          "internalType": "address[]",
          "name": "",
          "type": "address[]"
        }
      ],
      "stateMutability": "view",
      "type": "function"
    },
    {
      "inputs": [
        {
          "internalType": "address",
          "name": "spender",
          "type": "address"
        },
        {
          "internalType": "uint256",
          "name": "addedValue",
          "type": "uint256"
        }
      ],
      "name": "increaseAllowance",
      "outputs": [
        {
          "internalType": "bool",
          "name": "",
          "type": "bool"
        }
      ],
      "stateMutability": "nonpayable",
      "type": "function"
    },
    {
      "inputs": [
        {
          "internalType": "string",
          "name": "name_",
          "type": "string"
        },
        {
          "internalType": "string",
          "name": "symbol_",
          "type": "string"
        },
        {
          "internalType": "uint256",
          "name": "totalSupply_",
          "type": "uint256"
        },
        {
          "internalType": "uint8",
          "name": "decimals_",
          "type": "uint8"
        }
      ],
      "name": "init",
      "outputs": [],
      "stateMutability": "nonpayable",
      "type": "function"
    },
    {
      "inputs": [
        {
          "internalType": "address",
          "name": "addr",
          "type": "address"
        }
      ],
      "name": "isOwner",
      "outputs": [
        {
          "internalType": "bool",
          "name": "",
          "type": "bool"
        }
      ],
      "stateMutability": "view",
      "type": "function"
    },
    {
      "inputs": [
        {
          "internalType": "address",
          "name": "addr",
          "type": "address"
        }
      ],
      "name": "isWriter",
      "outputs": [
        {
          "internalType": "bool",
          "name": "",
          "type": "bool"
        }
      ],
      "stateMutability": "view",
      "type": "function"
    },
    {
      "inputs": [],
      "name": "name",
      "outputs": [
        {
          "internalType": "string",
          "name": "",
          "type": "string"
        }
      ],
      "stateMutability": "view",
      "type": "function"
    },
    {
      "inputs": [
        {
          "internalType": "address",
          "name": "owner",
          "type": "address"
        }
      ],
      "name": "removeOwner",
      "outputs": [],
      "stateMutability": "nonpayable",
      "type": "function"
    },
    {
      "inputs": [
        {
          "internalType": "address",
          "name": "existingReader",
          "type": "address"
        }
      ],
      "name": "removerReader",
      "outputs": [],
      "stateMutability": "nonpayable",
      "type": "function"
    },
    {
      "inputs": [
        {
          "internalType": "address",
          "name": "existingWriter",
          "type": "address"
        }
      ],
      "name": "removerWriter",
      "outputs": [],
      "stateMutability": "nonpayable",
      "type": "function"
    },
    {
      "inputs": [],
      "name": "renounceOwnership",
      "outputs": [],
      "stateMutability": "nonpayable",
      "type": "function"
    },
    {
      "inputs": [],
      "name": "symbol",
      "outputs": [
        {
          "internalType": "string",
          "name": "",
          "type": "string"
        }
      ],
      "stateMutability": "view",
      "type": "function"
    },
    {
      "inputs": [],
      "name": "totalSupply",
      "outputs": [
        {
          "internalType": "uint256",
          "name": "",
          "type": "uint256"
        }
      ],
      "stateMutability": "view",
      "type": "function"
    },
    {
      "inputs": [
        {
          "internalType": "address",
          "name": "recipient",
          "type": "address"
        },
        {
          "internalType": "uint256",
          "name": "amount",
          "type": "uint256"
        }
      ],
      "name": "transfer",
      "outputs": [
        {
          "internalType": "bool",
          "name": "",
          "type": "bool"
        }
      ],
      "stateMutability": "nonpayable",
      "type": "function"
    },
    {
      "inputs": [
        {
          "internalType": "address",
          "name": "sender",
          "type": "address"
        },
        {
          "internalType": "address",
          "name": "recipient",
          "type": "address"
        },
        {
          "internalType": "uint256",
          "name": "amount",
          "type": "uint256"
        }
      ],
      "name": "transferFrom",
      "outputs": [
        {
          "internalType": "bool",
          "name": "",
          "type": "bool"
        }
      ],
      "stateMutability": "nonpayable",
      "type": "function"
    },
    {
      "inputs": [
        {
          "internalType": "address",
          "name": "account",
          "type": "address"
        },
        {
          "internalType": "uint256",
          "name": "amount",
          "type": "uint256"
        }
      ],
      "name": "mint",
      "outputs": [],
      "stateMutability": "nonpayable",
      "type": "function"
    },
    {
      "inputs": [
        {
          "internalType": "address",
          "name": "account",
          "type": "address"
        },
        {
          "internalType": "uint256",
          "name": "amount",
          "type": "uint256"
        }
      ],
      "name": "burn",
      "outputs": [],
      "stateMutability": "nonpayable",
      "type": "function"
    }
  ],
  "bytecode": "0x608060405260006100176001600160e01b036100ab16565b6001600160a01b0381166000818152600160208190526040808320805460ff191683179055825491820183558280527f290decd9548b62a8d60345a988386fc84ba6bc95484008f6362f93160ef3e56390910180546001600160a01b031916841790555192935090917f8be0079c531659141344cd1fd0a4f28419497f9722a3daafe3b4186f6b6457e0908290a3506100af565b3390565b612025806100be6000396000f3fe608060405234801561001057600080fd5b50600436106101a95760003560e01c806370a08231116100f9578063a457c2d711610097578063da2824a811610071578063da2824a81461066e578063dd62ed3e14610694578063ddc6f5f6146106c2578063ef18374a146106e8576101a9565b8063a457c2d7146105f0578063a9059cbb1461061c578063afd8b1d114610648576101a9565b806385aaed4e116100d357806385aaed4e146105ac57806395d89b41146105b45780639dc29fac146105bc578063a0e67e2b146105e8576101a9565b806370a0823114610558578063715018a61461057e5780638145d12614610586576101a9565b80632f54bf6e116101665780633a1abfe7116101405780633a1abfe71461037957806340c10f19146103d15780634f5b9e85146103fd5780637065cb4814610532576101a9565b80632f54bf6e14610309578063313ce5671461032f578063395093511461034d576101a9565b806306fdde03146101ae578063095ea7b31461022b578063173825d91461026b57806318160ddd1461029357806323b872dd146102ad5780632b29ba23146102e3575b600080fd5b6101b66106f0565b6040805160208082528351818301528351919283929083019185019080838360005b838110156101f05781810151838201526020016101d8565b50505050905090810190601f16801561021d5780820380516001836020036101000a031916815260200191505b509250505060405180910390f35b6102576004803603604081101561024157600080fd5b506001600160a01b038135169060200135610787565b604080519115158252519081900360200190f35b6102916004803603602081101561028157600080fd5b50356001600160a01b03166107a4565b005b61029b61096c565b60408051918252519081900360200190f35b610257600480360360608110156102c357600080fd5b506001600160a01b03813581169160208101359091169060400135610972565b610257600480360360208110156102f957600080fd5b50356001600160a01b03166109ff565b6102576004803603602081101561031f57600080fd5b50356001600160a01b0316610a1d565b610337610a3b565b6040805160ff9092168252519081900360200190f35b6102576004803603604081101561036357600080fd5b506001600160a01b038135169060200135610a44565b610381610a98565b60408051602080825283518183015283519192839290830191858101910280838360005b838110156103bd5781810151838201526020016103a5565b505050509050019250505060405180910390f35b610291600480360360408110156103e757600080fd5b506001600160a01b038135169060200135610af9565b6102916004803603608081101561041357600080fd5b81019060208101813564010000000081111561042e57600080fd5b82018360208201111561044057600080fd5b8035906020019184600183028401116401000000008311171561046257600080fd5b91908080601f01602080910402602001604051908101604052809392919081815260200183838082843760009201919091525092959493602081019350359150506401000000008111156104b557600080fd5b8201836020820111156104c757600080fd5b803590602001918460018302840111640100000000831117156104e957600080fd5b91908080601f016020809104026020016040519081016040528093929190818152602001838380828437600092019190915250929550508235935050506020013560ff16610b76565b6102916004803603602081101561054857600080fd5b50356001600160a01b0316610c28565b61029b6004803603602081101561056e57600080fd5b50356001600160a01b0316610d99565b610291610db4565b6102916004803603602081101561059c57600080fd5b50356001600160a01b0316610f31565b610381611137565b6101b6611197565b610291600480360360408110156105d257600080fd5b506001600160a01b0381351690602001356111f8565b610381611271565b6102576004803603604081101561060657600080fd5b506001600160a01b0381351690602001356112d1565b6102576004803603604081101561063257600080fd5b506001600160a01b03813516906020013561133f565b6102916004803603602081101561065e57600080fd5b50356001600160a01b0316611353565b6102916004803603602081101561068457600080fd5b50356001600160a01b03166114b5565b61029b600480360360408110156106aa57600080fd5b506001600160a01b0381358116916020013516611617565b610291600480360360208110156106d857600080fd5b50356001600160a01b0316611642565b61029b611848565b60098054604080516020601f600260001961010060018816150201909516949094049384018190048102820181019092528281526060939092909183018282801561077c5780601f106107515761010080835404028352916020019161077c565b820191906000526020600020905b81548152906001019060200180831161075f57829003601f168201915b505050505090505b90565b600061079b61079461184e565b8484611852565b50600192915050565b60006107ae61184e565b6001600160a01b03811660009081526001602081905260409091205491925060ff9091161515146108105760405162461bcd60e51b8152600401808060200182810382526027815260200180611eec6027913960400191505060405180910390fd5b6001600160a01b038216600090815260016020526040902054829060ff1661083757600080fd5b6001600160a01b0383166000908152600160205260408120805460ff191690558054905b8181101561090457846001600160a01b03166000828154811061087a57fe5b6000918252602090912001546001600160a01b031614156108fc57600060018303815481106108a557fe5b600091825260208220015481546001600160a01b039091169190839081106108c957fe5b9060005260206000200160006101000a8154816001600160a01b0302191690836001600160a01b03160217905550610904565b60010161085b565b50600080548061091057fe5b600082815260208120820160001990810180546001600160a01b03191690559091019091556040516001600160a01b038616917f58619076adf5bb0943d100ef88d52d7c3fd691b19d3a9071b555b651fbf418da91a250505050565b60085490565b600061097f84848461193e565b6109f58461098b61184e565b6109f085604051806060016040528060288152602001611f39602891396001600160a01b038a166000908152600760205260408120906109c961184e565b6001600160a01b03168152602081019190915260400160002054919063ffffffff611aa716565b611852565b5060019392505050565b6001600160a01b031660009081526005602052604090205460ff1690565b6001600160a01b031660009081526001602052604090205460ff1690565b600b5460ff1690565b600061079b610a5161184e565b846109f08560076000610a6261184e565b6001600160a01b03908116825260208083019390935260409182016000908120918c16815292529020549063ffffffff611b3e16565b6060600480548060200260200160405190810160405280929190818152602001828054801561077c57602002820191906000526020600020905b81546001600160a01b03168152600190910190602001808311610ad2575050505050905090565b610b0233610a1d565b158015610b1f57503360009081526005602052604090205460ff16155b15610b68576040805162461bcd60e51b81526020600482015260146024820152734f776e6572206f7220777269746572206f6e6c7960601b604482015290519081900360640190fd5b610b728282611b9f565b5050565b6000610b8061184e565b6001600160a01b03811660009081526001602081905260409091205491925060ff909116151514610be25760405162461bcd60e51b8152600401808060200182810382526027815260200180611eec6027913960400191505060405180910390fd5b8451610bf5906009906020880190611dec565b508351610c0990600a906020870190611dec565b5050600891909155600b805460ff191660ff9092169190911790555050565b6000610c3261184e565b6001600160a01b03811660009081526001602081905260409091205491925060ff909116151514610c945760405162461bcd60e51b8152600401808060200182810382526027815260200180611eec6027913960400191505060405180910390fd5b6001600160a01b038216600090815260016020819052604090912054839160ff90911615151415610d0c576040805162461bcd60e51b815260206004820152601b60248201527f4164647265737320616c726561647920697320616e206f776e65720000000000604482015290519081900360640190fd5b6001600160a01b0383166000818152600160208190526040808320805460ff191683179055825491820183558280527f290decd9548b62a8d60345a988386fc84ba6bc95484008f6362f93160ef3e56390910180546001600160a01b03191684179055517f994a936646fe87ffe4f1e469d3d6aa417d6b855598397f323de5b449f765f0c39190a2505050565b6001600160a01b031660009081526006602052604090205490565b6000610dbe61184e565b6001600160a01b03811660009081526001602081905260409091205491925060ff909116151514610e205760405162461bcd60e51b8152600401808060200182810382526027815260200180611eec6027913960400191505060405180910390fd5b6000610e2a61184e565b6001600160a01b0381166000908152600160205260408120805460ff191690559091505b60005460001901811015610eff57816001600160a01b031660008281548110610e7357fe5b6000918252602090912001546001600160a01b03161415610ef757600080546000198101908110610ea057fe5b600091825260208220015481546001600160a01b03909116919083908110610ec457fe5b9060005260206000200160006101000a8154816001600160a01b0302191690836001600160a01b03160217905550610eff565b600101610e4e565b506000805480610f0b57fe5b600082815260209020810160001990810180546001600160a01b03191690550190555050565b6000610f3b61184e565b6001600160a01b03811660009081526001602081905260409091205491925060ff909116151514610f9d5760405162461bcd60e51b8152600401808060200182810382526027815260200180611eec6027913960400191505060405180910390fd5b6001600160a01b038216600090815260056020526040902054829060ff16610fff576040805162461bcd60e51b815260206004820152601060248201526f15dc9a5d195c881b9bdd08195e1a5cdd60821b604482015290519081900360640190fd5b6001600160a01b0383166000908152600560205260408120805460ff19169055600454905b818110156110cf57846001600160a01b03166004828154811061104357fe5b6000918252602090912001546001600160a01b031614156110c7576004600183038154811061106e57fe5b600091825260209091200154600480546001600160a01b03909216918390811061109457fe5b9060005260206000200160006101000a8154816001600160a01b0302191690836001600160a01b031602179055506110cf565b600101611024565b5060048054806110db57fe5b600082815260208120820160001990810180546001600160a01b03191690559091019091556040516001600160a01b038616917f86e5bbceda94081c32220d685f37cc4e3ea7bb0be2dfbf0cb703579505a5390e91a250505050565b6060600280548060200260200160405190810160405280929190818152602001828054801561077c576020028201919060005260206000209081546001600160a01b03168152600190910190602001808311610ad2575050505050905090565b600a8054604080516020601f600260001961010060018816150201909516949094049384018190048102820181019092528281526060939092909183018282801561077c5780601f106107515761010080835404028352916020019161077c565b61120133610a1d565b15801561121e57503360009081526005602052604090205460ff16155b15611267576040805162461bcd60e51b81526020600482015260146024820152734f776e6572206f7220777269746572206f6e6c7960601b604482015290519081900360640190fd5b610b728282611c9d565b6060600080548060200260200160405190810160405280929190818152602001828054801561077c576020028201919060005260206000209081546001600160a01b03168152600190910190602001808311610ad2575050505050905090565b600061079b6112de61184e565b846109f085604051806060016040528060258152602001611fcb602591396007600061130861184e565b6001600160a01b03908116825260208083019390935260409182016000908120918d1681529252902054919063ffffffff611aa716565b600061079b61134c61184e565b848461193e565b600061135d61184e565b6001600160a01b03811660009081526001602081905260409091205491925060ff9091161515146113bf5760405162461bcd60e51b8152600401808060200182810382526027815260200180611eec6027913960400191505060405180910390fd5b6001600160a01b038216600090815260036020526040902054829060ff1615611427576040805162461bcd60e51b815260206004820152601560248201527452656164657220616c72656164792065786973747360581b604482015290519081900360640190fd5b6001600160a01b038316600081815260036020526040808220805460ff1916600190811790915560028054918201815583527f405787fa12a823e0f2b7631cc41b3ba8828b3321ca811111fa75cd3aa3bb5ace0180546001600160a01b03191684179055517fb7724d890d2888af5a3fc456edb667e2c82c4441449ebcac301c618759e4f86d9190a2505050565b60006114bf61184e565b6001600160a01b03811660009081526001602081905260409091205491925060ff9091161515146115215760405162461bcd60e51b8152600401808060200182810382526027815260200180611eec6027913960400191505060405180910390fd5b6001600160a01b038216600090815260056020526040902054829060ff1615611589576040805162461bcd60e51b815260206004820152601560248201527457726974657220616c72656164792065786973747360581b604482015290519081900360640190fd5b6001600160a01b038316600081815260056020526040808220805460ff1916600190811790915560048054918201815583527f8a35acfbc15ff81a39ae7d344fd709f28e8600b4aa8c65c6b64bfe7fe36bd19b0180546001600160a01b03191684179055517f6ff3aa2ea7b53070f6d9d07a445d338d89e8edef44250ffa8be19f53910d4a2e9190a2505050565b6001600160a01b03918216600090815260076020908152604080832093909416825291909152205490565b600061164c61184e565b6001600160a01b03811660009081526001602081905260409091205491925060ff9091161515146116ae5760405162461bcd60e51b8152600401808060200182810382526027815260200180611eec6027913960400191505060405180910390fd5b6001600160a01b038216600090815260036020526040902054829060ff16611710576040805162461bcd60e51b815260206004820152601060248201526f14995859195c881b9bdd08195e1a5cdd60821b604482015290519081900360640190fd5b6001600160a01b0383166000908152600360205260408120805460ff19169055600254905b818110156117e057846001600160a01b03166002828154811061175457fe5b6000918252602090912001546001600160a01b031614156117d8576002600183038154811061177f57fe5b600091825260209091200154600280546001600160a01b0390921691839081106117a557fe5b9060005260206000200160006101000a8154816001600160a01b0302191690836001600160a01b031602179055506117e0565b600101611735565b5060028054806117ec57fe5b600082815260208120820160001990810180546001600160a01b03191690559091019091556040516001600160a01b038616917fe933431644458f1217f9e93d3e000e03c9bbbe55761046d0985c2e4d157bcbaa91a250505050565b60005490565b3390565b6001600160a01b0383166118975760405162461bcd60e51b8152600401808060200182810382526024815260200180611fa76024913960400191505060405180910390fd5b6001600160a01b0382166118dc5760405162461bcd60e51b8152600401808060200182810382526022815260200180611eca6022913960400191505060405180910390fd5b6001600160a01b03808416600081815260076020908152604080832094871680845294825291829020859055815185815291517f8c5be1e5ebec7d5bd14f71427d1e84f3dd0314c0f7b2291e5b200ac8c7c3b9259281900390910190a3505050565b6001600160a01b0383166119835760405162461bcd60e51b8152600401808060200182810382526025815260200180611f826025913960400191505060405180910390fd5b6001600160a01b0382166119c85760405162461bcd60e51b8152600401808060200182810382526023815260200180611e856023913960400191505060405180910390fd5b6119d3838383611da5565b611a1681604051806060016040528060268152602001611f13602691396001600160a01b038616600090815260066020526040902054919063ffffffff611aa716565b6001600160a01b038085166000908152600660205260408082209390935590841681522054611a4b908263ffffffff611b3e16565b6001600160a01b0380841660008181526006602090815260409182902094909455805185815290519193928716927fddf252ad1be2c89b69c2b068fc378daa952ba7f163c4a11628f55a4df523b3ef92918290030190a3505050565b60008184841115611b365760405162461bcd60e51b81526004018080602001828103825283818151815260200191508051906020019080838360005b83811015611afb578181015183820152602001611ae3565b50505050905090810190601f168015611b285780820380516001836020036101000a031916815260200191505b509250505060405180910390fd5b505050900390565b600082820183811015611b98576040805162461bcd60e51b815260206004820152601b60248201527f536166654d6174683a206164646974696f6e206f766572666c6f770000000000604482015290519081900360640190fd5b9392505050565b6001600160a01b038216611bfa576040805162461bcd60e51b815260206004820152601f60248201527f45524332303a206d696e7420746f20746865207a65726f206164647265737300604482015290519081900360640190fd5b611c0660008383611da5565b600854611c19908263ffffffff611b3e16565b6008556001600160a01b038216600090815260066020526040902054611c45908263ffffffff611b3e16565b6001600160a01b03831660008181526006602090815260408083209490945583518581529351929391927fddf252ad1be2c89b69c2b068fc378daa952ba7f163c4a11628f55a4df523b3ef9281900390910190a35050565b6001600160a01b038216611ce25760405162461bcd60e51b8152600401808060200182810382526021815260200180611f616021913960400191505060405180910390fd5b611cee82600083611da5565b611d3181604051806060016040528060228152602001611ea8602291396001600160a01b038516600090815260066020526040902054919063ffffffff611aa716565b6001600160a01b038316600090815260066020526040902055600854611d5d908263ffffffff611daa16565b6008556040805182815290516000916001600160a01b038516917fddf252ad1be2c89b69c2b068fc378daa952ba7f163c4a11628f55a4df523b3ef9181900360200190a35050565b505050565b6000611b9883836040518060400160405280601e81526020017f536166654d6174683a207375627472616374696f6e206f766572666c6f770000815250611aa7565b828054600181600116156101000203166002900490600052602060002090601f016020900481019282601f10611e2d57805160ff1916838001178555611e5a565b82800160010185558215611e5a579182015b82811115611e5a578251825591602001919060010190611e3f565b50611e66929150611e6a565b5090565b61078491905b80821115611e665760008155600101611e7056fe45524332303a207472616e7366657220746f20746865207a65726f206164647265737345524332303a206275726e20616d6f756e7420657863656564732062616c616e636545524332303a20617070726f766520746f20746865207a65726f20616464726573734f776e61626c653a2063616c6c6572206973206e6f74206f6e65206f6620746865206f776e657245524332303a207472616e7366657220616d6f756e7420657863656564732062616c616e636545524332303a207472616e7366657220616d6f756e74206578636565647320616c6c6f77616e636545524332303a206275726e2066726f6d20746865207a65726f206164647265737345524332303a207472616e736665722066726f6d20746865207a65726f206164647265737345524332303a20617070726f76652066726f6d20746865207a65726f206164647265737345524332303a2064656372656173656420616c6c6f77616e63652062656c6f77207a65726fa264697066735822122070172095b512d9fc1a4975f781674bd8ce0db2b6d85f27bf053dda579b06052864736f6c63430006020033",
  "source": "pragma solidity >=0.6.0 <0.8.0;\n\nimport \"../basic/ERC20.sol\";\nimport \"../../config/InternalSmartContractConfig.sol\";\nimport \"../../wallet/ApprovalWallet.sol\";\nimport \"../../wallet/WalletAddressMap.sol\";\nimport \"../../token/ITokenMintable.sol\";\n\ncontract TestERC20 is ERC20, ITokenMintable {\n\n    function mint(address account, uint256 amount) public onlyOwnerOrWriter override{\n        _mint(account, amount);\n    }\n\n    function burn(address account, uint256 amount) public onlyOwnerOrWriter  {\n        _burn(account, amount);\n    }\n}",
  "sourcePath": "/Users/duncanto/Documents/WorkingSet2/src/eurus-backend/smartcontract/contracts/erc20/extend/TestERC20.sol",
  "compiler": {
    "name": "solc",
    "version": "0.6.2+commit.bacdbe57.Emscripten.clang"
  },
  "schemaVersion": "3.4.1",
  "updatedAt": "2021-08-04T10:30:06.200Z",
  "devdoc": {
    "methods": {
      "allowance(address,address)": {
        "details": "See {IERC20-allowance}."
      },
      "approve(address,uint256)": {
        "details": "See {IERC20-approve}.     * Requirements:     * - `spender` cannot be the zero address."
      },
      "balanceOf(address)": {
        "details": "See {IERC20-balanceOf}."
      },
      "decimals()": {
        "details": "Returns the number of decimals used to get its user representation. For example, if `decimals` equals `2`, a balance of `505` tokens should be displayed to a user as `5,05` (`505 / 10 ** 2`).     * Tokens usually opt for a value of 18, imitating the relationship between Ether and Wei. This is the value {ERC20} uses, unless {_setupDecimals} is called.     * NOTE: This information is only used for _display_ purposes: it in no way affects any of the arithmetic of the contract, including {IERC20-balanceOf} and {IERC20-transfer}."
      },
      "decreaseAllowance(address,uint256)": {
        "details": "Atomically decreases the allowance granted to `spender` by the caller.     * This is an alternative to {approve} that can be used as a mitigation for problems described in {IERC20-approve}.     * Emits an {Approval} event indicating the updated allowance.     * Requirements:     * - `spender` cannot be the zero address. - `spender` must have allowance for the caller of at least `subtractedValue`."
      },
      "increaseAllowance(address,uint256)": {
        "details": "Atomically increases the allowance granted to `spender` by the caller.     * This is an alternative to {approve} that can be used as a mitigation for problems described in {IERC20-approve}.     * Emits an {Approval} event indicating the updated allowance.     * Requirements:     * - `spender` cannot be the zero address."
      },
      "name()": {
        "details": "Returns the name of the token."
      },
      "renounceOwnership()": {
        "details": "Leaves the contract without owner. It will not be possible to call `onlyOwner` functions anymore. Can only be called by the current owner.     * NOTE: Renouncing ownership will leave the contract without an owner, thereby removing any functionality that is only available to the owner."
      },
      "symbol()": {
        "details": "Returns the symbol of the token, usually a shorter version of the name."
      },
      "totalSupply()": {
        "details": "See {IERC20-totalSupply}."
      },
      "transfer(address,uint256)": {
        "details": "See {IERC20-transfer}.     * Requirements:     * - `recipient` cannot be the zero address. - the caller must have a balance of at least `amount`."
      },
      "transferFrom(address,address,uint256)": {
        "details": "See {IERC20-transferFrom}.     * Emits an {Approval} event indicating the updated allowance. This is not required by the EIP. See the note at the beginning of {ERC20}.     * Requirements:     * - `sender` and `recipient` cannot be the zero address. - `sender` must have a balance of at least `amount`. - the caller must have allowance for ``sender``'s tokens of at least `amount`."
      }
    }
  },
  "userdoc": {
    "methods": {}
  }
}