{
  "contractName": "TestWallet",
  "abi": [
    {
      "anonymous": false,
      "inputs": [
        {
          "indexed": false,
          "internalType": "string",
          "name": "",
          "type": "string"
        }
      ],
      "name": "Event",
      "type": "event"
    },
    {
      "anonymous": false,
      "inputs": [
        {
          "indexed": true,
          "internalType": "address",
          "name": "owner",
          "type": "address"
        }
      ],
      "name": "OwnerAdded",
      "type": "event"
    },
    {
      "anonymous": false,
      "inputs": [
        {
          "indexed": true,
          "internalType": "address",
          "name": "owner",
          "type": "address"
        }
      ],
      "name": "OwnerRemoved",
      "type": "event"
    },
    {
      "anonymous": false,
      "inputs": [
        {
          "indexed": true,
          "internalType": "address",
          "name": "previousOwner",
          "type": "address"
        },
        {
          "indexed": true,
          "internalType": "address",
          "name": "newOwner",
          "type": "address"
        }
      ],
      "name": "OwnershipTransferred",
      "type": "event"
    },
    {
      "anonymous": false,
      "inputs": [
        {
          "indexed": true,
          "internalType": "address",
          "name": "sender",
          "type": "address"
        },
        {
          "indexed": true,
          "internalType": "address",
          "name": "target",
          "type": "address"
        },
        {
          "indexed": false,
          "internalType": "uint256",
          "name": "amount",
          "type": "uint256"
        }
      ],
      "name": "confirmEvent",
      "type": "event"
    },
    {
      "inputs": [
        {
          "internalType": "address",
          "name": "newOwner",
          "type": "address"
        }
      ],
      "name": "addOwner",
      "outputs": [],
      "stateMutability": "nonpayable",
      "type": "function"
    },
    {
      "inputs": [],
      "name": "getOwnerCount",
      "outputs": [
        {
          "internalType": "uint256",
          "name": "",
          "type": "uint256"
        }
      ],
      "stateMutability": "view",
      "type": "function"
    },
    {
      "inputs": [],
      "name": "getOwners",
      "outputs": [
        {
          "internalType": "address[]",
          "name": "",
          "type": "address[]"
        }
      ],
      "stateMutability": "view",
      "type": "function"
    },
    {
      "inputs": [
        {
          "internalType": "address",
          "name": "addr",
          "type": "address"
        }
      ],
      "name": "isOwner",
      "outputs": [
        {
          "internalType": "bool",
          "name": "",
          "type": "bool"
        }
      ],
      "stateMutability": "view",
      "type": "function"
    },
    {
      "inputs": [
        {
          "internalType": "address",
          "name": "owner",
          "type": "address"
        }
      ],
      "name": "removeOwner",
      "outputs": [],
      "stateMutability": "nonpayable",
      "type": "function"
    },
    {
      "inputs": [],
      "name": "renounceOwnership",
      "outputs": [],
      "stateMutability": "nonpayable",
      "type": "function"
    },
    {
      "inputs": [],
      "name": "usdtAddress",
      "outputs": [
        {
          "internalType": "address",
          "name": "",
          "type": "address"
        }
      ],
      "stateMutability": "view",
      "type": "function"
    },
    {
      "inputs": [
        {
          "internalType": "address",
          "name": "target",
          "type": "address"
        },
        {
          "internalType": "uint256",
          "name": "amount",
          "type": "uint256"
        }
      ],
      "name": "confirm",
      "outputs": [],
      "stateMutability": "nonpayable",
      "type": "function"
    },
    {
      "inputs": [
        {
          "internalType": "address",
          "name": "addr",
          "type": "address"
        }
      ],
      "name": "setUsdtAddress",
      "outputs": [],
      "stateMutability": "nonpayable",
      "type": "function"
    }
  ],
  "bytecode": "0x608060405260006100176001600160e01b036100ab16565b6001600160a01b0381166000818152600160208190526040808320805460ff191683179055825491820183558280527f290decd9548b62a8d60345a988386fc84ba6bc95484008f6362f93160ef3e56390910180546001600160a01b031916841790555192935090917f8be0079c531659141344cd1fd0a4f28419497f9722a3daafe3b4186f6b6457e0908290a3506100af565b3390565b610915806100be6000396000f3fe608060405234801561001057600080fd5b50600436106100935760003560e01c8063715018a611610066578063715018a6146101465780639ab4a4451461014e578063a0e67e2b14610172578063d7ca01b5146101ca578063ef18374a146101f657610093565b80630cb46b7514610098578063173825d9146100c05780632f54bf6e146100e65780637065cb4814610120575b600080fd5b6100be600480360360208110156100ae57600080fd5b50356001600160a01b0316610210565b005b6100be600480360360208110156100d657600080fd5b50356001600160a01b031661029f565b61010c600480360360208110156100fc57600080fd5b50356001600160a01b0316610467565b604080519115158252519081900360200190f35b6100be6004803603602081101561013657600080fd5b50356001600160a01b0316610485565b6100be6105f6565b610156610773565b604080516001600160a01b039092168252519081900360200190f35b61017a610782565b60408051602080825283518183015283519192839290830191858101910280838360005b838110156101b657818101518382015260200161019e565b505050509050019250505060405180910390f35b6100be600480360360408110156101e057600080fd5b506001600160a01b0381351690602001356107e4565b6101fe6108ae565b60408051918252519081900360200190f35b600061021a6108b4565b6001600160a01b03811660009081526001602081905260409091205491925060ff90911615151461027c5760405162461bcd60e51b81526004018080602001828103825260278152602001806108b96027913960400191505060405180910390fd5b50600280546001600160a01b0319166001600160a01b0392909216919091179055565b60006102a96108b4565b6001600160a01b03811660009081526001602081905260409091205491925060ff90911615151461030b5760405162461bcd60e51b81526004018080602001828103825260278152602001806108b96027913960400191505060405180910390fd5b6001600160a01b038216600090815260016020526040902054829060ff1661033257600080fd5b6001600160a01b0383166000908152600160205260408120805460ff191690558054905b818110156103ff57846001600160a01b03166000828154811061037557fe5b6000918252602090912001546001600160a01b031614156103f757600060018303815481106103a057fe5b600091825260208220015481546001600160a01b039091169190839081106103c457fe5b9060005260206000200160006101000a8154816001600160a01b0302191690836001600160a01b031602179055506103ff565b600101610356565b50600080548061040b57fe5b600082815260208120820160001990810180546001600160a01b03191690559091019091556040516001600160a01b038616917f58619076adf5bb0943d100ef88d52d7c3fd691b19d3a9071b555b651fbf418da91a250505050565b6001600160a01b031660009081526001602052604090205460ff1690565b600061048f6108b4565b6001600160a01b03811660009081526001602081905260409091205491925060ff9091161515146104f15760405162461bcd60e51b81526004018080602001828103825260278152602001806108b96027913960400191505060405180910390fd5b6001600160a01b038216600090815260016020819052604090912054839160ff90911615151415610569576040805162461bcd60e51b815260206004820152601b60248201527f4164647265737320616c726561647920697320616e206f776e65720000000000604482015290519081900360640190fd5b6001600160a01b0383166000818152600160208190526040808320805460ff191683179055825491820183558280527f290decd9548b62a8d60345a988386fc84ba6bc95484008f6362f93160ef3e56390910180546001600160a01b03191684179055517f994a936646fe87ffe4f1e469d3d6aa417d6b855598397f323de5b449f765f0c39190a2505050565b60006106006108b4565b6001600160a01b03811660009081526001602081905260409091205491925060ff9091161515146106625760405162461bcd60e51b81526004018080602001828103825260278152602001806108b96027913960400191505060405180910390fd5b600061066c6108b4565b6001600160a01b0381166000908152600160205260408120805460ff191690559091505b6000546000190181101561074157816001600160a01b0316600082815481106106b557fe5b6000918252602090912001546001600160a01b03161415610739576000805460001981019081106106e257fe5b600091825260208220015481546001600160a01b0390911691908390811061070657fe5b9060005260206000200160006101000a8154816001600160a01b0302191690836001600160a01b03160217905550610741565b600101610690565b50600080548061074d57fe5b600082815260209020810160001990810180546001600160a01b03191690550190555050565b6002546001600160a01b031681565b606060008054806020026020016040519081016040528092919081815260200182805480156107da57602002820191906000526020600020905b81546001600160a01b031681526001909101906020018083116107bc575b5050505050905090565b6002546040805163a9059cbb60e01b81526001600160a01b0385811660048301526024820185905291519190921691829163a9059cbb916044808201926020929091908290030181600087803b15801561083d57600080fd5b505af1158015610851573d6000803e3d6000fd5b505050506040513d602081101561086757600080fd5b50506040805183815290516001600160a01b0385169133917f4bf98d29d48c0ccbb7775be45488c9c6c0c851fcee07d081747df8e5be543afc9181900360200190a3505050565b60005490565b339056fe4f776e61626c653a2063616c6c6572206973206e6f74206f6e65206f6620746865206f776e6572a2646970667358221220265cadb6bb1cab40cd6e827e24a46fb56b337fd35d040952ccd8574bc77be38264736f6c63430006020033",
  "source": "pragma solidity >=0.6.0 <0.8.0;\n\nimport \"../utils/ownable/MultiOwnable.sol\";\nimport \"../erc20/basic/IERC20.sol\";\ncontract TestWallet is MultiOwnable{\n\n    address public usdtAddress;\n    event confirmEvent(address indexed sender,  address indexed target, uint256 amount);\n    struct RequestType {\n        uint actionType;\n        uint256 amount;\n        address target;\n    }\n\n\n    function confirm(address target, uint256 amount) public {    \n        IERC20 usdt = IERC20(usdtAddress);\n        usdt.transfer(target, amount);\n        emit confirmEvent(msg.sender, target, amount);\n    }\n    \n    function setUsdtAddress(address addr) public onlyOwner{\n        usdtAddress = addr;\n    }\n\n} \n\n",
  "sourcePath": "/Users/duncanto/Documents/WorkingSet2/src/eurus-backend/smartcontract/contracts/wallet/TestWallet.sol",
  "compiler": {
    "name": "solc",
    "version": "0.6.2+commit.bacdbe57.Emscripten.clang"
  },
  "schemaVersion": "3.4.1",
  "updatedAt": "2021-08-04T10:30:06.376Z",
  "devdoc": {
    "methods": {
      "renounceOwnership()": {
        "details": "Leaves the contract without owner. It will not be possible to call `onlyOwner` functions anymore. Can only be called by the current owner.     * NOTE: Renouncing ownership will leave the contract without an owner, thereby removing any functionality that is only available to the owner."
      }
    }
  },
  "userdoc": {
    "methods": {}
  }
}