{
  "contractName": "UnitTest",
  "abi": [
    {
      "inputs": [
        {
          "internalType": "int256",
          "name": "i",
          "type": "int256"
        }
      ],
      "name": "InvokeRequireMessage",
      "outputs": [],
      "stateMutability": "nonpayable",
      "type": "function"
    },
    {
      "inputs": [
        {
          "internalType": "int256",
          "name": "i",
          "type": "int256"
        }
      ],
      "name": "SetValue",
      "outputs": [],
      "stateMutability": "nonpayable",
      "type": "function"
    }
  ],
  "bytecode": "0x608060405234801561001057600080fd5b5060ec8061001f6000396000f3fe6080604052348015600f57600080fd5b506004361060325760003560e01c8063bbaf3446146037578063e5841a16146053575b600080fd5b605160048036036020811015604b57600080fd5b5035606d565b005b605160048036036020811015606757600080fd5b503560b1565b6040805162461bcd60e51b815260206004820152601460248201527314995c5d5a5c99481a5cc81d1c9a59d9d95c995960621b604482015290519081900360640190fd5b60005556fea26469706673582212200ee12840cf896f78932667cd521775a4e697c38f61e846a87a58710481469e1464736f6c63430006020033",
  "source": "pragma solidity >=0.6.0 <0.8.0;\n\ncontract UnitTest {\n    int value;\n\n    function InvokeRequireMessage(int i ) public{\n        require(false, \"Require is triggered\");\n        value = i;\n    }\n\n    function SetValue(int i ) public {\n        value = i;\n    }\n\n}",
  "sourcePath": "/Users/duncanto/Documents/WorkingSet2/src/eurus-backend/smartcontract/contracts/utils/UnitTest.sol",
  "compiler": {
    "name": "solc",
    "version": "0.6.2+commit.bacdbe57.Emscripten.clang"
  },
  "schemaVersion": "3.4.1",
  "updatedAt": "2021-08-04T10:30:06.235Z",
  "devdoc": {
    "methods": {}
  },
  "userdoc": {
    "methods": {}
  }
}