{
  "contractName": "UserWalletProxy",
  "abi": [
    {
      "anonymous": false,
      "inputs": [
        {
          "indexed": true,
          "internalType": "address",
          "name": "sender",
          "type": "address"
        },
        {
          "indexed": true,
          "internalType": "uint256",
          "name": "amount",
          "type": "uint256"
        }
      ],
      "name": "DepositETH",
      "type": "event"
    },
    {
      "anonymous": false,
      "inputs": [
        {
          "indexed": false,
          "internalType": "string",
          "name": "",
          "type": "string"
        }
      ],
      "name": "Event",
      "type": "event"
    },
    {
      "anonymous": false,
      "inputs": [
        {
          "indexed": true,
          "internalType": "address",
          "name": "dest",
          "type": "address"
        },
        {
          "indexed": true,
          "internalType": "uint256",
          "name": "amount",
          "type": "uint256"
        }
      ],
      "name": "GasFeeTransferred",
      "type": "event"
    },
    {
      "anonymous": false,
      "inputs": [
        {
          "indexed": true,
          "internalType": "address",
          "name": "owner",
          "type": "address"
        }
      ],
      "name": "OwnerAdded",
      "type": "event"
    },
    {
      "anonymous": false,
      "inputs": [
        {
          "indexed": true,
          "internalType": "address",
          "name": "owner",
          "type": "address"
        }
      ],
      "name": "OwnerRemoved",
      "type": "event"
    },
    {
      "anonymous": false,
      "inputs": [
        {
          "indexed": true,
          "internalType": "address",
          "name": "previousOwner",
          "type": "address"
        },
        {
          "indexed": true,
          "internalType": "address",
          "name": "newOwner",
          "type": "address"
        }
      ],
      "name": "OwnershipTransferred",
      "type": "event"
    },
    {
      "anonymous": false,
      "inputs": [
        {
          "indexed": true,
          "internalType": "address",
          "name": "dest",
          "type": "address"
        },
        {
          "indexed": true,
          "internalType": "uint256",
          "name": "userGasUsed",
          "type": "uint256"
        },
        {
          "indexed": true,
          "internalType": "uint256",
          "name": "amount",
          "type": "uint256"
        },
        {
          "indexed": false,
          "internalType": "uint256",
          "name": "amountWithFee",
          "type": "uint256"
        },
        {
          "indexed": false,
          "internalType": "string",
          "name": "assetName",
          "type": "string"
        },
        {
          "indexed": false,
          "internalType": "bytes",
          "name": "revertReason",
          "type": "bytes"
        }
      ],
      "name": "SubmitWithdrawFailed",
      "type": "event"
    },
    {
      "anonymous": false,
      "inputs": [
        {
          "indexed": true,
          "internalType": "address",
          "name": "dest",
          "type": "address"
        },
        {
          "indexed": true,
          "internalType": "uint256",
          "name": "userGasUsed",
          "type": "uint256"
        },
        {
          "indexed": true,
          "internalType": "uint256",
          "name": "amount",
          "type": "uint256"
        },
        {
          "indexed": false,
          "internalType": "string",
          "name": "assetName",
          "type": "string"
        },
        {
          "indexed": false,
          "internalType": "bytes",
          "name": "revertReason",
          "type": "bytes"
        }
      ],
      "name": "TransferRequestFailed",
      "type": "event"
    },
    {
      "stateMutability": "payable",
      "type": "fallback"
    },
    {
      "inputs": [
        {
          "internalType": "address",
          "name": "newOwner",
          "type": "address"
        }
      ],
      "name": "addOwner",
      "outputs": [],
      "stateMutability": "nonpayable",
      "type": "function"
    },
    {
      "inputs": [],
      "name": "getOwnerCount",
      "outputs": [
        {
          "internalType": "uint256",
          "name": "",
          "type": "uint256"
        }
      ],
      "stateMutability": "view",
      "type": "function"
    },
    {
      "inputs": [],
      "name": "getOwners",
      "outputs": [
        {
          "internalType": "address[]",
          "name": "",
          "type": "address[]"
        }
      ],
      "stateMutability": "view",
      "type": "function"
    },
    {
      "inputs": [
        {
          "internalType": "address",
          "name": "addr",
          "type": "address"
        }
      ],
      "name": "isOwner",
      "outputs": [
        {
          "internalType": "bool",
          "name": "",
          "type": "bool"
        }
      ],
      "stateMutability": "view",
      "type": "function"
    },
    {
      "inputs": [
        {
          "internalType": "address",
          "name": "owner",
          "type": "address"
        }
      ],
      "name": "removeOwner",
      "outputs": [],
      "stateMutability": "nonpayable",
      "type": "function"
    },
    {
      "inputs": [],
      "name": "renounceOwnership",
      "outputs": [],
      "stateMutability": "nonpayable",
      "type": "function"
    },
    {
      "stateMutability": "payable",
      "type": "receive"
    },
    {
      "inputs": [],
      "name": "getUserWalletImplementation",
      "outputs": [
        {
          "internalType": "address",
          "name": "impl",
          "type": "address"
        }
      ],
      "stateMutability": "view",
      "type": "function"
    },
    {
      "inputs": [
        {
          "internalType": "address",
          "name": "newImplementation",
          "type": "address"
        }
      ],
      "name": "setUserWalletImplementation",
      "outputs": [],
      "stateMutability": "nonpayable",
      "type": "function"
    },
    {
      "inputs": [
        {
          "internalType": "address",
          "name": "dest",
          "type": "address"
        },
        {
          "internalType": "string",
          "name": "assetName",
          "type": "string"
        },
        {
          "internalType": "uint256",
          "name": "amount",
          "type": "uint256"
        },
        {
          "internalType": "bytes",
          "name": "",
          "type": "bytes"
        }
      ],
      "name": "requestTransfer",
      "outputs": [],
      "stateMutability": "nonpayable",
      "type": "function"
    },
    {
      "inputs": [
        {
          "internalType": "address",
          "name": "dest",
          "type": "address"
        },
        {
          "internalType": "uint256",
          "name": "withdrawAmount",
          "type": "uint256"
        },
        {
          "internalType": "uint256",
          "name": "amountWithFee",
          "type": "uint256"
        },
        {
          "internalType": "string",
          "name": "assetName",
          "type": "string"
        },
        {
          "internalType": "bytes",
          "name": "",
          "type": "bytes"
        }
      ],
      "name": "submitWithdraw",
      "outputs": [],
      "stateMutability": "nonpayable",
      "type": "function"
    }
  ],
  "bytecode": "0x608060405260006100176001600160e01b036100ab16565b6001600160a01b0381166000818152600160208190526040808320805460ff191683179055825491820183558280527f290decd9548b62a8d60345a988386fc84ba6bc95484008f6362f93160ef3e56390910180546001600160a01b031916841790555192935090917f8be0079c531659141344cd1fd0a4f28419497f9722a3daafe3b4186f6b6457e0908290a3506100af565b3390565b611316806100be6000396000f3fe6080604052600436106100955760003560e01c8063715018a611610059578063715018a61461038857806386c54a511461039d578063a0e67e2b146103d0578063ef18374a14610435578063faff73461461045c576100d0565b8063173825d91461015c5780632f54bf6e1461018f5780633c4cd911146101d65780634c2cd04f146103245780637065cb4814610355576100d0565b366100d05734156100ce57604051349033907fced5d8bf10823804603bba066e4f53aa6e8f6f4be68bf0114cf7a0e52183e4e990600090a35b005b60006100da6105ae565b90506001600160a01b038116610137576040805162461bcd60e51b815260206004820181905260248201527f6765745573657257616c6c6574496d706c656d656e746174696f6e2069732030604482015290519081900360640190fd5b60405136600082376000803683855af43d806000843e818015610158578184f35b8184fd5b34801561016857600080fd5b506100ce6004803603602081101561017f57600080fd5b50356001600160a01b03166105df565b34801561019b57600080fd5b506101c2600480360360208110156101b257600080fd5b50356001600160a01b03166107a7565b604080519115158252519081900360200190f35b3480156101e257600080fd5b506100ce600480360360808110156101f957600080fd5b6001600160a01b038235169190810190604081016020820135600160201b81111561022357600080fd5b82018360208201111561023557600080fd5b803590602001918460018302840111600160201b8311171561025657600080fd5b91908080601f01602080910402602001604051908101604052809392919081815260200183838082843760009201919091525092958435959094909350604081019250602001359050600160201b8111156102b057600080fd5b8201836020820111156102c257600080fd5b803590602001918460018302840111600160201b831117156102e357600080fd5b91908080601f0160208091040260200160405190810160405280939291908181526020018383808284376000920191909152509295506107c5945050505050565b34801561033057600080fd5b506103396105ae565b604080516001600160a01b039092168252519081900360200190f35b34801561036157600080fd5b506100ce6004803603602081101561037857600080fd5b50356001600160a01b0316610b29565b34801561039457600080fd5b506100ce610c9a565b3480156103a957600080fd5b506100ce600480360360208110156103c057600080fd5b50356001600160a01b0316610e17565b3480156103dc57600080fd5b506103e5610eb4565b60408051602080825283518183015283519192839290830191858101910280838360005b83811015610421578181015183820152602001610409565b505050509050019250505060405180910390f35b34801561044157600080fd5b5061044a610f16565b60408051918252519081900360200190f35b34801561046857600080fd5b506100ce600480360360a081101561047f57600080fd5b6001600160a01b038235169160208101359160408201359190810190608081016060820135600160201b8111156104b557600080fd5b8201836020820111156104c757600080fd5b803590602001918460018302840111600160201b831117156104e857600080fd5b91908080601f0160208091040260200160405190810160405280939291908181526020018383808284376000920191909152509295949360208101935035915050600160201b81111561053a57600080fd5b82018360208201111561054c57600080fd5b803590602001918460018302840111600160201b8311171561056d57600080fd5b91908080601f016020809104026020016040519081016040528093929190818152602001838380828437600092019190915250929550610f1c945050505050565b60408051773732ba1732bab93ab99734b6b83632b6b2b73a30ba34b7b760411b815290519081900360180190205490565b60006105e9611289565b6001600160a01b03811660009081526001602081905260409091205491925060ff90911615151461064b5760405162461bcd60e51b81526004018080602001828103825260278152602001806112956027913960400191505060405180910390fd5b6001600160a01b038216600090815260016020526040902054829060ff1661067257600080fd5b6001600160a01b0383166000908152600160205260408120805460ff191690558054905b8181101561073f57846001600160a01b0316600082815481106106b557fe5b6000918252602090912001546001600160a01b0316141561073757600060018303815481106106e057fe5b600091825260208220015481546001600160a01b0390911691908390811061070457fe5b9060005260206000200160006101000a8154816001600160a01b0302191690836001600160a01b0316021790555061073f565b600101610696565b50600080548061074b57fe5b600082815260208120820160001990810180546001600160a01b03191690559091019091556040516001600160a01b038616917f58619076adf5bb0943d100ef88d52d7c3fd691b19d3a9071b555b651fbf418da91a250505050565b6001600160a01b031660009081526001602052604090205460ff1690565b60005a905060006107d46105ae565b90506001600160a01b038116610831576040805162461bcd60e51b815260206004820181905260248201527f6765745573657257616c6c6574496d706c656d656e746174696f6e2069732030604482015290519081900360640190fd5b6040516000368183376000803684865af43d806000853e818015610853578185f35b811561087357610120850193508360405260048501945084518086019550505b505060408051600481526024810182526020810180516001600160e01b031663685725f360e01b17815291518151600094506060936001600160a01b0389169392918291908083835b602083106108db5780518252601f1990920191602091820191016108bc565b6001836020036101000a038019825116818451168082178552505050505050905001915050600060405180830381855af49150503d806000811461093b576040519150601f19603f3d011682016040523d82523d6000602084013e610940565b606091505b5091509150816109815760405162461bcd60e51b81526004018080602001828103825260258152602001806112bc6025913960400191505060405180910390fd5b600061098c8261128d565b905080600061bf685a8a03019050816001600160a01b03166108fc3a83029081150290604051600060405180830381858888f193505050501580156109d5573d6000803e3d6000fd5b508a818e6001600160a01b03167f35d65561df43bc40f42f800bb9d081adb2c7e4a7d087244849eebde7e071e1408f8b604051808060200180602001838103835285818151815260200191508051906020019080838360005b83811015610a46578181015183820152602001610a2e565b50505050905090810190601f168015610a735780820380516001836020036101000a031916815260200191505b50838103825284518152845160209182019186019080838360005b83811015610aa6578181015183820152602001610a8e565b50505050905090810190601f168015610ad35780820380516001836020036101000a031916815260200191505b5094505050505060405180910390a46040513a8202906001600160a01b038416907f323fab21f63d1813263c3a9f07cfcfe67f4ef880e3e1eb2ae0b0de9babf626e390600090a350505050505050505050505050565b6000610b33611289565b6001600160a01b03811660009081526001602081905260409091205491925060ff909116151514610b955760405162461bcd60e51b81526004018080602001828103825260278152602001806112956027913960400191505060405180910390fd5b6001600160a01b038216600090815260016020819052604090912054839160ff90911615151415610c0d576040805162461bcd60e51b815260206004820152601b60248201527f4164647265737320616c726561647920697320616e206f776e65720000000000604482015290519081900360640190fd5b6001600160a01b0383166000818152600160208190526040808320805460ff191683179055825491820183558280527f290decd9548b62a8d60345a988386fc84ba6bc95484008f6362f93160ef3e56390910180546001600160a01b03191684179055517f994a936646fe87ffe4f1e469d3d6aa417d6b855598397f323de5b449f765f0c39190a2505050565b6000610ca4611289565b6001600160a01b03811660009081526001602081905260409091205491925060ff909116151514610d065760405162461bcd60e51b81526004018080602001828103825260278152602001806112956027913960400191505060405180910390fd5b6000610d10611289565b6001600160a01b0381166000908152600160205260408120805460ff191690559091505b60005460001901811015610de557816001600160a01b031660008281548110610d5957fe5b6000918252602090912001546001600160a01b03161415610ddd57600080546000198101908110610d8657fe5b600091825260208220015481546001600160a01b03909116919083908110610daa57fe5b9060005260206000200160006101000a8154816001600160a01b0302191690836001600160a01b03160217905550610de5565b600101610d34565b506000805480610df157fe5b600082815260209020810160001990810180546001600160a01b03191690550190555050565b6000610e21611289565b6001600160a01b03811660009081526001602081905260409091205491925060ff909116151514610e835760405162461bcd60e51b81526004018080602001828103825260278152602001806112956027913960400191505060405180910390fd5b5060408051773732ba1732bab93ab99734b6b83632b6b2b73a30ba34b7b760411b8152905190819003601801902055565b60606000805480602002602001604051908101604052809291908181526020018280548015610f0c57602002820191906000526020600020905b81546001600160a01b03168152600190910190602001808311610eee575b5050505050905090565b60005490565b60005a90506000610f2b6105ae565b90506001600160a01b038116610f88576040805162461bcd60e51b815260206004820181905260248201527f6765745573657257616c6c6574496d706c656d656e746174696f6e2069732030604482015290519081900360640190fd5b6040516000368183376000803684865af43d806000853e818015610faa578185f35b8115610fca57610120850193508360405260048501945084518086019550505b505060408051600481526024810182526020810180516001600160e01b031663685725f360e01b17815291518151600094506060936001600160a01b0389169392918291908083835b602083106110325780518252601f199092019160209182019101611013565b6001836020036101000a038019825116818451168082178552505050505050905001915050600060405180830381855af49150503d8060008114611092576040519150601f19603f3d011682016040523d82523d6000602084013e611097565b606091505b5091509150816110d85760405162461bcd60e51b81526004018080602001828103825260258152602001806112bc6025913960400191505060405180910390fd5b60006110e38261128d565b905080600061bf685a8a03019050816001600160a01b03166108fc3a83029081150290604051600060405180830381858888f1935050505015801561112c573d6000803e3d6000fd5b508c818f6001600160a01b03167fc4a5a5ce167cdfe781dc65f24d03a9bfc41022b6450965c12cd0b0bdd91192368f8f8c604051808481526020018060200180602001838103835285818151815260200191508051906020019080838360005b838110156111a457818101518382015260200161118c565b50505050905090810190601f1680156111d15780820380516001836020036101000a031916815260200191505b50838103825284518152845160209182019186019080838360005b838110156112045781810151838201526020016111ec565b50505050905090810190601f1680156112315780820380516001836020036101000a031916815260200191505b509550505050505060405180910390a46040513a8202906001600160a01b038416907f323fab21f63d1813263c3a9f07cfcfe67f4ef880e3e1eb2ae0b0de9babf626e390600090a35050505050505050505050505050565b3390565b602001519056fe4f776e61626c653a2063616c6c6572206973206e6f74206f6e65206f6620746865206f776e6572556e61626c6520746f2063616c6c2067657447657446656557616c6c657441646472657373a2646970667358221220b08990d4f79829edd95690374a0b2345c616564ef7a406d1b55c5c529e5cd3fc64736f6c63430006020033",
  "source": "\npragma solidity >=0.6.0 <0.8.0;\n\nimport './OwnedUpgradeabilityProxy.sol';\nimport '../../wallet/IUserWallet.sol';\nimport '../ownable/MultiOwnable.sol';\n\ncontract UserWalletProxy is MultiOwnable, IUserWallet{\n\n  event TransferRequestFailed(address indexed dest, uint256 indexed userGasUsed, uint256 indexed amount, string assetName, bytes revertReason);\n  event SubmitWithdrawFailed(address indexed dest, uint256 indexed userGasUsed, uint256 indexed amount, uint256 amountWithFee, string assetName, bytes revertReason);\n\n  event DepositETH(address indexed sender, uint256 indexed amount);\n\n  bytes32 private constant userWalletImplPosition = keccak256(\"net.eurus.implementation\");\n  uint256 private constant extraGasFee = 49000;\n  /**\n   * @dev Tells the address of the current implementation\n   * @return impl address of the current implementation\n   */\n  function getUserWalletImplementation() public view returns (address impl) {\n    bytes32 position = userWalletImplPosition;\n    assembly {\n      impl := sload(position)\n    }\n  }\n\n  /**\n   * @dev Sets the address of the current implementation\n   * @param newImplementation address representing the new implementation to be set\n   */\n  function setUserWalletImplementation(address newImplementation) public onlyOwner{\n    bytes32 position = userWalletImplPosition;\n    assembly {\n      sstore(position, newImplementation)\n    }\n  }\n\n\n  function requestTransfer(address dest, string memory assetName, uint256 amount, bytes memory /*signature*/) public override{\n      uint256 gasBegin = gasleft();\n      address _impl = getUserWalletImplementation();\n      require(_impl != address(0), \"getUserWalletImplementation is 0\");\n\n      bytes memory ptr; \n      uint256 offset; \n      assembly {\n          ptr := mload(0x40)\n          calldatacopy(ptr, 0, calldatasize())\n          let result := delegatecall(gas(), _impl, ptr, calldatasize(), 0, 0)\n          let size := returndatasize()\n          returndatacopy(ptr, 0, size)\n          \n          switch result\n          case 0{\n              \n              if gt (size, 0) {\n\n                offset := add ( ptr, 0x120)\n                mstore(0x40, offset)\n                ptr := add(ptr, 4)\n                let lengthFieldLength := mload(ptr)\n                ptr := add(ptr, lengthFieldLength)\n              }\n          }\n          default{\n            return(ptr, size)\n          }\n      }\n\n      (bool isSuccess, bytes memory data) = _impl.delegatecall(abi.encodeWithSignature(\"getGasFeeWalletAddress()\"));\n      if (!isSuccess){\n        revert('Unable to call getGetFeeWalletAddress');\n      }\n\n      address gasFeeAddress = bytesToAddress(data);\n      address payable gasFeeWallet = payable(gasFeeAddress);\n      uint256 gasUsed = gasBegin - gasleft()  + extraGasFee;\n      gasFeeWallet.transfer(gasUsed * tx.gasprice);\n\n      emit TransferRequestFailed(dest, gasUsed, amount, assetName, ptr);\n      emit GasFeeTransferred(gasFeeWallet, gasUsed * tx.gasprice);\n  }\n\n  function submitWithdraw(address dest, uint256 withdrawAmount, uint256 amountWithFee, string memory assetName, bytes memory /*signature*/) public override{\n      uint256 gasBegin = gasleft();\n      address _impl = getUserWalletImplementation();\n      require(_impl != address(0), \"getUserWalletImplementation is 0\");\n\n      bytes memory ptr; \n      uint256 offset; \n      assembly {\n        ptr := mload(0x40)\n        calldatacopy(ptr, 0, calldatasize())\n        let result := delegatecall(gas(), _impl, ptr, calldatasize(), 0, 0)\n        let size := returndatasize()\n        returndatacopy(ptr, 0, size)\n        \n        switch result\n        case 0{\n            if gt (size, 0) {\n              offset := add(ptr, 0x120)\n              mstore(0x40, offset)\n              ptr := add(ptr, 4)\n              let lengthFieldLength := mload(ptr)\n              ptr := add(ptr, lengthFieldLength)\n            }\n        }\n        default{\n          return(ptr, size)\n        }\n      }\n\n      (bool isSuccess, bytes memory data) = _impl.delegatecall(abi.encodeWithSignature(\"getGasFeeWalletAddress()\"));\n      if (!isSuccess){\n        revert('Unable to call getGetFeeWalletAddress');\n      }\n\n      address gasFeeAddress = bytesToAddress(data);\n      address payable gasFeeWallet = payable(gasFeeAddress);\n      uint256 gasUsed = gasBegin - gasleft()  + extraGasFee;\n      gasFeeWallet.transfer(gasUsed * tx.gasprice);\n\n      emit SubmitWithdrawFailed(dest, gasUsed, withdrawAmount, amountWithFee, assetName, ptr);\n      emit GasFeeTransferred(gasFeeWallet, gasUsed * tx.gasprice);    \n  }\n\n\n  fallback () external payable  {\n    address _impl = getUserWalletImplementation();\n    require(_impl != address(0), \"getUserWalletImplementation is 0\");\n\n    assembly {\n      let ptr := mload(0x40)\n      calldatacopy(ptr, 0, calldatasize())\n      let result := delegatecall(gas(), _impl, ptr, calldatasize(), 0, 0)\n      let size := returndatasize()\n      returndatacopy(ptr, 0, size)\n\n      switch result\n      case 0 { revert(ptr, size) }\n      default { return(ptr, size) }\n    }\n  }\n\n  receive() external payable {\n    if(msg.value>0){\n      emit DepositETH(msg.sender,msg.value);\n    }\n  }\n\n\n  function  bytesToAddress(bytes memory b) private pure returns (address addr){\n      assembly {\n        addr := mload(add(b, 32))\n      }\n  }\n}\n",
  "sourcePath": "/Users/duncanto/Documents/WorkingSet2/src/eurus-backend/smartcontract/contracts/utils/proxy/UserWalletProxy.sol",
  "compiler": {
    "name": "solc",
    "version": "0.6.2+commit.bacdbe57.Emscripten.clang"
  },
  "schemaVersion": "3.4.1",
  "updatedAt": "2021-08-10T10:28:02.181Z",
  "devdoc": {
    "methods": {
      "getUserWalletImplementation()": {
        "details": "Tells the address of the current implementation",
        "returns": {
          "impl": "address of the current implementation"
        }
      },
      "renounceOwnership()": {
        "details": "Leaves the contract without owner. It will not be possible to call `onlyOwner` functions anymore. Can only be called by the current owner.     * NOTE: Renouncing ownership will leave the contract without an owner, thereby removing any functionality that is only available to the owner."
      },
      "setUserWalletImplementation(address)": {
        "details": "Sets the address of the current implementation",
        "params": {
          "newImplementation": "address representing the new implementation to be set"
        }
      }
    }
  },
  "userdoc": {
    "methods": {}
  }
}