{
  "contractName": "UserWallet",
  "abi": [
    {
      "inputs": [],
      "stateMutability": "nonpayable",
      "type": "constructor"
    },
    {
      "anonymous": false,
      "inputs": [
        {
          "indexed": true,
          "internalType": "address",
          "name": "sender",
          "type": "address"
        },
        {
          "indexed": true,
          "internalType": "uint256",
          "name": "transactionId",
          "type": "uint256"
        }
      ],
      "name": "Confirmation",
      "type": "event"
    },
    {
      "anonymous": false,
      "inputs": [
        {
          "indexed": true,
          "internalType": "address",
          "name": "sender",
          "type": "address"
        },
        {
          "indexed": false,
          "internalType": "uint256",
          "name": "value",
          "type": "uint256"
        }
      ],
      "name": "Deposit",
      "type": "event"
    },
    {
      "anonymous": false,
      "inputs": [
        {
          "indexed": false,
          "internalType": "string",
          "name": "",
          "type": "string"
        }
      ],
      "name": "Event",
      "type": "event"
    },
    {
      "anonymous": false,
      "inputs": [
        {
          "indexed": true,
          "internalType": "uint256",
          "name": "transactionId",
          "type": "uint256"
        }
      ],
      "name": "Execution",
      "type": "event"
    },
    {
      "anonymous": false,
      "inputs": [
        {
          "indexed": true,
          "internalType": "uint256",
          "name": "transactionId",
          "type": "uint256"
        }
      ],
      "name": "ExecutionFailure",
      "type": "event"
    },
    {
      "anonymous": false,
      "inputs": [
        {
          "indexed": true,
          "internalType": "address",
          "name": "dest",
          "type": "address"
        },
        {
          "indexed": true,
          "internalType": "uint256",
          "name": "amount",
          "type": "uint256"
        }
      ],
      "name": "GasFeeTransferred",
      "type": "event"
    },
    {
      "anonymous": false,
      "inputs": [
        {
          "indexed": true,
          "internalType": "address",
          "name": "owner",
          "type": "address"
        }
      ],
      "name": "OwnerAdded",
      "type": "event"
    },
    {
      "anonymous": false,
      "inputs": [
        {
          "indexed": true,
          "internalType": "address",
          "name": "owner",
          "type": "address"
        }
      ],
      "name": "OwnerRemoved",
      "type": "event"
    },
    {
      "anonymous": false,
      "inputs": [
        {
          "indexed": true,
          "internalType": "address",
          "name": "previousOwner",
          "type": "address"
        },
        {
          "indexed": true,
          "internalType": "address",
          "name": "newOwner",
          "type": "address"
        }
      ],
      "name": "OwnershipTransferred",
      "type": "event"
    },
    {
      "anonymous": false,
      "inputs": [
        {
          "indexed": true,
          "internalType": "address",
          "name": "reader",
          "type": "address"
        }
      ],
      "name": "ReaderAdded",
      "type": "event"
    },
    {
      "anonymous": false,
      "inputs": [
        {
          "indexed": true,
          "internalType": "address",
          "name": "reader",
          "type": "address"
        }
      ],
      "name": "ReaderRemoved",
      "type": "event"
    },
    {
      "anonymous": false,
      "inputs": [
        {
          "indexed": true,
          "internalType": "address",
          "name": "sender",
          "type": "address"
        },
        {
          "indexed": true,
          "internalType": "uint256",
          "name": "transactionId",
          "type": "uint256"
        }
      ],
      "name": "Rejection",
      "type": "event"
    },
    {
      "anonymous": false,
      "inputs": [
        {
          "indexed": false,
          "internalType": "uint256",
          "name": "required",
          "type": "uint256"
        }
      ],
      "name": "RequirementChange",
      "type": "event"
    },
    {
      "anonymous": false,
      "inputs": [
        {
          "indexed": true,
          "internalType": "address",
          "name": "sender",
          "type": "address"
        },
        {
          "indexed": true,
          "internalType": "uint256",
          "name": "transactionId",
          "type": "uint256"
        }
      ],
      "name": "Revocation",
      "type": "event"
    },
    {
      "anonymous": false,
      "inputs": [
        {
          "indexed": true,
          "internalType": "uint256",
          "name": "transactionId",
          "type": "uint256"
        }
      ],
      "name": "Submission",
      "type": "event"
    },
    {
      "anonymous": false,
      "inputs": [
        {
          "indexed": true,
          "internalType": "uint256",
          "name": "transactionId",
          "type": "uint256"
        },
        {
          "indexed": true,
          "internalType": "address",
          "name": "dest",
          "type": "address"
        },
        {
          "indexed": false,
          "internalType": "string",
          "name": "assetName",
          "type": "string"
        },
        {
          "indexed": true,
          "internalType": "uint256",
          "name": "amount",
          "type": "uint256"
        }
      ],
      "name": "TransferEvent",
      "type": "event"
    },
    {
      "anonymous": false,
      "inputs": [
        {
          "indexed": true,
          "internalType": "uint256",
          "name": "transactionId",
          "type": "uint256"
        },
        {
          "indexed": true,
          "internalType": "address",
          "name": "dest",
          "type": "address"
        },
        {
          "indexed": true,
          "internalType": "uint256",
          "name": "gasUsedByUser",
          "type": "uint256"
        },
        {
          "indexed": false,
          "internalType": "string",
          "name": "assetName",
          "type": "string"
        },
        {
          "indexed": false,
          "internalType": "uint256",
          "name": "amount",
          "type": "uint256"
        }
      ],
      "name": "TransferRequestEvent",
      "type": "event"
    },
    {
      "anonymous": false,
      "inputs": [
        {
          "indexed": true,
          "internalType": "address",
          "name": "dest",
          "type": "address"
        },
        {
          "indexed": true,
          "internalType": "uint256",
          "name": "gasUsedByUser",
          "type": "uint256"
        },
        {
          "indexed": true,
          "internalType": "uint256",
          "name": "withdrawAmount",
          "type": "uint256"
        },
        {
          "indexed": false,
          "internalType": "string",
          "name": "assetName",
          "type": "string"
        },
        {
          "indexed": false,
          "internalType": "uint256",
          "name": "amountWithFee",
          "type": "uint256"
        }
      ],
      "name": "WithdrawRequestEvent",
      "type": "event"
    },
    {
      "anonymous": false,
      "inputs": [
        {
          "indexed": true,
          "internalType": "address",
          "name": "writer",
          "type": "address"
        }
      ],
      "name": "WriterAdded",
      "type": "event"
    },
    {
      "anonymous": false,
      "inputs": [
        {
          "indexed": true,
          "internalType": "address",
          "name": "writer",
          "type": "address"
        }
      ],
      "name": "WriterRemoved",
      "type": "event"
    },
    {
      "inputs": [],
      "name": "MAX_OWNER_COUNT",
      "outputs": [
        {
          "internalType": "uint256",
          "name": "",
          "type": "uint256"
        }
      ],
      "stateMutability": "view",
      "type": "function"
    },
    {
      "inputs": [
        {
          "internalType": "uint256",
          "name": "",
          "type": "uint256"
        }
      ],
      "name": "TranList",
      "outputs": [
        {
          "internalType": "uint256",
          "name": "",
          "type": "uint256"
        }
      ],
      "stateMutability": "view",
      "type": "function"
    },
    {
      "inputs": [
        {
          "internalType": "address",
          "name": "newOwner",
          "type": "address"
        }
      ],
      "name": "addOwner",
      "outputs": [],
      "stateMutability": "nonpayable",
      "type": "function"
    },
    {
      "inputs": [
        {
          "internalType": "address",
          "name": "newReader",
          "type": "address"
        }
      ],
      "name": "addReader",
      "outputs": [],
      "stateMutability": "nonpayable",
      "type": "function"
    },
    {
      "inputs": [
        {
          "internalType": "address",
          "name": "operatorAddr",
          "type": "address"
        }
      ],
      "name": "addWalletOperator",
      "outputs": [],
      "stateMutability": "nonpayable",
      "type": "function"
    },
    {
      "inputs": [
        {
          "internalType": "address",
          "name": "newWriter",
          "type": "address"
        }
      ],
      "name": "addWriter",
      "outputs": [],
      "stateMutability": "nonpayable",
      "type": "function"
    },
    {
      "inputs": [
        {
          "internalType": "uint256",
          "name": "_required",
          "type": "uint256"
        }
      ],
      "name": "changeRequirement",
      "outputs": [],
      "stateMutability": "nonpayable",
      "type": "function"
    },
    {
      "inputs": [
        {
          "internalType": "uint256",
          "name": "transactionId",
          "type": "uint256"
        }
      ],
      "name": "confirmTransaction",
      "outputs": [],
      "stateMutability": "nonpayable",
      "type": "function"
    },
    {
      "inputs": [
        {
          "internalType": "uint256",
          "name": "",
          "type": "uint256"
        },
        {
          "internalType": "address",
          "name": "",
          "type": "address"
        }
      ],
      "name": "confirmations",
      "outputs": [
        {
          "internalType": "bool",
          "name": "",
          "type": "bool"
        }
      ],
      "stateMutability": "view",
      "type": "function"
    },
    {
      "inputs": [
        {
          "internalType": "uint256",
          "name": "transactionId",
          "type": "uint256"
        }
      ],
      "name": "getConfirmationCount",
      "outputs": [
        {
          "internalType": "uint256",
          "name": "count",
          "type": "uint256"
        }
      ],
      "stateMutability": "view",
      "type": "function"
    },
    {
      "inputs": [
        {
          "internalType": "uint256",
          "name": "transactionId",
          "type": "uint256"
        }
      ],
      "name": "getConfirmations",
      "outputs": [
        {
          "internalType": "address[]",
          "name": "_confirmations",
          "type": "address[]"
        }
      ],
      "stateMutability": "view",
      "type": "function"
    },
    {
      "inputs": [],
      "name": "getOwnerCount",
      "outputs": [
        {
          "internalType": "uint256",
          "name": "",
          "type": "uint256"
        }
      ],
      "stateMutability": "view",
      "type": "function"
    },
    {
      "inputs": [],
      "name": "getOwners",
      "outputs": [
        {
          "internalType": "address[]",
          "name": "",
          "type": "address[]"
        }
      ],
      "stateMutability": "view",
      "type": "function"
    },
    {
      "inputs": [],
      "name": "getReaderList",
      "outputs": [
        {
          "internalType": "address[]",
          "name": "",
          "type": "address[]"
        }
      ],
      "stateMutability": "view",
      "type": "function"
    },
    {
      "inputs": [
        {
          "internalType": "bool",
          "name": "pending",
          "type": "bool"
        },
        {
          "internalType": "bool",
          "name": "executed",
          "type": "bool"
        }
      ],
      "name": "getTransactionCount",
      "outputs": [
        {
          "internalType": "uint256",
          "name": "count",
          "type": "uint256"
        }
      ],
      "stateMutability": "view",
      "type": "function"
    },
    {
      "inputs": [
        {
          "internalType": "uint256",
          "name": "from",
          "type": "uint256"
        },
        {
          "internalType": "uint256",
          "name": "to",
          "type": "uint256"
        },
        {
          "internalType": "bool",
          "name": "pending",
          "type": "bool"
        },
        {
          "internalType": "bool",
          "name": "executed",
          "type": "bool"
        }
      ],
      "name": "getTransactionIds",
      "outputs": [
        {
          "internalType": "uint256[]",
          "name": "_transactionIds",
          "type": "uint256[]"
        }
      ],
      "stateMutability": "view",
      "type": "function"
    },
    {
      "inputs": [],
      "name": "getWalletOperatorList",
      "outputs": [
        {
          "internalType": "address[]",
          "name": "",
          "type": "address[]"
        }
      ],
      "stateMutability": "view",
      "type": "function"
    },
    {
      "inputs": [],
      "name": "getWalletOwner",
      "outputs": [
        {
          "internalType": "address",
          "name": "",
          "type": "address"
        }
      ],
      "stateMutability": "view",
      "type": "function"
    },
    {
      "inputs": [],
      "name": "getWriterList",
      "outputs": [
        {
          "internalType": "address[]",
          "name": "",
          "type": "address[]"
        }
      ],
      "stateMutability": "view",
      "type": "function"
    },
    {
      "inputs": [
        {
          "internalType": "uint256",
          "name": "transactionId",
          "type": "uint256"
        }
      ],
      "name": "isConfirmed",
      "outputs": [
        {
          "internalType": "bool",
          "name": "",
          "type": "bool"
        }
      ],
      "stateMutability": "view",
      "type": "function"
    },
    {
      "inputs": [
        {
          "internalType": "address",
          "name": "addr",
          "type": "address"
        }
      ],
      "name": "isOwner",
      "outputs": [
        {
          "internalType": "bool",
          "name": "",
          "type": "bool"
        }
      ],
      "stateMutability": "view",
      "type": "function"
    },
    {
      "inputs": [
        {
          "internalType": "uint256",
          "name": "transId",
          "type": "uint256"
        }
      ],
      "name": "isRejected",
      "outputs": [
        {
          "internalType": "bool",
          "name": "",
          "type": "bool"
        }
      ],
      "stateMutability": "view",
      "type": "function"
    },
    {
      "inputs": [
        {
          "internalType": "address",
          "name": "addr",
          "type": "address"
        }
      ],
      "name": "isWriter",
      "outputs": [
        {
          "internalType": "bool",
          "name": "",
          "type": "bool"
        }
      ],
      "stateMutability": "view",
      "type": "function"
    },
    {
      "inputs": [
        {
          "internalType": "uint256",
          "name": "",
          "type": "uint256"
        },
        {
          "internalType": "string",
          "name": "",
          "type": "string"
        }
      ],
      "name": "miscellaneousData",
      "outputs": [
        {
          "internalType": "string",
          "name": "",
          "type": "string"
        }
      ],
      "stateMutability": "view",
      "type": "function"
    },
    {
      "inputs": [
        {
          "internalType": "uint256",
          "name": "transId",
          "type": "uint256"
        }
      ],
      "name": "rejectTransaction",
      "outputs": [],
      "stateMutability": "nonpayable",
      "type": "function"
    },
    {
      "inputs": [
        {
          "internalType": "address",
          "name": "owner",
          "type": "address"
        }
      ],
      "name": "removeOwner",
      "outputs": [],
      "stateMutability": "nonpayable",
      "type": "function"
    },
    {
      "inputs": [
        {
          "internalType": "address",
          "name": "operatorAddr",
          "type": "address"
        }
      ],
      "name": "removeWalletOperator",
      "outputs": [],
      "stateMutability": "nonpayable",
      "type": "function"
    },
    {
      "inputs": [
        {
          "internalType": "address",
          "name": "existingReader",
          "type": "address"
        }
      ],
      "name": "removerReader",
      "outputs": [],
      "stateMutability": "nonpayable",
      "type": "function"
    },
    {
      "inputs": [
        {
          "internalType": "address",
          "name": "existingWriter",
          "type": "address"
        }
      ],
      "name": "removerWriter",
      "outputs": [],
      "stateMutability": "nonpayable",
      "type": "function"
    },
    {
      "inputs": [],
      "name": "renounceOwnership",
      "outputs": [],
      "stateMutability": "nonpayable",
      "type": "function"
    },
    {
      "inputs": [],
      "name": "required",
      "outputs": [
        {
          "internalType": "uint256",
          "name": "",
          "type": "uint256"
        }
      ],
      "stateMutability": "view",
      "type": "function"
    },
    {
      "inputs": [
        {
          "internalType": "uint256",
          "name": "transactionId",
          "type": "uint256"
        }
      ],
      "name": "revokeConfirmation",
      "outputs": [],
      "stateMutability": "nonpayable",
      "type": "function"
    },
    {
      "inputs": [
        {
          "internalType": "address",
          "name": "addr",
          "type": "address"
        }
      ],
      "name": "setWalletOwner",
      "outputs": [],
      "stateMutability": "nonpayable",
      "type": "function"
    },
    {
      "inputs": [
        {
          "internalType": "address",
          "name": "a",
          "type": "address"
        }
      ],
      "name": "toBytes",
      "outputs": [
        {
          "internalType": "bytes",
          "name": "",
          "type": "bytes"
        }
      ],
      "stateMutability": "pure",
      "type": "function"
    },
    {
      "inputs": [],
      "name": "transactionCount",
      "outputs": [
        {
          "internalType": "uint256",
          "name": "",
          "type": "uint256"
        }
      ],
      "stateMutability": "view",
      "type": "function"
    },
    {
      "inputs": [
        {
          "internalType": "uint256",
          "name": "",
          "type": "uint256"
        }
      ],
      "name": "transactions",
      "outputs": [
        {
          "internalType": "uint256",
          "name": "transId",
          "type": "uint256"
        },
        {
          "internalType": "bool",
          "name": "isDirectInvokeData",
          "type": "bool"
        },
        {
          "internalType": "address",
          "name": "destination",
          "type": "address"
        },
        {
          "internalType": "uint256",
          "name": "value",
          "type": "uint256"
        },
        {
          "internalType": "bytes",
          "name": "data",
          "type": "bytes"
        },
        {
          "internalType": "uint256",
          "name": "timestamp",
          "type": "uint256"
        },
        {
          "internalType": "uint256",
          "name": "blockNumber",
          "type": "uint256"
        },
        {
          "internalType": "bool",
          "name": "executed",
          "type": "bool"
        },
        {
          "internalType": "bool",
          "name": "rejected",
          "type": "bool"
        }
      ],
      "stateMutability": "view",
      "type": "function"
    },
    {
      "inputs": [
        {
          "internalType": "uint256",
          "name": "",
          "type": "uint256"
        }
      ],
      "name": "walletOperatorList",
      "outputs": [
        {
          "internalType": "address",
          "name": "",
          "type": "address"
        }
      ],
      "stateMutability": "view",
      "type": "function"
    },
    {
      "inputs": [],
      "name": "walletOwner",
      "outputs": [
        {
          "internalType": "address",
          "name": "",
          "type": "address"
        }
      ],
      "stateMutability": "view",
      "type": "function"
    },
    {
      "stateMutability": "payable",
      "type": "receive"
    },
    {
      "inputs": [
        {
          "internalType": "address",
          "name": "addr",
          "type": "address"
        }
      ],
      "name": "setInternalSmartContractConfig",
      "outputs": [],
      "stateMutability": "nonpayable",
      "type": "function"
    },
    {
      "inputs": [
        {
          "internalType": "address",
          "name": "dest",
          "type": "address"
        },
        {
          "internalType": "string",
          "name": "assetName",
          "type": "string"
        },
        {
          "internalType": "uint256",
          "name": "amount",
          "type": "uint256"
        }
      ],
      "name": "directRequestTransfer",
      "outputs": [],
      "stateMutability": "nonpayable",
      "type": "function"
    },
    {
      "inputs": [
        {
          "internalType": "address",
          "name": "dest",
          "type": "address"
        },
        {
          "internalType": "string",
          "name": "assetName",
          "type": "string"
        },
        {
          "internalType": "uint256",
          "name": "amount",
          "type": "uint256"
        },
        {
          "internalType": "bytes",
          "name": "signature",
          "type": "bytes"
        }
      ],
      "name": "requestTransfer",
      "outputs": [],
      "stateMutability": "nonpayable",
      "type": "function"
    },
    {
      "inputs": [],
      "name": "getGasFeeWalletAddress",
      "outputs": [
        {
          "internalType": "address",
          "name": "",
          "type": "address"
        }
      ],
      "stateMutability": "view",
      "type": "function"
    },
    {
      "inputs": [
        {
          "internalType": "bytes32",
          "name": "hash",
          "type": "bytes32"
        },
        {
          "internalType": "bytes",
          "name": "signature",
          "type": "bytes"
        }
      ],
      "name": "verifySignature",
      "outputs": [
        {
          "internalType": "address",
          "name": "",
          "type": "address"
        }
      ],
      "stateMutability": "pure",
      "type": "function"
    },
    {
      "inputs": [
        {
          "internalType": "address",
          "name": "dest",
          "type": "address"
        },
        {
          "internalType": "uint256",
          "name": "withdrawAmount",
          "type": "uint256"
        },
        {
          "internalType": "uint256",
          "name": "amountWithFee",
          "type": "uint256"
        },
        {
          "internalType": "string",
          "name": "assetName",
          "type": "string"
        }
      ],
      "name": "directSubmitWithdraw",
      "outputs": [],
      "stateMutability": "nonpayable",
      "type": "function"
    },
    {
      "inputs": [
        {
          "internalType": "address",
          "name": "dest",
          "type": "address"
        },
        {
          "internalType": "uint256",
          "name": "withdrawAmount",
          "type": "uint256"
        },
        {
          "internalType": "uint256",
          "name": "amountWithFee",
          "type": "uint256"
        },
        {
          "internalType": "string",
          "name": "assetName",
          "type": "string"
        },
        {
          "internalType": "bytes",
          "name": "signature",
          "type": "bytes"
        }
      ],
      "name": "submitWithdraw",
      "outputs": [],
      "stateMutability": "nonpayable",
      "type": "function"
    }
  ],
  "bytecode": "0x60806040523480156200001157600080fd5b5060026000620000296001600160e01b03620000ce16565b6001600160a01b0381166000818152600160208190526040808320805460ff191683179055825491820183558280527f290decd9548b62a8d60345a988386fc84ba6bc95484008f6362f93160ef3e56390910180546001600160a01b031916841790555192935090917f8be0079c531659141344cd1fd0a4f28419497f9722a3daafe3b4186f6b6457e0908290a3508080620000c457600080fd5b50600955620000d2565b3390565b61450e80620000e26000396000f3fe6080604052600436106102765760003560e01c806385aaed4e1161014f578063c01a8c84116100c1578063daca6f781161007a578063daca6f78146107a8578063dc8452cd146107c8578063ddc6f5f6146107dd578063ef18374a146107fd578063faff734614610812578063fba8b1e314610832576102c5565b8063c01a8c84146106f3578063c634e4e514610713578063ca2760f414610733578063d3daff2414610753578063d74f8edd14610773578063da2824a814610788576102c5565b8063a8abe69a11610113578063a8abe69a14610631578063afd8b1d11461065e578063b5dc40c31461067e578063b77bf6001461069e578063ba51a6df146106b3578063bb7d9fa6146106d3576102c5565b806385aaed4e1461059d5780638b51d13f146105b25780639ace38c2146105d2578063a01013f814610607578063a0e67e2b1461061c576102c5565b80633c4cd911116101e85780637065cb48116101ac5780637065cb48146104f3578063715018a614610513578063755765ab14610528578063784547a71461053d5780638145d1261461055d57806384d2c05c1461057d576102c5565b80633c4cd911146104515780635474152514610471578063593b79fe1461049e5780635ce4e93d146104be578063685725f3146104de576102c5565b80631e556d901161023a5780631e556d901461038f57806320ea8d86146103af5780632b29ba23146103cf5780632f54bf6e146103ef5780633411c81c1461040f5780633a1abfe71461042f576102c5565b806305bf37aa146102ca578063098f076e146102ea578063173825d9146103205780631ae879e8146103405780631c95b98c14610362576102c5565b366102c55734156102c357336001600160a01b03167fe1fffcc4923d04b559f4d29a8bfc6cda04eb5b0d3c460751c2402c5c5cc9109c346040516102ba919061441a565b60405180910390a25b005b600080fd5b3480156102d657600080fd5b506102c36102e5366004613b87565b610852565b3480156102f657600080fd5b5061030a610305366004613b87565b6109ab565b6040516103179190613db4565b60405180910390f35b34801561032c57600080fd5b506102c361033b3660046138ff565b6109cc565b34801561034c57600080fd5b50610355610b75565b6040516103179190613c80565b34801561036e57600080fd5b5061038261037d366004613b42565b610b84565b6040516103179190613ddd565b34801561039b57600080fd5b506102c36103aa3660046138ff565b610c36565b3480156103bb57600080fd5b506102c36103ca366004613b87565b610de8565b3480156103db57600080fd5b5061030a6103ea3660046138ff565b610f2c565b3480156103fb57600080fd5b5061030a61040a3660046138ff565b610f4a565b34801561041b57600080fd5b5061030a61042a366004613b9f565b610f68565b34801561043b57600080fd5b50610444610f88565b6040516103179190613d2f565b34801561045d57600080fd5b506102c361046c366004613995565b610feb565b34801561047d57600080fd5b5061049161048c366004613b0a565b6114e7565b604051610317919061441a565b3480156104aa57600080fd5b506103826104b93660046138ff565b611555565b3480156104ca57600080fd5b506102c36104d93660046138ff565b61157e565b3480156104ea57600080fd5b50610355611673565b3480156104ff57600080fd5b506102c361050e3660046138ff565b6116f5565b34801561051f57600080fd5b506102c3611812565b34801561053457600080fd5b50610355611970565b34801561054957600080fd5b5061030a610558366004613b87565b61197f565b34801561056957600080fd5b506102c36105783660046138ff565b611a08565b34801561058957600080fd5b506102c3610598366004613a12565b611bc7565b3480156105a957600080fd5b50610444611d8a565b3480156105be57600080fd5b506104916105cd366004613b87565b611dea565b3480156105de57600080fd5b506105f26105ed366004613b87565b611e59565b60405161031799989796959493929190614423565b34801561061357600080fd5b50610444611f40565b34801561062857600080fd5b50610444611fa0565b34801561063d57600080fd5b5061065161064c366004613bc3565b612000565b6040516103179190613d7c565b34801561066a57600080fd5b506102c36106793660046138ff565b61212d565b34801561068a57600080fd5b50610444610699366004613b87565b612243565b3480156106aa57600080fd5b506104916123ba565b3480156106bf57600080fd5b506102c36106ce366004613b87565b6123c0565b3480156106df57600080fd5b506102c36106ee3660046138ff565b61245a565b3480156106ff57600080fd5b506102c361070e366004613b87565b6124ca565b34801561071f57600080fd5b506102c361072e36600461393e565b612624565b34801561073f57600080fd5b506102c361074e3660046138ff565b612902565b34801561075f57600080fd5b5061049161076e366004613b87565b6129ff565b34801561077f57600080fd5b50610491612a1d565b34801561079457600080fd5b506102c36107a33660046138ff565b612a22565b3480156107b457600080fd5b506103556107c3366004613b42565b612b38565b3480156107d457600080fd5b50610491612b4d565b3480156107e957600080fd5b506102c36107f83660046138ff565b612b53565b34801561080957600080fd5b50610491612d12565b34801561081e57600080fd5b506102c361082d366004613a67565b612d18565b34801561083e57600080fd5b5061035561084d366004613b87565b6130bf565b336000908152600d602052604090205460ff1615156001148061087f5750600b546001600160a01b031633145b6108a45760405162461bcd60e51b815260040161089b90613e41565b60405180910390fd5b600081815260066020526040902060010154819061010090046001600160a01b03166108e25760405162461bcd60e51b815260040161089b90614189565b60008281526007602090815260408083203380855292529091205483919060ff16156109205760405162461bcd60e51b815260040161089b90614139565b600084815260066020819052604090912001548490610100900460ff161561095a5760405162461bcd60e51b815260040161089b906143a4565b6000858152600660208190526040808320909101805461ff00191661010017905551869133917f310fda14a1b3763badba87b2ca73948d00cc14d8fa2d6ee19a67ac90fa9afa679190a35050505050565b60008181526006602081905260409091200154610100900460ff165b919050565b60006109d66130e6565b6001600160a01b03811660009081526001602081905260409091205491925060ff909116151514610a195760405162461bcd60e51b815260040161089b90613f7e565b6001600160a01b038216600090815260016020526040902054829060ff16610a4057600080fd5b6001600160a01b0383166000908152600160205260408120805460ff191690558054905b81811015610b0d57846001600160a01b031660008281548110610a8357fe5b6000918252602090912001546001600160a01b03161415610b055760006001830381548110610aae57fe5b600091825260208220015481546001600160a01b03909116919083908110610ad257fe5b9060005260206000200160006101000a8154816001600160a01b0302191690836001600160a01b03160217905550610b0d565b600101610a64565b506000805480610b1957fe5b600082815260208120820160001990810180546001600160a01b03191690559091019091556040516001600160a01b038616917f58619076adf5bb0943d100ef88d52d7c3fd691b19d3a9071b555b651fbf418da91a250505050565b600b546001600160a01b031681565b60086020908152600092835260409283902082518084018301805192815290830193830193909320925281548351601f6002600019610100600186161502019093169290920491820183900483028101830190945280845290830182828015610c2e5780601f10610c0357610100808354040283529160200191610c2e565b820191906000526020600020905b815481529060010190602001808311610c1157829003601f168201915b505050505081565b6000610c406130e6565b6001600160a01b03811660009081526001602081905260409091205491925060ff909116151514610c835760405162461bcd60e51b815260040161089b90613f7e565b600b5482906001600160a01b0380831691161415610cb35760405162461bcd60e51b815260040161089b906142af565b600b546001600160a01b0384811691161415610ce15760405162461bcd60e51b815260040161089b9061407f565b6001600160a01b0383166000908152600d60205260408120805460ff19169055600c54905b60018203811015610db457846001600160a01b0316600c8281548110610d2857fe5b6000918252602090912001546001600160a01b03161415610dac57600c6001830381548110610d5357fe5b600091825260209091200154600c80546001600160a01b039092169183908110610d7957fe5b9060005260206000200160006101000a8154816001600160a01b0302191690836001600160a01b03160217905550610db4565b600101610d06565b50600c805480610dc057fe5b600082815260209020810160001990810180546001600160a01b031916905501905550505050565b336000908152600d602052604090205460ff16151560011480610e155750600b546001600160a01b031633145b610e315760405162461bcd60e51b815260040161089b90613e41565b60008181526007602090815260408083203380855292529091205482919060ff16610e6e5760405162461bcd60e51b815260040161089b90613fc5565b60008381526006602081905260409091200154839060ff1615610ea35760405162461bcd60e51b815260040161089b906140ed565b600084815260066020819052604090912001548490610100900460ff1615610edd5760405162461bcd60e51b815260040161089b906143a4565b6000858152600760209081526040808320338085529252808320805460ff191690555187927ff6a317157440607f36269043eb55f1287a5a19ba2216afeab88cd46cbcfb88e991a35050505050565b6001600160a01b031660009081526005602052604090205460ff1690565b6001600160a01b031660009081526001602052604090205460ff1690565b600760209081526000928352604080842090915290825290205460ff1681565b60606004805480602002602001604051908101604052809291908181526020018280548015610fe057602002820191906000526020600020905b81546001600160a01b03168152600190910190602001808311610fc2575b505050505090505b90565b610ff36130e6565b6001600160a01b03811660009081526005602052604090205460ff1661102b5760405162461bcd60e51b815260040161089b90614356565b60005a9050600086868660405160200161104793929190613c94565b604051602081830303815290604052805190602001209050600061106b8286612b38565b600b549091506001600160a01b0380831691161461109b5760405162461bcd60e51b815260040161089b906141ce565b60405160009081906110b1908a90602001613c55565b604051602081830303815290604052805190602001206040516020016110d690613c71565b6040516020818303038152906040528051906020012014156110f6575060015b8061117e57600f546040516303d0a60f60e41b81526001600160a01b0390911690633d0a60f09061112b908c90600401613ddd565b60206040518083038186803b15801561114357600080fd5b505afa158015611157573d6000803e3d6000fd5b505050506040513d601f19601f8201168201806040525061117b9190810190613922565b91505b6000806001600160a01b0384161515806111955750825b156113d6576111b48c8b604051806020016040528060008152506130ea565b6000818152600660209081526040808320600101805460ff19169055600882529182902082518084018452600981526861737365744e616d6560b81b9281019290925291519293508d926112089190613c55565b908152602001604051809103902090805190602001906112299291906137e9565b508b60405160200161123b9190613c80565b60408051601f19818403018152600084815260086020908152908390208484018452600b85526a646573744164647265737360a81b918501919091529151909261128491613c55565b908152602001604051809103902090805190602001906112a59291906137e9565b506000818152600760209081526040808320600b80546001600160a01b03908116865291909352818420805460ff1916600117905591549051849391909216917f4a504a94899432a9846e1aa406dceb1bcfd538bb839071d49d1e5e23f5be30ef9190a36009546001141561131d5761131d81613245565b600e80546001810182556000919091527fbb7b4a454dc3493923482f07822329ed19e8244eff582cc204f8554c3620c3fd01819055600f546040805163685725f360e01b815290516001600160a01b039092169163685725f391600480820192602092909190829003018186803b15801561139757600080fd5b505afa1580156113ab573d6000803e3d6000fd5b505050506040513d601f19601f820116820180604052506113cf9190810190613922565b91506113ee565b60405162461bcd60e51b815260040161089b90614205565b6001600160a01b0382166114145760405162461bcd60e51b815260040161089b9061422d565b600061bf685a8903019050826001600160a01b03166108fc3a83029081150290604051600060405180830381858888f1935050505015801561145a573d6000803e3d6000fd5b50808d6001600160a01b0316837f335cc60a31a8f4e368f216e6efcb562f8de68466f62bde092c9aa3058b3000908f8f604051611498929190613df0565b60405180910390a46040513a8202906001600160a01b038516907f323fab21f63d1813263c3a9f07cfcfe67f4ef880e3e1eb2ae0b0de9babf626e390600090a350505050505050505050505050565b6000805b600a5481101561154e5783801561151557506000818152600660208190526040909120015460ff16155b8061153a575082801561153a57506000818152600660208190526040909120015460ff165b15611546576001820191505b6001016114eb565b5092915050565b6060816040516020016115689190613c38565b6040516020818303038152906040529050919050565b60006115886130e6565b6001600160a01b03811660009081526001602081905260409091205491925060ff9091161515146115cb5760405162461bcd60e51b815260040161089b90613f7e565b6001600160a01b0382166000908152600d6020526040902054829060ff1615156001141561160b5760405162461bcd60e51b815260040161089b90614264565b50506001600160a01b03166000818152600d60205260408120805460ff19166001908117909155600c805491820181559091527fdf6966c971051c3d54ec59162606531493a51404a002842f56009d7e5cf4a8c70180546001600160a01b0319169091179055565b600f546040805163685725f360e01b815290516000926001600160a01b03169163685725f3916004808301926020929190829003018186803b1580156116b857600080fd5b505afa1580156116cc573d6000803e3d6000fd5b505050506040513d601f19601f820116820180604052506116f09190810190613922565b905090565b60006116ff6130e6565b6001600160a01b03811660009081526001602081905260409091205491925060ff9091161515146117425760405162461bcd60e51b815260040161089b90613f7e565b6001600160a01b038216600090815260016020819052604090912054839160ff909116151514156117855760405162461bcd60e51b815260040161089b906142f5565b6001600160a01b0383166000818152600160208190526040808320805460ff191683179055825491820183558280527f290decd9548b62a8d60345a988386fc84ba6bc95484008f6362f93160ef3e56390910180546001600160a01b03191684179055517f994a936646fe87ffe4f1e469d3d6aa417d6b855598397f323de5b449f765f0c39190a2505050565b600061181c6130e6565b6001600160a01b03811660009081526001602081905260409091205491925060ff90911615151461185f5760405162461bcd60e51b815260040161089b90613f7e565b60006118696130e6565b6001600160a01b0381166000908152600160205260408120805460ff191690559091505b6000546000190181101561193e57816001600160a01b0316600082815481106118b257fe5b6000918252602090912001546001600160a01b03161415611936576000805460001981019081106118df57fe5b600091825260208220015481546001600160a01b0390911691908390811061190357fe5b9060005260206000200160006101000a8154816001600160a01b0302191690836001600160a01b0316021790555061193e565b60010161188d565b50600080548061194a57fe5b600082815260209020810160001990810180546001600160a01b03191690550190555050565b600b546001600160a01b031690565b600080805b600c548110156119fe576000848152600760205260408120600c8054919291849081106119ad57fe5b60009182526020808320909101546001600160a01b0316835282019290925260400190205460ff16156119e1576001820191505b6009548214156119f6576001925050506109c7565b600101611984565b5060009392505050565b6000611a126130e6565b6001600160a01b03811660009081526001602081905260409091205491925060ff909116151514611a555760405162461bcd60e51b815260040161089b90613f7e565b6001600160a01b038216600090815260056020526040902054829060ff16611a8f5760405162461bcd60e51b815260040161089b9061432c565b6001600160a01b0383166000908152600560205260408120805460ff19169055600454905b81811015611b5f57846001600160a01b031660048281548110611ad357fe5b6000918252602090912001546001600160a01b03161415611b575760046001830381548110611afe57fe5b600091825260209091200154600480546001600160a01b039092169183908110611b2457fe5b9060005260206000200160006101000a8154816001600160a01b0302191690836001600160a01b03160217905550611b5f565b600101611ab4565b506004805480611b6b57fe5b600082815260208120820160001990810180546001600160a01b03191690559091019091556040516001600160a01b038616917f86e5bbceda94081c32220d685f37cc4e3ea7bb0be2dfbf0cb703579505a5390e91a250505050565b336000908152600d602052604090205460ff16151560011480611bf45750600b546001600160a01b031633145b611c105760405162461bcd60e51b815260040161089b90613e41565b80604051602001611c219190613c55565b60405160208183030381529060405280519060200120604051602001611c4690613c71565b604051602081830303815290604052805190602001201415611c7a5760405162461bcd60e51b815260040161089b90613e9e565b600f546040516303d0a60f60e41b81526000916001600160a01b031690633d0a60f090611cab908590600401613ddd565b60206040518083038186803b158015611cc357600080fd5b505afa158015611cd7573d6000803e3d6000fd5b505050506040513d601f19601f82011682018060405250611cfb9190810190613922565b90506001600160a01b038116611d235760405162461bcd60e51b815260040161089b9061437b565b6040516280df7560e01b81526001600160a01b038216906280df7590611d5190889088908890600401613ce1565b600060405180830381600087803b158015611d6b57600080fd5b505af1158015611d7f573d6000803e3d6000fd5b505050505050505050565b60606002805480602002602001604051908101604052809291908181526020018280548015610fe0576020028201919060005260206000209081546001600160a01b03168152600190910190602001808311610fc2575050505050905090565b6000805b600c54811015611e53576000838152600760205260408120600c805491929184908110611e1757fe5b60009182526020808320909101546001600160a01b0316835282019290925260400190205460ff1615611e4b576001820191505b600101611dee565b50919050565b600660209081526000918252604091829020805460018083015460028085015460038601805489516101009682161587026000190190911693909304601f8101899004890284018901909952888352949760ff841697949093046001600160a01b0316959094909391929091830182828015611f165780601f10611eeb57610100808354040283529160200191611f16565b820191906000526020600020905b815481529060010190602001808311611ef957829003601f168201915b50505050600483015460058401546006909401549293909290915060ff8082169161010090041689565b6060600c805480602002602001604051908101604052809291908181526020018280548015610fe0576020028201919060005260206000209081546001600160a01b03168152600190910190602001808311610fc2575050505050905090565b60606000805480602002602001604051908101604052809291908181526020018280548015610fe0576020028201919060005260206000209081546001600160a01b03168152600190910190602001808311610fc2575050505050905090565b606080600a5460405190808252806020026020018201604052801561202f578160200160208202803883390190505b5090506000805b600a548110156120b25785801561206057506000818152600660208190526040909120015460ff16155b80612085575084801561208557506000818152600660208190526040909120015460ff165b156120aa578083838151811061209757fe5b6020026020010181815250506001820191505b600101612036565b8787036040519080825280602002602001820160405280156120de578160200160208202803883390190505b5093508790505b86811015612122578281815181106120f957fe5b6020026020010151848983038151811061210f57fe5b60209081029190910101526001016120e5565b505050949350505050565b60006121376130e6565b6001600160a01b03811660009081526001602081905260409091205491925060ff90911615151461217a5760405162461bcd60e51b815260040161089b90613f7e565b6001600160a01b038216600090815260036020526040902054829060ff16156121b55760405162461bcd60e51b815260040161089b90613e12565b6001600160a01b038316600081815260036020526040808220805460ff1916600190811790915560028054918201815583527f405787fa12a823e0f2b7631cc41b3ba8828b3321ca811111fa75cd3aa3bb5ace0180546001600160a01b03191684179055517fb7724d890d2888af5a3fc456edb667e2c82c4441449ebcac301c618759e4f86d9190a2505050565b606080600c80549050604051908082528060200260200182016040528015612275578160200160208202803883390190505b5090506000805b600c54811015612338576000858152600760205260408120600c8054919291849081106122a557fe5b60009182526020808320909101546001600160a01b0316835282019290925260400190205460ff161561233057600c81815481106122df57fe5b9060005260206000200160009054906101000a90046001600160a01b031683838151811061230957fe5b60200260200101906001600160a01b031690816001600160a01b0316815250506001820191505b60010161227c565b81604051908082528060200260200182016040528015612362578160200160208202803883390190505b509350600090505b818110156123b25782818151811061237e57fe5b602002602001015184828151811061239257fe5b6001600160a01b039092166020928302919091019091015260010161236a565b505050919050565b600a5481565b60006123ca6130e6565b6001600160a01b03811660009081526001602081905260409091205491925060ff90911615151461240d5760405162461bcd60e51b815260040161089b90613f7e565b818061241857600080fd5b60098390556040517fa3f1ee9126a074d9326c682f561767f710e927faa811f7a99829d49dc421797a9061244d90859061441a565b60405180910390a1505050565b60006124646130e6565b6001600160a01b03811660009081526001602081905260409091205491925060ff9091161515146124a75760405162461bcd60e51b815260040161089b90613f7e565b50600f80546001600160a01b0319166001600160a01b0392909216919091179055565b336000908152600d602052604090205460ff161515600114806124f75750600b546001600160a01b031633145b6125135760405162461bcd60e51b815260040161089b90613e41565b600081815260066020526040902060010154819061010090046001600160a01b03166125515760405162461bcd60e51b815260040161089b90614189565b60008281526007602090815260408083203380855292529091205483919060ff161561258f5760405162461bcd60e51b815260040161089b90614139565b600084815260066020819052604090912001548490610100900460ff16156125c95760405162461bcd60e51b815260040161089b906143a4565b6000858152600760209081526040808320338085529252808320805460ff191660011790555187927f4a504a94899432a9846e1aa406dceb1bcfd538bb839071d49d1e5e23f5be30ef91a361261d85613245565b5050505050565b61262c6130e6565b600b546001600160a01b038281169116146126595760405162461bcd60e51b815260040161089b90613ed5565b60005a905060008060009050856040516020016126769190613c55565b6040516020818303038152906040528051906020012060405160200161269b90613c71565b6040516020818303038152906040528051906020012014156126bb575060015b8061274357600f546040516303d0a60f60e41b81526001600160a01b0390911690633d0a60f0906126f0908990600401613ddd565b60206040518083038186803b15801561270857600080fd5b505afa15801561271c573d6000803e3d6000fd5b505050506040513d601f19601f820116820180604052506127409190810190613922565b91505b6001600160a01b0382161515806127575750805b156113d65760006127788887604051806020016040528060008152506130ea565b6000818152600660209081526040808320600101805460ff19169055600882529182902082518084018452600981526861737365744e616d6560b81b92810192909252915192935089926127cc9190613c55565b908152602001604051809103902090805190602001906127ed9291906137e9565b50876040516020016127ff9190613c80565b60408051601f19818403018152600084815260086020908152908390208484018452600b85526a646573744164647265737360a81b918501919091529151909261284891613c55565b908152602001604051809103902090805190602001906128699291906137e9565b50612873816134b2565b600e805460018101825560009182527fbb7b4a454dc3493923482f07822329ed19e8244eff582cc204f8554c3620c3fd018290555a905060008582039050808a6001600160a01b0316847f335cc60a31a8f4e368f216e6efcb562f8de68466f62bde092c9aa3058b3000908c8c6040516128ee929190613df0565b60405180910390a450505050505050505050565b600061290c6130e6565b6001600160a01b03811660009081526001602081905260409091205491925060ff90911615151461294f5760405162461bcd60e51b815260040161089b90613f7e565b600b80546001600160a01b0319166001600160a01b038481169190911791829055166000908152600d602052604090205460ff166129fb57600b80546001600160a01b039081166000908152600d60205260408120805460ff191660019081179091559254600c805494850181559091527fdf6966c971051c3d54ec59162606531493a51404a002842f56009d7e5cf4a8c790920180546001600160a01b031916929091169190911790555b5050565b600e8181548110612a0c57fe5b600091825260209091200154905081565b603281565b6000612a2c6130e6565b6001600160a01b03811660009081526001602081905260409091205491925060ff909116151514612a6f5760405162461bcd60e51b815260040161089b90613f7e565b6001600160a01b038216600090815260056020526040902054829060ff1615612aaa5760405162461bcd60e51b815260040161089b90613f1f565b6001600160a01b038316600081815260056020526040808220805460ff1916600190811790915560048054918201815583527f8a35acfbc15ff81a39ae7d344fd709f28e8600b4aa8c65c6b64bfe7fe36bd19b0180546001600160a01b03191684179055517f6ff3aa2ea7b53070f6d9d07a445d338d89e8edef44250ffa8be19f53910d4a2e9190a2505050565b600080612b458484613514565b949350505050565b60095481565b6000612b5d6130e6565b6001600160a01b03811660009081526001602081905260409091205491925060ff909116151514612ba05760405162461bcd60e51b815260040161089b90613f7e565b6001600160a01b038216600090815260036020526040902054829060ff16612bda5760405162461bcd60e51b815260040161089b906143f0565b6001600160a01b0383166000908152600360205260408120805460ff19169055600254905b81811015612caa57846001600160a01b031660028281548110612c1e57fe5b6000918252602090912001546001600160a01b03161415612ca25760026001830381548110612c4957fe5b600091825260209091200154600280546001600160a01b039092169183908110612c6f57fe5b9060005260206000200160006101000a8154816001600160a01b0302191690836001600160a01b03160217905550612caa565b600101612bff565b506002805480612cb657fe5b600082815260208120820160001990810180546001600160a01b03191690559091019091556040516001600160a01b038616917fe933431644458f1217f9e93d3e000e03c9bbbe55761046d0985c2e4d157bcbaa91a250505050565b60005490565b612d206130e6565b6001600160a01b03811660009081526005602052604090205460ff16612d585760405162461bcd60e51b815260040161089b90614356565b60005a905083604051602001612d6e9190613c55565b60405160208183030381529060405280519060200120604051602001612d9390613c71565b604051602081830303815290604052805190602001201415612dc75760405162461bcd60e51b815260040161089b90613e9e565b600087878787604051602001612de09493929190613d02565b6040516020818303038152906040528051906020012090506000612e048286612b38565b600b549091506001600160a01b03808316911614612e345760405162461bcd60e51b815260040161089b906141ce565b600f546040516303d0a60f60e41b81526000916001600160a01b031690633d0a60f090612e65908a90600401613ddd565b60206040518083038186803b158015612e7d57600080fd5b505afa158015612e91573d6000803e3d6000fd5b505050506040513d601f19601f82011682018060405250612eb59190810190613922565b90506001600160a01b038116612edd5760405162461bcd60e51b815260040161089b9061437b565b6040516280df7560e01b81526001600160a01b038216906280df7590612f0b908d908d908d90600401613ce1565b600060405180830381600087803b158015612f2557600080fd5b505af1158015612f39573d6000803e3d6000fd5b505050506000600f60009054906101000a90046001600160a01b03166001600160a01b031663685725f36040518163ffffffff1660e01b815260040160206040518083038186803b158015612f8d57600080fd5b505afa158015612fa1573d6000803e3d6000fd5b505050506040513d601f19601f82011682018060405250612fc59190810190613922565b90506001600160a01b038116612fed5760405162461bcd60e51b815260040161089b9061422d565b600061bf685a8703019050816001600160a01b03166108fc3a83029081150290604051600060405180830381858888f19350505050158015613033573d6000803e3d6000fd5b508a818d6001600160a01b03167f99dcfb8a132f0b0779b027d01c1b897dfc1fd01dce70b1a598bbcb1b703c190c8c8e604051613071929190613df0565b60405180910390a46040513a8202906001600160a01b038416907f323fab21f63d1813263c3a9f07cfcfe67f4ef880e3e1eb2ae0b0de9babf626e390600090a3505050505050505050505050565b600c81815481106130cc57fe5b6000918252602090912001546001600160a01b0316905081565b3390565b6000836001600160a01b0381166131135760405162461bcd60e51b815260040161089b90614048565b600a546040805161012081018252828152600160208083018281526001600160a01b038b8116858701908152606086018c8152608087018c81524260a08901524360c0890152600060e08901819052610100808a018290528b8252600688529990208851815594519685018054935160ff199490941697151597909717610100600160a81b0319169290931690970217909355935160028501559051805194965091936131c692600385019201906137e9565b5060a0820151600482015560c0820151600582015560e0820151600690910180546101009384015160ff199091169215159290921761ff001916911515909202179055600a8054600101905560405182907fc0ba8fe4b176c1714197d43b9cc6bcf797a4a7461c5fe8d0ef6e184ae7601e5190600090a2509392505050565b60008181526007602090815260408083203380855292529091205482919060ff166132825760405162461bcd60e51b815260040161089b90613fc5565b60008381526006602081905260409091209081015460ff16156132b75760405162461bcd60e51b815260040161089b906140b6565b6132c08461197f565b156134ac5760068101805460ff1916600117905560008481526008602090815260409182902082518084018452600981526861737365744e616d6560b81b9281019290925291516060929161331491613c55565b9081526040805160209281900383018120805460026001821615610100026000190190911604601f810185900485028301850190935282825290929091908301828280156133a35780601f10613378576101008083540402835291602001916133a3565b820191906000526020600020905b81548152906001019060200180831161338657829003601f168201915b505050505090506000600860008781526020019081526020016000206040518060400160405280600b81526020016a646573744164647265737360a81b8152506040516133f09190613c55565b9081526040805160209281900383018120805460026001821615610100026000190190911604601f8101859004850283018501909352828252909290919083018282801561347f5780601f106134545761010080835404028352916020019161347f565b820191906000526020600020905b81548152906001019060200180831161346257829003601f168201915b50505050508060200190516134979190810190613922565b90506134a9868284866002015461359d565b50505b50505050565b6000818152600760209081526040808320338085529252808320805460ff191660011790555183927f4a504a94899432a9846e1aa406dceb1bcfd538bb839071d49d1e5e23f5be30ef91a3600954600114156135115761351181613245565b50565b600081516041146135375760405162461bcd60e51b815260040161089b90613f4e565b60208201516040830151606084015160001a601b81101561355657601b015b8060ff16601b148061356b57508060ff16601c145b6135875760405162461bcd60e51b815260040161089b90614011565b6135938682858561378c565b9695505050505050565b816040516020016135ae9190613c55565b604051602081830303815290604052805190602001206040516020016135d390613c71565b60405160208183030381529060405280519060200120141561362b576040516001600160a01b0384169082156108fc029083906000818181858888f19350505050158015613625573d6000803e3d6000fd5b50613743565b600f546040516303d0a60f60e41b81526000916001600160a01b031690633d0a60f09061365c908690600401613ddd565b60206040518083038186803b15801561367457600080fd5b505afa158015613688573d6000803e3d6000fd5b505050506040513d601f19601f820116820180604052506136ac9190810190613922565b90506001600160a01b038116156113d65760405163a9059cbb60e01b815281906001600160a01b0382169063a9059cbb906136ed9088908790600401613cc8565b602060405180830381600087803b15801561370757600080fd5b505af115801561371b573d6000803e3d6000fd5b505050506040513d601f19601f8201168201806040525061373f9190810190613aee565b5050505b80836001600160a01b0316857fa61543263dcff15bea504d1fb6366924a1f7bbbc3aa506602578e84cb3b5cbc38560405161377e9190613ddd565b60405180910390a450505050565b600080600186868686604051600081526020016040526040516137b29493929190613dbf565b6020604051602081039080840390855afa1580156137d4573d6000803e3d6000fd5b5050604051601f190151979650505050505050565b828054600181600116156101000203166002900490600052602060002090601f016020900481019282601f1061382a57805160ff1916838001178555613857565b82800160010185558215613857579182015b8281111561385757825182559160200191906001019061383c565b50613863929150613867565b5090565b610fe891905b80821115613863576000815560010161386d565b600082601f830112613891578081fd5b813567ffffffffffffffff808211156138a8578283fd5b604051601f8301601f1916810160200182811182821017156138c8578485fd5b6040528281529250828483016020018610156138e357600080fd5b8260208601602083013760006020848301015250505092915050565b600060208284031215613910578081fd5b813561391b816144b5565b9392505050565b600060208284031215613933578081fd5b815161391b816144b5565b600080600060608486031215613952578182fd5b833561395d816144b5565b9250602084013567ffffffffffffffff811115613978578283fd5b61398486828701613881565b925050604084013590509250925092565b600080600080608085870312156139aa578081fd5b84356139b5816144b5565b9350602085013567ffffffffffffffff808211156139d1578283fd5b6139dd88838901613881565b94506040870135935060608701359150808211156139f9578283fd5b50613a0687828801613881565b91505092959194509250565b60008060008060808587031215613a27578384fd5b8435613a32816144b5565b93506020850135925060408501359150606085013567ffffffffffffffff811115613a5b578182fd5b613a0687828801613881565b600080600080600060a08688031215613a7e578081fd5b8535613a89816144b5565b94506020860135935060408601359250606086013567ffffffffffffffff80821115613ab3578283fd5b613abf89838a01613881565b93506080880135915080821115613ad4578283fd5b50613ae188828901613881565b9150509295509295909350565b600060208284031215613aff578081fd5b815161391b816144ca565b60008060408385031215613b1c578182fd5b8235613b27816144ca565b91506020830135613b37816144ca565b809150509250929050565b60008060408385031215613b54578182fd5b82359150602083013567ffffffffffffffff811115613b71578182fd5b613b7d85828601613881565b9150509250929050565b600060208284031215613b98578081fd5b5035919050565b60008060408385031215613bb1578182fd5b823591506020830135613b37816144b5565b60008060008060808587031215613bd8578182fd5b84359350602085013592506040850135613bf1816144ca565b91506060850135613c01816144ca565b939692955090935050565b60008151808452613c24816020860160208601614489565b601f01601f19169290920160200192915050565b60609190911b6bffffffffffffffffffffffff1916815260140190565b60008251613c67818460208701614489565b9190910192915050565b6222aaa760e91b815260030190565b6001600160a01b0391909116815260200190565b6001600160a01b0384168152606060208201819052600090613cb890830185613c0c565b9050826040830152949350505050565b6001600160a01b03929092168252602082015260400190565b6001600160a01b039390931683526020830191909152604082015260600190565b600060018060a01b0386168252846020830152836040830152608060608301526135936080830184613c0c565b6020808252825182820181905260009190848201906040850190845b81811015613d705783516001600160a01b031683529284019291840191600101613d4b565b50909695505050505050565b6020808252825182820181905260009190848201906040850190845b81811015613d7057835183529284019291840191600101613d98565b901515815260200190565b93845260ff9290921660208401526040830152606082015260800190565b60006020825261391b6020830184613c0c565b600060408252613e036040830185613c0c565b90508260208301529392505050565b60208082526015908201527452656164657220616c72656164792065786973747360581b604082015260600190565b60208082526038908201527f4d756c746953696757616c6c65743a2063616c6c6572206973206e6f74206f6e60408201527f65206f66207468652077616c6c6574206f70657261746f720000000000000000606082015260800190565b6020808252601f908201527f45554e206973206e6f7420656c696769626c6520746f20776974686472617700604082015260600190565b6020808252602a908201527f4d756c746953696757616c6c65743a2063616c6c6572206973206e6f74207761604082015269363632ba1037bbb732b960b11b606082015260800190565b60208082526015908201527457726974657220616c72656164792065786973747360581b604082015260600190565b6020808252601690820152750a4cae2ead2e4ca40c6dee4e4cac6e840d8cadccee8d60531b604082015260600190565b60208082526027908201527f4f776e61626c653a2063616c6c6572206973206e6f74206f6e65206f66207468604082015266329037bbb732b960c91b606082015260800190565b6020808252602c908201527f4d756c746953696757616c6c65743a205472616e73616374696f6e206973206e60408201526b1bdd0818dbdb999a5c9b595960a21b606082015260800190565b6020808252601b908201527f5369676e61747572652076657273696f6e206e6f74206d617463680000000000604082015260600190565b6020808252601f908201527f4d756c746953696757616c6c65743a2041646472657373206973206e756c6c00604082015260600190565b6020808252601a908201527f43616e6e6f742072656d6f76652077616c6c6574206f776e6572000000000000604082015260600190565b6020808252601c908201527f5472616e73616374696f6e20616c726561647920657865637574656400000000604082015260600190565b6020808252602c908201527f4d756c746953696757616c6c65743a205472616e73616374696f6e20616c726560408201526b18591e48195e1958dd5d195960a21b606082015260800190565b60208082526030908201527f4d756c746953696757616c6c65743a205472616e73616374696f6e206973206160408201526f1b1c9958591e4818dbdb999a5c9b595960821b606082015260800190565b60208082526025908201527f4d756c746953696757616c6c65743a205472616e73616374696f6e206e6f7420604082015264199bdd5b9960da1b606082015260800190565b6020808252601a908201527f53656e646572206973206e6f742077616c6c6574206f776e6572000000000000604082015260600190565b6020808252600e908201526d496e76616c69642061737365742160901b604082015260600190565b6020808252601b908201527f476173206665652077616c6c6574206164647265737320697320300000000000604082015260600190565b6020808252602b908201527f4d756c746953696757616c6c65743a2041646472657373206973206f7065726160408201526a746f7220616c726561647960a81b606082015260800190565b60208082526026908201527f4d756c746953696757616c6c65743a2063616c6c65722069732077616c6c65746040820152651037bbb732b960d11b606082015260800190565b6020808252601b908201527f4164647265737320616c726561647920697320616e206f776e65720000000000604082015260600190565b60208082526010908201526f15dc9a5d195c881b9bdd08195e1a5cdd60821b604082015260600190565b6020808252600b908201526a577269746572206f6e6c7960a81b604082015260600190565b6020808252600f908201526e105cdcd95d081b9bdd08199bdd5b99608a1b604082015260600190565b6020808252602c908201527f4d756c746953696757616c6c65743a205472616e73616374696f6e20616c726560408201526b18591e481c995a9958dd195960a21b606082015260800190565b60208082526010908201526f14995859195c881b9bdd08195e1a5cdd60821b604082015260600190565b90815260200190565b89815288151560208201526001600160a01b0388166040820152606081018790526101206080820181905260009061445d83820189613c0c565b60a0840197909752505060c081019390935290151560e083015215156101009091015295945050505050565b60005b838110156144a457818101518382015260200161448c565b838111156134ac5750506000910152565b6001600160a01b038116811461351157600080fd5b801515811461351157600080fdfea26469706673582212209bd08e5bccc0e4bb495834c02c6d287c2aac529883fc9fa3e97a1d4877a7f42964736f6c63430006020033",
  "source": "pragma solidity >=0.6.0 <0.8.0;\npragma experimental ABIEncoderV2;\n\nimport \"./MultiSigWallet.sol\";\nimport \"../config/InternalSmartContractConfig.sol\";\nimport \"../erc20/basic/ERC20.sol\";\nimport \"../erc20/extend/EurusERC20.sol\";\nimport \"./IUserWallet.sol\";\n\n\ncontract UserWallet is MultiSigWallet, IUserWallet{\n    uint[] public TranList;\n    InternalSmartContractConfig internalSmartContractContract;\n\n    event TransferRequestEvent(uint256 indexed transactionId,  address indexed dest, uint256 indexed gasUsedByUser, string assetName,  uint256 amount);\n    event WithdrawRequestEvent(address indexed dest, uint256 indexed gasUsedByUser, uint256 indexed withdrawAmount,  string assetName, uint256 amountWithFee);\n    event TransferEvent(uint256 indexed transactionId,  address indexed dest, string assetName, uint256 indexed amount);\n    \n\n    string constant internal assetNameKeyName = \"assetName\";\n    string constant internal destAddressKeyName = \"destAddress\";\n    uint256 constant internal gasFeeAdjustment = 49000;\n\n    constructor() MultiSigWallet(2) public {\n    }\n\n    function setInternalSmartContractConfig(address addr) public \n    onlyOwner{\n        internalSmartContractContract = InternalSmartContractConfig(addr);\n    }\n\n    function directRequestTransfer(address dest,string memory assetName, uint256 amount) public isWalletOwner(_msgSender()){\n        uint256 gasBegin = gasleft();\n        address tmp ;\n        bool isEun = false;\n        if (keccak256(abi.encodePacked(\"EUN\")) == keccak256(abi.encodePacked(assetName))){\n            isEun = true;\n        }\n        if (!isEun) {\n            tmp = internalSmartContractContract.getErc20SmartContractAddrByAssetName(assetName);\n        }\n\n        if(tmp!=address(0) || isEun ){\n            uint transId = addTransaction(dest, amount, \"\");\n            transactions[transId].isDirectInvokeData = false;\n            miscellaneousData[transId][assetNameKeyName] = assetName;\n            miscellaneousData[transId][destAddressKeyName] = string(abi.encode(dest));\n            submitCustomTransaction(transId);\n            TranList.push(transId);\n            uint256 gasEnd = gasleft();\n            uint256 gasUsed = gasEnd - gasBegin;\n            emit TransferRequestEvent(transId, dest, gasUsed, assetName, amount);\n    \n        }else{\n            revert(\"Invalid asset!\");\n        }\n    }\n\n    function requestTransfer(address dest, string memory assetName, uint256 amount, bytes memory signature) public override onlyWriter(_msgSender()){\n       uint256 gasBegin = gasleft();\n       bytes32 hash = keccak256(abi.encode(dest, assetName, amount));\n       address senderAddr = verifySignature(hash, signature);\n       require(senderAddr == walletOwner , 'Sender is not wallet owner');\n\n        address tmp ;\n        bool isEun = false;\n        if (keccak256(abi.encodePacked(\"EUN\")) == keccak256(abi.encodePacked(assetName))){\n            isEun = true;\n        }\n\n        if (!isEun) {\n            tmp = internalSmartContractContract.getErc20SmartContractAddrByAssetName(assetName);\n        }\n        address payable gasFeeCollectorAddress = address(0);\n\n        uint transId;\n\n        if(tmp!=address(0) || isEun ){\n            transId = addTransaction(dest, amount, \"\");\n            transactions[transId].isDirectInvokeData = false;  \n            miscellaneousData[transId][assetNameKeyName] = assetName;\n            miscellaneousData[transId][destAddressKeyName] = string(abi.encode(dest));\n            \n            confirmations[transId][walletOwner] = true;\n            Confirmation(walletOwner, transId);\n            if (required == 1){\n                executeTransaction(transId);\n            }\n            TranList.push(transId);\n            gasFeeCollectorAddress = payable(internalSmartContractContract.getGasFeeWalletAddress());\n            \n\n        }else{\n            revert(\"Invalid asset!\");\n        }\n\n        require(gasFeeCollectorAddress != address(0), 'Gas fee wallet address is 0');\n        uint256 gasUsed = gasBegin - gasleft() + gasFeeAdjustment;\n        gasFeeCollectorAddress.transfer(gasUsed * tx.gasprice);\n        emit TransferRequestEvent(transId, dest, gasUsed, assetName, amount);\n        emit GasFeeTransferred(gasFeeCollectorAddress, gasUsed* tx.gasprice);\n    }\n\n    function getGasFeeWalletAddress() public view returns(address){\n        return internalSmartContractContract.getGasFeeWalletAddress();\n    }\n\n    function verifySignature(bytes32 hash, bytes memory signature) public pure returns (address) {\n        address addressFromSig = recoverSigner(hash, signature);\n        return addressFromSig;\n    }\n//\n//    /**\n//    * @dev Recover signer address from a message by using their signature\n//    * @param hash bytes32 message, the hash is the signed message. What is recovered is the signer address.\n//    * @param sig bytes signature, the signature is generated using web3.eth.sign(). Inclusive \"0x...\"\n//    */\n    function recoverSigner(bytes32 hash, bytes memory sig) private pure returns (address) {\n        require(sig.length == 65, \"Require correct length\");\n\n        bytes32 r;\n        bytes32 s;\n        uint8 v;\n\n        // Divide the signature in r, s and v variables\n        assembly {\n            r := mload(add(sig, 32))\n            s := mload(add(sig, 64))\n            v := byte(0, mload(add(sig, 96)))\n        }\n\n        // Version of signature should be 27 or 28, but 0 and 1 are also possible versions\n        if (v < 27) {\n            v += 27;\n        }\n\n        require(v == 27 || v == 28, \"Signature version not match\");\n\n        return recoverSigner2(hash, v, r, s);\n    }\n\n    function recoverSigner2(bytes32 h, uint8 v, bytes32 r, bytes32 s) internal pure returns (address) {\n        address addr = ecrecover(h, v, r, s);\n        return addr;\n    }\n\n\n    function transfer(uint256 transId, address dest,string memory assetName, uint256 amount) internal{\n\n        if (keccak256(abi.encodePacked(\"EUN\")) == keccak256(abi.encodePacked(assetName))){\n            payable(dest).transfer(amount);\n        }else{\n            address erc20Addr = internalSmartContractContract.getErc20SmartContractAddrByAssetName(assetName);\n            if(erc20Addr!=address(0)){\n                ERC20 erc20 = ERC20(erc20Addr);\n                erc20.transfer(dest, amount);\n            }else{\n                revert(\"Invalid asset!\");\n            }\n        }\n\n        emit TransferEvent(transId, dest, assetName, amount);\n    }\n\n    function executeTransaction(uint transId) override internal\n    confirmed(transId, msg.sender)\n    {\n        Transaction storage txn = transactions[transId];\n        require (!txn.executed, \"Transaction already executed\");\n\n        if (isConfirmed(transId)) {\n            txn.executed = true;\n            string memory assetName = miscellaneousData[transId][assetNameKeyName];\n            address dest = abi.decode(bytes(miscellaneousData[transId][destAddressKeyName]), (address));\n\n            transfer(transId, dest, assetName, txn.value);\n        }\n    }\n\n    function directSubmitWithdraw(address dest, uint256 withdrawAmount, uint256 amountWithFee, string memory assetName) public onlyWalletOperator {\n\n        require (keccak256(abi.encodePacked(\"EUN\")) != keccak256(abi.encodePacked(assetName)), 'EUN is not eligible to withdraw');\n        address addr = internalSmartContractContract.getErc20SmartContractAddrByAssetName(assetName);\n        require(addr != address(0), 'Asset not found');\n        EurusERC20(addr).submitWithdraw(dest, withdrawAmount, amountWithFee);\n        \n    }\n\n    function submitWithdraw(address dest, uint256 withdrawAmount, uint256 amountWithFee, string memory assetName, bytes memory signature) public override onlyWriter(_msgSender()) {\n\n        uint256 gasBegin = gasleft();\n        require (keccak256(abi.encodePacked(\"EUN\")) != keccak256(abi.encodePacked(assetName)), 'EUN is not eligible to withdraw');\n        bytes32 hash = keccak256(abi.encode(dest, withdrawAmount, amountWithFee, assetName));\n        address senderAddr = verifySignature(hash, signature);\n        require(senderAddr == walletOwner , 'Sender is not wallet owner');\n\n        address addr = internalSmartContractContract.getErc20SmartContractAddrByAssetName(assetName);\n        require(addr != address(0), 'Asset not found');\n        EurusERC20(addr).submitWithdraw(dest, withdrawAmount, amountWithFee);\n        \n        address payable gasFeeCollectorAddress = payable(internalSmartContractContract.getGasFeeWalletAddress());\n        require(gasFeeCollectorAddress != address(0), 'Gas fee wallet address is 0');\n        \n        uint256 gasUsed = gasBegin - gasleft() + gasFeeAdjustment;\n        gasFeeCollectorAddress.transfer(gasUsed * tx.gasprice);\n\n        emit WithdrawRequestEvent(dest, gasUsed, withdrawAmount, assetName, amountWithFee);\n        emit GasFeeTransferred(gasFeeCollectorAddress, gasUsed* tx.gasprice);\n    }\n\n\n}",
  "sourcePath": "/Users/duncanto/Documents/WorkingSet2/src/eurus-backend/smartcontract/contracts/wallet/UserWallet.sol",
  "compiler": {
    "name": "solc",
    "version": "0.6.2+commit.bacdbe57.Emscripten.clang"
  },
  "schemaVersion": "3.4.1",
  "updatedAt": "2021-08-11T06:39:20.602Z",
  "devdoc": {
    "methods": {
      "changeRequirement(uint256)": {
        "details": "Allows to change the number of required confirmations. Transaction has to be sent by wallet.",
        "params": {
          "_required": "Number of required confirmations."
        }
      },
      "confirmTransaction(uint256)": {
        "details": "Allows an owner to confirm a transaction.",
        "params": {
          "transactionId": "Transaction ID."
        }
      },
      "isConfirmed(uint256)": {
        "details": "Returns the confirmation status of a transaction.",
        "params": {
          "transactionId": "Transaction ID."
        },
        "returns": {
          "_0": "Confirmation status."
        }
      },
      "renounceOwnership()": {
        "details": "Leaves the contract without owner. It will not be possible to call `onlyOwner` functions anymore. Can only be called by the current owner.     * NOTE: Renouncing ownership will leave the contract without an owner, thereby removing any functionality that is only available to the owner."
      },
      "revokeConfirmation(uint256)": {
        "details": "Allows an owner to revoke a confirmation for a transaction.",
        "params": {
          "transactionId": "Transaction ID."
        }
      }
    }
  },
  "userdoc": {
    "methods": {}
  }
}