{
  "contractName": "WalletAddressMap",
  "abi": [
    {
      "inputs": [],
      "stateMutability": "nonpayable",
      "type": "constructor"
    },
    {
      "anonymous": false,
      "inputs": [
        {
          "indexed": false,
          "internalType": "string",
          "name": "",
          "type": "string"
        }
      ],
      "name": "Event",
      "type": "event"
    },
    {
      "anonymous": false,
      "inputs": [
        {
          "indexed": true,
          "internalType": "address",
          "name": "owner",
          "type": "address"
        }
      ],
      "name": "OwnerAdded",
      "type": "event"
    },
    {
      "anonymous": false,
      "inputs": [
        {
          "indexed": true,
          "internalType": "address",
          "name": "owner",
          "type": "address"
        }
      ],
      "name": "OwnerRemoved",
      "type": "event"
    },
    {
      "anonymous": false,
      "inputs": [
        {
          "indexed": true,
          "internalType": "address",
          "name": "previousOwner",
          "type": "address"
        },
        {
          "indexed": true,
          "internalType": "address",
          "name": "newOwner",
          "type": "address"
        }
      ],
      "name": "OwnershipTransferred",
      "type": "event"
    },
    {
      "anonymous": false,
      "inputs": [
        {
          "indexed": true,
          "internalType": "address",
          "name": "reader",
          "type": "address"
        }
      ],
      "name": "ReaderAdded",
      "type": "event"
    },
    {
      "anonymous": false,
      "inputs": [
        {
          "indexed": true,
          "internalType": "address",
          "name": "reader",
          "type": "address"
        }
      ],
      "name": "ReaderRemoved",
      "type": "event"
    },
    {
      "anonymous": false,
      "inputs": [
        {
          "indexed": true,
          "internalType": "address",
          "name": "writer",
          "type": "address"
        }
      ],
      "name": "WriterAdded",
      "type": "event"
    },
    {
      "anonymous": false,
      "inputs": [
        {
          "indexed": true,
          "internalType": "address",
          "name": "writer",
          "type": "address"
        }
      ],
      "name": "WriterRemoved",
      "type": "event"
    },
    {
      "inputs": [
        {
          "internalType": "address",
          "name": "newOwner",
          "type": "address"
        }
      ],
      "name": "addOwner",
      "outputs": [],
      "stateMutability": "nonpayable",
      "type": "function"
    },
    {
      "inputs": [
        {
          "internalType": "address",
          "name": "newReader",
          "type": "address"
        }
      ],
      "name": "addReader",
      "outputs": [],
      "stateMutability": "nonpayable",
      "type": "function"
    },
    {
      "inputs": [
        {
          "internalType": "address",
          "name": "newWriter",
          "type": "address"
        }
      ],
      "name": "addWriter",
      "outputs": [],
      "stateMutability": "nonpayable",
      "type": "function"
    },
    {
      "inputs": [],
      "name": "getOwnerCount",
      "outputs": [
        {
          "internalType": "uint256",
          "name": "",
          "type": "uint256"
        }
      ],
      "stateMutability": "view",
      "type": "function"
    },
    {
      "inputs": [],
      "name": "getOwners",
      "outputs": [
        {
          "internalType": "address[]",
          "name": "",
          "type": "address[]"
        }
      ],
      "stateMutability": "view",
      "type": "function"
    },
    {
      "inputs": [],
      "name": "getReaderList",
      "outputs": [
        {
          "internalType": "address[]",
          "name": "",
          "type": "address[]"
        }
      ],
      "stateMutability": "view",
      "type": "function"
    },
    {
      "inputs": [],
      "name": "getWriterList",
      "outputs": [
        {
          "internalType": "address[]",
          "name": "",
          "type": "address[]"
        }
      ],
      "stateMutability": "view",
      "type": "function"
    },
    {
      "inputs": [
        {
          "internalType": "address",
          "name": "addr",
          "type": "address"
        }
      ],
      "name": "isOwner",
      "outputs": [
        {
          "internalType": "bool",
          "name": "",
          "type": "bool"
        }
      ],
      "stateMutability": "view",
      "type": "function"
    },
    {
      "inputs": [
        {
          "internalType": "address",
          "name": "addr",
          "type": "address"
        }
      ],
      "name": "isWriter",
      "outputs": [
        {
          "internalType": "bool",
          "name": "",
          "type": "bool"
        }
      ],
      "stateMutability": "view",
      "type": "function"
    },
    {
      "inputs": [
        {
          "internalType": "address",
          "name": "owner",
          "type": "address"
        }
      ],
      "name": "removeOwner",
      "outputs": [],
      "stateMutability": "nonpayable",
      "type": "function"
    },
    {
      "inputs": [
        {
          "internalType": "address",
          "name": "existingReader",
          "type": "address"
        }
      ],
      "name": "removerReader",
      "outputs": [],
      "stateMutability": "nonpayable",
      "type": "function"
    },
    {
      "inputs": [
        {
          "internalType": "address",
          "name": "existingWriter",
          "type": "address"
        }
      ],
      "name": "removerWriter",
      "outputs": [],
      "stateMutability": "nonpayable",
      "type": "function"
    },
    {
      "inputs": [],
      "name": "renounceOwnership",
      "outputs": [],
      "stateMutability": "nonpayable",
      "type": "function"
    },
    {
      "inputs": [
        {
          "internalType": "address",
          "name": "walletAddress",
          "type": "address"
        },
        {
          "internalType": "string",
          "name": "key",
          "type": "string"
        },
        {
          "internalType": "string",
          "name": "value",
          "type": "string"
        }
      ],
      "name": "setWalletInfo",
      "outputs": [],
      "stateMutability": "nonpayable",
      "type": "function"
    },
    {
      "inputs": [
        {
          "internalType": "address",
          "name": "walletAddress",
          "type": "address"
        },
        {
          "internalType": "string",
          "name": "email",
          "type": "string"
        },
        {
          "internalType": "bool",
          "name": "isMerchant",
          "type": "bool"
        },
        {
          "internalType": "bool",
          "name": "isMetaMask",
          "type": "bool"
        }
      ],
      "name": "addWalletInfo",
      "outputs": [],
      "stateMutability": "nonpayable",
      "type": "function"
    },
    {
      "inputs": [
        {
          "internalType": "address",
          "name": "walletAddress",
          "type": "address"
        }
      ],
      "name": "removeWalletInfo",
      "outputs": [],
      "stateMutability": "nonpayable",
      "type": "function"
    },
    {
      "inputs": [
        {
          "internalType": "address",
          "name": "addr",
          "type": "address"
        }
      ],
      "name": "isWalletAddressExist",
      "outputs": [
        {
          "internalType": "bool",
          "name": "",
          "type": "bool"
        }
      ],
      "stateMutability": "view",
      "type": "function"
    },
    {
      "inputs": [
        {
          "internalType": "address",
          "name": "addr",
          "type": "address"
        }
      ],
      "name": "isMerchantWallet",
      "outputs": [
        {
          "internalType": "bool",
          "name": "",
          "type": "bool"
        }
      ],
      "stateMutability": "view",
      "type": "function"
    },
    {
      "inputs": [],
      "name": "getWalletInfoList",
      "outputs": [
        {
          "internalType": "address[]",
          "name": "",
          "type": "address[]"
        }
      ],
      "stateMutability": "view",
      "type": "function"
    },
    {
      "inputs": [
        {
          "internalType": "address",
          "name": "addr",
          "type": "address"
        },
        {
          "internalType": "string",
          "name": "field",
          "type": "string"
        }
      ],
      "name": "getWalletInfoValue",
      "outputs": [
        {
          "internalType": "string",
          "name": "",
          "type": "string"
        }
      ],
      "stateMutability": "view",
      "type": "function"
    },
    {
      "inputs": [
        {
          "internalType": "address",
          "name": "walletAddress",
          "type": "address"
        }
      ],
      "name": "getLastUpdateTime",
      "outputs": [
        {
          "internalType": "int256",
          "name": "",
          "type": "int256"
        }
      ],
      "stateMutability": "view",
      "type": "function"
    },
    {
      "inputs": [
        {
          "internalType": "address",
          "name": "walletAddress",
          "type": "address"
        },
        {
          "internalType": "int256",
          "name": "time",
          "type": "int256"
        }
      ],
      "name": "setLastUpdateTime",
      "outputs": [],
      "stateMutability": "nonpayable",
      "type": "function"
    }
  ],
  "bytecode": "0x608060405234801561001057600080fd5b5060006100246001600160e01b036100b816565b6001600160a01b0381166000818152600160208190526040808320805460ff191683179055825491820183558280527f290decd9548b62a8d60345a988386fc84ba6bc95484008f6362f93160ef3e56390910180546001600160a01b031916841790555192935090917f8be0079c531659141344cd1fd0a4f28419497f9722a3daafe3b4186f6b6457e0908290a3506100bc565b3390565b612344806100cb6000396000f3fe608060405234801561001057600080fd5b50600436106101425760003560e01c80638145d126116100b8578063abcd041d1161007c578063abcd041d14610529578063afd8b1d11461054f578063da2824a814610575578063ddc6f5f61461059b578063ef18374a146105c1578063fac6b740146105c957610142565b80638145d1261461030d57806385aaed4e146103335780638a91fcde1461033b578063915daa6414610464578063a0e67e2b1461052157610142565b80636939291c1161010a5780636939291c1461024d5780636dce7c04146102795780636e8c271b1461029f5780637065cb48146102d7578063715018a6146102fd5780637aed36931461030557610142565b806311736df514610147578063173825d9146101815780632b29ba23146101a95780632f54bf6e146101cf5780633a1abfe7146101f5575b600080fd5b61016d6004803603602081101561015d57600080fd5b50356001600160a01b0316610702565b604080519115158252519081900360200190f35b6101a76004803603602081101561019757600080fd5b50356001600160a01b0316610759565b005b61016d600480360360208110156101bf57600080fd5b50356001600160a01b0316610921565b61016d600480360360208110156101e557600080fd5b50356001600160a01b031661093f565b6101fd61095d565b60408051602080825283518183015283519192839290830191858101910280838360005b83811015610239578181015183820152602001610221565b505050509050019250505060405180910390f35b6101a76004803603604081101561026357600080fd5b506001600160a01b0381351690602001356109c0565b61016d6004803603602081101561028f57600080fd5b50356001600160a01b0316610aef565b6102c5600480360360208110156102b557600080fd5b50356001600160a01b0316610bee565b60408051918252519081900360200190f35b6101a7600480360360208110156102ed57600080fd5b50356001600160a01b0316610c09565b6101a7610d7a565b6101fd610ef7565b6101a76004803603602081101561032357600080fd5b50356001600160a01b0316610f57565b6101fd61115d565b6103ef6004803603604081101561035157600080fd5b6001600160a01b038235169190810190604081016020820135600160201b81111561037b57600080fd5b82018360208201111561038d57600080fd5b803590602001918460018302840111600160201b831117156103ae57600080fd5b91908080601f0160208091040260200160405190810160405280939291908181526020018383808284376000920191909152509295506111bd945050505050565b6040805160208082528351818301528351919283929083019185019080838360005b83811015610429578181015183820152602001610411565b50505050905090810190601f1680156104565780820380516001836020036101000a031916815260200191505b509250505060405180910390f35b6101a76004803603608081101561047a57600080fd5b6001600160a01b038235169190810190604081016020820135600160201b8111156104a457600080fd5b8201836020820111156104b657600080fd5b803590602001918460018302840111600160201b831117156104d757600080fd5b91908080601f0160208091040260200160405190810160405280939291908181526020018383808284376000920191909152509295505050508035151591506020013515156112d5565b6101fd611671565b6101a76004803603602081101561053f57600080fd5b50356001600160a01b03166116d1565b6101a76004803603602081101561056557600080fd5b50356001600160a01b0316611a63565b6101a76004803603602081101561058b57600080fd5b50356001600160a01b0316611bc5565b6101a7600480360360208110156105b157600080fd5b50356001600160a01b0316611d27565b6102c5611f2d565b6101a7600480360360608110156105df57600080fd5b6001600160a01b038235169190810190604081016020820135600160201b81111561060957600080fd5b82018360208201111561061b57600080fd5b803590602001918460018302840111600160201b8311171561063c57600080fd5b91908080601f0160208091040260200160405190810160405280939291908181526020018383808284376000920191909152509295949360208101935035915050600160201b81111561068e57600080fd5b8201836020820111156106a057600080fd5b803590602001918460018302840111600160201b831117156106c157600080fd5b91908080601f016020809104026020016040519081016040528093929190818152602001838380828437600092019190915250929550611f33945050505050565b6001600160a01b038116600090815260066020526040908190208151661a5cd15e1a5cdd60ca1b81526007810191909152905190819003602701902054600260001961010060018416150201909116041515919050565b6000610763612227565b6001600160a01b03811660009081526001602081905260409091205491925060ff9091161515146107c55760405162461bcd60e51b81526004018080602001828103825260278152602001806122c46027913960400191505060405180910390fd5b6001600160a01b038216600090815260016020526040902054829060ff166107ec57600080fd5b6001600160a01b0383166000908152600160205260408120805460ff191690558054905b818110156108b957846001600160a01b03166000828154811061082f57fe5b6000918252602090912001546001600160a01b031614156108b1576000600183038154811061085a57fe5b600091825260208220015481546001600160a01b0390911691908390811061087e57fe5b9060005260206000200160006101000a8154816001600160a01b0302191690836001600160a01b031602179055506108b9565b600101610810565b5060008054806108c557fe5b600082815260208120820160001990810180546001600160a01b03191690559091019091556040516001600160a01b038616917f58619076adf5bb0943d100ef88d52d7c3fd691b19d3a9071b555b651fbf418da91a250505050565b6001600160a01b031660009081526005602052604090205460ff1690565b6001600160a01b031660009081526001602052604090205460ff1690565b606060048054806020026020016040519081016040528092919081815260200182805480156109b557602002820191906000526020600020905b81546001600160a01b03168152600190910190602001808311610997575b505050505090505b90565b6001600160a01b038216600090815260066020526040908190208151661a5cd15e1a5cdd60ca1b81526007810191909152905190819003602701902054829060026000196101006001841615020190911604610a63576040805162461bcd60e51b815260206004820181905260248201527f57616c6c6574416464726573733a2057616c6c6574206e6f7420657869737473604482015290519081900360640190fd5b610a6c3361093f565b158015610a8957503360009081526005602052604090205460ff16155b15610ad2576040805162461bcd60e51b81526020600482015260146024820152734f776e6572206f7220777269746572206f6e6c7960601b604482015290519081900360640190fd5b506001600160a01b03909116600090815260086020526040902055565b60006040516020018080637472756560e01b81525060040190506040516020818303038152906040528051906020012060066000846001600160a01b03166001600160a01b031681526020019081526020016000206040518080691a5cd3595c98da185b9d60b21b815250600a01905090815260200160405180910390206040516020018082805460018160011615610100020316600290048015610bcb5780601f10610ba9576101008083540402835291820191610bcb565b820191906000526020600020905b815481529060010190602001808311610bb7575b505091505060405160208183030381529060405280519060200120149050919050565b6001600160a01b031660009081526008602052604090205490565b6000610c13612227565b6001600160a01b03811660009081526001602081905260409091205491925060ff909116151514610c755760405162461bcd60e51b81526004018080602001828103825260278152602001806122c46027913960400191505060405180910390fd5b6001600160a01b038216600090815260016020819052604090912054839160ff90911615151415610ced576040805162461bcd60e51b815260206004820152601b60248201527f4164647265737320616c726561647920697320616e206f776e65720000000000604482015290519081900360640190fd5b6001600160a01b0383166000818152600160208190526040808320805460ff191683179055825491820183558280527f290decd9548b62a8d60345a988386fc84ba6bc95484008f6362f93160ef3e56390910180546001600160a01b03191684179055517f994a936646fe87ffe4f1e469d3d6aa417d6b855598397f323de5b449f765f0c39190a2505050565b6000610d84612227565b6001600160a01b03811660009081526001602081905260409091205491925060ff909116151514610de65760405162461bcd60e51b81526004018080602001828103825260278152602001806122c46027913960400191505060405180910390fd5b6000610df0612227565b6001600160a01b0381166000908152600160205260408120805460ff191690559091505b60005460001901811015610ec557816001600160a01b031660008281548110610e3957fe5b6000918252602090912001546001600160a01b03161415610ebd57600080546000198101908110610e6657fe5b600091825260208220015481546001600160a01b03909116919083908110610e8a57fe5b9060005260206000200160006101000a8154816001600160a01b0302191690836001600160a01b03160217905550610ec5565b600101610e14565b506000805480610ed157fe5b600082815260209020810160001990810180546001600160a01b03191690550190555050565b606060078054806020026020016040519081016040528092919081815260200182805480156109b5576020028201919060005260206000209081546001600160a01b03168152600190910190602001808311610997575050505050905090565b6000610f61612227565b6001600160a01b03811660009081526001602081905260409091205491925060ff909116151514610fc35760405162461bcd60e51b81526004018080602001828103825260278152602001806122c46027913960400191505060405180910390fd5b6001600160a01b038216600090815260056020526040902054829060ff16611025576040805162461bcd60e51b815260206004820152601060248201526f15dc9a5d195c881b9bdd08195e1a5cdd60821b604482015290519081900360640190fd5b6001600160a01b0383166000908152600560205260408120805460ff19169055600454905b818110156110f557846001600160a01b03166004828154811061106957fe5b6000918252602090912001546001600160a01b031614156110ed576004600183038154811061109457fe5b600091825260209091200154600480546001600160a01b0390921691839081106110ba57fe5b9060005260206000200160006101000a8154816001600160a01b0302191690836001600160a01b031602179055506110f5565b60010161104a565b50600480548061110157fe5b600082815260208120820160001990810180546001600160a01b03191690559091019091556040516001600160a01b038616917f86e5bbceda94081c32220d685f37cc4e3ea7bb0be2dfbf0cb703579505a5390e91a250505050565b606060028054806020026020016040519081016040528092919081815260200182805480156109b5576020028201919060005260206000209081546001600160a01b03168152600190910190602001808311610997575050505050905090565b606060066000846001600160a01b03166001600160a01b03168152602001908152602001600020826040518082805190602001908083835b602083106112145780518252601f1990920191602091820191016111f5565b518151600019602094850361010090810a820192831692199390931691909117909252949092019687526040805197889003820188208054601f60026001831615909802909501169590950492830182900482028801820190528187529294509250508301828280156112c85780601f1061129d576101008083540402835291602001916112c8565b820191906000526020600020905b8154815290600101906020018083116112ab57829003601f168201915b5050505050905092915050565b6001600160a01b038416600090815260066020526040908190208151661a5cd15e1a5cdd60ca1b81526007810191909152905190819003602701902054849060026000196101006001841615020190911604156113635760405162461bcd60e51b81526004018080602001828103825260248152602001806122eb6024913960400191505060405180910390fd5b61136c3361093f565b15801561138957503360009081526005602052604090205460ff16155b156113d2576040805162461bcd60e51b81526020600482015260146024820152734f776e6572206f7220777269746572206f6e6c7960601b604482015290519081900360640190fd5b6001600160a01b038516600090815260066020908152604091829020825164195b585a5b60da1b81526005810191909152915191829003602501909120855161141d9287019061222b565b5082611446576040518060400160405280600581526020016466616c736560d81b815250611464565b604051806040016040528060048152602001637472756560e01b8152505b6001600160a01b0386166000908152600660209081526040918290208251691a5cd3595c98da185b9d60b21b8152600a810191909152915191829003602a0190912082516114b8939192919091019061222b565b50816114e1576040518060400160405280600581526020016466616c736560d81b8152506114ff565b604051806040016040528060048152602001637472756560e01b8152505b6001600160a01b03861660009081526006602090815260409182902082516969734d6574614d61736b60b01b8152600a810191909152915191829003602a019091208251611553939192919091019061222b565b5060408051808201825260048152637472756560e01b60208083019182526001600160a01b038916600090815260069091528390208351661a5cd15e1a5cdd60ca1b8152600781019190915292519283900360270190922090516115b7929061222b565b5060408051808201825260018152600360fc1b60208083019182526001600160a01b038916600090815260069091528390208351671ade58d3195d995b60c21b815260088101919091529251928390036028019092209051611619929061222b565b5050600780546001810182556000919091527fa66cc928b5edb82af9bd49922954155ab7b0942694bea4ce44661d9a8736c6880180546001600160a01b0319166001600160a01b039590951694909417909355505050565b606060008054806020026020016040519081016040528092919081815260200182805480156109b5576020028201919060005260206000209081546001600160a01b03168152600190910190602001808311610997575050505050905090565b6116da3361093f565b1580156116f757503360009081526005602052604090205460ff16155b15611740576040805162461bcd60e51b81526020600482015260146024820152734f776e6572206f7220777269746572206f6e6c7960601b604482015290519081900360640190fd5b6001600160a01b038116600090815260066020526040908190208151661a5cd15e1a5cdd60ca1b815260078101919091529051908190036027019020548190600260001961010060018416150201909116046117e3576040805162461bcd60e51b815260206004820181905260248201527f57616c6c6574416464726573733a2057616c6c6574206e6f7420657869737473604482015290519081900360640190fd5b60408051602080820180845260008084526001600160a01b03871681526006909252908390208351661a5cd15e1a5cdd60ca1b815260078101919091529251928390036027019092209051611838929061222b565b5060408051602080820180845260008084526001600160a01b03871681526006909252908390208351691a5cd3595c98da185b9d60b21b8152600a810191909152925192839003602a019092209051611891929061222b565b5060408051602080820180845260008084526001600160a01b038716815260069092529083902083516969734d6574614d61736b60b01b8152600a810191909152925192839003602a0190922090516118ea929061222b565b5060408051602080820180845260008084526001600160a01b0387168152600690925290839020835164195b585a5b60da1b81526005810191909152925192839003602501909220905161193e929061222b565b5060408051602080820180845260008084526001600160a01b03871681526006909252908390208351671ade58d3195d995b60c21b815260088101919091529251928390036028019092209051611995929061222b565b5060005b60075460001901811015611a5757826001600160a01b0316600782815481106119be57fe5b6000918252602090912001546001600160a01b03161415611a4f57600754600111611a4a576007805460001981019081106119f557fe5b600091825260209091200154600780546001600160a01b039092169183908110611a1b57fe5b9060005260206000200160006101000a8154816001600160a01b0302191690836001600160a01b031602179055505b611a57565b600101611999565b506007805480610ed157fe5b6000611a6d612227565b6001600160a01b03811660009081526001602081905260409091205491925060ff909116151514611acf5760405162461bcd60e51b81526004018080602001828103825260278152602001806122c46027913960400191505060405180910390fd5b6001600160a01b038216600090815260036020526040902054829060ff1615611b37576040805162461bcd60e51b815260206004820152601560248201527452656164657220616c72656164792065786973747360581b604482015290519081900360640190fd5b6001600160a01b038316600081815260036020526040808220805460ff1916600190811790915560028054918201815583527f405787fa12a823e0f2b7631cc41b3ba8828b3321ca811111fa75cd3aa3bb5ace0180546001600160a01b03191684179055517fb7724d890d2888af5a3fc456edb667e2c82c4441449ebcac301c618759e4f86d9190a2505050565b6000611bcf612227565b6001600160a01b03811660009081526001602081905260409091205491925060ff909116151514611c315760405162461bcd60e51b81526004018080602001828103825260278152602001806122c46027913960400191505060405180910390fd5b6001600160a01b038216600090815260056020526040902054829060ff1615611c99576040805162461bcd60e51b815260206004820152601560248201527457726974657220616c72656164792065786973747360581b604482015290519081900360640190fd5b6001600160a01b038316600081815260056020526040808220805460ff1916600190811790915560048054918201815583527f8a35acfbc15ff81a39ae7d344fd709f28e8600b4aa8c65c6b64bfe7fe36bd19b0180546001600160a01b03191684179055517f6ff3aa2ea7b53070f6d9d07a445d338d89e8edef44250ffa8be19f53910d4a2e9190a2505050565b6000611d31612227565b6001600160a01b03811660009081526001602081905260409091205491925060ff909116151514611d935760405162461bcd60e51b81526004018080602001828103825260278152602001806122c46027913960400191505060405180910390fd5b6001600160a01b038216600090815260036020526040902054829060ff16611df5576040805162461bcd60e51b815260206004820152601060248201526f14995859195c881b9bdd08195e1a5cdd60821b604482015290519081900360640190fd5b6001600160a01b0383166000908152600360205260408120805460ff19169055600254905b81811015611ec557846001600160a01b031660028281548110611e3957fe5b6000918252602090912001546001600160a01b03161415611ebd5760026001830381548110611e6457fe5b600091825260209091200154600280546001600160a01b039092169183908110611e8a57fe5b9060005260206000200160006101000a8154816001600160a01b0302191690836001600160a01b03160217905550611ec5565b600101611e1a565b506002805480611ed157fe5b600082815260208120820160001990810180546001600160a01b03191690559091019091556040516001600160a01b038616917fe933431644458f1217f9e93d3e000e03c9bbbe55761046d0985c2e4d157bcbaa91a250505050565b60005490565b6001600160a01b038316600090815260066020526040908190208151661a5cd15e1a5cdd60ca1b81526007810191909152905190819003602701902054839060026000196101006001841615020190911604611fd6576040805162461bcd60e51b815260206004820181905260248201527f57616c6c6574416464726573733a2057616c6c6574206e6f7420657869737473604482015290519081900360640190fd5b611fdf3361093f565b158015611ffc57503360009081526005602052604090205460ff16155b15612045576040805162461bcd60e51b81526020600482015260146024820152734f776e6572206f7220777269746572206f6e6c7960601b604482015290519081900360640190fd5b6040516020018080637472756560e01b81525060040190506040516020818303038152906040528051906020012060066000866001600160a01b03166001600160a01b031681526020019081526020016000206040518080661a5cd15e1a5cdd60ca1b81525060070190509081526020016040518091039020604051602001808280546001816001161561010002031660029004801561211c5780601f106120fa57610100808354040283529182019161211c565b820191906000526020600020905b815481529060010190602001808311612108575b50509150506040516020818303038152906040528051906020012014612189576040805162461bcd60e51b815260206004820152601e60248201527f57616c6c6574206164647265737320646f6573206e6f74206578697374730000604482015290519081900360640190fd5b8160066000866001600160a01b03166001600160a01b03168152602001908152602001600020846040518082805190602001908083835b602083106121df5780518252601f1990920191602091820191016121c0565b51815160209384036101000a60001901801990921691161790529201948552506040519384900381019093208451612220959194919091019250905061222b565b5050505050565b3390565b828054600181600116156101000203166002900490600052602060002090601f016020900481019282601f1061226c57805160ff1916838001178555612299565b82800160010185558215612299579182015b8281111561229957825182559160200191906001019061227e565b506122a59291506122a9565b5090565b6109bd91905b808211156122a557600081556001016122af56fe4f776e61626c653a2063616c6c6572206973206e6f74206f6e65206f6620746865206f776e657257616c6c6574416464726573733a2057616c6c657420616c726561647920657869737473a26469706673582212206cc6ae9166a0b97f2c63834ae3204775181ecd5537e1e4d3622d44d83c6acb1364736f6c63430006020033",
  "source": "pragma solidity >=0.6.0 <0.8.0;\nimport \"../utils/ownable/ReadWritePermissionable.sol\";\n\ncontract WalletAddressMap is ReadWritePermissionable{\n    /*\n    struct WalletInfo{\n        string email;\n        bool isMerchant;\n        bool isMetaMask;\n        bool isExist;\n    }\n    */\n    mapping(address=>mapping(string=>string)) walletInfoMap;\n    address[] walletInfoList;\n    mapping(address=>int256) lastUpdateTime;\n\n\n    modifier isWalletNotExist(address inputAddress){\n        require (bytes(walletInfoMap[inputAddress][\"isExist\"]).length == 0  , \"WalletAddress: Wallet already exists\");\n        //require (walletInfoMap[inputAddress].isExist == false  , \"WalletAddress: Wallet already exists\");\n        _;\n    }\n\n    modifier isWalletExist(address inputAddress){\n        require (bytes(walletInfoMap[inputAddress][\"isExist\"]).length  > 0  , \"WalletAddress: Wallet not exists\");\n        //require (walletInfoMap[inputAddress].isExist == false  , \"WalletAddress: Wallet already exists\");\n        _;\n    }\n\n    constructor()public{}\n    \n    \n    function setWalletInfo(address walletAddress, string memory key, string memory value) public isWalletExist(walletAddress) onlyOwnerOrWriter{\n        require(keccak256(abi.encodePacked(walletInfoMap[walletAddress][\"isExist\"])) == keccak256(abi.encodePacked(\"true\")), \"Wallet address does not exists\");\n\n        walletInfoMap[walletAddress][key]=value;\n    }\n\n\n    function addWalletInfo(address walletAddress, string memory email, bool isMerchant, bool isMetaMask)public\n        isWalletNotExist(walletAddress)\n        onlyOwnerOrWriter{\n        walletInfoMap[walletAddress][\"email\"]=email;\n        walletInfoMap[walletAddress][\"isMerchant\"]=isMerchant?\"true\":\"false\";\n        walletInfoMap[walletAddress][\"isMetaMask\"]=isMetaMask?\"true\":\"false\";\n        walletInfoMap[walletAddress][\"isExist\"]=\"true\";\n        walletInfoMap[walletAddress][\"kycLevel\"]=\"0\";\n        walletInfoList.push(walletAddress);\n    }\n    \n    function removeWalletInfo(address walletAddress) public onlyOwnerOrWriter isWalletExist(walletAddress) {\n        walletInfoMap[walletAddress][\"isExist\"]=\"\";\n        walletInfoMap[walletAddress][\"isMerchant\"] = \"\";\n        walletInfoMap[walletAddress][\"isMetaMask\"]=\"\";\n        walletInfoMap[walletAddress][\"email\"] = \"\";\n        walletInfoMap[walletAddress][\"kycLevel\"]=\"\";\n        for (uint i=0; i<walletInfoList.length - 1; i++)\n            if (walletInfoList[i] == walletAddress) {\n                if (walletInfoList.length >= 1){\n                    walletInfoList[i] = walletInfoList[walletInfoList.length - 1];\n                }\n                break;\n            }\n        walletInfoList.pop();\n    }\n    \n    function isWalletAddressExist(address addr) public view returns(bool){\n        return bytes(walletInfoMap[addr][\"isExist\"]).length > 0;\n    }\n\n    function isMerchantWallet(address addr) public view returns(bool){\n        return keccak256(abi.encodePacked(walletInfoMap[addr][\"isMerchant\"])) == keccak256(abi.encodePacked(\"true\"));\n    }\n\n    function getWalletInfoList()public view returns(address[] memory) {\n        return walletInfoList;\n    }\n    \n    function getWalletInfoValue(address addr, string memory field)public view returns(string memory) {\n        return walletInfoMap[addr][field];\n    }\n\n    function getLastUpdateTime(address walletAddress)public view returns(int256){\n        return lastUpdateTime[walletAddress];\n    }\n\n    function setLastUpdateTime(address walletAddress, int256 time)public isWalletExist(walletAddress) onlyOwnerOrWriter {\n        lastUpdateTime[walletAddress] = time;\n    }\n\n}",
  "sourcePath": "/Users/duncanto/Documents/WorkingSet2/src/eurus-backend/smartcontract/contracts/wallet/WalletAddressMap.sol",
  "compiler": {
    "name": "solc",
    "version": "0.6.2+commit.bacdbe57.Emscripten.clang"
  },
  "schemaVersion": "3.4.1",
  "updatedAt": "2021-08-04T10:30:06.400Z",
  "devdoc": {
    "methods": {
      "renounceOwnership()": {
        "details": "Leaves the contract without owner. It will not be possible to call `onlyOwner` functions anymore. Can only be called by the current owner.     * NOTE: Renouncing ownership will leave the contract without an owner, thereby removing any functionality that is only available to the owner."
      }
    }
  },
  "userdoc": {
    "methods": {}
  }
}