{
  "contractName": "WithdrawSmartContract",
  "abi": [
    {
      "inputs": [],
      "stateMutability": "nonpayable",
      "type": "constructor"
    },
    {
      "anonymous": false,
      "inputs": [
        {
          "indexed": true,
          "internalType": "address",
          "name": "approvalWallet",
          "type": "address"
        },
        {
          "indexed": true,
          "internalType": "uint256",
          "name": "requestTransId",
          "type": "uint256"
        },
        {
          "indexed": false,
          "internalType": "uint256",
          "name": "transId",
          "type": "uint256"
        }
      ],
      "name": "BurnCompletedEvent",
      "type": "event"
    },
    {
      "anonymous": false,
      "inputs": [
        {
          "indexed": true,
          "internalType": "address",
          "name": "sender",
          "type": "address"
        },
        {
          "indexed": true,
          "internalType": "uint256",
          "name": "transactionId",
          "type": "uint256"
        }
      ],
      "name": "Confirmation",
      "type": "event"
    },
    {
      "anonymous": false,
      "inputs": [
        {
          "indexed": true,
          "internalType": "address",
          "name": "sender",
          "type": "address"
        },
        {
          "indexed": false,
          "internalType": "uint256",
          "name": "value",
          "type": "uint256"
        }
      ],
      "name": "Deposit",
      "type": "event"
    },
    {
      "anonymous": false,
      "inputs": [
        {
          "indexed": false,
          "internalType": "string",
          "name": "",
          "type": "string"
        }
      ],
      "name": "Event",
      "type": "event"
    },
    {
      "anonymous": false,
      "inputs": [
        {
          "indexed": true,
          "internalType": "uint256",
          "name": "transactionId",
          "type": "uint256"
        }
      ],
      "name": "Execution",
      "type": "event"
    },
    {
      "anonymous": false,
      "inputs": [
        {
          "indexed": true,
          "internalType": "uint256",
          "name": "transactionId",
          "type": "uint256"
        }
      ],
      "name": "ExecutionFailure",
      "type": "event"
    },
    {
      "anonymous": false,
      "inputs": [
        {
          "indexed": true,
          "internalType": "address",
          "name": "owner",
          "type": "address"
        }
      ],
      "name": "OwnerAdded",
      "type": "event"
    },
    {
      "anonymous": false,
      "inputs": [
        {
          "indexed": true,
          "internalType": "address",
          "name": "owner",
          "type": "address"
        }
      ],
      "name": "OwnerRemoved",
      "type": "event"
    },
    {
      "anonymous": false,
      "inputs": [
        {
          "indexed": true,
          "internalType": "address",
          "name": "previousOwner",
          "type": "address"
        },
        {
          "indexed": true,
          "internalType": "address",
          "name": "newOwner",
          "type": "address"
        }
      ],
      "name": "OwnershipTransferred",
      "type": "event"
    },
    {
      "anonymous": false,
      "inputs": [
        {
          "indexed": true,
          "internalType": "address",
          "name": "reader",
          "type": "address"
        }
      ],
      "name": "ReaderAdded",
      "type": "event"
    },
    {
      "anonymous": false,
      "inputs": [
        {
          "indexed": true,
          "internalType": "address",
          "name": "reader",
          "type": "address"
        }
      ],
      "name": "ReaderRemoved",
      "type": "event"
    },
    {
      "anonymous": false,
      "inputs": [
        {
          "indexed": true,
          "internalType": "address",
          "name": "sender",
          "type": "address"
        },
        {
          "indexed": true,
          "internalType": "uint256",
          "name": "transactionId",
          "type": "uint256"
        }
      ],
      "name": "Rejection",
      "type": "event"
    },
    {
      "anonymous": false,
      "inputs": [
        {
          "indexed": false,
          "internalType": "uint256",
          "name": "required",
          "type": "uint256"
        }
      ],
      "name": "RequirementChange",
      "type": "event"
    },
    {
      "anonymous": false,
      "inputs": [
        {
          "indexed": true,
          "internalType": "address",
          "name": "sender",
          "type": "address"
        },
        {
          "indexed": true,
          "internalType": "uint256",
          "name": "transactionId",
          "type": "uint256"
        }
      ],
      "name": "Revocation",
      "type": "event"
    },
    {
      "anonymous": false,
      "inputs": [
        {
          "indexed": true,
          "internalType": "uint256",
          "name": "transactionId",
          "type": "uint256"
        }
      ],
      "name": "Submission",
      "type": "event"
    },
    {
      "anonymous": false,
      "inputs": [
        {
          "indexed": true,
          "internalType": "address",
          "name": "approvalWallet",
          "type": "address"
        },
        {
          "indexed": true,
          "internalType": "uint256",
          "name": "requestTransId",
          "type": "uint256"
        },
        {
          "indexed": false,
          "internalType": "address",
          "name": "srcWallet",
          "type": "address"
        },
        {
          "indexed": false,
          "internalType": "address",
          "name": "destWallet",
          "type": "address"
        },
        {
          "indexed": false,
          "internalType": "string",
          "name": "assetName",
          "type": "string"
        },
        {
          "indexed": false,
          "internalType": "uint256",
          "name": "transId",
          "type": "uint256"
        },
        {
          "indexed": false,
          "internalType": "uint256",
          "name": "amount",
          "type": "uint256"
        }
      ],
      "name": "WithdrawEvent",
      "type": "event"
    },
    {
      "anonymous": false,
      "inputs": [
        {
          "indexed": true,
          "internalType": "address",
          "name": "writer",
          "type": "address"
        }
      ],
      "name": "WriterAdded",
      "type": "event"
    },
    {
      "anonymous": false,
      "inputs": [
        {
          "indexed": true,
          "internalType": "address",
          "name": "writer",
          "type": "address"
        }
      ],
      "name": "WriterRemoved",
      "type": "event"
    },
    {
      "inputs": [],
      "name": "MAX_OWNER_COUNT",
      "outputs": [
        {
          "internalType": "uint256",
          "name": "",
          "type": "uint256"
        }
      ],
      "stateMutability": "view",
      "type": "function"
    },
    {
      "inputs": [
        {
          "internalType": "address",
          "name": "newOwner",
          "type": "address"
        }
      ],
      "name": "addOwner",
      "outputs": [],
      "stateMutability": "nonpayable",
      "type": "function"
    },
    {
      "inputs": [
        {
          "internalType": "address",
          "name": "newReader",
          "type": "address"
        }
      ],
      "name": "addReader",
      "outputs": [],
      "stateMutability": "nonpayable",
      "type": "function"
    },
    {
      "inputs": [
        {
          "internalType": "address",
          "name": "operatorAddr",
          "type": "address"
        }
      ],
      "name": "addWalletOperator",
      "outputs": [],
      "stateMutability": "nonpayable",
      "type": "function"
    },
    {
      "inputs": [
        {
          "internalType": "address",
          "name": "newWriter",
          "type": "address"
        }
      ],
      "name": "addWriter",
      "outputs": [],
      "stateMutability": "nonpayable",
      "type": "function"
    },
    {
      "inputs": [
        {
          "internalType": "uint256",
          "name": "_required",
          "type": "uint256"
        }
      ],
      "name": "changeRequirement",
      "outputs": [],
      "stateMutability": "nonpayable",
      "type": "function"
    },
    {
      "inputs": [
        {
          "internalType": "uint256",
          "name": "transactionId",
          "type": "uint256"
        }
      ],
      "name": "confirmTransaction",
      "outputs": [],
      "stateMutability": "nonpayable",
      "type": "function"
    },
    {
      "inputs": [
        {
          "internalType": "uint256",
          "name": "",
          "type": "uint256"
        },
        {
          "internalType": "address",
          "name": "",
          "type": "address"
        }
      ],
      "name": "confirmations",
      "outputs": [
        {
          "internalType": "bool",
          "name": "",
          "type": "bool"
        }
      ],
      "stateMutability": "view",
      "type": "function"
    },
    {
      "inputs": [
        {
          "internalType": "uint256",
          "name": "transactionId",
          "type": "uint256"
        }
      ],
      "name": "getConfirmationCount",
      "outputs": [
        {
          "internalType": "uint256",
          "name": "count",
          "type": "uint256"
        }
      ],
      "stateMutability": "view",
      "type": "function"
    },
    {
      "inputs": [
        {
          "internalType": "uint256",
          "name": "transactionId",
          "type": "uint256"
        }
      ],
      "name": "getConfirmations",
      "outputs": [
        {
          "internalType": "address[]",
          "name": "_confirmations",
          "type": "address[]"
        }
      ],
      "stateMutability": "view",
      "type": "function"
    },
    {
      "inputs": [],
      "name": "getOwnerCount",
      "outputs": [
        {
          "internalType": "uint256",
          "name": "",
          "type": "uint256"
        }
      ],
      "stateMutability": "view",
      "type": "function"
    },
    {
      "inputs": [],
      "name": "getOwners",
      "outputs": [
        {
          "internalType": "address[]",
          "name": "",
          "type": "address[]"
        }
      ],
      "stateMutability": "view",
      "type": "function"
    },
    {
      "inputs": [],
      "name": "getReaderList",
      "outputs": [
        {
          "internalType": "address[]",
          "name": "",
          "type": "address[]"
        }
      ],
      "stateMutability": "view",
      "type": "function"
    },
    {
      "inputs": [
        {
          "internalType": "bool",
          "name": "pending",
          "type": "bool"
        },
        {
          "internalType": "bool",
          "name": "executed",
          "type": "bool"
        }
      ],
      "name": "getTransactionCount",
      "outputs": [
        {
          "internalType": "uint256",
          "name": "count",
          "type": "uint256"
        }
      ],
      "stateMutability": "view",
      "type": "function"
    },
    {
      "inputs": [
        {
          "internalType": "uint256",
          "name": "from",
          "type": "uint256"
        },
        {
          "internalType": "uint256",
          "name": "to",
          "type": "uint256"
        },
        {
          "internalType": "bool",
          "name": "pending",
          "type": "bool"
        },
        {
          "internalType": "bool",
          "name": "executed",
          "type": "bool"
        }
      ],
      "name": "getTransactionIds",
      "outputs": [
        {
          "internalType": "uint256[]",
          "name": "_transactionIds",
          "type": "uint256[]"
        }
      ],
      "stateMutability": "view",
      "type": "function"
    },
    {
      "inputs": [],
      "name": "getWalletOperatorList",
      "outputs": [
        {
          "internalType": "address[]",
          "name": "",
          "type": "address[]"
        }
      ],
      "stateMutability": "view",
      "type": "function"
    },
    {
      "inputs": [],
      "name": "getWalletOwner",
      "outputs": [
        {
          "internalType": "address",
          "name": "",
          "type": "address"
        }
      ],
      "stateMutability": "view",
      "type": "function"
    },
    {
      "inputs": [],
      "name": "getWriterList",
      "outputs": [
        {
          "internalType": "address[]",
          "name": "",
          "type": "address[]"
        }
      ],
      "stateMutability": "view",
      "type": "function"
    },
    {
      "inputs": [],
      "name": "internalSCConfig",
      "outputs": [
        {
          "internalType": "contract InternalSmartContractConfig",
          "name": "",
          "type": "address"
        }
      ],
      "stateMutability": "view",
      "type": "function"
    },
    {
      "inputs": [
        {
          "internalType": "uint256",
          "name": "transactionId",
          "type": "uint256"
        }
      ],
      "name": "isConfirmed",
      "outputs": [
        {
          "internalType": "bool",
          "name": "",
          "type": "bool"
        }
      ],
      "stateMutability": "view",
      "type": "function"
    },
    {
      "inputs": [
        {
          "internalType": "address",
          "name": "addr",
          "type": "address"
        }
      ],
      "name": "isOwner",
      "outputs": [
        {
          "internalType": "bool",
          "name": "",
          "type": "bool"
        }
      ],
      "stateMutability": "view",
      "type": "function"
    },
    {
      "inputs": [
        {
          "internalType": "uint256",
          "name": "transId",
          "type": "uint256"
        }
      ],
      "name": "isRejected",
      "outputs": [
        {
          "internalType": "bool",
          "name": "",
          "type": "bool"
        }
      ],
      "stateMutability": "view",
      "type": "function"
    },
    {
      "inputs": [
        {
          "internalType": "address",
          "name": "addr",
          "type": "address"
        }
      ],
      "name": "isWriter",
      "outputs": [
        {
          "internalType": "bool",
          "name": "",
          "type": "bool"
        }
      ],
      "stateMutability": "view",
      "type": "function"
    },
    {
      "inputs": [
        {
          "internalType": "uint256",
          "name": "",
          "type": "uint256"
        },
        {
          "internalType": "string",
          "name": "",
          "type": "string"
        }
      ],
      "name": "miscellaneousData",
      "outputs": [
        {
          "internalType": "string",
          "name": "",
          "type": "string"
        }
      ],
      "stateMutability": "view",
      "type": "function"
    },
    {
      "inputs": [
        {
          "internalType": "uint256",
          "name": "transId",
          "type": "uint256"
        }
      ],
      "name": "rejectTransaction",
      "outputs": [],
      "stateMutability": "nonpayable",
      "type": "function"
    },
    {
      "inputs": [
        {
          "internalType": "address",
          "name": "owner",
          "type": "address"
        }
      ],
      "name": "removeOwner",
      "outputs": [],
      "stateMutability": "nonpayable",
      "type": "function"
    },
    {
      "inputs": [
        {
          "internalType": "address",
          "name": "operatorAddr",
          "type": "address"
        }
      ],
      "name": "removeWalletOperator",
      "outputs": [],
      "stateMutability": "nonpayable",
      "type": "function"
    },
    {
      "inputs": [
        {
          "internalType": "address",
          "name": "existingReader",
          "type": "address"
        }
      ],
      "name": "removerReader",
      "outputs": [],
      "stateMutability": "nonpayable",
      "type": "function"
    },
    {
      "inputs": [
        {
          "internalType": "address",
          "name": "existingWriter",
          "type": "address"
        }
      ],
      "name": "removerWriter",
      "outputs": [],
      "stateMutability": "nonpayable",
      "type": "function"
    },
    {
      "inputs": [],
      "name": "renounceOwnership",
      "outputs": [],
      "stateMutability": "nonpayable",
      "type": "function"
    },
    {
      "inputs": [],
      "name": "required",
      "outputs": [
        {
          "internalType": "uint256",
          "name": "",
          "type": "uint256"
        }
      ],
      "stateMutability": "view",
      "type": "function"
    },
    {
      "inputs": [
        {
          "internalType": "uint256",
          "name": "transactionId",
          "type": "uint256"
        }
      ],
      "name": "revokeConfirmation",
      "outputs": [],
      "stateMutability": "nonpayable",
      "type": "function"
    },
    {
      "inputs": [
        {
          "internalType": "address",
          "name": "addr",
          "type": "address"
        }
      ],
      "name": "setWalletOwner",
      "outputs": [],
      "stateMutability": "nonpayable",
      "type": "function"
    },
    {
      "inputs": [
        {
          "internalType": "address",
          "name": "a",
          "type": "address"
        }
      ],
      "name": "toBytes",
      "outputs": [
        {
          "internalType": "bytes",
          "name": "",
          "type": "bytes"
        }
      ],
      "stateMutability": "pure",
      "type": "function"
    },
    {
      "inputs": [],
      "name": "transactionCount",
      "outputs": [
        {
          "internalType": "uint256",
          "name": "",
          "type": "uint256"
        }
      ],
      "stateMutability": "view",
      "type": "function"
    },
    {
      "inputs": [
        {
          "internalType": "uint256",
          "name": "",
          "type": "uint256"
        }
      ],
      "name": "transactions",
      "outputs": [
        {
          "internalType": "uint256",
          "name": "transId",
          "type": "uint256"
        },
        {
          "internalType": "bool",
          "name": "isDirectInvokeData",
          "type": "bool"
        },
        {
          "internalType": "address",
          "name": "destination",
          "type": "address"
        },
        {
          "internalType": "uint256",
          "name": "value",
          "type": "uint256"
        },
        {
          "internalType": "bytes",
          "name": "data",
          "type": "bytes"
        },
        {
          "internalType": "uint256",
          "name": "timestamp",
          "type": "uint256"
        },
        {
          "internalType": "uint256",
          "name": "blockNumber",
          "type": "uint256"
        },
        {
          "internalType": "bool",
          "name": "executed",
          "type": "bool"
        },
        {
          "internalType": "bool",
          "name": "rejected",
          "type": "bool"
        }
      ],
      "stateMutability": "view",
      "type": "function"
    },
    {
      "inputs": [
        {
          "internalType": "uint256",
          "name": "",
          "type": "uint256"
        }
      ],
      "name": "walletOperatorList",
      "outputs": [
        {
          "internalType": "address",
          "name": "",
          "type": "address"
        }
      ],
      "stateMutability": "view",
      "type": "function"
    },
    {
      "inputs": [],
      "name": "walletOwner",
      "outputs": [
        {
          "internalType": "address",
          "name": "",
          "type": "address"
        }
      ],
      "stateMutability": "view",
      "type": "function"
    },
    {
      "stateMutability": "payable",
      "type": "receive"
    },
    {
      "inputs": [
        {
          "internalType": "address",
          "name": "internalSCConfigAddr",
          "type": "address"
        },
        {
          "internalType": "uint256",
          "name": "requiredCount",
          "type": "uint256"
        }
      ],
      "name": "init",
      "outputs": [],
      "stateMutability": "nonpayable",
      "type": "function"
    },
    {
      "inputs": [
        {
          "internalType": "address",
          "name": "srcWallet",
          "type": "address"
        },
        {
          "internalType": "address",
          "name": "destWallet",
          "type": "address"
        },
        {
          "internalType": "uint256",
          "name": "amount",
          "type": "uint256"
        },
        {
          "internalType": "string",
          "name": "assetName",
          "type": "string"
        },
        {
          "internalType": "address",
          "name": "approvalWallet",
          "type": "address"
        },
        {
          "internalType": "uint256",
          "name": "requestTransId",
          "type": "uint256"
        }
      ],
      "name": "addWithdrawRequest",
      "outputs": [],
      "stateMutability": "nonpayable",
      "type": "function"
    }
  ],
  "bytecode": "0x60806040523480156200001157600080fd5b5060056000620000296001600160e01b03620000ce16565b6001600160a01b0381166000818152600160208190526040808320805460ff191683179055825491820183558280527f290decd9548b62a8d60345a988386fc84ba6bc95484008f6362f93160ef3e56390910180546001600160a01b031916841790555192935090917f8be0079c531659141344cd1fd0a4f28419497f9722a3daafe3b4186f6b6457e0908290a3508080620000c457600080fd5b50600955620000d2565b3390565b613b1980620000e26000396000f3fe60806040526004361061023f5760003560e01c8063784547a71161012e578063b77bf600116100ab578063da2824a81161006f578063da2824a814610b28578063dc8452cd14610b5b578063ddc6f5f614610b70578063ef18374a14610ba3578063fba8b1e314610bb857610283565b8063b77bf60014610a77578063ba51a6df14610a8c578063c01a8c8414610ab6578063ca2760f414610ae0578063d74f8edd14610b1357610283565b8063a01013f8116100f2578063a01013f8146109b0578063a0e67e2b146109c5578063a8abe69a146109da578063afd8b1d114610a1a578063b5dc40c314610a4d57610283565b8063784547a71461081c5780638145d1261461084657806385aaed4e146108795780638b51d13f1461088e5780639ace38c2146108b857610283565b80632f8fdb92116101bc578063593b79fe11610180578063593b79fe146107595780635ce4e93d1461078c5780637065cb48146107bf578063715018a6146107f2578063755765ab1461080757610283565b80632f8fdb921461055b5780633411c81c1461063c578063399ae724146106755780633a1abfe7146106ae578063547415251461071357610283565b80631c95b98c116102035780631c95b98c146103695780631e556d901461049857806320ea8d86146104cb5780632b29ba23146104f55780632f54bf6e1461052857610283565b806305bf37aa14610288578063098f076e146102b257806315023f5f146102f0578063173825d9146103215780631ae879e81461035457610283565b366102835734156102815760408051348152905133917fe1fffcc4923d04b559f4d29a8bfc6cda04eb5b0d3c460751c2402c5c5cc9109c919081900360200190a25b005b600080fd5b34801561029457600080fd5b50610281600480360360208110156102ab57600080fd5b5035610be2565b3480156102be57600080fd5b506102dc600480360360208110156102d557600080fd5b5035610dae565b604080519115158252519081900360200190f35b3480156102fc57600080fd5b50610305610dcf565b604080516001600160a01b039092168252519081900360200190f35b34801561032d57600080fd5b506102816004803603602081101561034457600080fd5b50356001600160a01b0316610dde565b34801561036057600080fd5b50610305610fa6565b34801561037557600080fd5b506104236004803603604081101561038c57600080fd5b813591908101906040810160208201356401000000008111156103ae57600080fd5b8201836020820111156103c057600080fd5b803590602001918460018302840111640100000000831117156103e257600080fd5b91908080601f016020809104026020016040519081016040528093929190818152602001838380828437600092019190915250929550610fb5945050505050565b6040805160208082528351818301528351919283929083019185019080838360005b8381101561045d578181015183820152602001610445565b50505050905090810190601f16801561048a5780820380516001836020036101000a031916815260200191505b509250505060405180910390f35b3480156104a457600080fd5b50610281600480360360208110156104bb57600080fd5b50356001600160a01b0316611067565b3480156104d757600080fd5b50610281600480360360208110156104ee57600080fd5b503561128c565b34801561050157600080fd5b506102dc6004803603602081101561051857600080fd5b50356001600160a01b031661144c565b34801561053457600080fd5b506102dc6004803603602081101561054b57600080fd5b50356001600160a01b031661146a565b34801561056757600080fd5b50610281600480360360c081101561057e57600080fd5b6001600160a01b038235811692602081013590911691604082013591908101906080810160608201356401000000008111156105b957600080fd5b8201836020820111156105cb57600080fd5b803590602001918460018302840111640100000000831117156105ed57600080fd5b91908080601f016020809104026020016040519081016040528093929190818152602001838380828437600092019190915250929550506001600160a01b038335169350505060200135611488565b34801561064857600080fd5b506102dc6004803603604081101561065f57600080fd5b50803590602001356001600160a01b03166119b2565b34801561068157600080fd5b506102816004803603604081101561069857600080fd5b506001600160a01b0381351690602001356119d2565b3480156106ba57600080fd5b506106c3611a65565b60408051602080825283518183015283519192839290830191858101910280838360005b838110156106ff5781810151838201526020016106e7565b505050509050019250505060405180910390f35b34801561071f57600080fd5b506107476004803603604081101561073657600080fd5b508035151590602001351515611ac8565b60408051918252519081900360200190f35b34801561076557600080fd5b506104236004803603602081101561077c57600080fd5b50356001600160a01b0316611b36565b34801561079857600080fd5b50610281600480360360208110156107af57600080fd5b50356001600160a01b0316611b68565b3480156107cb57600080fd5b50610281600480360360208110156107e257600080fd5b50356001600160a01b0316611c9b565b3480156107fe57600080fd5b50610281611e0c565b34801561081357600080fd5b50610305611f89565b34801561082857600080fd5b506102dc6004803603602081101561083f57600080fd5b5035611f98565b34801561085257600080fd5b506102816004803603602081101561086957600080fd5b50356001600160a01b0316612021565b34801561088557600080fd5b506106c3612227565b34801561089a57600080fd5b50610747600480360360208110156108b157600080fd5b5035612287565b3480156108c457600080fd5b506108e2600480360360208110156108db57600080fd5b50356122f6565b604051808a815260200189151515158152602001886001600160a01b03166001600160a01b03168152602001878152602001806020018681526020018581526020018415151515815260200183151515158152602001828103825287818151815260200191508051906020019080838360005b8381101561096d578181015183820152602001610955565b50505050905090810190601f16801561099a5780820380516001836020036101000a031916815260200191505b509a505050505050505050505060405180910390f35b3480156109bc57600080fd5b506106c36123dd565b3480156109d157600080fd5b506106c361243d565b3480156109e657600080fd5b506106c3600480360360808110156109fd57600080fd5b50803590602081013590604081013515159060600135151561249d565b348015610a2657600080fd5b5061028160048036036020811015610a3d57600080fd5b50356001600160a01b03166125ca565b348015610a5957600080fd5b506106c360048036036020811015610a7057600080fd5b503561272c565b348015610a8357600080fd5b506107476128a3565b348015610a9857600080fd5b5061028160048036036020811015610aaf57600080fd5b50356128a9565b348015610ac257600080fd5b5061028160048036036020811015610ad957600080fd5b503561295d565b348015610aec57600080fd5b5061028160048036036020811015610b0357600080fd5b50356001600160a01b0316612b33565b348015610b1f57600080fd5b50610747612c4f565b348015610b3457600080fd5b5061028160048036036020811015610b4b57600080fd5b50356001600160a01b0316612c54565b348015610b6757600080fd5b50610747612db6565b348015610b7c57600080fd5b5061028160048036036020811015610b9357600080fd5b50356001600160a01b0316612dbc565b348015610baf57600080fd5b50610747612fc2565b348015610bc457600080fd5b5061030560048036036020811015610bdb57600080fd5b5035612fc8565b336000908152600d602052604090205460ff16151560011480610c0f5750600b546001600160a01b031633145b610c4a5760405162461bcd60e51b815260040180806020018281038252603881526020018061392c6038913960400191505060405180910390fd5b600081815260066020526040902060010154819061010090046001600160a01b0316610ca75760405162461bcd60e51b8152600401808060200182810382526025815260200180613a426025913960400191505060405180910390fd5b60008281526007602090815260408083203380855292529091205483919060ff1615610d045760405162461bcd60e51b81526004018080602001828103825260308152602001806139e36030913960400191505060405180910390fd5b600084815260066020819052604090912001548490610100900460ff1615610d5d5760405162461bcd60e51b815260040180806020018281038252602c815260200180613ab8602c913960400191505060405180910390fd5b6000858152600660208190526040808320909101805461ff00191661010017905551869133917f310fda14a1b3763badba87b2ca73948d00cc14d8fa2d6ee19a67ac90fa9afa679190a35050505050565b60008181526006602081905260409091200154610100900460ff165b919050565b600e546001600160a01b031681565b6000610de8612fef565b6001600160a01b03811660009081526001602081905260409091205491925060ff909116151514610e4a5760405162461bcd60e51b81526004018080602001828103825260278152602001806139646027913960400191505060405180910390fd5b6001600160a01b038216600090815260016020526040902054829060ff16610e7157600080fd5b6001600160a01b0383166000908152600160205260408120805460ff191690558054905b81811015610f3e57846001600160a01b031660008281548110610eb457fe5b6000918252602090912001546001600160a01b03161415610f365760006001830381548110610edf57fe5b600091825260208220015481546001600160a01b03909116919083908110610f0357fe5b9060005260206000200160006101000a8154816001600160a01b0302191690836001600160a01b03160217905550610f3e565b600101610e95565b506000805480610f4a57fe5b600082815260208120820160001990810180546001600160a01b03191690559091019091556040516001600160a01b038616917f58619076adf5bb0943d100ef88d52d7c3fd691b19d3a9071b555b651fbf418da91a250505050565b600b546001600160a01b031681565b60086020908152600092835260409283902082518084018301805192815290830193830193909320925281548351601f600260001961010060018616150201909316929092049182018390048302810183019094528084529083018282801561105f5780601f106110345761010080835404028352916020019161105f565b820191906000526020600020905b81548152906001019060200180831161104257829003601f168201915b505050505081565b6000611071612fef565b6001600160a01b03811660009081526001602081905260409091205491925060ff9091161515146110d35760405162461bcd60e51b81526004018080602001828103825260278152602001806139646027913960400191505060405180910390fd5b600b5482906001600160a01b03808316911614156111225760405162461bcd60e51b8152600401808060200182810382526026815260200180613a926026913960400191505060405180910390fd5b600b546001600160a01b0384811691161415611185576040805162461bcd60e51b815260206004820152601a60248201527f43616e6e6f742072656d6f76652077616c6c6574206f776e6572000000000000604482015290519081900360640190fd5b6001600160a01b0383166000908152600d60205260408120805460ff19169055600c54905b6001820381101561125857846001600160a01b0316600c82815481106111cc57fe5b6000918252602090912001546001600160a01b0316141561125057600c60018303815481106111f757fe5b600091825260209091200154600c80546001600160a01b03909216918390811061121d57fe5b9060005260206000200160006101000a8154816001600160a01b0302191690836001600160a01b03160217905550611258565b6001016111aa565b50600c80548061126457fe5b600082815260209020810160001990810180546001600160a01b031916905501905550505050565b336000908152600d602052604090205460ff161515600114806112b95750600b546001600160a01b031633145b6112f45760405162461bcd60e51b815260040180806020018281038252603881526020018061392c6038913960400191505060405180910390fd5b60008181526007602090815260408083203380855292529091205482919060ff166113505760405162461bcd60e51b815260040180806020018281038252602c81526020018061398b602c913960400191505060405180910390fd5b60008381526006602081905260409091200154839060ff16156113a45760405162461bcd60e51b815260040180806020018281038252602c8152602001806139b7602c913960400191505060405180910390fd5b600084815260066020819052604090912001548490610100900460ff16156113fd5760405162461bcd60e51b815260040180806020018281038252602c815260200180613ab8602c913960400191505060405180910390fd5b6000858152600760209081526040808320338085529252808320805460ff191690555187927ff6a317157440607f36269043eb55f1287a5a19ba2216afeab88cd46cbcfb88e991a35050505050565b6001600160a01b031660009081526005602052604090205460ff1690565b6001600160a01b031660009081526001602052604090205460ff1690565b611490612fef565b6001600160a01b03811660009081526005602052604090205460ff166114eb576040805162461bcd60e51b815260206004820152600b60248201526a577269746572206f6e6c7960a81b604482015290519081900360640190fd5b6000611507878760405180602001604052806000815250612ff3565b6000818152600660209081526040808320600101805460ff1916905560088252918290208251808401845260098082526861737365744e616d6560b81b938201938452935194955089949193909282918083835b6020831061157a5780518252601f19909201916020918201910161155b565b51815160209384036101000a600019018019909216911617905292019485525060405193849003810190932084516115bb9591949190910192509050613893565b50604080516001600160a01b038a1660208083019190915282518083038201815260008581526008909252908390206080830184526009838501818152681cdc98d5d85b1b195d60ba1b606090950194855294519294919391929182918083835b6020831061163b5780518252601f19909201916020918201910161161c565b51815160209384036101000a6000190180199092169116179052920194855250604051938490038101909320845161167c9591949190910192509050613893565b5060408051336020808301919091528251808303820181526000858152600890925290839020608083018452600a83850181815269189d5c9b95d85b1b195d60b21b606090950194855294519294919391929182918083835b602083106116f45780518252601f1990920191602091820191016116d5565b51815160209384036101000a600019018019909216911617905292019485525060405193849003810190932084516117359591949190910192509050613893565b50604080516001600160a01b0386166020808301919091528251808303820181526000858152600890925290839020608083018452600e8385018181526d185c1c1c9bdd985b15d85b1b195d60921b606090950194855294519294919391929182918083835b602083106117ba5780518252601f19909201916020918201910161179b565b51815160209384036101000a600019018019909216911617905292019485525060405193849003810190932084516117fb9591949190910192509050613893565b506040805160208082018690528251808303820181526000858152600890925290839020608083018452600e8385018181526d1c995c5d595cdd151c985b9cd25960921b606090950194855294519294919391929182918083835b602083106118755780518252601f199092019160209182019101611856565b51815160209384036101000a600019018019909216911617905292019485525060405193849003810190932084516118b69591949190910192509050613893565b506118c081613183565b82846001600160a01b03167f3b03df3b01b03a41b0edfb8ce97f9b93fc27b856d0aafdf55ebbcb80d61794898a8a89868c60405180866001600160a01b03166001600160a01b03168152602001856001600160a01b03166001600160a01b0316815260200180602001848152602001838152602001828103825285818151815260200191508051906020019080838360005b8381101561196a578181015183820152602001611952565b50505050905090810190601f1680156119975780820380516001836020036101000a031916815260200191505b50965050505050505060405180910390a35050505050505050565b600760209081526000928352604080842090915290825290205460ff1681565b60006119dc612fef565b6001600160a01b03811660009081526001602081905260409091205491925060ff909116151514611a3e5760405162461bcd60e51b81526004018080602001828103825260278152602001806139646027913960400191505060405180910390fd5b50600e80546001600160a01b0319166001600160a01b039390931692909217909155600955565b60606004805480602002602001604051908101604052809291908181526020018280548015611abd57602002820191906000526020600020905b81546001600160a01b03168152600190910190602001808311611a9f575b505050505090505b90565b6000805b600a54811015611b2f57838015611af657506000818152600660208190526040909120015460ff16155b80611b1b5750828015611b1b57506000818152600660208190526040909120015460ff165b15611b27576001820191505b600101611acc565b5092915050565b6040805160609290921b6bffffffffffffffffffffffff19166020830152805160148184030181526034909201905290565b6000611b72612fef565b6001600160a01b03811660009081526001602081905260409091205491925060ff909116151514611bd45760405162461bcd60e51b81526004018080602001828103825260278152602001806139646027913960400191505060405180910390fd5b6001600160a01b0382166000908152600d6020526040902054829060ff16151560011415611c335760405162461bcd60e51b815260040180806020018281038252602b815260200180613a67602b913960400191505060405180910390fd5b50506001600160a01b03166000818152600d60205260408120805460ff19166001908117909155600c805491820181559091527fdf6966c971051c3d54ec59162606531493a51404a002842f56009d7e5cf4a8c70180546001600160a01b0319169091179055565b6000611ca5612fef565b6001600160a01b03811660009081526001602081905260409091205491925060ff909116151514611d075760405162461bcd60e51b81526004018080602001828103825260278152602001806139646027913960400191505060405180910390fd5b6001600160a01b038216600090815260016020819052604090912054839160ff90911615151415611d7f576040805162461bcd60e51b815260206004820152601b60248201527f4164647265737320616c726561647920697320616e206f776e65720000000000604482015290519081900360640190fd5b6001600160a01b0383166000818152600160208190526040808320805460ff191683179055825491820183558280527f290decd9548b62a8d60345a988386fc84ba6bc95484008f6362f93160ef3e56390910180546001600160a01b03191684179055517f994a936646fe87ffe4f1e469d3d6aa417d6b855598397f323de5b449f765f0c39190a2505050565b6000611e16612fef565b6001600160a01b03811660009081526001602081905260409091205491925060ff909116151514611e785760405162461bcd60e51b81526004018080602001828103825260278152602001806139646027913960400191505060405180910390fd5b6000611e82612fef565b6001600160a01b0381166000908152600160205260408120805460ff191690559091505b60005460001901811015611f5757816001600160a01b031660008281548110611ecb57fe5b6000918252602090912001546001600160a01b03161415611f4f57600080546000198101908110611ef857fe5b600091825260208220015481546001600160a01b03909116919083908110611f1c57fe5b9060005260206000200160006101000a8154816001600160a01b0302191690836001600160a01b03160217905550611f57565b600101611ea6565b506000805480611f6357fe5b600082815260209020810160001990810180546001600160a01b03191690550190555050565b600b546001600160a01b031690565b600080805b600c54811015612017576000848152600760205260408120600c805491929184908110611fc657fe5b60009182526020808320909101546001600160a01b0316835282019290925260400190205460ff1615611ffa576001820191505b60095482141561200f57600192505050610dca565b600101611f9d565b5060009392505050565b600061202b612fef565b6001600160a01b03811660009081526001602081905260409091205491925060ff90911615151461208d5760405162461bcd60e51b81526004018080602001828103825260278152602001806139646027913960400191505060405180910390fd5b6001600160a01b038216600090815260056020526040902054829060ff166120ef576040805162461bcd60e51b815260206004820152601060248201526f15dc9a5d195c881b9bdd08195e1a5cdd60821b604482015290519081900360640190fd5b6001600160a01b0383166000908152600560205260408120805460ff19169055600454905b818110156121bf57846001600160a01b03166004828154811061213357fe5b6000918252602090912001546001600160a01b031614156121b7576004600183038154811061215e57fe5b600091825260209091200154600480546001600160a01b03909216918390811061218457fe5b9060005260206000200160006101000a8154816001600160a01b0302191690836001600160a01b031602179055506121bf565b600101612114565b5060048054806121cb57fe5b600082815260208120820160001990810180546001600160a01b03191690559091019091556040516001600160a01b038616917f86e5bbceda94081c32220d685f37cc4e3ea7bb0be2dfbf0cb703579505a5390e91a250505050565b60606002805480602002602001604051908101604052809291908181526020018280548015611abd576020028201919060005260206000209081546001600160a01b03168152600190910190602001808311611a9f575050505050905090565b6000805b600c548110156122f0576000838152600760205260408120600c8054919291849081106122b457fe5b60009182526020808320909101546001600160a01b0316835282019290925260400190205460ff16156122e8576001820191505b60010161228b565b50919050565b600660209081526000918252604091829020805460018083015460028085015460038601805489516101009682161587026000190190911693909304601f8101899004890284018901909952888352949760ff841697949093046001600160a01b03169590949093919290918301828280156123b35780601f10612388576101008083540402835291602001916123b3565b820191906000526020600020905b81548152906001019060200180831161239657829003601f168201915b50505050600483015460058401546006909401549293909290915060ff8082169161010090041689565b6060600c805480602002602001604051908101604052809291908181526020018280548015611abd576020028201919060005260206000209081546001600160a01b03168152600190910190602001808311611a9f575050505050905090565b60606000805480602002602001604051908101604052809291908181526020018280548015611abd576020028201919060005260206000209081546001600160a01b03168152600190910190602001808311611a9f575050505050905090565b606080600a546040519080825280602002602001820160405280156124cc578160200160208202803883390190505b5090506000805b600a5481101561254f578580156124fd57506000818152600660208190526040909120015460ff16155b80612522575084801561252257506000818152600660208190526040909120015460ff165b15612547578083838151811061253457fe5b6020026020010181815250506001820191505b6001016124d3565b87870360405190808252806020026020018201604052801561257b578160200160208202803883390190505b5093508790505b868110156125bf5782818151811061259657fe5b602002602001015184898303815181106125ac57fe5b6020908102919091010152600101612582565b505050949350505050565b60006125d4612fef565b6001600160a01b03811660009081526001602081905260409091205491925060ff9091161515146126365760405162461bcd60e51b81526004018080602001828103825260278152602001806139646027913960400191505060405180910390fd5b6001600160a01b038216600090815260036020526040902054829060ff161561269e576040805162461bcd60e51b815260206004820152601560248201527452656164657220616c72656164792065786973747360581b604482015290519081900360640190fd5b6001600160a01b038316600081815260036020526040808220805460ff1916600190811790915560028054918201815583527f405787fa12a823e0f2b7631cc41b3ba8828b3321ca811111fa75cd3aa3bb5ace0180546001600160a01b03191684179055517fb7724d890d2888af5a3fc456edb667e2c82c4441449ebcac301c618759e4f86d9190a2505050565b606080600c8054905060405190808252806020026020018201604052801561275e578160200160208202803883390190505b5090506000805b600c54811015612821576000858152600760205260408120600c80549192918490811061278e57fe5b60009182526020808320909101546001600160a01b0316835282019290925260400190205460ff161561281957600c81815481106127c857fe5b9060005260206000200160009054906101000a90046001600160a01b03168383815181106127f257fe5b60200260200101906001600160a01b031690816001600160a01b0316815250506001820191505b600101612765565b8160405190808252806020026020018201604052801561284b578160200160208202803883390190505b509350600090505b8181101561289b5782818151811061286757fe5b602002602001015184828151811061287b57fe5b6001600160a01b0390921660209283029190910190910152600101612853565b505050919050565b600a5481565b60006128b3612fef565b6001600160a01b03811660009081526001602081905260409091205491925060ff9091161515146129155760405162461bcd60e51b81526004018080602001828103825260278152602001806139646027913960400191505060405180910390fd5b818061292057600080fd5b60098390556040805184815290517fa3f1ee9126a074d9326c682f561767f710e927faa811f7a99829d49dc421797a9181900360200190a1505050565b336000908152600d602052604090205460ff1615156001148061298a5750600b546001600160a01b031633145b6129c55760405162461bcd60e51b815260040180806020018281038252603881526020018061392c6038913960400191505060405180910390fd5b600081815260066020526040902060010154819061010090046001600160a01b0316612a225760405162461bcd60e51b8152600401808060200182810382526025815260200180613a426025913960400191505060405180910390fd5b60008281526007602090815260408083203380855292529091205483919060ff1615612a7f5760405162461bcd60e51b81526004018080602001828103825260308152602001806139e36030913960400191505060405180910390fd5b600084815260066020819052604090912001548490610100900460ff1615612ad85760405162461bcd60e51b815260040180806020018281038252602c815260200180613ab8602c913960400191505060405180910390fd5b6000858152600760209081526040808320338085529252808320805460ff191660011790555187927f4a504a94899432a9846e1aa406dceb1bcfd538bb839071d49d1e5e23f5be30ef91a3612b2c856131e5565b5050505050565b6000612b3d612fef565b6001600160a01b03811660009081526001602081905260409091205491925060ff909116151514612b9f5760405162461bcd60e51b81526004018080602001828103825260278152602001806139646027913960400191505060405180910390fd5b600b80546001600160a01b0319166001600160a01b038481169190911791829055166000908152600d602052604090205460ff16612c4b57600b80546001600160a01b039081166000908152600d60205260408120805460ff191660019081179091559254600c805494850181559091527fdf6966c971051c3d54ec59162606531493a51404a002842f56009d7e5cf4a8c790920180546001600160a01b031916929091169190911790555b5050565b603281565b6000612c5e612fef565b6001600160a01b03811660009081526001602081905260409091205491925060ff909116151514612cc05760405162461bcd60e51b81526004018080602001828103825260278152602001806139646027913960400191505060405180910390fd5b6001600160a01b038216600090815260056020526040902054829060ff1615612d28576040805162461bcd60e51b815260206004820152601560248201527457726974657220616c72656164792065786973747360581b604482015290519081900360640190fd5b6001600160a01b038316600081815260056020526040808220805460ff1916600190811790915560048054918201815583527f8a35acfbc15ff81a39ae7d344fd709f28e8600b4aa8c65c6b64bfe7fe36bd19b0180546001600160a01b03191684179055517f6ff3aa2ea7b53070f6d9d07a445d338d89e8edef44250ffa8be19f53910d4a2e9190a2505050565b60095481565b6000612dc6612fef565b6001600160a01b03811660009081526001602081905260409091205491925060ff909116151514612e285760405162461bcd60e51b81526004018080602001828103825260278152602001806139646027913960400191505060405180910390fd5b6001600160a01b038216600090815260036020526040902054829060ff16612e8a576040805162461bcd60e51b815260206004820152601060248201526f14995859195c881b9bdd08195e1a5cdd60821b604482015290519081900360640190fd5b6001600160a01b0383166000908152600360205260408120805460ff19169055600254905b81811015612f5a57846001600160a01b031660028281548110612ece57fe5b6000918252602090912001546001600160a01b03161415612f525760026001830381548110612ef957fe5b600091825260209091200154600280546001600160a01b039092169183908110612f1f57fe5b9060005260206000200160006101000a8154816001600160a01b0302191690836001600160a01b03160217905550612f5a565b600101612eaf565b506002805480612f6657fe5b600082815260208120820160001990810180546001600160a01b03191690559091019091556040516001600160a01b038616917fe933431644458f1217f9e93d3e000e03c9bbbe55761046d0985c2e4d157bcbaa91a250505050565b60005490565b600c8181548110612fd557fe5b6000918252602090912001546001600160a01b0316905081565b3390565b6000836001600160a01b038116613051576040805162461bcd60e51b815260206004820152601f60248201527f4d756c746953696757616c6c65743a2041646472657373206973206e756c6c00604482015290519081900360640190fd5b600a546040805161012081018252828152600160208083018281526001600160a01b038b8116858701908152606086018c8152608087018c81524260a08901524360c0890152600060e08901819052610100808a018290528b8252600688529990208851815594519685018054935160ff199490941697151597909717610100600160a81b0319169290931690970217909355935160028501559051805194965091936131049260038501920190613893565b5060a0820151600482015560c0820151600582015560e0820151600690910180546101009384015160ff199091169215159290921761ff001916911515909202179055600a8054600101905560405182907fc0ba8fe4b176c1714197d43b9cc6bcf797a4a7461c5fe8d0ef6e184ae7601e5190600090a2509392505050565b6000818152600760209081526040808320338085529252808320805460ff191660011790555183927f4a504a94899432a9846e1aa406dceb1bcfd538bb839071d49d1e5e23f5be30ef91a3600954600114156131e2576131e2816131e5565b50565b60008181526007602090815260408083203380855292529091205482919060ff166132415760405162461bcd60e51b815260040180806020018281038252602c81526020018061398b602c913960400191505060405180910390fd5b60008381526006602081905260409091209081015460ff16156132ab576040805162461bcd60e51b815260206004820152601c60248201527f5472616e73616374696f6e20616c726561647920657865637574656400000000604482015290519081900360640190fd5b6132b484611f98565b1561388d5760068101805460ff191660011790556000848152600860209081526040918290208251808401845260098082526861737365744e616d6560b81b938201938452935160609492939192909182918083835b602083106133295780518252601f19909201916020918201910161330a565b518151600019602094850361010090810a820192831692199390931691909117909252949092019687526040805197889003820188208054601f60026001831615909802909501169590950492830182900482028801820190528187529294509250508301828280156133dd5780601f106133b2576101008083540402835291602001916133dd565b820191906000526020600020905b8154815290600101906020018083116133c057829003601f168201915b5050600e546040516303d0a60f60e41b81526020600482018181528751602484015287519798506000976001600160a01b039094169650633d0a60f09550889450928392604401918501908083838b5b8381101561344557818101518382015260200161342d565b50505050905090810190601f1680156134725780820380516001836020036101000a031916815260200191505b509250505060206040518083038186803b15801561348f57600080fd5b505afa1580156134a3573d6000803e3d6000fd5b505050506040513d60208110156134b957600080fd5b505190506001600160a01b038116613518576040805162461bcd60e51b815260206004820152601760248201527f41737365742061646472657373206e6f7420666f756e64000000000000000000604482015290519081900360640190fd5b806001600160a01b03811661355e5760405162461bcd60e51b815260040180806020018281038252602f815260200180613a13602f913960400191505060405180910390fd5b600087815260086020908152604080832081518083018352600e8082526d185c1c1c9bdd985b15d85b1b195d60921b9482019485529251919390928291908083835b602083106135bf5780518252601f1990920191602091820191016135a0565b518151600019602094850361010090810a820192831692199390931691909117909252949092019687526040805197889003820188208054601f60026001831615909802909501169590950492830182900482028801820190528187529294509250508301828280156136735780601f1061364857610100808354040283529160200191613673565b820191906000526020600020905b81548152906001019060200180831161365657829003601f168201915b5050505050806020019051602081101561368c57600080fd5b5051600089815260066020526040808220600201548151632770a7eb60e21b81526001600160a01b03808616600483015260248201929092529151939450851692639dc29fac9260448084019391929182900301818387803b1580156136f157600080fd5b505af1158015613705573d6000803e3d6000fd5b505050506000600860008a81526020019081526020016000206040518060400160405280600e81526020016d1c995c5d595cdd151c985b9cd25960921b8152506040518082805190602001908083835b602083106137745780518252601f199092019160209182019101613755565b518151600019602094850361010090810a820192831692199390931691909117909252949092019687526040805197889003820188208054601f60026001831615909802909501169590950492830182900482028801820190528187529294509250508301828280156138285780601f106137fd57610100808354040283529160200191613828565b820191906000526020600020905b81548152906001019060200180831161380b57829003601f168201915b5050505050806020019051602081101561384157600080fd5b5051604080518b8152905191925082916001600160a01b038516917fdb6d7e09a994bcbf6ce0736c71a73c0dde3e174a1ddc1fbfb8c08a5c678cd6a9919081900360200190a350505050505b50505050565b828054600181600116156101000203166002900490600052602060002090601f016020900481019282601f106138d457805160ff1916838001178555613901565b82800160010185558215613901579182015b828111156139015782518255916020019190600101906138e6565b5061390d929150613911565b5090565b611ac591905b8082111561390d576000815560010161391756fe4d756c746953696757616c6c65743a2063616c6c6572206973206e6f74206f6e65206f66207468652077616c6c6574206f70657261746f724f776e61626c653a2063616c6c6572206973206e6f74206f6e65206f6620746865206f776e65724d756c746953696757616c6c65743a205472616e73616374696f6e206973206e6f7420636f6e6669726d65644d756c746953696757616c6c65743a205472616e73616374696f6e20616c72656164792065786563757465644d756c746953696757616c6c65743a205472616e73616374696f6e20697320616c726561647920636f6e6669726d6564417373657420616464726573732063616e6e6f74206361737420746f2049546f6b656e576974686472617761626c654d756c746953696757616c6c65743a205472616e73616374696f6e206e6f7420666f756e644d756c746953696757616c6c65743a2041646472657373206973206f70657261746f7220616c72656164794d756c746953696757616c6c65743a2063616c6c65722069732077616c6c6574206f776e65724d756c746953696757616c6c65743a205472616e73616374696f6e20616c72656164792072656a6563746564a2646970667358221220a84e90ed1d2134b391318a3a1aefc35ca427224a60872f2afd142f848cfacf3264736f6c63430006020033",
  "source": "pragma solidity >=0.6.0 <0.8.0;\nimport \"../wallet/MultiSigWallet.sol\";\nimport \"../config/InternalSmartContractConfig.sol\";\nimport \"../token/ITokenWithdrawable.sol\";\n\ncontract WithdrawSmartContract is MultiSigWallet {\n\n    InternalSmartContractConfig public internalSCConfig;\n    string constant internal srcWalletKeyName = \"srcWallet\";\n    string constant internal assetNameKeyName = \"assetName\";\n    string constant internal burnWalletKeyName = \"burnWallet\";\n    string constant internal approvalWalletKeyName = \"approvalWallet\";\n    string constant internal approvalTransIdKeyName = \"requestTransId\";\n\n    event WithdrawEvent(address indexed approvalWallet, uint256 indexed requestTransId, address srcWallet, address destWallet, string assetName, uint transId, uint256 amount);\n    event BurnCompletedEvent(address indexed approvalWallet, uint256 indexed requestTransId, uint transId);\n    constructor() public \n    MultiSigWallet(5){\n    }\n\n    function init(address internalSCConfigAddr, uint requiredCount) public onlyOwner{\n        internalSCConfig = InternalSmartContractConfig(internalSCConfigAddr);\n        required = requiredCount;\n    }\n\n    function addWithdrawRequest(address srcWallet, address destWallet, uint256 amount, \n    string memory assetName, address approvalWallet, uint256 requestTransId) public onlyWriter(_msgSender()) {\n\n        uint transId = addTransaction(destWallet, amount, \"\");\n        transactions[transId].isDirectInvokeData = false;\n        miscellaneousData[transId][assetNameKeyName] = assetName;\n        miscellaneousData[transId][srcWalletKeyName] = string(abi.encode(srcWallet));\n        miscellaneousData[transId][burnWalletKeyName] = string(abi.encode(msg.sender));\n        miscellaneousData[transId][approvalWalletKeyName] = string(abi.encode(approvalWallet));\n        miscellaneousData[transId][approvalTransIdKeyName] = string(abi.encode(requestTransId));\n\n        submitCustomTransaction(transId);\n\n        emit WithdrawEvent(approvalWallet, requestTransId, srcWallet, destWallet, assetName, transId, amount);\n        \n    }\n\n    function executeTransaction(uint transId) override internal\n        confirmed(transId, msg.sender)\n        //notExecuted(transId)\n    {\n        Transaction storage txn = transactions[transId];\n        require (!txn.executed, \"Transaction already executed\");\n\n        if (isConfirmed(transId)) {\n            txn.executed = true;\n            string memory assetName = miscellaneousData[transId][assetNameKeyName];\n            address assetSC = internalSCConfig.getErc20SmartContractAddrByAssetName(assetName);\n            require (assetSC != address(0), 'Asset address not found');\n\n            ITokenWithdrawable withdrawable = ITokenWithdrawable(payable(assetSC));\n            require (address(withdrawable) != address(0), 'Asset address cannot cast to ITokenWithdrawable');\n\n            address approvalWallet = abi.decode(bytes(miscellaneousData[transId][approvalWalletKeyName]), (address));\n\n            withdrawable.burn(approvalWallet, transactions[transId].value);\n            uint256 approvalTransId = abi.decode(bytes(miscellaneousData[transId][approvalTransIdKeyName]) , (uint256));\n\n            emit BurnCompletedEvent(approvalWallet, approvalTransId, transId);\n        }\n    }\n\n}\n",
  "sourcePath": "/Users/duncanto/Documents/WorkingSet2/src/eurus-backend/smartcontract/contracts/withdraw/WithdrawSmartContract.sol",
  "compiler": {
    "name": "solc",
    "version": "0.6.2+commit.bacdbe57.Emscripten.clang"
  },
  "schemaVersion": "3.4.1",
  "updatedAt": "2021-08-04T10:30:06.413Z",
  "devdoc": {
    "methods": {
      "changeRequirement(uint256)": {
        "details": "Allows to change the number of required confirmations. Transaction has to be sent by wallet.",
        "params": {
          "_required": "Number of required confirmations."
        }
      },
      "confirmTransaction(uint256)": {
        "details": "Allows an owner to confirm a transaction.",
        "params": {
          "transactionId": "Transaction ID."
        }
      },
      "isConfirmed(uint256)": {
        "details": "Returns the confirmation status of a transaction.",
        "params": {
          "transactionId": "Transaction ID."
        },
        "returns": {
          "_0": "Confirmation status."
        }
      },
      "renounceOwnership()": {
        "details": "Leaves the contract without owner. It will not be possible to call `onlyOwner` functions anymore. Can only be called by the current owner.     * NOTE: Renouncing ownership will leave the contract without an owner, thereby removing any functionality that is only available to the owner."
      },
      "revokeConfirmation(uint256)": {
        "details": "Allows an owner to revoke a confirmation for a transaction.",
        "params": {
          "transactionId": "Transaction ID."
        }
      }
    }
  },
  "userdoc": {
    "methods": {}
  }
}