{
  "contractName": "DAppStockSample",
  "abi": [
    {
      "anonymous": false,
      "inputs": [
        {
          "indexed": false,
          "internalType": "string",
          "name": "",
          "type": "string"
        }
      ],
      "name": "Event",
      "type": "event"
    },
    {
      "anonymous": false,
      "inputs": [
        {
          "indexed": true,
          "internalType": "address",
          "name": "owner",
          "type": "address"
        }
      ],
      "name": "OwnerAdded",
      "type": "event"
    },
    {
      "anonymous": false,
      "inputs": [
        {
          "indexed": true,
          "internalType": "address",
          "name": "owner",
          "type": "address"
        }
      ],
      "name": "OwnerRemoved",
      "type": "event"
    },
    {
      "anonymous": false,
      "inputs": [
        {
          "indexed": true,
          "internalType": "address",
          "name": "previousOwner",
          "type": "address"
        },
        {
          "indexed": true,
          "internalType": "address",
          "name": "newOwner",
          "type": "address"
        }
      ],
      "name": "OwnershipTransferred",
      "type": "event"
    },
    {
      "anonymous": false,
      "inputs": [
        {
          "indexed": true,
          "internalType": "address",
          "name": "reader",
          "type": "address"
        }
      ],
      "name": "ReaderAdded",
      "type": "event"
    },
    {
      "anonymous": false,
      "inputs": [
        {
          "indexed": true,
          "internalType": "address",
          "name": "reader",
          "type": "address"
        }
      ],
      "name": "ReaderRemoved",
      "type": "event"
    },
    {
      "anonymous": false,
      "inputs": [
        {
          "indexed": true,
          "internalType": "address",
          "name": "writer",
          "type": "address"
        }
      ],
      "name": "WriterAdded",
      "type": "event"
    },
    {
      "anonymous": false,
      "inputs": [
        {
          "indexed": true,
          "internalType": "address",
          "name": "writer",
          "type": "address"
        }
      ],
      "name": "WriterRemoved",
      "type": "event"
    },
    {
      "anonymous": false,
      "inputs": [
        {
          "indexed": true,
          "internalType": "uint256",
          "name": "productId",
          "type": "uint256"
        },
        {
          "indexed": true,
          "internalType": "address",
          "name": "buyer",
          "type": "address"
        },
        {
          "indexed": false,
          "internalType": "uint256",
          "name": "quantity",
          "type": "uint256"
        },
        {
          "indexed": false,
          "internalType": "string",
          "name": "assetName",
          "type": "string"
        },
        {
          "indexed": false,
          "internalType": "uint256",
          "name": "amount",
          "type": "uint256"
        },
        {
          "indexed": false,
          "internalType": "bytes32",
          "name": "extraData",
          "type": "bytes32"
        }
      ],
      "name": "purchasedEvent",
      "type": "event"
    },
    {
      "inputs": [
        {
          "internalType": "address",
          "name": "newOwner",
          "type": "address"
        }
      ],
      "name": "addOwner",
      "outputs": [],
      "stateMutability": "nonpayable",
      "type": "function"
    },
    {
      "inputs": [
        {
          "internalType": "address",
          "name": "newReader",
          "type": "address"
        }
      ],
      "name": "addReader",
      "outputs": [],
      "stateMutability": "nonpayable",
      "type": "function"
    },
    {
      "inputs": [
        {
          "internalType": "address",
          "name": "newWriter",
          "type": "address"
        }
      ],
      "name": "addWriter",
      "outputs": [],
      "stateMutability": "nonpayable",
      "type": "function"
    },
    {
      "inputs": [],
      "name": "config",
      "outputs": [
        {
          "internalType": "contract ExternalSmartContractConfig",
          "name": "",
          "type": "address"
        }
      ],
      "stateMutability": "view",
      "type": "function",
      "constant": true
    },
    {
      "inputs": [],
      "name": "getOwnerCount",
      "outputs": [
        {
          "internalType": "uint256",
          "name": "",
          "type": "uint256"
        }
      ],
      "stateMutability": "view",
      "type": "function",
      "constant": true
    },
    {
      "inputs": [],
      "name": "getOwners",
      "outputs": [
        {
          "internalType": "address[]",
          "name": "",
          "type": "address[]"
        }
      ],
      "stateMutability": "view",
      "type": "function",
      "constant": true
    },
    {
      "inputs": [],
      "name": "getReaderList",
      "outputs": [
        {
          "internalType": "address[]",
          "name": "",
          "type": "address[]"
        }
      ],
      "stateMutability": "view",
      "type": "function",
      "constant": true
    },
    {
      "inputs": [],
      "name": "getWriterList",
      "outputs": [
        {
          "internalType": "address[]",
          "name": "",
          "type": "address[]"
        }
      ],
      "stateMutability": "view",
      "type": "function",
      "constant": true
    },
    {
      "inputs": [
        {
          "internalType": "address",
          "name": "addr",
          "type": "address"
        }
      ],
      "name": "isOwner",
      "outputs": [
        {
          "internalType": "bool",
          "name": "",
          "type": "bool"
        }
      ],
      "stateMutability": "view",
      "type": "function",
      "constant": true
    },
    {
      "inputs": [
        {
          "internalType": "address",
          "name": "addr",
          "type": "address"
        }
      ],
      "name": "isWriter",
      "outputs": [
        {
          "internalType": "bool",
          "name": "",
          "type": "bool"
        }
      ],
      "stateMutability": "view",
      "type": "function",
      "constant": true
    },
    {
      "inputs": [
        {
          "internalType": "uint256",
          "name": "",
          "type": "uint256"
        }
      ],
      "name": "productList",
      "outputs": [
        {
          "internalType": "uint256",
          "name": "productId",
          "type": "uint256"
        },
        {
          "internalType": "string",
          "name": "name",
          "type": "string"
        },
        {
          "internalType": "uint256",
          "name": "price",
          "type": "uint256"
        },
        {
          "internalType": "bool",
          "name": "onShelf",
          "type": "bool"
        }
      ],
      "stateMutability": "view",
      "type": "function",
      "constant": true
    },
    {
      "inputs": [
        {
          "internalType": "uint256",
          "name": "",
          "type": "uint256"
        }
      ],
      "name": "productMap",
      "outputs": [
        {
          "internalType": "uint256",
          "name": "productId",
          "type": "uint256"
        },
        {
          "internalType": "string",
          "name": "name",
          "type": "string"
        },
        {
          "internalType": "uint256",
          "name": "price",
          "type": "uint256"
        },
        {
          "internalType": "bool",
          "name": "onShelf",
          "type": "bool"
        }
      ],
      "stateMutability": "view",
      "type": "function",
      "constant": true
    },
    {
      "inputs": [
        {
          "internalType": "uint256",
          "name": "",
          "type": "uint256"
        }
      ],
      "name": "productSoldAmountList",
      "outputs": [
        {
          "internalType": "uint256",
          "name": "",
          "type": "uint256"
        }
      ],
      "stateMutability": "view",
      "type": "function",
      "constant": true
    },
    {
      "inputs": [
        {
          "internalType": "uint256",
          "name": "",
          "type": "uint256"
        }
      ],
      "name": "productSoldQuantityList",
      "outputs": [
        {
          "internalType": "uint256",
          "name": "",
          "type": "uint256"
        }
      ],
      "stateMutability": "view",
      "type": "function",
      "constant": true
    },
    {
      "inputs": [
        {
          "internalType": "uint256",
          "name": "",
          "type": "uint256"
        }
      ],
      "name": "productStockList",
      "outputs": [
        {
          "internalType": "uint256",
          "name": "",
          "type": "uint256"
        }
      ],
      "stateMutability": "view",
      "type": "function",
      "constant": true
    },
    {
      "inputs": [
        {
          "internalType": "address",
          "name": "buyer",
          "type": "address"
        },
        {
          "internalType": "uint256",
          "name": "productId",
          "type": "uint256"
        },
        {
          "internalType": "uint256",
          "name": "quantity",
          "type": "uint256"
        },
        {
          "internalType": "string",
          "name": "assetName",
          "type": "string"
        },
        {
          "internalType": "uint256",
          "name": "amount",
          "type": "uint256"
        },
        {
          "internalType": "bytes32",
          "name": "extraData",
          "type": "bytes32"
        }
      ],
      "name": "purchase",
      "outputs": [],
      "stateMutability": "nonpayable",
      "type": "function"
    },
    {
      "inputs": [
        {
          "internalType": "uint256",
          "name": "",
          "type": "uint256"
        },
        {
          "internalType": "uint256",
          "name": "",
          "type": "uint256"
        }
      ],
      "name": "purchaseList",
      "outputs": [
        {
          "internalType": "address",
          "name": "buyer",
          "type": "address"
        },
        {
          "internalType": "uint256",
          "name": "quantity",
          "type": "uint256"
        },
        {
          "internalType": "bytes32",
          "name": "extraData",
          "type": "bytes32"
        }
      ],
      "stateMutability": "view",
      "type": "function",
      "constant": true
    },
    {
      "inputs": [
        {
          "internalType": "address",
          "name": "owner",
          "type": "address"
        }
      ],
      "name": "removeOwner",
      "outputs": [],
      "stateMutability": "nonpayable",
      "type": "function"
    },
    {
      "inputs": [
        {
          "internalType": "address",
          "name": "existingReader",
          "type": "address"
        }
      ],
      "name": "removerReader",
      "outputs": [],
      "stateMutability": "nonpayable",
      "type": "function"
    },
    {
      "inputs": [
        {
          "internalType": "address",
          "name": "existingWriter",
          "type": "address"
        }
      ],
      "name": "removerWriter",
      "outputs": [],
      "stateMutability": "nonpayable",
      "type": "function"
    },
    {
      "inputs": [],
      "name": "renounceOwnership",
      "outputs": [],
      "stateMutability": "nonpayable",
      "type": "function"
    },
    {
      "inputs": [
        {
          "internalType": "address",
          "name": "configAddr",
          "type": "address"
        }
      ],
      "name": "setExternalSmartContractConfig",
      "outputs": [],
      "stateMutability": "nonpayable",
      "type": "function"
    },
    {
      "inputs": [
        {
          "internalType": "address",
          "name": "dest",
          "type": "address"
        },
        {
          "internalType": "string",
          "name": "assetName",
          "type": "string"
        },
        {
          "internalType": "uint256",
          "name": "amount",
          "type": "uint256"
        }
      ],
      "name": "transfer",
      "outputs": [],
      "stateMutability": "nonpayable",
      "type": "function"
    },
    {
      "inputs": [
        {
          "internalType": "uint256",
          "name": "productId",
          "type": "uint256"
        },
        {
          "internalType": "uint256",
          "name": "quantity",
          "type": "uint256"
        }
      ],
      "name": "addStock",
      "outputs": [],
      "stateMutability": "nonpayable",
      "type": "function"
    },
    {
      "inputs": [
        {
          "internalType": "uint256",
          "name": "productId",
          "type": "uint256"
        },
        {
          "internalType": "uint256",
          "name": "quantity",
          "type": "uint256"
        },
        {
          "internalType": "uint256",
          "name": "price",
          "type": "uint256"
        },
        {
          "internalType": "string",
          "name": "productName",
          "type": "string"
        }
      ],
      "name": "updateProduct",
      "outputs": [],
      "stateMutability": "nonpayable",
      "type": "function"
    },
    {
      "inputs": [
        {
          "internalType": "uint256",
          "name": "productId",
          "type": "uint256"
        }
      ],
      "name": "offShelfProduct",
      "outputs": [],
      "stateMutability": "nonpayable",
      "type": "function"
    },
    {
      "inputs": [],
      "name": "getProductList",
      "outputs": [
        {
          "components": [
            {
              "internalType": "uint256",
              "name": "productId",
              "type": "uint256"
            },
            {
              "internalType": "string",
              "name": "name",
              "type": "string"
            },
            {
              "internalType": "uint256",
              "name": "price",
              "type": "uint256"
            },
            {
              "internalType": "bool",
              "name": "onShelf",
              "type": "bool"
            }
          ],
          "internalType": "struct DAppStockSample.ProductInfo[]",
          "name": "",
          "type": "tuple[]"
        }
      ],
      "stateMutability": "view",
      "type": "function",
      "constant": true
    },
    {
      "inputs": [
        {
          "internalType": "uint256",
          "name": "productId",
          "type": "uint256"
        }
      ],
      "name": "getProductStock",
      "outputs": [
        {
          "internalType": "uint256",
          "name": "",
          "type": "uint256"
        }
      ],
      "stateMutability": "view",
      "type": "function",
      "constant": true
    },
    {
      "inputs": [
        {
          "internalType": "uint256",
          "name": "productId",
          "type": "uint256"
        }
      ],
      "name": "isProductOnShelf",
      "outputs": [
        {
          "internalType": "bool",
          "name": "",
          "type": "bool"
        }
      ],
      "stateMutability": "view",
      "type": "function",
      "constant": true
    },
    {
      "inputs": [
        {
          "internalType": "uint256",
          "name": "productId",
          "type": "uint256"
        }
      ],
      "name": "getPurchaseList",
      "outputs": [
        {
          "components": [
            {
              "internalType": "address",
              "name": "buyer",
              "type": "address"
            },
            {
              "internalType": "uint256",
              "name": "quantity",
              "type": "uint256"
            },
            {
              "internalType": "bytes32",
              "name": "extraData",
              "type": "bytes32"
            }
          ],
          "internalType": "struct DAppStockSample.PurchaseInfo[]",
          "name": "",
          "type": "tuple[]"
        }
      ],
      "stateMutability": "view",
      "type": "function",
      "constant": true
    }
  ],
  "bytecode": "0x608060405260006100176001600160e01b036100ab16565b6001600160a01b0381166000818152600160208190526040808320805460ff191683179055825491820183558280527f290decd9548b62a8d60345a988386fc84ba6bc95484008f6362f93160ef3e56390910180546001600160a01b031916841790555192935090917f8be0079c531659141344cd1fd0a4f28419497f9722a3daafe3b4186f6b6457e0908290a3506100af565b3390565b61229c806100be6000396000f3fe608060405234801561001057600080fd5b50600436106101da5760003560e01c806379502c5511610104578063afd8b1d1116100a2578063da2824a811610071578063da2824a814610403578063ddc6f5f614610416578063ef18374a14610429578063fff3a01b14610431576101da565b8063afd8b1d1146103b7578063d256122b146103ca578063d343842d146103dd578063d7f0719d146103f0576101da565b806383919aa9116100de57806383919aa91461038157806385aaed4e146103945780639ac886cf1461039c578063a0e67e2b146103af576101da565b806379502c55146103465780637edd19a21461035b5780638145d1261461036e576101da565b806334d2c0ad1161017c5780635eb8cec71161014b5780635eb8cec7146102e95780636ccc29fd1461030b5780637065cb481461032b578063715018a61461033e576101da565b806334d2c0ad146102895780633a1abfe71461029e5780633b9a7aec146102b3578063528c87d2146102c6576101da565b80631bcfcf33116101b85780631bcfcf33146102305780632b29ba23146102435780632f54bf6e146102635780633135b56014610276576101da565b80630ab664c3146101df578063173825d91461020857806319afa4a61461021d575b600080fd5b6101f26101ed366004611c69565b610444565b6040516101ff91906121b8565b60405180910390f35b61021b610216366004611b40565b610456565b005b61021b61022b366004611ca2565b610608565b6101f261023e366004611c69565b6107a2565b610256610251366004611b40565b6107b4565b6040516101ff9190611ec5565b610256610271366004611b40565b6107d2565b610256610284366004611c69565b6107f0565b610291610808565b6040516101ff9190611dd9565b6102a6610933565b6040516101ff9190611d8c565b6101f26102c1366004611c69565b610995565b6102d96102d4366004611c69565b6109a7565b6040516101ff94939291906121ed565b6102fc6102f7366004611c81565b610a80565b6040516101ff93929190611d6b565b61031e610319366004611c69565b610ac9565b6040516101ff9190611e63565b61021b610339366004611b40565b610b5e565b61021b610c7b565b61034e610dd9565b6040516101ff9190611ed0565b61021b610369366004611c81565b610de8565b61021b61037c366004611b40565b610e73565b6101f261038f366004611c69565b611032565b6102a6611044565b61021b6103aa366004611b40565b6110a4565b6102a6611114565b61021b6103c5366004611b40565b611174565b61021b6103d8366004611bd6565b61128a565b61021b6103eb366004611c69565b6112e8565b6102d96103fe366004611c69565b611351565b61021b610411366004611b40565b6113c3565b61021b610424366004611b40565b6114d9565b6101f2611698565b61021b61043f366004611b7f565b61169e565b60096020526000908152604090205481565b6000610460611847565b6001600160a01b03811660009081526001602081905260409091205491925060ff9091161515146104ac5760405162461bcd60e51b81526004016104a390611fe8565b60405180910390fd5b6001600160a01b038216600090815260016020526040902054829060ff166104d357600080fd5b6001600160a01b0383166000908152600160205260408120805460ff191690558054905b818110156105a057846001600160a01b03166000828154811061051657fe5b6000918252602090912001546001600160a01b03161415610598576000600183038154811061054157fe5b600091825260208220015481546001600160a01b0390911691908390811061056557fe5b9060005260206000200160006101000a8154816001600160a01b0302191690836001600160a01b031602179055506105a0565b6001016104f7565b5060008054806105ac57fe5b600082815260208120820160001990810180546001600160a01b03191690559091019091556040516001600160a01b038616917f58619076adf5bb0943d100ef88d52d7c3fd691b19d3a9071b555b651fbf418da91a250505050565b6000610612611847565b6001600160a01b03811660009081526001602081905260409091205491925060ff9091161515146106555760405162461bcd60e51b81526004016104a390611fe8565b61065e856107f0565b61079157604080516080810182528681526020808201858152928201869052600160608301819052600a80549182018155600052825160049091027fc65a7bb8d6351c1cf70c95a316cc6a92839c986682d98bc35f958f4883f9d2a8810191825593518051939491936106fa937fc65a7bb8d6351c1cf70c95a316cc6a92839c986682d98bc35f958f4883f9d2a9909301929190910190611a2a565b5060408281015160028301556060928301516003909201805460ff19169215159290921790915580516080810182528781526020808201868152828401889052600194830185905260008a8152600b8352939093208251815592518051929461076b93908501929190910190611a2a565b50604082015160028201556060909101516003909101805460ff19169115159190911790555b61079b8585610de8565b5050505050565b60076020526000908152604090205481565b6001600160a01b031660009081526005602052604090205460ff1690565b6001600160a01b031660009081526001602052604090205460ff1690565b6000908152600b602052604090206003015460ff1690565b6060600a805480602002602001604051908101604052809291908181526020016000905b82821015610929578382906000526020600020906004020160405180608001604052908160008201548152602001600182018054600181600116156101000203166002900480601f0160208091040260200160405190810160405280929190818152602001828054600181600116156101000203166002900480156108f25780601f106108c7576101008083540402835291602001916108f2565b820191906000526020600020905b8154815290600101906020018083116108d557829003601f168201915b5050509183525050600282015460208083019190915260039092015460ff161515604090910152908252600192909201910161082c565b5050505090505b90565b6060600480548060200260200160405190810160405280929190818152602001828054801561098b57602002820191906000526020600020905b81546001600160a01b0316815260019091019060200180831161096d575b5050505050905090565b60009081526007602052604090205490565b600a81815481106109b457fe5b9060005260206000209060040201600091509050806000015490806001018054600181600116156101000203166002900480601f016020809104026020016040519081016040528092919081815260200182805460018160011615610100020316600290048015610a665780601f10610a3b57610100808354040283529160200191610a66565b820191906000526020600020905b815481529060010190602001808311610a4957829003601f168201915b50505050600283015460039093015491929160ff16905084565b600c6020528160005260406000208181548110610a9957fe5b60009182526020909120600390910201805460018201546002909201546001600160a01b03909116935090915083565b6060600c6000838152602001908152602001600020805480602002602001604051908101604052809291908181526020016000905b82821015610b53576000848152602090819020604080516060810182526003860290920180546001600160a01b0316835260018082015484860152600290910154918301919091529083529092019101610afe565b505050509050919050565b6000610b68611847565b6001600160a01b03811660009081526001602081905260409091205491925060ff909116151514610bab5760405162461bcd60e51b81526004016104a390611fe8565b6001600160a01b038216600090815260016020819052604090912054839160ff90911615151415610bee5760405162461bcd60e51b81526004016104a39061212d565b6001600160a01b0383166000818152600160208190526040808320805460ff191683179055825491820183558280527f290decd9548b62a8d60345a988386fc84ba6bc95484008f6362f93160ef3e56390910180546001600160a01b03191684179055517f994a936646fe87ffe4f1e469d3d6aa417d6b855598397f323de5b449f765f0c39190a2505050565b6000610c85611847565b6001600160a01b03811660009081526001602081905260409091205491925060ff909116151514610cc85760405162461bcd60e51b81526004016104a390611fe8565b6000610cd2611847565b6001600160a01b0381166000908152600160205260408120805460ff191690559091505b60005460001901811015610da757816001600160a01b031660008281548110610d1b57fe5b6000918252602090912001546001600160a01b03161415610d9f57600080546000198101908110610d4857fe5b600091825260208220015481546001600160a01b03909116919083908110610d6c57fe5b9060005260206000200160006101000a8154816001600160a01b0302191690836001600160a01b03160217905550610da7565b600101610cf6565b506000805480610db357fe5b600082815260209020810160001990810180546001600160a01b03191690550190555050565b6006546001600160a01b031681565b6000610df2611847565b6001600160a01b03811660009081526001602081905260409091205491925060ff909116151514610e355760405162461bcd60e51b81526004016104a390611fe8565b610e3e836107f0565b610e5a5760405162461bcd60e51b81526004016104a39061202f565b5060009182526007602052604090912080549091019055565b6000610e7d611847565b6001600160a01b03811660009081526001602081905260409091205491925060ff909116151514610ec05760405162461bcd60e51b81526004016104a390611fe8565b6001600160a01b038216600090815260056020526040902054829060ff16610efa5760405162461bcd60e51b81526004016104a390612164565b6001600160a01b0383166000908152600560205260408120805460ff19169055600454905b81811015610fca57846001600160a01b031660048281548110610f3e57fe5b6000918252602090912001546001600160a01b03161415610fc25760046001830381548110610f6957fe5b600091825260209091200154600480546001600160a01b039092169183908110610f8f57fe5b9060005260206000200160006101000a8154816001600160a01b0302191690836001600160a01b03160217905550610fca565b600101610f1f565b506004805480610fd657fe5b600082815260208120820160001990810180546001600160a01b03191690559091019091556040516001600160a01b038616917f86e5bbceda94081c32220d685f37cc4e3ea7bb0be2dfbf0cb703579505a5390e91a250505050565b60086020526000908152604090205481565b6060600280548060200260200160405190810160405280929190818152602001828054801561098b576020028201919060005260206000209081546001600160a01b0316815260019091019060200180831161096d575050505050905090565b60006110ae611847565b6001600160a01b03811660009081526001602081905260409091205491925060ff9091161515146110f15760405162461bcd60e51b81526004016104a390611fe8565b50600680546001600160a01b0319166001600160a01b0392909216919091179055565b6060600080548060200260200160405190810160405280929190818152602001828054801561098b576020028201919060005260206000209081546001600160a01b0316815260019091019060200180831161096d575050505050905090565b600061117e611847565b6001600160a01b03811660009081526001602081905260409091205491925060ff9091161515146111c15760405162461bcd60e51b81526004016104a390611fe8565b6001600160a01b038216600090815260036020526040902054829060ff16156111fc5760405162461bcd60e51b81526004016104a390611ef7565b6001600160a01b038316600081815260036020526040808220805460ff1916600190811790915560028054918201815583527f405787fa12a823e0f2b7631cc41b3ba8828b3321ca811111fa75cd3aa3bb5ace0180546001600160a01b03191684179055517fb7724d890d2888af5a3fc456edb667e2c82c4441449ebcac301c618759e4f86d9190a2505050565b61129886868686868661184b565b856001600160a01b0316857fcbb758ad520c21004f588eefe8b83919091c0ab685693da491a675a79e91c3fc868686866040516112d894939291906121c1565b60405180910390a3505050505050565b60006112f2611847565b6001600160a01b03811660009081526001602081905260409091205491925060ff9091161515146113355760405162461bcd60e51b81526004016104a390611fe8565b506000908152600b60205260409020600301805460ff19169055565b600b602090815260009182526040918290208054600180830180548651600293821615610100026000190190911692909204601f810186900486028301860190965285825291949293909290830182828015610a665780601f10610a3b57610100808354040283529160200191610a66565b60006113cd611847565b6001600160a01b03811660009081526001602081905260409091205491925060ff9091161515146114105760405162461bcd60e51b81526004016104a390611fe8565b6001600160a01b038216600090815260056020526040902054829060ff161561144b5760405162461bcd60e51b81526004016104a390611f26565b6001600160a01b038316600081815260056020526040808220805460ff1916600190811790915560048054918201815583527f8a35acfbc15ff81a39ae7d344fd709f28e8600b4aa8c65c6b64bfe7fe36bd19b0180546001600160a01b03191684179055517f6ff3aa2ea7b53070f6d9d07a445d338d89e8edef44250ffa8be19f53910d4a2e9190a2505050565b60006114e3611847565b6001600160a01b03811660009081526001602081905260409091205491925060ff9091161515146115265760405162461bcd60e51b81526004016104a390611fe8565b6001600160a01b038216600090815260036020526040902054829060ff166115605760405162461bcd60e51b81526004016104a39061218e565b6001600160a01b0383166000908152600360205260408120805460ff19169055600254905b8181101561163057846001600160a01b0316600282815481106115a457fe5b6000918252602090912001546001600160a01b0316141561162857600260018303815481106115cf57fe5b600091825260209091200154600280546001600160a01b0390921691839081106115f557fe5b9060005260206000200160006101000a8154816001600160a01b0302191690836001600160a01b03160217905550611630565b600101611585565b50600280548061163c57fe5b600082815260208120820160001990810180546001600160a01b03191690559091019091556040516001600160a01b038616917fe933431644458f1217f9e93d3e000e03c9bbbe55761046d0985c2e4d157bcbaa91a250505050565b60005490565b60006116a8611847565b6001600160a01b03811660009081526001602081905260409091205491925060ff9091161515146116eb5760405162461bcd60e51b81526004016104a390611fe8565b6006546001600160a01b03166117135760405162461bcd60e51b81526004016104a3906120b8565b6006546040516303d0a60f60e41b81526000916001600160a01b031690633d0a60f090611744908790600401611ee4565b60206040518083038186803b15801561175c57600080fd5b505afa158015611770573d6000803e3d6000fd5b505050506040513d601f19601f820116820180604052506117949190810190611b63565b90506001600160a01b0381166117bc5760405162461bcd60e51b81526004016104a39061208c565b60405163a9059cbb60e01b815281906001600160a01b0382169063a9059cbb906117ec9089908890600401611d52565b602060405180830381600087803b15801561180657600080fd5b505af115801561181a573d6000803e3d6000fd5b505050506040513d601f19601f8201168201806040525061183e9190810190611c49565b50505050505050565b3390565b611854336107d2565b15801561187157503360009081526005602052604090205460ff16155b1561188e5760405162461bcd60e51b81526004016104a390611fba565b60405160200161189d90611d42565b60405160208183030381529060405280519060200120836040516020016118c49190611d26565b60405160208183030381529060405280519060200120146118f75760405162461bcd60e51b81526004016104a3906120fe565b6000858152600b602052604090206003015460ff166119285760405162461bcd60e51b81526004016104a390611f83565b6000858152600b60205260409020600201548402821461195a5760405162461bcd60e51b81526004016104a390611f55565b6000858152600760205260409020548411156119885760405162461bcd60e51b81526004016104a390612066565b600085815260076020908152604080832080548890039055600c825280832081516060810183526001600160a01b039a8b1681528084018981528184019687528254600181810185559387528587209251600390910290920180546001600160a01b03191692909c16919091178b5551908a01559251600290980197909755948552600886528085208054909401909355600990945250902080549091019055565b828054600181600116156101000203166002900490600052602060002090601f016020900481019282601f10611a6b57805160ff1916838001178555611a98565b82800160010185558215611a98579182015b82811115611a98578251825591602001919060010190611a7d565b50611aa4929150611aa8565b5090565b61093091905b80821115611aa45760008155600101611aae565b600082601f830112611ad2578081fd5b813567ffffffffffffffff80821115611ae9578283fd5b604051601f8301601f191681016020018281118282101715611b09578485fd5b604052828152925082848301602001861015611b2457600080fd5b8260208601602083013760006020848301015250505092915050565b600060208284031215611b51578081fd5b8135611b5c8161224e565b9392505050565b600060208284031215611b74578081fd5b8151611b5c8161224e565b600080600060608486031215611b93578182fd5b8335611b9e8161224e565b9250602084013567ffffffffffffffff811115611bb9578283fd5b611bc586828701611ac2565b925050604084013590509250925092565b60008060008060008060c08789031215611bee578182fd5b8635611bf98161224e565b95506020870135945060408701359350606087013567ffffffffffffffff811115611c22578283fd5b611c2e89828a01611ac2565b9350506080870135915060a087013590509295509295509295565b600060208284031215611c5a578081fd5b81518015158114611b5c578182fd5b600060208284031215611c7a578081fd5b5035919050565b60008060408385031215611c93578182fd5b50508035926020909101359150565b60008060008060808587031215611cb7578384fd5b843593506020850135925060408501359150606085013567ffffffffffffffff811115611ce2578182fd5b611cee87828801611ac2565b91505092959194509250565b60008151808452611d1281602086016020860161221e565b601f01601f19169290920160200192915050565b60008251611d3881846020870161221e565b9190910192915050565b631554d11560e21b815260040190565b6001600160a01b03929092168252602082015260400190565b6001600160a01b039390931683526020830191909152604082015260600190565b6020808252825182820181905260009190848201906040850190845b81811015611dcd5783516001600160a01b031683529284019291840191600101611da8565b50909695505050505050565b60208082528251828201819052600091906040908185019080840286018301878501865b83811015611e5557603f19898403018552815160808151855288820151818a870152611e2b82870182611cfa565b838a0151878b01526060938401511515939096019290925250509386019390860190600101611dfd565b509098975050505050505050565b602080825282518282018190526000919060409081850190868401855b82811015611eb857815180516001600160a01b0316855286810151878601528501518585015260609093019290850190600101611e80565b5091979650505050505050565b901515815260200190565b6001600160a01b0391909116815260200190565b600060208252611b5c6020830184611cfa565b60208082526015908201527452656164657220616c72656164792065786973747360581b604082015260600190565b60208082526015908201527457726974657220616c72656164792065786973747360581b604082015260600190565b602080825260149082015273125b9d985b1a59081d1bdd185b08185b5bdd5b9d60621b604082015260600190565b60208082526018908201527f50726f64756374206973206e6f7420617661696c61626c650000000000000000604082015260600190565b6020808252601490820152734f776e6572206f7220777269746572206f6e6c7960601b604082015260600190565b60208082526027908201527f4f776e61626c653a2063616c6c6572206973206e6f74206f6e65206f66207468604082015266329037bbb732b960c91b606082015260800190565b60208082526017908201527f50726f6475637420646f6573206e6f7420657869737473000000000000000000604082015260600190565b6020808252600c908201526b4f7574206f662073746f636b60a01b604082015260600190565b602080825260129082015271496e76616c6964206173736574206e616d6560701b604082015260600190565b60208082526026908201527f45787465726e616c536d617274436f6e7472616374436f6e666967206973206e6040820152651bdd081cd95d60d21b606082015260800190565b60208082526015908201527413db9b1e481554d115081a5cc81858d8d95c1d1959605a1b604082015260600190565b6020808252601b908201527f4164647265737320616c726561647920697320616e206f776e65720000000000604082015260600190565b60208082526010908201526f15dc9a5d195c881b9bdd08195e1a5cdd60821b604082015260600190565b60208082526010908201526f14995859195c881b9bdd08195e1a5cdd60821b604082015260600190565b90815260200190565b6000858252608060208301526121da6080830186611cfa565b6040830194909452506060015292915050565b6000858252608060208301526122066080830186611cfa565b60408301949094525090151560609091015292915050565b60005b83811015612239578181015183820152602001612221565b83811115612248576000848401525b50505050565b6001600160a01b038116811461226357600080fd5b5056fea26469706673582212202c984261bfbed73ac4c11ebae23e6acba70d7e9cd08bb300f9b055fb697d71f164736f6c63430006020033",
  "source": "pragma solidity >=0.6.0 <0.8.0;\npragma experimental ABIEncoderV2;\n\nimport \"./DAppStockBase.sol\";\n\ncontract DAppStockSample is DAppStockBase{\n\n    mapping (uint256 => uint256) public productStockList;\n    mapping(uint256 => uint256) public productSoldQuantityList;\n    mapping(uint256 => uint256) public productSoldAmountList;\n    ProductInfo[] public productList;\n    mapping (uint256 => ProductInfo) public productMap;\n\n    struct ProductInfo{\n        uint256 productId;\n        string name;\n        uint256 price;\n        bool onShelf;\n    }\n\n    struct PurchaseInfo{\n        address buyer;\n        uint256 quantity;\n        bytes32 extraData;\n    }\n\n    mapping (uint256 => PurchaseInfo[]) public purchaseList;\n\n    function purchaseImpl(address buyer, uint256 productId, uint256 quantity, string memory assetName, uint256 amount, bytes32 extraData) internal override onlyOwnerOrWriter{\n\n        require(keccak256(abi.encodePacked(assetName)) == keccak256(abi.encodePacked(\"USDT\")), \"Only USDT is accepted\");\n        require(productMap[productId].onShelf, \"Product is not available\");\n\n        require(productMap[productId].price * quantity == amount, \"Invalid total amount\");\n\n        require(productStockList[productId] >= quantity, \"Out of stock\");\n\n        uint256 updateStock = productStockList[productId] - quantity;\n        productStockList[productId] = updateStock;\n        \n        PurchaseInfo[] storage purchaseInfoList = purchaseList[productId];\n        purchaseInfoList.push(PurchaseInfo( {\n            buyer: buyer, \n            quantity: quantity,\n            extraData: extraData\n        }));\n\n        productSoldQuantityList[productId] = productSoldQuantityList[productId] + quantity;  \n        productSoldAmountList[productId] = productSoldAmountList[productId] + amount;  \n    }\n\n    function addStock(uint256 productId, uint256 quantity) public onlyOwner{\n        require(isProductOnShelf(productId), \"Product does not exists\");\n        productStockList[productId] = productStockList[productId] + quantity;\n\n    }\n\n    function updateProduct(uint256 productId, uint256 quantity, uint256 price, string memory productName) public onlyOwner{\n        if (!isProductOnShelf(productId)) {\n            productList.push(ProductInfo({productId: productId, name: productName, price: price, onShelf: true}));\n            productMap[productId] = ProductInfo({productId: productId, name: productName, price: price, onShelf: true});\n        }\n        addStock(productId, quantity);\n    }\n\n    function offShelfProduct(uint256 productId) public onlyOwner{\n        productMap[productId].onShelf = false;\n    }\n\n    function getProductList() public view returns (ProductInfo[] memory){\n        return productList;\n    }\n\n    function getProductStock(uint256 productId) public view returns (uint256){\n        return productStockList[productId];\n    }\n\n    function isProductOnShelf(uint256 productId) public view returns (bool){\n        return productMap[productId].onShelf;\n    }\n\n    function getPurchaseList(uint256 productId) public view returns (PurchaseInfo[] memory){\n        return purchaseList[productId];\n    }\n    \n}\n",
  "sourcePath": "/Users/duncanto/Documents/WorkingSet2/src/eurus-backend/smartcontract/contracts/dapp/DAppStockSample.sol",
  "compiler": {
    "name": "solc",
    "version": "0.6.2+commit.bacdbe57.Emscripten.clang"
  },
  "schemaVersion": "3.4.1",
  "updatedAt": "2021-08-11T06:39:27.879Z",
  "networkType": "ethereum",
  "devdoc": {
    "methods": {
      "renounceOwnership()": {
        "details": "Leaves the contract without owner. It will not be possible to call `onlyOwner` functions anymore. Can only be called by the current owner.     * NOTE: Renouncing ownership will leave the contract without an owner, thereby removing any functionality that is only available to the owner."
      }
    }
  },
  "userdoc": {
    "methods": {}
  }
}